:020000040800F2
:1000000048040020AD010008E90A0008790600084C
:10001000AD0800081D0300088D1400080000000052
:1000200000000000000000000000000009100008AF
:100030008D03000800000000DD0D0008F510000829
:10004000C7010008C7010008C7010008C701000870
:10005000C7010008C7010008C7010008C701000860
:1000600025040008C7010008C7010008C7010008EF
:10007000C7010008C7010008C7010008C701000840
:10008000C7010008C7010008D102000800000000F5
:100090000000000000000000000000002D05000826
:1000A000C7010008C7010008C7010008C701000810
:1000B000C701000861110008A9110008C701000864
:1000C000C7010008C7010008C7010008C7010008F0
:1000D000C7010008C7010008C701000800000000B0
:1000E000C7010008C7010008C701000800000000A0
:1000F000000000000000000000000000C701000830
:1001000000000000C7010008C7010008C70100087F
:1001100000000000000000000000000000000000DF
:10012000C7010008C7010008C7010008C70100088F
:10013000C7010008000000000000000000000000EF
:10014000000000000000000000000000C7010008DF
:10015000C7010008C7010008C7010008C70100085F
:10016000C7010008C70100080000000000000000EF
:10017000000000000000000000000000000000007F
:1001800000000000C701000800000000000000009F
:10019000C7010008DFF810D000F04CF80048004715
:1001A00039190008AFF30080480400200648804752
:1001B00006480047FEE7FEE7FEE7FEE7FEE7FEE74C
:1001C000FEE7FEE7FEE7FEE7F910000895010008EC
:1001D0002DE9F05F0546002092469B46884606467C
:1001E000814640241BE0284641464746224600F00F
:1001F00042F853465A46C01A914110D31146184648
:10020000224600F029F82D1A67EB01084F462246D6
:100210000120002100F020F817EB00094E41201EBC
:10022000A4F10104DFDC484631462A464346BDE8D6
:10023000F09F0000064C074D06E0E06840F0010327
:1002400094E8070098471034AC42F6D3FFF7A6FFB6
:10025000F4190008141A0008202A04DB203A00FAD6
:1002600002F1002070479140C2F1200320FA03F30D
:10027000194390407047202A04DB203A21FA02F00B
:100280000021704721FA02F3D040C2F120029140D0
:1002900008431946704700220A12D343036070478F
:1002A0000146C86C80B2704770B50246002000233A
:1002B00000240B12556801268E4005EA06041568D5
:1002C0001D4015B10CB1012000E0002070BD000000
:1002D00010B540F205210E48FFF7E6FFB8B140F235
:1002E00005210B48FFF7D7FF0948FFF7D9FF094958
:1002F000094A127821F8120007480078401C064984
:100300000870084600780A2801DB0020087010BD3C
:1003100000200140340000202600002000BFFEE73E
:100320002DE9F0410746884615460421052000F0D6
:1003300089FA0021012000F09FFA80210A2000F0B4
:100340008EFA002405E0395D092000F095FA601C62
:10035000C4B24445F7DB0321012000F08DFAFF24ED
:1003600000BF052000F052FA0646601EC4B21CB160
:1003700006F004000028F4D0222000F047FA28708C
:10038000212000F043FA6870BDE8F081704700005A
:10039000104A12684FF47A73B2FBF3F24243D20868
:1003A0004FF0E0235A6100229A6101221A611A4635
:1003B000116902E04FF0E022116901F001021AB167
:1003C00001F48032002AF5D000224FF0E0231A61B8
:1003D0009A61704700000020104A1268104BB2FB6F
:1003E000F3F24243D2084FF0E0235A6100229A61AF
:1003F00001221A611A46116902E04FF0E0221169E8
:1004000001F001021AB101F48032002AF5D0002275
:100410004FF0E0231A619A6170470000000000204D
:1004200040420F0010B5042000F0A2F800286FD061
:10043000042000F097F8374800F0E9FE84B200216C
:10044000344800F0D8FE0021324800F0F4FE0121CB
:10045000304800F0D0FE40F26C7084420CDA40F27A
:10046000A460844208DD01202B49087000202B493C
:1004700008702B49087030E040F2AA50844214DA28
:1004800040F2E240844210DD2348007828B324483B
:1004900000784010224908700846007808701F480C
:1004A0000078401C1D49087017E0B4F57A7F14DA13
:1004B000B4F5487F11DD1848007870B1184800780D
:1004C0004010174908700846007840F08000087016
:1004D00012480078401C114908701048007808281C
:1004E00015DB00210B4800F086FE0021094800F0D2
:1004F000A2FE0B4800780B490870002008490870DC
:10050000064908700449087001200749087000BFB7
:1005100010BD0000000C00402C0000202A0000202C
:100520002B000020290000202800002010B52020EA
:1005300000F01EF830B1202000F014F80121074827
:1005400000F059FE402000F013F830B1402000F0D8
:1005500009F80121024800F04EFE10BD00040040E1
:10056000000800400149086070470000143C014049
:1005700001460020034A12680A400AB1012000E047
:1005800000207047143C0140F0B50A4600210023CA
:10059000002400BF3DE0012505FA01F3156805EAD6
:1005A00003049C4234D105684F000326BE40B54386
:1005B000056015794E00B54006683543056015792C
:1005C000012D02D01579022D16D185684F00032622
:1005D000BE40B543856055794E00B54086683543C9
:1005E0008560456801268E40B5434560456896792B
:1005F0008E40B6B235434560C5684F000326BE4005
:10060000B543C560D5794E00B540C6683543C56071
:10061000491C1029BFD3F0BDF0B5002300244D07BD
:10062000ED0E02FA05F3CE1000F1200555F8265024
:100630004E07F70E0F26BE40B543CF1000F120063F
:1006400046F82750CE1000F1200555F8265045EA0F
:100650000304CE1000F1200545F82640F0BD024607
:10066000002013690B400BB1012000E0002070470F
:10067000418370470183704700BFFEE710B5044611
:10068000412C25D10821084600F0DCF83D2111203D
:1006900000F0F2F88621172000F0EEF87F212620E6
:1006A00000F0EAF81E212D2000F0E6F800212C20B1
:1006B00000F0E2F88D212A2000F0DEF83E212B2008
:1006C00000F0DAF80A20FFF787FE00F01FFA01E0D9
:1006D000FF2010BD0020FCE72DE9FE4F06468846AE
:1006E00091469A46DDF830B0FE200290002001903D
:1006F00000900C2E06D00E2E09D112200190102051
:10070000009005E0772001903020009000E000BFCD
:1007100000BF019840F08001022000F0ADF8802178
:10072000042000F08FF80021012000F0A5F88021BE
:100730000A2000F094F8002505E018F805100920BB
:1007400000F09AF86D1C4D45F7D33146012000F0BA
:1007500093F80C2E03D180210D2000F080F84FF487
:100760007A7500BF042000F051F804466D1E35B1C3
:1007700004F0010018B9009820400028F2D0802130
:100780000D2000F05FF8002D35D0062000F03EF877
:1007900000F01B0068BB002002900198204000F090
:1007A000010008B1FF2002900C2E24D10A2000F095
:1007B0002DF804460C2000F029F800F007072FB1AF
:1007C000601E07EBC000ABF8000002E0E000ABF8F1
:1007D000000004B90124122C00DD1224002505E0DC
:1007E000092000F013F80AF805006D1CA542F7D3A4
:1007F00001E0FE20029080210C2000F030F8002162
:10080000012000F039F80298BDE8FE8F70B504466B
:100810007E2000EA440040F080054FF480510848F3
:10082000FFF726FF284600F09BFBFF2000F098FB17
:1008300006464FF480510248FFF71CFF304670BD5A
:100840000004024070B505460C462846FFF7DEFF5F
:10085000064626EA0401284600F00EF870BD70B581
:1008600005460C462846FFF7D1FF064646EA040136
:10087000284600F001F870BD70B504460D467E2094
:1008800000EA44064FF480510748FFF7F1FE304676
:1008900000F066FB284600F063FB4FF480510248ED
:1008A000FFF7E8FE70BD00000004024000BFFEE755
:1008B00010B500F01BF84FF480510A48FFF7DAFE3C
:1008C0004FF480510848FFF7D5FE00F00BFA00F016
:1008D00017F90A20FFF780FD00F018F94120FFF713
:1008E000CDFE10BD000002400004024000B587B0FC
:1008F0000121084600F090FA8020059001208DF833
:10090000180000208DF81A008DF81B0002208DF8C9
:10091000190005A95648FFF737FE0121022000F013
:100920007BFA4FF48050059001208DF818000020CC
:100930008DF81A008DF81B0002208DF8190005A90A
:100940004C48FFF721FE0121022000F065FA01204A
:10095000059000208DF8180002208DF81B00002063
:100960008DF8190005A94348FFF70EFE012102206A
:1009700000F052FA05220D213E48FFF74DFE4FF4DC
:100980000050059002208DF8180000208DF81A0004
:100990008DF81B0002208DF8190005A93548FFF7D6
:1009A000F3FD0121022000F037FA05220E21314823
:1009B000FFF732FE4FF48040059002208DF81800BA
:1009C00000208DF81A008DF81B0002208DF8190008
:1009D00005A92848FFF7D8FD0121022000F01CFAE4
:1009E00005220F212348FFF717FE4FF40040059022
:1009F00002208DF8180000208DF81A008DF81B00D9
:100A000002208DF8190005A91A48FFF7BDFD4FF423
:100A100080511848FFF72EFE0021174800F0BCFA5D
:100A20000121880300F008FA0020ADF800004FF41F
:100A30008270ADF802000020ADF80400ADF80E00A1
:100A4000ADF80600ADF808004FF40070ADF80A00EC
:100A50003820ADF80C000720ADF8100069460648B4
:100A600000F0B4FA0121044800F096FA07B000BD86
:100A70000000024000040240003800402DE9FC4123
:100A800005460E4690461F4601A9522000F0FEF88A
:100A90000446FCB9684600F046F80446D4B96846F6
:100AA00000F062F90446ACB9032000EB8500C1B246
:100AB0006B464246602000F06EF8044654B906EBDF
:100AC0008501C8B2394600F0B6F8044614B904A04E
:100AD00000F0DEFC00F096F804462046BDE8FC81FC
:100AE00052656164210A0000704700000249014319
:100AF000024A1160704700000000FA050CED00E0AA
:100B000010B503211420FFF79DFE10BD10B5142071
:100B1000FFF77CFE044604F0030018B903211420FB
:100B2000FFF79DFE10BDF0B587B0054600270821F0
:100B30000846FFF787FE00210D20FFF79DFE80216C
:100B40000E20FFF77FFE93208DF8040020208DF803
:100B5000050006A801AB022201A900900C20FFF7B6
:100B6000BBFD064686B9002407E001A8005D2855B4
:100B700001A8005D4740601CC4B2042CF5DB01A84D
:100B8000005DB84200D0FE2680210E20FFF767FEF0
:100B9000304607B0F0BD2DE9F04387B006460F465A
:100BA000904699468DF804608DF80570002406E0A3
:100BB00018F8041001AAA01C1154601CC4B2062C21
:100BC000F6DB002407E019F8041001AA04F108007C
:100BD0001154601CC4B2062CF5DB06A801AB0C2234
:100BE00001A900900E20FFF777FD05462DB90820DA
:100BF000FFF70CFE00F0080000B9FE25284607B0FC
:100C0000BDE8F08300B587B050208DF804000020C7
:100C10008DF805000DF10602022101A8FFF780FB07
:100C200006A801AB042201A900900C20FFF754FD97
:100C3000002007B000BDF0B587B005460E46302055
:100C40008DF804008DF805500DF10602022101A86F
:100C5000FFF766FB06A801AB042201A900900C2057
:100C6000FFF73AFD07466FB9BDF81800902809D183
:100C7000002404E001A8005D3055601CC4B2102CB3
:100C8000F8DB00E0FE27384607B0F0BD70B588B04D
:100C900005460C4608210846FFF7D4FD07210D2024
:100CA000FFF7EAFD03211420FFF7D9FD8DF8085066
:100CB00007A802AB012202A900900C20FFF70CFD4F
:100CC000064656B9BDF81C00102806D19DF808004C
:100CD00020709DF80900607000E0FE26F0B208B0B8
:100CE00070BD000010B580211E48FFF7C3FC0A202C
:100CF000FFF772FB80211B48FFF7BAFC0A20FFF7C1
:100D00006BFB80211748FFF7B5FC0A20FFF764FB57
:100D10000F210120FFF7B0FD00BF0120FFF776FD96
:100D200000F00F000028F8D10120FFF755FB3D210E
:100D30001120FFF7A1FD1E212D20FFF79DFD0021B1
:100D40002C20FFF799FD8D212A20FFF795FD3E21EC
:100D50002B20FFF791FD40211520FFF78DFD00208E
:100D600010BD00000000024070B588B00546932019
:100D70008DF8080070208DF8090000208DF80E0015
:100D800000240BE0295D02AAA01C11549DF80E005E
:100D9000295D48408DF80E00601CC4B2042CF1DBC4
:100DA0000DF10F02072102A8FFF7BAFA0821084641
:100DB000FFF748FD07A802AB092202A900900C200A
:100DC000FFF78AFC06462EB9BDF81C00182801D191
:100DD000002600E0FE26304608B070BD70470000D7
:100DE0000EB50121080400F037F80020ADF8080026
:100DF000ADF802004FF6FF7001905320ADF80000EF
:100E00006946044800F01AFA0121024800F0F3F99B
:100E10000EBD00000040014029B1064A126802439D
:100E2000044B1A6004E0034A12688243014B1A60C3
:100E3000704700003038024029B1064A1268024368
:100E4000044B1A6004E0034A12688243014B1A60A3
:100E5000704700004038024029B1064A1268024338
:100E6000044B1A6004E0034A12688243014B1A6083
:100E70007047000044380240F0B5002100220024F1
:100E8000022500260223324F3F6807F00C0121B1F2
:100E9000042905D0082937D105E02E4F076036E038
:100EA0002D4F076033E02A4F3F1F3F68C7F380563E
:100EB000274F3F1F3F6807F03F036EB1264FB7FB38
:100EC000F3F7DFF88CC0ACF1040CDCF800C0CCF315
:100ED000881C07FB0CF40CE01E4FB7FBF3F7DFF8A0
:100EE00070C0ACF1040CDCF800C0CCF3881C07FB2C
:100EF0000CF4174F3F1F3F68C7F301477F1C7D006D
:100F0000B4FBF5F7076002E0124F076000BF00BFB7
:100F10000F4F3F6807F0F0010909104F7A5C07682E
:100F2000D74047600A4F3F6807F4E051890A0B4FEA
:100F30007A5C4768D7408760054F3F6807F4604197
:100F4000490B064F7A5C4768D740C760F0BD000088
:100F5000083802400024F40000127A001400002037
:100F600010B5044600BF02210A4800F021F800280D
:100F7000F9D02146074800F027F800BF01210548B5
:100F800000F016F80028F9D0024800F01AF8C0B2B4
:100F900010BD00000038004021B1028842F040023C
:100FA000028004E002884FF6BF731A400280704747
:100FB0000246002013890B400BB1012000E0002005
:100FC00070470146888970478181704710B50022BB
:100FD000028802F441520B884C8823438C882343B7
:100FE000CC8823430C8923434C8923438C89234396
:100FF000CC8923431A430280838B4FF2FF74234032
:1010000083830B8A038210BD704700000CB500205B
:10101000019000903348006840F480303149086006
:1010200000BF3048006800F4003000900198401C78
:101030000190009818B90198B0F5A04FF1D1294856
:10104000006800F4003010B10120009001E00020A1
:1010500000900098012844D122484030006840F0B8
:1010600080502049403108601F48006840F44040EB
:101070001D4908601B48083000681A49083108609B
:101080000846006808600846006840F48050086020
:101090001648091F0860081F006840F08070091F8B
:1010A000086000BF0F48006800F000700028F9D009
:1010B00040F202700E4908600A480830006820F0CB
:1010C00003000849083108600846006840F0020043
:1010D000086000BF03480830006800F00C000828D2
:1010E000F8D10CBD003802400070004008544107A0
:1010F000003C02407047000010B51548006840F4FD
:101100007000134908601348006840F0010011495D
:10111000086000200F49083108600E4800680E4939
:1011200008400C4908600D48091D0860081F006848
:1011300020F48020091F0860002006490C31086057
:10114000FFF764FF4FF0006001498039086010BD6F
:1011500088ED00E000380240FFFFF6FE103000246A
:1011600010B501210C4800F055F898B101210A484A
:1011700000F03EF80021084800F03DF80021064844
:1011800000F059F820210548FFF769FA10B904A0CA
:1011900000F07EF910BD0000000400400000024095
:1011A0005265706169720A0010B501210C4800F0A7
:1011B00031F898B101210A4800F01AF800210848D6
:1011C00000F019F80021064800F035F840210548E4
:1011D000FFF745FA10B904A000F05AF910BD00005D
:1011E000000800400000024048656C700A000000E2
:1011F000CA430282704721B1028842F00102028094
:1012000004E002884FF6FE731A40028070470146E0
:10121000486A704730B50246002000230024158A32
:1012200005EA0103958905EA010413B10CB1012017
:1012300000E0002030BD41627047000000220288BB
:10124000184B98420ED0184B98420BD0B0F1804FFB
:1012500008D0164B984205D0154B984202D0154B3A
:10126000984204D14FF68F731A404B881A43124BA1
:10127000984207D0114B984204D04FF6FF431A40D2
:101280000B891A4302804B68C3620B880385054BA8
:10129000984202D0044B984201D18B7A03860123F5
:1012A00083827047000001400004014000040040B8
:1012B00000080040000C00400010004000140040F6
:1012C00000B587B001210846FFF7A6FD07220921D6
:1012D0002048FFF7A1F94FF40070059002208DF827
:1012E000180000208DF81A0001208DF81B00022044
:1012F0008DF8190005A91748FFF746F907220A21BA
:101300001448FFF789F94FF48060059002208DF8AA
:10131000180005A90F48FFF737F901211020FFF742
:101320009BFD4FF4165001900020ADF80800ADF879
:101330000A00ADF80C00ADF810000C20ADF80E005E
:1013400001A9054800F034F80121034800F016F81F
:1013500007B000BD000002400010014010B5044677
:1013600000BF8021044800F015F80028F9D021467C
:10137000014800F087F810BD0010014021B18289BA
:1013800042F40052828104E082894DF6FF731A40D4
:101390008281704702460020B1F5007F00D100BF76
:1013A00013880B400BB1012000E0002070470000C3
:1013B0002DE9FF4705460E460024A14600BFA04682
:1013C000B08900B100BF2C8A24F44054F088044353
:1013D0002C82AC8941F20C608443B0883189084387
:1013E000718908430443AC81AC8A24F44074B08909
:1013F0000443AC826846FFF73FFD2048854202D097
:101400001F48854202D1DDF80C9001E0DDF808901C
:10141000A88900F4004040B109EBC90000EB0910B5
:1014200031684900B0FBF1F707E009EBC90000EBB8
:10143000091031688900B0FBF1F76420B7FBF0F0C8
:1014400004012009642101FB1078A88900F4004000
:1014500040B1322000EBC800B0FBF1F000F0070013
:10146000044308E0322000EB08106421B0FBF1F0E7
:1014700000F00F0004432C81BDE8FF8700100140FD
:1014800000140140C1F308028280704700BFFEE7EC
:101490000FB4054B10B503A9044A029800F018F8E0
:1014A00010BC5DF814FB0000271900083000002074
:1014B00002E008C8121F08C1002AFAD1704770471D
:1014C000002001E001C1121F002AFBD1704700007B
:1014D0002DE9FF4F8DB00F460546002606E0252872
:1014E0000BD0DDE90F1290476D1C761C2878002880
:1014F000F5D111B03046BDE8F08F0024A246A146D8
:101500000122E94900E0044315F8013F203B02FABB
:1015100003F00842F7D128782A2810D06FF02F0264
:101520002878A0F13001092914D80AEB8A0102EBCE
:10153000410144F0020400EB010A6D1CF0E701CF09
:101540005FEA000A03D544F40054CAF1000A44F0EB
:1015500002046D1C28782E2817D115F8010F44F0CD
:1015600004042A280ED06FF02F022878A0F1300151
:1015700009290AD809EB890102EB410100EB0109B5
:101580006D1CF2E757F8049B6D1C28786C280FD06F
:1015900006DC4C2817D068280DD06A2814D104E046
:1015A000742810D07A280FD10DE044F400140AE01A
:1015B00044F4801401E044F440146978814202D17B
:1015C00004F580146D1C6D1C28786E281ED00CDC70
:1015D000632830D004DC00288BD0582811D19FE03C
:1015E000642867D069280CD164E073282DD004DC0E
:1015F0006F2872D0702804D194E075286ED07828B6
:101600006DD0DDE90F129047761C4BE1C4F3025018
:10161000022806D0032809D0042801CF09D006608B
:1016200040E101CFF117C0E900613BE101CF068045
:1016300038E1067036E117F8040B8DF80000002041
:101640008DF80100EB46012003E057F804BB4FF092
:10165000FF3061074FF0000102D40DE008F10101F5
:10166000884649450FDA8045F8DB1BF80810002949
:10167000F4D108E008F1010188468142FADB1BF849
:1016800008100029F6D1DDE90F23AAEB08008146F6
:10169000214600F031F9304400EB080604E0DDE9B2
:1016A0000F121BF8010B9047B8F10108F7D2214641
:1016B0004846F2E00A21C4F302524FF0000B0891B1
:1016C000022A04D001CFC117032A09D00AE0FF1D66
:1016D00027F00707F7E8020108E02CE01EE01FE012
:1016E00000B2C117042A01D140B2C117021E71F124
:1016F000000206DA0023D0EB030063EB01012D2288
:1017000002E0220504D52B228DF82420012203E0DB
:10171000E20701D02022F7E7904653E00A210BE0D0
:10172000102109E010214FF0000B44F004044FF0A9
:101730000809089103E008214FF0000B0891C4F359
:101740000252022A04D001CF0021032A06D006E06B
:10175000FF1D27F00707F7E8020103E080B2042A23
:1017600000D1C0B24FF0000822072BD52A78702A8A
:1017700007D0DDF820C08CF0100C5CEA0B0C05D013
:101780000EE040228DF82420012208E050EA0103F7
:1017900006D030238DF824308DF825200222904683
:1017A000089B83F0080353EA0B030BD150EA0102B4
:1017B00001D1620706D530228DF824204FF00108B0
:1017C000A9F101092A78582A04D038A20B9208AA54
:1017D0000A920BE03AA2F9E75B46089AFEF7F8FC9A
:1017E0000B9B9B5C0A9A521E0A92137050EA0102EC
:1017F000F2D10A98ADEB000000F1200B600702D592
:1018000024F4803401E04FF00109D94502DDA9EB51
:101810000B0000E0002000EB0B0141440890AAEB14
:10182000010AE00306D4DDE90F232146504600F00B
:1018300063F806444FF0000908E009A911F809000F
:10184000DDE90F12904709F10109761CC145F4DB6F
:10185000E0030CD5DDE90F232146504600F04CF89B
:10186000064404E0DDE90F1230209047761C089909
:10187000481E08900029F5DC08E00A980A990078CB
:10188000491C0A91DDE90F129047761CBBF100015B
:10189000ABF1010BF1DC21465046DDE90F2300F0EE
:1018A00019F806446D1C21E6092801003031323355
:1018B000343536373839616263646566000000008C
:1018C0003031323334353637383941424344454676
:1018D000000000002DE9F041044600251E46174691
:1018E000880404D405E039462020B0476D1C641EEE
:1018F000F9D52846BDE8F0812DE9F04104460025E0
:101900001E469046C80301D5302700E020278804F2
:1019100004D505E041463846B0476D1C641EF9D534
:101920002846BDE8F08170B504460D46E0B2FFF7E9
:1019300015FD204670BD00008AB04FF47A70FEF7A6
:101940004BFD4FF4A060FFF7D1F8FFF7B9FCFEF7AD
:10195000AFFFFFF745FA0120FEF71AFD19A0FFF7C8
:1019600097FD2DE0002003E0002106AA1154401C41
:101970001028F9DB002003E0811C02AA1154401C4E
:101980001028F9DB15A103C9CDE9000106AB6A46B1
:1019900000210120FFF772F8002405E006A8015D90
:1019A00010A0FFF775FD641C0F2CF7DB9DF82710C6
:1019B0000EA0FFF76DFD4FF47A70FEF7E9FC00BF53
:1019C000D0E70000496E697469616C697A652066C8
:1019D000696E69736865640A00000000FFFFFFFF1D
:1019E000FFFF00002530325820000000253032581B
:1019F0000A000000141A0008000000203400000053
:101A0000B0140008481A0008340000201404000034
:101A1000C014000800BD0105000000000000000027
:101A20000102030406070809000000000102030484
:101A3000010203040607080900080008000000006E
:081A400000000000000000009E
:040000050800019559
:00000001FF
