:020000040800F2
:1000000098070020AD010008AD260008431A00083B
:100010002D2300083F0C000877480008000000006E
:10002000000000000000000000000000A9310008EE
:10003000F912000800000000B92A00080D4000086D
:10004000C7010008C7010008C7010008C701000870
:10005000C7010008C7010008C7010008C701000860
:1000600095160008C7010008C7010008C70100086D
:10007000C7010008C7010008C7010008C701000840
:10008000C7010008C70100080D0A000800000000B1
:100090000000000000000000000000009D170008A4
:1000A000C7010008C7010008C7010008C701000810
:1000B000C701000805410008C5410008C701000844
:1000C000C7010008C7010008C7010008C7010008F0
:1000D000C7010008FD450008C70100080000000036
:1000E000C7010008C7010008C701000800000000A0
:1000F000000000000000000000000000C701000830
:1001000000000000C7010008C7010008C70100087F
:1001100000000000000000000000000000000000DF
:10012000C7010008C7010008C7010008C70100088F
:10013000C7010008000000000000000000000000EF
:10014000000000000000000000000000C7010008DF
:1001500051110008C701000881110008C7010008FB
:10016000C7010008C70100080000000000000000EF
:10017000000000000000000000000000000000007F
:1001800000000000C701000800000000000000009F
:10019000C7010008DFF810D000F0AAFB00480047B4
:1001A000E9520008AFF30080980700200648804716
:1001B00006480047FEE7FEE7FEE7FEE7FEE7FEE74C
:1001C000FEE7FEE7FEE7FEE71140000895010008A4
:1001D00038B5D0E90221491E01EB410102EBC10112
:1001E0004268C1EB011102EB81010268C1EB011110
:1001F00002EB8102D0E9043101EB410103EB810103
:100200003023A1F5527191FBF3F4174D6C4302EBCF
:10021000C41291FBF3F403FB141100921A2902DBC0
:10022000124B1A4400920C2291FBF2F3104C6343E0
:10023000009C04EBC313009391FBF2F302FB131138
:100240000C4A08E0491E40F2A324535C6343009C1F
:1002500004EBC31300930029F4DC0146684600F068
:1002600027F9009838BD00003F0C0F0080510100B5
:1002700067C20300C05B000840EA01039B0703D08C
:1002800009E008C9121F08C0042AFAD203E011F8D5
:10029000013B00F8013B521EF9D2704730B50546CC
:1002A0002A460B4612F8010B13F8014B08B1A04285
:1002B000F8D01CB1002802D06D1CF1E7284630BDF3
:1002C000421C10F8011B0029FBD1801A704703461D
:1002D00011F8012B00F8012B002AF9D118467047BC
:1002E0002DE9FE4F81EA030404F0004421F00041AF
:1002F00000944FF0000B23F0004350EA01045ED05D
:1003000052EA03045BD0C3F30A54C1F30A552C44E8
:10031000A4F2F3340194A0FB0254C1F3130141F49D
:100320008011C3F3130343F4801301FB024400FB69
:10033000034E840A970A44EA815447EA8357A4FB90
:10034000076802958D0A05FB07854FEA932C04FB8D
:100350000C542705029D4FEA065847EA1637B5EBBD
:1003600008056EEB070C870E920E47EA811742EAEA
:100370008312A7FB0201B6EB0B0164EB00042B0D0B
:1003800043EA0C335E1844EB1C50DA465146E7FB57
:100390000201C5F313044FEA0B3343EA14534FEA47
:1003A0000432019C43EA0603A4F10C040294009C6D
:1003B000CDE900B400F008F903B0BDE8F08F0020EB
:1003C0000146F9E700F0004230F000400AD0C10DCC
:1003D00001F56071C0F3160042EA0151C2084007FE
:1003E0001143704700200146704701F0004330B4CC
:1003F00021F0004150EA010206D00A0DA2F5607218
:10040000C1F31301002A02DC30BC00207047440F06
:1004100044EAC104C100E01830BC00EBC25000F057
:100420008DB830B50B46014600202022012409E09A
:1004300021FA02F59D4205D303FA02F5491B04FA9D
:1004400002F52844151EA2F10102F1DC30BD2DE9B0
:10045000F05F0546002092469B4688460646814648
:1004600040241BE0284641464746224600F061FAF8
:1004700053465A46C01A914110D311461846224697
:1004800000F048FA2D1A67EB01084F46224601207A
:10049000002100F03FFA17EB00094E41201EA4F1A5
:1004A0000104DFDC484631462A464346BDE8F09F5A
:1004B00010B500683C22B0FBF2F302FB1303B0FB63
:1004C000F2F00B60B0FBF2F302FB1303B0FBF2F0AF
:1004D00018224B60B0FBF2F302FB1303B0FBF2F007
:1004E000021D8B600723B2FBF3F403FB1422800090
:1004F00040F2B55300F66C308A61B0FBF3F2B0FB0A
:10050000F3F403FB1400443280084A61C8613B28BD
:1005100002D3920700D0401C0022074C13460A6108
:10052000E25C824203D8801A5B1C0B61F8E7401C36
:10053000C860084610BD0000CC5B00080029A8BFB9
:100540007047401C490008BF20F00100704710B4FC
:10055000B0FA80FC00FA0CF050EA010404BF10BCB1
:10056000704749B1CCF1200421FA04F411FA0CF1DE
:1005700018BF012121430843A3EB0C01CB1D4FEA17
:1005800000614FEA102042BF002010BC704700EB12
:10059000C35010440029A4BF10BC7047401C490040
:1005A00008BF20F0010010BC704710B5141E73F195
:1005B000000408DA401C41F1000192185B411A4323
:1005C00001D120F0010010BD2DE9F04D92469B466F
:1005D00011B1B1FA81F202E0B0FA80F22032904615
:1005E00000F098F904460F4640EA0A0041EA0B0180
:1005F00053465A46084313D0114653EA010019D016
:10060000C8F14002504600F094F905460E465046A7
:100610005946424600F07EF9084305D0012004E027
:1006200020463946BDE8F08D0020054346EAE076D5
:100630002C4337430A986305E40AA0EB0800002224
:10064000FD0A44EA47540A3002D500200146E9E792
:10065000010510196941DDE9084500196941BDE846
:10066000F04DA2E72DE9FE4F804681EA0300C00F5E
:100670000C46009021F0004123F00045B8EB020049
:10068000A94105D24046214690461C460B460246EB
:1006900023F00040104347D0270DC7F30A00C3F3EF
:1006A0000A510290401A019040286BDAC3F31300FC
:1006B00040F4801B0098924620B10023D2EB030A3D
:1006C00063EB0B0B01985946C0F14002504600F015
:1006D00021F906460D4650465946019A00F039F96F
:1006E00010EB08006141002487EA115284EAE773A5
:1006F0001A4340D0009A62B3019A012A4FEA075286
:1007000015DC001B61EB02014FF0004202EA0752C8
:10071000CDE90042001C41F5801132462B46FFF71F
:1007200053FF03B0BDE8F08F40462146F9E7001BB8
:1007300061EB0201001C41F5801300185B41201899
:10074000A2F5001747EB030140EAD570B6196D41D9
:1007500011E06D084FEA360645EAC0754FEA0752C8
:10076000001B61EB0201001C41F5801149084FEAB2
:1007700030000019514132462B4603B0BDE8F04F1E
:10078000FFF713BF0098012240000023D0EB0202C4
:1007900063EBE073009821464FEAE074B8EB000089
:1007A00061EB0401E9E783F000435BE781F000417E
:1007B00058E72DE9F04D81EA030404F0004B21F0E5
:1007C000004514464FF0000A23F0004150EA0502AC
:1007D00020D054EA01021DD0C5F30A570246C5F3E2
:1007E0001303C1F31300C1F30A5640F4801543F418
:1007F0008013A7EB0608101BD64608F2FD3873EBF2
:10080000050002D308F1010801E092185B41B8F13C
:10081000000F03DA00200146BDE8F08D00204FF400
:100820008011064684460EE0171B73EB050705D3BF
:10083000121B63EB050306434CEA010C49084FEA1F
:10084000300092185B4150EA0107EDD152EA0300F3
:1008500012D082EA040083EA0501084305D0101B88
:10086000AB4106D20122002306E000224FF00043F4
:1008700002E06FF0010253101AEB06004CEB085136
:1008800010EB0A0041EB0B01BDE8F04DFFF78DBE08
:10089000C1F30A52C1F3130140F2FF3341F4801156
:1008A0009A4202DA00200146704740F233439A42EE
:1008B000A2F2334202DC524200F03BB800F02AB808
:1008C00030B5041E71F1000404DB4FF000444042D7
:1008D00064EB0101141E73F1000405DB1C464FF0AC
:1008E0000043524263EB0403994208BF904230BD7B
:1008F000064C074D06E0E06840F0010394E807006D
:1009000098471034AC42F6D3FFF748FCD85B000898
:10091000F85B0008202A04DB203A00FA02F10020EC
:1009200070479140C2F1200320FA03F3194390402D
:100930007047202A04DB203A21FA02F00021704798
:1009400021FA02F3D040C2F1200291400843194637
:100950007047202A06DBCB17203A41FA02F043EA1F
:10096000E07306E041FA02F3D040C2F12002914068
:1009700008431946704700220A12D34303607047A8
:1009800021B1826842F00102826003E0826822F0B5
:1009900001028260704700000021084A1168084A7D
:1009A0001140D0E900231A4383681A43C3681A43ED
:1009B0001143044AC2F804137047000004230140A5
:1009C000E030FCFF0020014010B50121080202F0D8
:1009D000D3F800214FF4807002F0CEF810BD01462C
:1009E000C86C80B2704770B5024600200023002416
:1009F0000B12556801268E4005EA060415681D4055
:100A000015B10CB1012000E0002070BD10B540F21E
:100A100005210E48FFF7E7FFB8B140F205210B486A
:100A2000FFF7A9FF0948FFF7DAFF0949094A1278D9
:100A300021F8120007480078401C06490870084653
:100A400000780A2801DB0020087010BD002001405A
:100A5000500000202800002010B50B460021D9B21C
:100A6000012404FA01F11AB144680C43446002E025
:100A700044688C43446010BD30B50246002000231A
:100A80005068104C20400D790C6844EA052420433E
:100A9000506090680C4C2040D1E903542C438D6881
:100AA0002C434D7944EA450420439060D06A20F4F9
:100AB00070000C7D641EE4B2234340EA0350D06210
:100AC00030BD0000FFFEFFFCFDF7FFC0F0B504469F
:100AD0000D4600200021092D11DDE068A5F10A0670
:100AE00006EB4607072606FA07F18843A5F10A0632
:100AF00006EB460603FA06F10843E0600CE02069C5
:100B000005EB4507072606FA07F1884305EB45067E
:100B100003FA06F108432061072A0FDA606B561EBC
:100B200006EB86071F2606FA07F18843561E06EBDA
:100B3000860605FA06F10843606322E00D2A0FDA03
:100B4000206BD61F06EB86071F2606FA07F188439F
:100B5000D61F06EB860605FA06F10843206310E06F
:100B6000E06AA2F10D0606EB86071F2606FA07F1DA
:100B70008843A2F10D0606EB860605FA06F1084346
:100B8000E062F0BD816841F080418160704710B53E
:100B90000446204600F001F810BD70B50446E6B2E8
:100BA0002512284600F00AF8022000F0A7FB304684
:100BB00000F004F8022000F0A1FB70BD70B50446FF
:100BC0004FF48061184800F038FF052000F096FBD4
:100BD00000251DE04FF48061134800F02EFF04F063
:100BE000010020B10821104800F029FF03E008218E
:100BF0000D4800F022FFC82000F0B0FB4FF48061E8
:100C0000094800F01CFFC82000F0A8FB64106D1C10
:100C1000082DDFDB4FF48061034800F010FF08214E
:100C2000014800F00CFF70BD0004024010B50446FE
:100C30004FF6E071214488B2FFF7AFFF10BD00BF4F
:100C4000FEE7000000B585B00121084601F064FF11
:100C50002020039000208DF8100001208DF8130053
:100C600003A92A4800F075FE0121880301F074FFF2
:100C70000521002002F09AFA2020019000208DF832
:100C800008000C208DF8090001208DF80A0001A849
:100C900000F0B2FD0121084601F03EFF4020039024
:100CA00000208DF8100001208DF8130003A91748CB
:100CB00000F04FFE0121880301F04EFF06210020C5
:100CC00002F074FA4020019000208DF808000C20FA
:100CD0008DF8090001208DF80A0001A800F08CFDB4
:100CE00017208DF8000001208DF8010000208DF8FC
:100CF000020001208DF80300684601F0D9FC03F0E2
:100D000037FA03F091FA05B000BD00000000024080
:100D10002DE9F0410746884615460421052001F0DB
:100D2000D1FA0021012001F0E7FA80210A2001F028
:100D3000D6FA002405E0395D092001F0DDFA601CD7
:100D4000C4B24445F7DB0321012001F0D5FAFF24AA
:100D500000BF052001F09AFA0646601EC4B21CB11D
:100D600006F004000028F4D0222001F08FFA287049
:100D7000212001F08BFA6870BDE8F08110B50220E7
:100D800000F0E0FA1249134803F0B4FD12A1114833
:100D9000FFF79DFA0F48FFF793FA84B264212046CB
:100DA00003F008FE00F024F808B1012010BD032074
:100DB00000F0C8FA0D4802780021012000F034F854
:100DC00008B10120F2E7012000F0BCFA0020EDE7B5
:100DD000640100206400002041542B55545F5245AB
:100DE000434F564552590D0A000000003A000020BA
:100DF00010B5C0B0002411E0684600F02BF900B92E
:100E00000BE008A16846FFF749FA10B1002040B096
:100E100010BD012000F072FA00BF641C052CEBDB52
:100E20000120F4E74F4B0000F0B5C1B004460D4679
:100E3000164623465AA25EA101A803F0E7FD01A9C8
:100E40005D48FFF744FA5C48FFF73AFA87B264213D
:100E5000384603F0AFFDFFF7CBFF10B1012041B0E2
:100E6000F0BD5648037856A251A101A803F0CEFD6B
:100E700001A95148FFF72BFA4F48FFF721FA87B233
:100E80006421384603F096FDFFF7B2FF08B1012058
:100E9000E5E74F4803884FA252A101A803F0B6FD31
:100EA00001A94548FFF713FA4348FFF709FA87B24B
:100EB0006421384603F07EFDFFF79AFF08B1012058
:100EC000CDE74B4803884BA246A101A803F09EFD45
:100ED00001A93948FFF7FBF93748FFF7F1F987B265
:100EE0006421384603F066FDFFF782FF08B1012058
:100EF000B5E7234643A246A101A8009603F086FD6C
:100F000001A92D48FFF7E3F92B48FFF7D9F987B27C
:100F10006421384603F04EFDFFF76AFF08B1012057
:100F20009DE72B463EA222A101A803F06FFD01A977
:100F30002148FFF7CCF92048FFF7C2F987B26421B6
:100F4000384603F037FDFFF753FF08B1012086E76D
:100F500037A11948FFF7BBF91748FFF7B1F987B276
:100F60006421384603F026FDFFF742FF08B1012057
:100F700075E7032000F0E6F931A10F48FFF7A7F964
:100F80000D48FFF79DF987B26421384603F012FD42
:100F9000FFF72EFF08B1012061E700205FE70000A6
:100FA00041542B5A4947425F545950453D00000077
:100FB000257325640D0A0000640000203B0000201A
:100FC00041542B52465F4348414E4E454C3D000034
:100FD0003C00002041542B5A4947425F50414E4942
:100FE000443D00002573253034580D0A00000000F0
:100FF0003E00002041542B4E45545F47524F555000
:1010000049443D0041542B55545F5549443D00002F
:10101000257325303258253032580D0A0000000063
:1010200041542B5A4947425F52584D4F44453D0069
:1010300041542B55545F52455345540D0A0000004E
:1010400041542B5A4947425F5354415455533D3FF5
:101050000D0A000070B50546642003F08BFC0446C1
:101060000CB9204670BD224602492846FFF704F914
:101070002046F7E7640100202DE9F041C2B00646A2
:101080000D4617461C46334620A225A102A800950E
:1010900003F0BCFC02A92648FFF719F92448FFF722
:1010A0000FF91FFA80F86421404603F083FCFFF734
:1010B0009FFE18B1012042B0BDE8F08133461DA269
:1010C0001FA102A8009503F0A1FC224639460DF1AC
:1010D0001B00FFF7D1F80D2104F1130002AA1154EF
:1010E0000A21401C1154401C84B2224602A9104817
:1010F000FFF7C2F86421204603F05CFCFFF778FE9E
:1011000008B10120D7E70020D5E7000041542B5A51
:101110004947425F554944544F49443D000000004F
:10112000257325303258253032580D0A0000000052
:101130006400002041542B55545F53454E443D00FC
:10114000257330332C25303258253032582C00008E
:1011500010B50849084800F051F850B10549064853
:1011600000F022F80120054908700121024800F032
:1011700035F810BD0088002088640240400000203F
:1011800010B50649064800F039F830B10349044863
:1011900000F00AF801200349087010BD0080002803
:1011A000B8640240410000200246094B9A4201D235
:1011B000084801E00648103801F000531BB1064B07
:1011C0000B40C36002E0044B0B408360704700009B
:1011D00010640240006002407D0F7D0F21B1026863
:1011E00042F00102026003E0026822F001020260A4
:1011F00070470146486880B27047000070B50246EB
:10120000002000240025124EB24201D2114B01E011
:101210000F4B103B104E0E4036B11E2606EAD1246D
:10122000166806EA040502E0566906F0800501F03A
:1012300000560EB15C6800E01C68084E344004EAB9
:10124000010616B10DB1012000E0002070BD0000C4
:1012500010640240006002403C0F3C0F7D0F7D0F88
:1012600010B501F080034BB122B1436943F0800314
:10127000436103E0436923F08003436180290BD07D
:101280002AB1036801F01E042343036004E00368ED
:1012900001F01E04A343036010BD000010B500223E
:1012A0000268134B1A40CC680B6823434C692343F4
:1012B0008C692343CC6923430C6A23434C6A234340
:1012C0008C6A23434C6B23438C6B23431A43026089
:1012D000426922F00702D1E90B3423431A434261E9
:1012E0000B6943604B6883608B68C36010BD00006E
:1012F0003F801CF04160704770470000104A126840
:101300004FF47A73B2FBF3F24243D2084FF0E0237A
:101310005A6100229A6101221A611A46116902E09B
:101320004FF0E022116901F001021AB101F480329C
:10133000002AF5D000224FF0E0231A619A6170472D
:101340000000002010B5044603E04FF47A70FFF768
:10135000D5FF201EA4F10104F7D110BD104A126878
:10136000104BB2FBF3F24243D2084FF0E0235A6134
:1013700000229A6101221A611A46116902E04FF0B7
:10138000E022116901F001021AB101F48032002A51
:10139000F5D000224FF0E0231A619A6170470000F7
:1013A0000000002040420F0070B5002419E004F155
:1013B000B001C8B2012100F0D1FB0121002000F0F2
:1013C000CDFB0121102000F0C9FB002505E0002124
:1013D000084600F0C3FB681CC5B2802DF7DB601C1B
:1013E000C4B2082CE3DB70BD1CB50121022001F062
:1013F00093FB8020009001208DF804008DF80600FA
:101400008DF807008DF8050069460F4800F0A1FA35
:1014100080210D4800F013FB0121022001F07CFB2C
:101420004020009001208DF804008DF806008DF812
:1014300007008DF805006946034800F08AFA40214C
:10144000014800F0FCFA1CBD0004024010B5FFF793
:10145000CBFF0120FFF752FFC820FFF74FFF01210C
:10146000AE2000F07BFB0121002000F077FB012182
:10147000102000F073FB0121402000F06FFB0121E0
:10148000B02000F06BFB0121812000F067FB0121FF
:10149000FF2000F063FB0121A02000F05FFB012191
:1014A000A62000F05BFB0121A82000F057FB0121E2
:1014B0001F2000F053FB0121C02000F04FFB012151
:1014C000D32000F04BFB0121002000F047FB01215D
:1014D000D52000F043FB0121002000F03FFB01215B
:1014E000D92000F03BFB01211F2000F037FB012138
:1014F000DA2000F033FB0121022000F02FFB012154
:10150000DB2000F02BFB0121302000F027FB012124
:101510008D2000F023FB0121142000F01FFB01218E
:10152000AF2000F01BFBFFF73FFF10BD70B5044676
:101530000D4605F1B001C8B2012100F00FFB1021EA
:1015400041EA1410012100F009FB04F00F00012111
:1015500000F004FB70BD00002DE9F04707460E4681
:101560009046994600250024A8F12000C5B2B9F1A3
:10157000010F2CD15F2D00DB0025782F00DD002727
:10158000022E00DD002631463846FFF7CFFF00244B
:1015900008E01E4901EB0511085D002100F0DEFAAC
:1015A000601CC4B2082CF4DB701CC1B23846FFF7D3
:1015B000BDFF082408E0154901EB0511085D002175
:1015C00000F0CCFA601CC4B2102CF4DB1BE05C2DE4
:1015D00000DB00257A2F00DD0027032E00DD00262A
:1015E00031463846FFF7A2FF00240AE005EB45012B
:1015F000074A02EB4101085D002100F0AFFA601CD0
:10160000C4B2062CF2DBBDE8F0870000D05500081C
:10161000A85300082DE9F04705460E4617469846A0
:10162000DDF820900024B9F1010F19D113E03A5DE3
:101630004B4631462846FFF78FFF05F10800C5B23B
:10164000782D02DD0025B01CC6B2022E01DDBDE8FA
:10165000F087601CC4B2385DC8B14445E7DB16E0D2
:1016600011E03A5D4B4631462846FFF775FFA81D4D
:10167000C5B27A2D02DD0025701CC6B2032E00DD36
:10168000E5E7601CC4B2385D08B14445E9DB00BF42
:10169000DDE7000010B5042000F0A2F800286FD0AC
:1016A000042000F097F8374802F01EFE84B20021B3
:1016B000344802F0FEFD0021324802F083FE012191
:1016C000304802F0F6FD40F26C7084420CDA40F2D1
:1016D000A460844208DD01202B49087000202B49BA
:1016E00008702B49087030E040F2AA50844214DAA6
:1016F00040F2E240844210DD2348007828B32448B9
:1017000000784010224908700846007808701F4889
:101710000078401C1D49087017E0B4F57A7F14DA90
:10172000B4F5487F11DD1848007870B1184800788A
:101730004010174908700846007840F08000087093
:1017400012480078401C1149087010480078082899
:1017500015DB00210B4802F0ACFD0021094802F026
:1017600031FE0B4800780B490870002008490870CA
:10177000064908700449087001200749087000BF35
:1017800010BD0000000C00402E0000202C000020A6
:101790002D0000202B0000202A00002010B5202062
:1017A00000F01EF830B1202000F014F801210748A5
:1017B00002F07FFD402000F013F830B1402000F02F
:1017C00009F80121024802F074FD10BD0004004038
:1017D000000800400149086070470000143C0140C7
:1017E00001460020034A12680A400AB1012000E0C5
:1017F00000207047143C0140002123498279002ACF
:101800003AD00A46126803689A430B461A600A1DCA
:10181000126803689A430B1D1A60027911440A6822
:1018200003681A430A60184A0832126803689A4328
:10183000154B08331A601A1D126803689A43124B3D
:101840000C331A604279102A0ED11A1F12680368ED
:101850001A430D4B08331A601A1D126803681A43A5
:10186000094B0C331A600DE00749427911440A68AC
:1018700003681A430A6005E0027911440A680368A4
:101880009A430A6070470000003C014000204FF07E
:10189000804148627047000000B500F00BF800EE90
:1018A000900AB8EE601ADFED021A81EE210A00BD3F
:1018B0000000E1434FF08040406A704700B585B0BA
:1018C0000121084601F028F901220021174800F003
:1018D00088F80120039002208DF810008DF8130085
:1018E00003A9124800F035F80121084601F024F957
:1018F0000020ADF80800ADF80200401E0190002065
:10190000ADF800008DF80A0069464FF0804002F003
:101910007BFD00231A465021880602F055FD002069
:101920004FF08041486205B000BD00000000024059
:1019300010B500204FF0804148620121880702F075
:10194000B8FC10BD10B500214FF0804002F0B1FC92
:1019500010BDF0B50A4600210023002400BF3DE081
:10196000012505FA01F3156805EA03049C4234D108
:1019700005684F000326BE40B543056015794E004B
:10198000B5400668354305601579012D02D01579FB
:10199000022D16D185684F000326BE40B5438560F1
:1019A00055794E00B5408668354385604568012607
:1019B0008E40B5434560456896798E40B6B2354352
:1019C0004560C5684F000326BE40B543C560D57964
:1019D0004E00B540C6683543C560491C1029BFD3C9
:1019E000F0BDF0B5002300244D07ED0E02FA05F31B
:1019F000CE1000F1200555F826504E07F70E0F26A1
:101A0000BE40B543CF1000F1200646F82750CE1057
:101A100000F1200555F8265045EA0304CE1000F1E8
:101A2000200545F82640F0BD0246002013690B4012
:101A30000BB1012000E00020704741837047018313
:101A4000704700BFFEE7000010B500248021114858
:101A5000FFF7F5FF0120FFF781FC40210D48FFF75C
:101A6000EEFF0120FFF77AFC07E0601CC4B2FA2CFD
:101A700003DD00F02BF8012010BD80210548FFF7A1
:101A8000D3FF0028F1D140210248FFF7D6FF002004
:101A9000F2E700000004024010B580210A48FFF779
:101AA000CEFF40210848FFF7CAFF0120FFF756FC90
:101AB00080210548FFF7C1FF0120FFF74FFC4021BF
:101AC0000148FFF7BAFF10BD0004024010B54021E5
:101AD0000A48FFF7B2FF80210848FFF7AEFF012058
:101AE000FFF73CFC40210548FFF7A9FF8021034890
:101AF000FFF7A5FF0120FFF731FC10BD00040240F5
:101B000070B5044640211448FFF797FF002520E0F8
:101B100004F08000802804D180210F48FFF78FFF58
:101B200003E080210C48FFF788FF6006040E0120C7
:101B3000FFF714FC40210848FFF781FF0120FFF761
:101B40000DFC40210448FFF778FF0120FFF706FC59
:101B50006D1C082DDCDB70BD0004024070B506462C
:101B60000D46012D01D1002400E04024FFF794FF31
:101B70007820FFF7C5FFFFF767FF08B1012070BDB0
:101B80002046FFF7BDFFFFF75FFF08B10120F6E732
:101B90003046FFF7B5FFFFF757FF08B10120EEE72A
:101BA000FFF794FF0020EAE770B504460D46214692
:101BB000002001F00BF92946002001F02DF970BD3D
:101BC00000B58DB0694601A8FFF7EEFF9DF807004C
:101BD000643007909DF80500401E06909DF80600B1
:101BE00005909DF8000004909DF8010003909DF879
:101BF0000200029000200A9002A8FEF7E9FA0DB058
:101C000000BD00B585B00121080700F095FF012057
:101C100000F04CFF012001F053F800BF412001F01B
:101C20002FF80028FAD04FF4807001F065F80120F9
:101C300001F05CF801F016FA002001F043FA01F01F
:101C400093F87C200390FE2004900020029002A8CC
:101C500001F00AF916208DF8070005208DF805001F
:101C60001E208DF8060001208DF8040001A9002037
:101C700001F02CF908208DF8000000208DF80100FB
:101C80008DF802008DF80300694601F083F901F038
:101C900093F8012001F016FA002000F007FF05B0CC
:101CA00000BD70B504460D460121080700F044FF51
:101CB000012000F0FBFE2146002001F007F9294633
:101CC000002001F067F9002000F0F0FE70BD000078
:101CD00000B585B00121084600F01EFF04200390E6
:101CE00000208DF8100001208DF8130003A915487D
:101CF000FFF72FFE0121880300F02EFF02210020B4
:101D000001F054FA0420019000208DF8080008200A
:101D10008DF8090001208DF80A0001A8FFF76CFD7D
:101D200008208DF8000002208DF8010000208DF8B9
:101D3000020001208DF80300684600F0B9FC05B0F0
:101D400000BD00000000024000B58BB00121084634
:101D500000F002FF0020ADF82800ADF82200DB20E3
:101D600009900920ADF8200000208DF82A0008A96C
:101D70001F4802F049FB6020ADF80C006E20059072
:101D80000120ADF80E000020ADF81800ADF81C00E1
:101D9000ADF8100003A9164802F0C4FA082114484F
:101DA00002F0FEFA0121124802F08FFA01210846E2
:101DB00000F0B2FE012208210E48FFF712FE4FF498
:101DC0008070019002208DF8080000208DF80A0034
:101DD0008DF80B008DF8090001A90648FFF7B9FD41
:101DE0004FF480710348FFF72AFE0BB000BD0000DE
:101DF000000001400000024070B5044600250EE0DE
:101E00000948007838B100F053F8A04201D1012010
:101E100070BD0020FCE70120FFF7A0FA6D1C0A2D21
:101E2000EEDB0020F4E700002A00002010B500F0EF
:101E30000BF804490978884201DD012010BD00201B
:101E4000FCE700002900002070B50026002422E0F5
:101E50002046E11704EB91718910A4EB810131B1A7
:101E6000012906D0022906D0032908D105E055250D
:101E700006E0CC2504E0AA2502E0332500E000BFFF
:101E800000BF284600F020F82846FFF7B5FF08B14C
:101E9000701C86B2641C0A2CDADBF0B270BD10B57F
:101EA000FFF716FFFFF750FF02F0E8F910BD000042
:101EB000034908780021024A1170024A11707047E4
:101EC0002B0000202A00002070B504460021154890
:101ED00002F0EFF90021134802F074FA00F024F840
:101EE00040F24650FFF73AFA002511E004F00100F5
:101EF00030B100F019F84FF4E170FFF72FFA05E068
:101F000000F012F84FF46170FFF728FA64106D1CAE
:101F1000082DEBDB00F008F84FF4E170FFF71EFA34
:101F200070BD0000000C004010B50121054802F012
:101F3000C0F94FF4E170FFF711FA0021014802F0F7
:101F4000B8F910BD0000014000B58DB0012104209A
:101F500000F0E2FD04200B9003208DF830000020FB
:101F60008DF833000BA92148FFF7F3FC012108028B
:101F700000F0F2FDFEF728FD002007904FF44030FE
:101F80000890002009904FF420600A9007A8FEF7FF
:101F900003FD002001908DF808008DF809000390E2
:101FA000059001208DF8180001A91148FEF764FD85
:101FB00001231A460C210E48FEF788FD12208DF8E9
:101FC000000002208DF8010000208DF802000120A1
:101FD0008DF80300684600F06BFB012240F20521FA
:101FE0000348FEF739FD0DB000BD000000080240B7
:101FF000002001401CB50121084600F08DFD08209D
:10200000009001208DF8040000208DF806000120CA
:102010008DF8070000208DF8050069460148FFF79C
:1020200098FC1CBD0000024010B500F00BF80449FC
:102030000988884201DD002010BD0120FCE7000076
:102040002600002070B5002401211648FEF798FCF8
:1020500008211548FFF7F3FC6420FFF74FF900252E
:1020600006E01048FEF78EFD0A20FFF777F96D1C99
:102070000A2DF6DB002005E00C4931F81010214450
:102080008CB2401C0A28F7DB0A2094FBF0F084B2E3
:1020900008210548FFF7D1FC00210248FEF770FC3B
:1020A000204670BD0020014000000240500000208A
:1020B00010B5FFF749FFFFF79DFF10BD30B5039C3A
:1020C000087000121070001218700012207030BDDD
:1020D00030B50446002018430002104300020843B4
:1020E0000002204330BD30B50446002018430002F2
:1020F0001043000208430002204330BD10B50446DF
:10210000412C25D10821084600F0DCF83D211120A2
:1021100000F0F2F88621172000F0EEF87F2126204B
:1021200000F0EAF81E212D2000F0E6F800212C2016
:1021300000F0E2F88D212A2000F0DEF83E212B206D
:1021400000F0DAF80A20FFF709F900F0F3FA01E0ED
:10215000FF2010BD0020FCE72DE9FE4F0646884613
:1021600091469A46DDF830B0FE20029000200190A2
:1021700000900C2E06D00E2E09D1122001901020B6
:10218000009005E0772001903020009000E000BF33
:1021900000BF019840F08001022000F0ADF88021DE
:1021A000042000F08FF80021012000F0A5F8802124
:1021B0000A2000F094F8002505E018F80510092021
:1021C00000F09AF86D1C4D45F7D33146012000F020
:1021D00093F80C2E03D180210D2000F080F84FF4ED
:1021E0007A7500BF042000F051F804466D1E35B129
:1021F00004F0010018B9009820400028F2D0802196
:102200000D2000F05FF8002D35D0062000F03EF8DC
:1022100000F01B0068BB002002900198204000F0F5
:10222000010008B1FF2002900C2E24D10A2000F0FA
:102230002DF804460C2000F029F800F007072FB114
:10224000601E07EBC000ABF8000002E0E000ABF856
:10225000000004B90124122C00DD1224002505E041
:10226000092000F013F80AF805006D1CA542F7D309
:1022700001E0FE20029080210C2000F030F80021C7
:10228000012000F039F80298BDE8FE8F70B50446D1
:102290007E2000EA440040F080054FF48051084859
:1022A000FFF7CBFB284600F01BFFFF2000F018FFD4
:1022B00006464FF480510248FFF7C1FB304670BD1F
:1022C0000004024070B505460C462846FFF7DEFFC5
:1022D000064626EA0401284600F00EF870BD70B5E7
:1022E00005460C462846FFF7D1FF064646EA04019C
:1022F000284600F001F870BD70B504460D467E20FA
:1023000000EA44064FF480510748FFF796FB304639
:1023100000F0E6FE284600F0E3FE4FF4805102484C
:10232000FFF78DFB70BD00000004024000BFFEE718
:1023300010B500F01BF84FF480510A48FFF77FFBFF
:102340004FF480510848FFF77AFB00F0DFFA00F005
:10235000EBF90A20FFF702F800F0ECF94120FFF753
:10236000CDFE10BD000002400004024000B587B061
:102370000121084600F0D0FB8020059001208DF857
:10238000180000208DF81A008DF81B0002208DF82F
:10239000190005A95648FFF7DCFA0121022000F0D8
:1023A000BBFB4FF48050059001208DF818000020F1
:1023B0008DF81A008DF81B0002208DF8190005A970
:1023C0004C48FFF7C6FA0121022000F0A5FB0120CE
:1023D000059000208DF8180002208DF81B000020C9
:1023E0008DF8190005A94348FFF7B3FA012102202F
:1023F00000F092FB05220D213E48FFF7F2FA4FF460
:102400000050059002208DF8180000208DF81A0069
:102410008DF81B0002208DF8190005A93548FFF73B
:1024200098FA0121022000F077FB05220E213148A5
:10243000FFF7D7FA4FF48040059002208DF818007E
:1024400000208DF81A008DF81B0002208DF819006D
:1024500005A92848FFF77DFA0121022000F05CFB66
:1024600005220F212348FFF7BCFA4FF400400590E6
:1024700002208DF8180000208DF81A008DF81B003E
:1024800002208DF8190005A91A48FFF762FA4FF4E7
:1024900080511848FFF7D3FA0021174800F04CFE8E
:1024A0000121880300F048FB0020ADF800004FF444
:1024B0008270ADF802000020ADF80400ADF80E0007
:1024C000ADF80600ADF808004FF40070ADF80A0052
:1024D0003820ADF80C000720ADF81000694606481A
:1024E00000F044FE0121044800F026FE07B000BDC4
:1024F0000000024000040240003800402DE9FC4189
:1025000004460E4690461F4601A9522000F0D3F91A
:102510000546E5B9684600F01AF90546BDB96846B2
:1025200000F03EFA054695B9032000EB8400C1B2E5
:102530006B464246602000F042F905463DB906EB85
:102540008401C8B2394600F08BF9054600BF00F09F
:102550006DF92846BDE8FC812DE9FF4105460F468F
:102560000026BFB92E46002004E0290E0DF8001009
:102570002D02401C0428F8DB6B46134A13480178EF
:102580001348007800F064F80446DCB1204604B03B
:10259000BDE8F0816B460C4A0C4801780C48007885
:1025A000FFF7ACFF04460CB12046F0E7002004E042
:1025B0001DF800100E433602401C0328F8DB9DF87E
:1025C000030006433046E2E73300002030000020DD
:1025D0002F0000202DE9FF4105460F460026BFB918
:1025E0002E46002004E0290E0DF800102D02401C9C
:1025F0000428F8DB6B46134A134801781348007827
:1026000000F026F80446DCB1204604B0BDE8F081B5
:102610006B460C4A0C4801780C480078FFF76EFFB7
:1026200004460CB12046F0E7002004E01DF800103D
:102630000E433602401C0328F8DB9DF803000643D6
:102640003046E2E733000020320000203100002055
:102650002DE9FC4104460E4690461F4601A9522032
:1026600000F029F90546E5B9684600F070F805461E
:10267000BDB9684600F094F9054695B9032000EB12
:102680008400C1B26B464246602000F098F80546CF
:102690003DB906EB8401C8B2394600F0BBF90546E6
:1026A00000BF00F0C3F82846BDE8FC817047000079
:1026B00070B5002100230F22C4781CB3174C246886
:1026C00004F4E064C4F5E064C4F30721C1F1040438
:1026D000E3B20A4144789C40E1B28478144021433B
:1026E0000C07210E0E4C05786155047804F01F0587
:1026F0000124AC4005786D11AD0005F1E025C5F869
:10270000004109E0047804F01F050124AC40054DA8
:102710000678761145F8264070BD00000CED00E00B
:1027200000E400E080E100E010B503211420FFF791
:10273000C9FD10BD10B51420FFF7A8FD044604F034
:10274000030018B903211420FFF7C9FD10BDF0B52F
:1027500087B00546002708210846FFF7B3FD002192
:102760000D20FFF7C9FD80210E20FFF7ABFD932060
:102770008DF8040020208DF8050006A801AB022288
:1027800001A900900C20FFF7E7FC064686B900245B
:1027900007E001A8005D285501A8005D4740601CC6
:1027A000C4B2042CF5DB01A8005DB84200D0FE26BF
:1027B00080210E20FFF793FD304607B0F0BD2DE9D4
:1027C000F04387B006460F46904699468DF8046060
:1027D0008DF80570002406E018F8041001AAA01C6A
:1027E0001154601CC4B2062CF6DB002407E019F873
:1027F000041001AA04F108001154601CC4B2062C94
:10280000F5DB06A801AB0C2201A900900E20FFF712
:10281000A3FC05462DB90820FFF738FD00F008009D
:1028200000B9FE25284607B0BDE8F08310B588B092
:1028300050208DF8080000208DF809000DF10A02E3
:10284000022102A8FEF764FA07A802AB042202A93B
:1028500000900C20FFF780FC0446204608B010BD15
:10286000F0B587B005460E4630208DF804008DF88F
:1028700005500DF10602022101A8FEF749FA06A84B
:1028800001AB042201A900900C20FFF765FC07466C
:102890006FB9BDF81800902809D1002404E001A800
:1028A000005D3055601CC4B2102CF8DB00E0FE2740
:1028B000384607B0F0BD70B588B005460C46082113
:1028C0000846FFF7FFFC07210D20FFF715FD032148
:1028D0001420FFF704FD8DF8085007A802AB012271
:1028E00002A900900C20FFF737FC064656B9BDF848
:1028F0001C00102806D19DF8080020709DF80900E2
:10290000607000E0FE26F0B208B070BD10B5002483
:1029100080212248FFF793F80A20FEF71FFD80214F
:102920001E48FFF78AF80A20FEF718FD80211B4891
:10293000FFF785F80A20FEF711FD0F210120FFF7B0
:10294000DBFC06E0601C84B2B4F5FA7F01DDFE20FA
:1029500010BD0120FFF79AFC00F00F000028F1D114
:102960000120FEF7FBFC3D211120FFF7C5FC1E21D5
:102970002D20FFF7C1FC00212C20FFF7BDFC8D218D
:102980002A20FFF7B9FC3E212B20FFF7B5FC4021A0
:102990001520FFF7B1FC0020DAE70000000002403C
:1029A00070B588B0054693208DF8080070208DF82A
:1029B000090000208DF80E0000240BE0295D02AA1A
:1029C000A01C11549DF80E00295D48408DF80E00A2
:1029D000601CC4B2042CF1DB0DF10F02072102A828
:1029E000FEF796F908210846FFF76CFC07A802AB32
:1029F000092202A900900C20FFF7AEFB06462EB973
:102A0000BDF81C00182801D1002600E0FE26304643
:102A100008B070BDF0B587B006460F46A0208DF80F
:102A200004008DF805600DF10602022101A8FEF7F1
:102A30006FF906A801AB042201A900900C20FFF752
:102A40008BFB05464DB9BDF81800042805D19DF84B
:102A5000040000F00F000A2800D0FE2515BB00245A
:102A600004E0385D01A90855601CC4B2102CF8DBE5
:102A700005AA102101A8FEF74BF906A801AB122206
:102A800001A900900C20FFF767FB05464DB9BDF882
:102A90001800042805D19DF8040000F00F000A2852
:102AA00000D0FE25284607B0F0BD000001490862AD
:102AB0007047000000000E42704700001CB5012165
:102AC000084600F029F80220009000208DF804004C
:102AD00001208DF8070069460148FEF73AFF1CBD4A
:102AE000000002401CB50121084600F015F8022044
:102AF000009001208DF8040000208DF806000220CF
:102B00008DF8050001208DF8070069460148FEF7A1
:102B100020FF1CBD0000024029B1064A1268024392
:102B2000044B1A6004E0034A12688243014B1A60A6
:102B3000704700003038024029B1064A126802434B
:102B4000044B1A6004E0034A12688243014B1A6086
:102B5000704700004038024029B1064A126802431B
:102B6000044B1A6004E0034A12688243014B1A6066
:102B7000704700004438024029B1064A12680243F7
:102B8000044B1A6004E0034A12688243014B1A6046
:102B90007047000024380240F0B5002100220024D4
:102BA000022500260223324F3F6807F00C0121B1B5
:102BB000042905D0082937D105E02E4F076036E0FB
:102BC0002D4F076033E02A4F3F1F3F68C7F3805601
:102BD000274F3F1F3F6807F03F036EB1264FB7FBFB
:102BE000F3F7DFF88CC0ACF1040CDCF800C0CCF3D8
:102BF000881C07FB0CF40CE01E4FB7FBF3F7DFF863
:102C000070C0ACF1040CDCF800C0CCF3881C07FBEE
:102C10000CF4174F3F1F3F68C7F301477F1C7D002F
:102C2000B4FBF5F7076002E0124F076000BF00BF7A
:102C30000F4F3F6807F0F0010909104F7A5C0768F1
:102C4000D74047600A4F3F6807F4E051890A0B4FAD
:102C50007A5C4768D7408760054F3F6807F460415A
:102C6000490B064F7A5C4768D740C760F0BD00004B
:102C7000083802400024F40000127A0014000020FA
:102C800010B501460022002300204A11012A02D17A
:102C90000A4C236808E0022A03D1084C70342368E8
:102CA00002E0064C7434236801F01F0201249440B2
:102CB0001C400CB1012000E0002010BD0038024093
:102CC0000021094A11701170012802D0042808D18E
:102CD00003E00121044A117004E00521024A117049
:102CE00000E000BF00BF7047703802400149086033
:102CF000704700003C0E4742002100F44072B2F5DC
:102D0000407F08D1094A116821F4F811084A0240AD
:102D10001143064A1160054A68321268C0F30B037A
:102D20001A43024B68331A607047000008380240AB
:102D3000FFFCFF0F014600BF080900EB80004200C6
:102D400001F00F001044C0B270470146002204E0B9
:102D5000501CC2B2A1F10A00C1B20A29F8DA100768
:102D600041EA10607047000008B500220092002080
:102D70000021104A126802F04002CAB9421E0D4BEF
:102D80001A6000BF0B4A126802F04001009A521C00
:102D90000092009AB2F5803F01D00029F2D0054A96
:102DA000126802F040020AB1012002E0002000E0B7
:102DB000012008BD0C2800400348006820F0800076
:102DC00001490860704700000C28004070B50646B5
:102DD0000C4600250E4800680E4900EA0105280C43
:102DE000E070C5F30420607005F03F00A070C5F3EB
:102DF000423020705EB9E078FFF79CFFE0706078A9
:102E0000FFF798FF6070A078FFF794FFA07070BD87
:102E1000042800403FFFFF0070B506460C46002521
:102E20000F4800680F4900EA0105C5F3054020700E
:102E3000C5F30620607005F07F00A07005F48000E7
:102E4000000CE0705EB92078FFF774FF20706078A6
:102E5000FFF770FF6070A078FFF76CFFA07070BD87
:102E6000002800407F7F7F0030B504460025CA203F
:102E70001549086053200860FFF776FF00B91DE090
:102E800011481C38006820F040000F491C390860C8
:102E900008460068216808430B491C3908600A4944
:102EA0001439A068086008460068A18840EA01401B
:102EB000054914390860FFF77FFF0125FF2002490B
:102EC0000860284630BD0000242800402DE9F0416C
:102ED00005460C46002600274DB9607800F010002A
:102EE000102804D1607820F010000A30607005B915
:102EF00008E06078FFF71EFF0646A078FFF71AFF8C
:102F0000064600BF55B1E0780004617840EA012030
:102F1000A1780843217840EA413611E0E078FFF7D4
:102F200014FF4FEA00486078FFF70FFF48EA0028D7
:102F3000A078FFF70AFF48EA0008207848EA403600
:102F4000CA201249086053200860FFF70DFF08B936
:102F5000002714E00E4830400C4920390860FFF784
:102F60002BFF0A481C38006800F0200030B900F040
:102F700079F808B9002702E0012700E00127FF20C7
:102F8000024908603846BDE8F0810000242800406E
:102F90003FFFFF002DE9F04105460C4600260027C3
:102FA0004DB92E48006800F0400000B102E000205A
:102FB000E07000BF0DE02948006800F0400020B13B
:102FC0002078FFF7B7FE064602E00020E07000BF61
:102FD00000BF55B120780004617840EA0120A17853
:102FE0000843E17840EA014611E02078FFF7ADFEA2
:102FF0004FEA00486078FFF7A8FE48EA0028A0786A
:10300000FFF7A3FE48EA0008E07848EA0046CA2035
:1030100012491C31086053200860FFF7A5FE08B96B
:10302000002713E00E4830400C4908390860FFF7CC
:10303000C3FE0A48006800F0200030B900F012F822
:1030400008B9002702E0012700E00127FF2003491B
:103050001C3108603846BDE8F081000008280040B7
:103060007F7F7F0008B50022009200200021CA2245
:10307000134B1A6053221A60114A183A126822F050
:10308000A0020F4B183B1A6000BF0D4A183A126895
:1030900002F02001009A521C0092009AB2F5003F03
:1030A00001D00029F1D0064A183A126802F0200235
:1030B0000AB1012000E00020FF22014B1A6008BD88
:1030C0002428004018B1FF21044A116004E0CA21FD
:1030D000024A11605321116070470000242800400B
:1030E00070B50546002406E0601C84B2B4F5FA7F92
:1030F00001DD002070BD02210E4800F029F80028F3
:10310000F2D029460B4800F02FF8002406E0601C9E
:1031100084B2B4F5FA7F01DD0020EBE70121054818
:1031200000F016F80028F2D0024800F01AF8C0B2F9
:10313000E0E700000038004021B1028842F0400280
:10314000028004E002884FF6BF731A400280704785
:103150000246002013890B400BB1012000E0002043
:1031600070470146888970478181704710B50022F9
:10317000028802F441520B884C8823438C882343F5
:10318000CC8823430C8923434C8923438C892343D4
:10319000CC8923431A430280838B4FF2FF74234070
:1031A00083830B8A038210BD7047000030B5002274
:1031B0008B071C0F0F2303FA04F20B4B8C1053F8F0
:1031C00024309343084C8D1044F8253023468C104E
:1031D00053F824308C07240F00FA04F42343024CE4
:1031E0008D1044F8253030BD0838014010B500245A
:1031F000FFF764FC04E0601CC4B20120FEF7AEF8E7
:1032000002210848FEF710FC08B1322CF3DB322C07
:1032100001DB012010BDC4F5FA70FEF79FF8002015
:10322000F8E700000000024010B500F09DF8FFF73D
:10323000DDFFCC2000F0D4F8442000F0D1F810BD20
:1032400070B52DED068B00F08FF8FFF7CFFFCC2087
:1032500000F0C6F8BE2000F0C3F800F075F806468E
:1032600000F072F80546072D21DDF043C6B2E843B1
:10327000C5B22C464FF6FF7000EA0424A01984B2B0
:1032800000EE104AB8EE400A10EE100AFDF79AF868
:1032900041EC1A0B9FED170B53EC102BFDF720F8A8
:1032A00041EC190BFDF7A1F808EE100A1CE02C46C2
:1032B0004FF6FF7000EA0424A01984B200EE104A11
:1032C000B8EE400A10EE100AFDF77CF841EC1A0B3C
:1032D0009FED0A0B53EC102BFDF702F841EC190B94
:1032E000FDF783F808EE100AB0EE480ABDEC068B35
:1032F00070BD0000000000000000B0BF0000000032
:103300000000B03F10B5FFF7EDFB02210D48FEF7BE
:1033100094FB0220FEF722F802210A48FEF78FFBF9
:10332000FFF7CCFB0820FEF719F802210548FEF74D
:103330007BFB08B1012400E000243C20FEF70EF8DE
:10334000204610BD0000024070B50025002607E0B1
:10335000FFF7D8FF0446E00140EA6500C5B2761CDD
:10336000082EF5DB284670BD10B5FFF7BBFB022128
:103370000748FEF762FB4FF47A70FDF7EFFF02217A
:103380000348FEF75CFB0F20FDF7E8FF10BD0000CF
:103390000000024010B50446FFF7A4FB74B10221FF
:1033A0000E48FEF74AFB0520FDF7D8FF02210B4827
:1033B000FEF745FB3C20FDF7D1FF0DE00221074859
:1033C000FEF73BFB3C20FDF7C9FF02210348FEF757
:1033D00036FB0520FDF7C2FF10BD000000000240D3
:1033E00070B50446002606E004F001056410284686
:1033F000FFF7D0FF761C082EF6DB70BD0CB5002061
:10340000019000903348006840F4803031490860F2
:1034100000BF3048006800F4003000900198401C64
:103420000190009818B90198B0F5A04FF1D1294842
:10343000006800F4003010B10120009001E000208D
:1034400000900098012844D122484030006840F0A4
:1034500080502049403108601F48006840F44040D7
:103460001D4908601B48083000681A490831086087
:103470000846006808600846006840F4805008600C
:103480001648091F0860081F006840F08070091F77
:10349000086000BF0F48006800F000700028F9D0F5
:1034A00040F202700E4908600A480830006820F0B7
:1034B00003000849083108600846006840F002002F
:1034C000086000BF03480830006800F00C000828BE
:1034D000F8D10CBD0038024000700040085441078C
:1034E000003C024000B587B007A103C9CDE9050142
:1034F00001AB05AA00210120FFF700F810B9012057
:1035000007B000BD0020FBE7FFFFFFFFFFFF00004B
:103510000448007818B9012002490870704700205B
:10352000FCE70000460000201CB50020FDF72FFB43
:103530000A20FDF7E3FE1DA103C9CDE9000168469D
:1035400000F0FAF801210020FFF706F81949486059
:1035500001210020FFF73EF816498860084690F8E0
:103560002C0040F0080081F82C0000F051FC00F025
:10357000A7F900F0C7FC0F4890F82C0020F00800D5
:103580000C4981F82C0000F02FFC70B101F076F9A5
:1035900028B90020FDF7FBFA0A20FDF7AFFE01F085
:1035A0008DF9FEF773F9FEF7C3F91CBD5761697415
:1035B0002E2E2E006402002000B585B00B4890F836
:1035C0002C0040F01000094981F82C000120FDF783
:1035D000DEFA07A1684601F019FA684600F0ACF877
:1035E0000120FDF7AFFE05B000BD00006402002021
:1035F0004F626A656374204C6566742100000000A8
:1036000005480078012804D10020034908700120F2
:1036100070470020FCE700004600002000B52DEDBB
:10362000048B85B03E4890F82C0000F02000202844
:1036300014D000203A49486088609FED3A0A084655
:1036400080ED080A9FED370A80ED090A9FED350AE3
:1036500080ED0A0A05B0BDEC048B00BDFEF71CF935
:103660002F4880ED090A90ED090A2F48D0ED000A95
:1036700020EE208A2A4890ED0A0A30EE480A80EDB2
:103680000A0AFEF75FF9FEF701F901F0F7F80128E1
:1036900005D10020FDF77BFA0A20FDF72FFE01F08F
:1036A0001BF918EE100AFCF78DFE41EC190B53ECD8
:1036B000192B1EA1684601F0A9F9684600F03CF8F4
:1036C000174890F82C0040F00400154981F82C00B0
:1036D00000F09EFB00F0F4F800F014FC104890F8A5
:1036E0002C0020F004000E4981F82C00084690F8C8
:1036F0002C0020F0200081F82C0000204860886019
:103700009FED080A084680ED080A9FED060A80ED45
:10371000090A9FED040A80ED0A0A00BF9AE700003B
:10372000640200200000000048000020436F737412
:103730003A20252E3266000070B58AB00646404811
:10374000407D3F49097D3E4A927CCDE900210290AF
:103750003B48437CC27C3BA104A801F057F9002000
:10376000162304AA01460090FDF754FF344890F850
:103770002C0000F08000802804D138A104A801F0BA
:1037800045F903E037A104A801F040F90020162311
:1037900004AA014600904E20FDF73CFF3046FCF79E
:1037A0008FFDC0F11000C0F34704002507E0E906D3
:1037B000080E012320221946FDF7CEFE6D1CA542FE
:1037C000F5DB3046FCF77CFDC5B20120E106009038
:1037D000080E2B4632460121FDF71CFF3046FCF750
:1037E0006FFD051907E0E906080E0123202219469E
:1037F000FDF7B2FE6D1C102DF5DB01F03FF820B196
:103800001AA104A801F002F903E01BA104A801F029
:10381000FDF80020162304AA03210090FDF7FAFE0C
:10382000074818A1826804A801F0F0F800201623C8
:1038300004AA032100903C20FDF7ECFE0AB070BD05
:103840006402002025303264253032642530326431
:1038500020253032643A2530326420005761746587
:10386000724F4E004E6F57617465720056616C76F0
:1038700065204F4E2000000056616C7665204F4653
:10388000462000002530313164000000054890F8E2
:103890002C0000F00200022801D101207047002016
:1038A000FCE7000064020020044890F82C0000F0BF
:1038B000010008B1012070470020FCE764020020ED
:1038C000F0B5A1B00025FEF77BF9064600BF01A8C0
:1038D000FDF7C0FB0446002C7CD09DF80400242892
:1038E0007AD19DF82200242876D19DF808309DF8E1
:1038F00007209DF806109DF80500FEF7F4FB4449EB
:1039000088609DF8090081F82C009DF80D309DF825
:103910000C209DF80B109DF80A00FEF7D9FB00EE75
:10392000100AB8EEC00ADFED3B0A80EE201A3848D4
:1039300080ED0A1A9DF80E10C1749DF80F104174A5
:103940009DF8101081749DF81100314908749DF89C
:10395000120008759DF813102D4841759DF814103C
:1039600081759DF81510C1759DF8160028490876D7
:103970009DF81710264841769DF8181081769DF81D
:103980001910C1769DF81A00214908779DF81B107F
:103990001F4841779DF81C1081779DF81D10C17755
:1039A0009DF821309DF820209DF81F109DF81E00E5
:1039B000FEF799FB1649C8601748027817A1194805
:1039C00001F024F80423174A174801780020FDF776
:1039D00053FB01250DE0FFE70F48027813A11548BE
:1039E00001F014F80423134A0F4801780020FDF772
:1039F00043FBFEF7E5F8801B052801D921B0F0BD97
:103A0000002C3FF464AF012D7FF461AF00BFF5E7F8
:103A1000640200200000C8424400002024256341C5
:103A20002400000094020020450000202425634E5D
:103A3000240000001403002010B5FEF7F7F908B1C8
:103A4000012010BD0020FCE700B585B00B4890F8C0
:103A50002C0000F04000402804D109A1684600F085
:103A6000D5FF03E009A1684600F0D0FF6846FFF7E4
:103A700063FE0120FDF766FC05B000BD6402002076
:103A800052657365727665642100000049646C6557
:103A90002E2E2E0010B52DED028B86B0354890F8F5
:103AA0002C0040F02000334981F82C00FFF7BCFBCC
:103AB000FFF7C6FB2F4880ED080AFDF7EDFE2D4805
:103AC00080ED090A90ED0A0AD0ED090A2A4890ED26
:103AD000001A00EEC10A10EE104A284800780321AF
:103AE00090FBF1F201FB120080B9224890ED080A28
:103AF00010EE101A0846FCF765FC41EC180B53EC6D
:103B0000182B1FA101A800F081FF24E01B480078BA
:103B1000032190FBF1F201FB1200012810D115489E
:103B200090ED090A10EE101A0846FCF74BFC41EC28
:103B3000180B53EC182B15A101A800F067FF0AE041
:103B40002046FCF73FFC41EC180B53EC182B12A15C
:103B500001A800F05BFF01A8FFF7EEFD0748007821
:103B6000401C064908700120FDF7ECFB06B0BDECD7
:103B7000028B10BD64020020480000204C00002091
:103B800054656D703A20252E32660000466C6F77C2
:103B90003A20252E3266000052656D61696E3A202A
:103BA000252E32660000000000B585B00A20FDF722
:103BB000A5FBFEF726F800F03BF80F20FDF736F8DE
:103BC000FDF740F8FDF7DAF8FDF740FCFDF7ECFBF8
:103BD000FDF774FEFDF75AFEFEF761F9FEF768FA8D
:103BE000FEF7A6FB00F052FC00F04EFE00F074FE63
:103BF0000220FDF7A7FB0AA30FCBCDE90323CDE9F4
:103C000001010120FF2301AA014600901020FDF7C9
:103C100001FD0120FDF796FBFDF7C6FB05B000BDD9
:103C2000496E697469616C697A65642100000000FD
:103C300010B5104800781049087010480078487096
:103C4000002048608860C8601431081FFDF7ACFF91
:103C50009FED0B0A084880ED080A9FED090A80EDE8
:103C6000090A9FED070A80ED0A0AC020024981F87F
:103C70002C0010BD450000206402002044000020FC
:103C80000000000030B585B02A48007F4FF4616124
:103C900010FB01F12748407FC0EB001001EB8001D1
:103CA0002448807F0C182348007D4FF4616110FB8D
:103CB00001F12048407DC0EB001001EB80011D4860
:103CC000807D0D181C480078052190FBF1F201FB66
:103CD000120070B9A5420CD30120FCF758FF17A1C0
:103CE000684600F093FE6846FFF726FD0320FDF7C7
:103CF00029FB114800780F2190FBF1F201FB120023
:103D000080B9601BB0F5967F0CD80120FCF73FFF0F
:103D10000DA1684600F07AFE6846FFF70DFD03200E
:103D2000FDF710FB04480078401C0349087005B0FB
:103D300030BD0000640200204D00002054696D6514
:103D4000205570210000000054696D6520557020D9
:103D5000536F6F6E2100000000B585B00020FCF7A6
:103D600016FF06A1684600F051FE6846FFF7E4FC26
:103D70000120FDF7E7FA05B000BD00004E6F2041BD
:103D800070706F696E746D656E74210000B585B0DA
:103D90000020FCF7FCFE06A1684600F037FE6846EE
:103DA000FFF7CAFC0120FDF7CDFA05B000BD000009
:103DB00053776970652043617264210010B5FEF786
:103DC00033F908B1012010BD0020FCE7054890F848
:103DD0002C0000F01000102801D1012070470020B5
:103DE000FCE7000064020020084890F82C0000F076
:103DF0004000402807D1054880680449C9688842C6
:103E000001D1012070470020FCE70000640200207F
:103E100000B5A1B024208DF80400374800788DF853
:103E200005000DF109003549009002AB5A1E4868A3
:103E3000511E00F016FD0DF10D003049009003AB4E
:103E40005A1E8868511E00F00CFD2C4890F82C007A
:103E50008DF80E000DF112002849009091ED080A2E
:103E6000BDEEC00A10EE101A642201FB02F00DF143
:103E7000110304AA511EFEF721F90DF116001F4986
:103E8000009091ED090ABDEEC00A10EE101A6422EE
:103E900001FB02F00DF1150305AA511EFEF70EF904
:103EA0000DF11A001549009091ED0A0ABDEEC00A05
:103EB00010EE101A642201FB02F00DF1190306AA9C
:103EC000511EFEF7FBF824208DF81B00182301AAD1
:103ED0000B4801780020FDF7CFF800F06BF848B9E7
:103EE0000520FDF70BFA182301AA054801780020E8
:103EF000FDF7C2F821B000BD44000020640200209C
:103F00004500002010B50249081FFDF7CAFE10BD8C
:103F100078020020044890F82C0040F0020002498A
:103F200081F82C007047000064020020044890F8DB
:103F30002C0040F00100024981F82C00704700007D
:103F40006402002010B5FFF7CDFA10B9FFF736FF75
:103F500010B1FFF731FB09E0054890F82C0020F084
:103F60001000034981F82C00FFF76EFD10BD000022
:103F70006402002000B585B00A4890F82C0000F0DB
:103F8000800080280CD00120FCF701FE06A16846C5
:103F900000F03CFD6846FFF7CFFB0320FDF7D2F9A8
:103FA00005B000BD6402002057617465722053742F
:103FB0006F70210010B5A0B0002421E00120FDF7B2
:103FC0009DF96846FDF746F800B918E09DF8000035
:103FD000242803D19DF80300242800D00FE09DF889
:103FE000010009490978884200D008E09DF80200E4
:103FF000412802D1012020B010BD0020FBE7641C45
:104000000A2CDBDB0020F6E74400002070470000AC
:1040100010B51548006840F4700013490860134853
:10402000006840F001001149086000200F49083184
:1040300008600E4800680E4908400C4908600D48A9
:10404000091D0860081F006820F48020091F08600F
:10405000002006490C310860FFF7D0F94FF00060EE
:1040600001498039086010BD88ED00E00038024049
:10407000FFFFF6FE10300024F0B50C461546002177
:104080000022068C4FF6FE773E400684018B028CA0
:104090004FF60C7631407E1C06EA03162E43314360
:1040A0004FF6F576324044F0010632430183028434
:1040B000F0BDF0B50C461546002100220026078C05
:1040C0004FF6EF7C07EA0C070784018B028C4FF652
:1040D000FF7707EA041640F6FF4739404FF6FF77AF
:1040E00007EA033739434FF6FF7707EA05273943D5
:1040F0004FF65F773A4046F010073A430183028457
:10410000F0BD000000B585B00121124800F0EFF8C5
:10411000F0B101210F4800F0C9F800210D4800F06E
:10412000C8F800210B4800F04DF920210A48FDF79E
:104130007BFC68B9FFF7FAFE142208A16846FCF779
:104140009BF86846FFF7F8FA0320FCF720FD00BF54
:1041500005B000BD000400400000024044657669DF
:104160006365204661696C7572652021000000005E
:104170001FB501210220FEF7DFFC0020ADF80C0086
:10418000ADF806006320029042F2CF00ADF80400C3
:1041900001A90B4800F038F91D208DF8000000201F
:1041A0008DF801008DF8020001208DF803006846AB
:1041B000FEF77EFA01221146014800F0A9F81FBD62
:1041C000000400400EB50121124800F090F800B341
:1041D0000121104800F06AF800210E4800F069F84B
:1041E00000210C4800F0EEF840210B48FDF71CFCC4
:1041F00078B9FFF78FFEFFF757FB38B907A207CA58
:104200008DE807006846FFF797FA00BF0220FCF729
:10421000BEFC0EBD00080040000002404E45454473
:104220002048454C502100001FB501210420FEF715
:1042300083FC0020ADF80C00ADF80600632002906E
:1042400042F2CF00ADF8040001A90B4800F0DCF801
:104250001E208DF8000000208DF801008DF802006E
:1042600001208DF803006846FEF722FA012211466C
:10427000014800F04DF81FBD000800400EB50121B7
:104280000820FEF759FC0020ADF80800ADF8020048
:104290004FF6FF7001905320ADF8000069460248C8
:1042A00000F0B2F80EBD0000000C0040CA430282CC
:1042B000704721B1028842F00102028004E00288C6
:1042C0004FF6FE731A400280704731B1B0F84420B7
:1042D00042F40042A0F8442005E0B0F84420C2F3C4
:1042E0000E02A0F8442070470146486A704730B576
:1042F0000246002000230024158A05EA010395895F
:1043000005EA010413B10CB1012000E0002030BD2A
:104310001AB183890B43838102E083898B438381B4
:104320007047000070B5002400220023058C4FF672
:10433000FE7635400584028C8388048B4FF68F759A
:104340002C40B51E2C400D882C43751E2A408D89AB
:104350002A434D882A43104DA84202D00F4DA8424F
:1043600013D14FF6F7752A40CD892A434FF6FB75D6
:104370002A408D882A434FF6FF652B404FF6FF55A4
:104380002B400D8A2B434D8A2B43838004838D68F9
:104390004563028470BD000000000140000401403C
:1043A0000A460021018B4FF6F77319401143018330
:1043B00070470A46002101894FF68F731940114357
:1043C00001817047416270472DE9F04104460D4676
:1043D00016461F46602D06D13B4601223146204637
:1043E000FFF767FE05E03B46012231462046FFF716
:1043F00043FE29462046FFF7DCFF208940F00700F6
:104400002081BDE8F081000000220288184B98420C
:104410000ED0184B98420BD0B0F1804F08D0164BFD
:10442000984205D0154B984202D0154B984204D1C2
:104430004FF68F731A404B881A43124B984207D09D
:10444000114B984204D04FF6FF431A400B891A4390
:1044500002804B68C3620B880385054B984202D0EB
:10446000044B984201D18B7A0386012383827047E3
:10447000000001400004014000040040000800402A
:10448000000C004000100040001400401CB5012149
:104490000846FEF741FB0220009001208DF8040041
:1044A00000208DF8060002208DF8050001208DF80F
:1044B000070069460548FDF74CFA02210348FDF75D
:1044C000BEFAFEF751FFFEF791FE1CBD0000024050
:1044D00010B590B0044601218805FEF71DFB4FF092
:1044E00000600190002004900A904FF440300B903F
:1044F00000200C9003200D90184802900020089096
:1045000006900F90039409904FF48060079000206C
:104510000E904FF6FF70059001A91148FCF7BEFE02
:1045200010490F48FCF740FE012210210C48FCF70F
:1045300097FE44208DF8000002208DF80100002035
:104540008DF8020001208DF803006846FEF7B0F8F0
:1045500001210348FCF742FE10B010BD04100140D9
:10456000886402400088002010B590B00446012104
:104570008805FEF7D1FA4FF00060019040200490CA
:1045800000200A904FF440300B9000200C90032044
:104590000D90174802900020089006900F90039409
:1045A00009904FF48060079000200E904FF6FF7046
:1045B000059001A90F48FCF771FE0F490D48FCF763
:1045C000F3FD012210210B48FCF74AFE46208DF82E
:1045D000000002208DF8010000208DF8020001206B
:1045E0008DF803006846FEF763F810B010BD0000B8
:1045F00004100140B86402400080002810B540F269
:1046000024410B4800F06FF880B10A48FCF7F1FD37
:104610004FF6FF71081A0849088000210548FCF789
:10462000DDFD034800F018F9C4B200BF10BD000062
:1046300000100140886402404200002000B585B0AF
:1046400001211020FEF788FA4FF4E130019000209C
:10465000ADF80800ADF80A00ADF80C00ADF8100098
:104660000C20ADF80E0001A9134800F08BF80122D0
:1046700040F22441104800F060F825208DF8000039
:1046800002208DF8010000208DF8020001208DF835
:1046900003006846FEF70CF801224021064800F0AE
:1046A00019F801228021044800F014F80121024881
:1046B00000F004F805B000BD0010014021B182896E
:1046C00042F40052828104E082894DF6FF731A4061
:1046D000828170471AB1838A0B43838202E0838A06
:1046E0008B438382704770B5024600240023002567
:1046F000002040F66A16B14200D100BFC1F3421556
:1047000001F01F03012606FA03F3012D02D1968959
:10471000334006E0022D02D1168A334001E0968A2A
:1047200033400C12012606FA04F41688344013B103
:104730000CB1012000E0002070BDF0B5034600245C
:1047400000260025002040F66A17B94200D100BFBC
:104750001846C1F3421401F01F06012707FA06F5B7
:10476000012C01D10C3004E0022C01D1103000E00A
:1047700014301AB107682F43076002E00768AF439F
:104780000760F0BD2DE9FF4705460E460024A1460F
:1047900000BFA046B08900B100BF2C8A24F4405469
:1047A000F08804432C82AC8941F20C608443B088C9
:1047B00031890843718908430443AC81AC8A24F4ED
:1047C0004074B0890443AC826846FEF7E5F920489E
:1047D000854202D01F48854202D1DDF80C9001E0ED
:1047E000DDF80890A88900F4004040B109EBC90049
:1047F00000EB091031684900B0FBF1F707E009EB65
:10480000C90000EB091031688900B0FBF1F76420A2
:10481000B7FBF0F004012009642101FB1078A8899E
:1048200000F4004040B1322000EBC800B0FBF1F0D2
:1048300000F00700044308E0322000EB0810642178
:10484000B0FBF1F000F00F0004432C81BDE8FF87BE
:10485000001001400014014001468888C0F30800A0
:10486000704730B5039C0870000A1070000A187079
:10487000000A207030BD00BFFEE70000014800784C
:1048800070470000240000201CB501210846FEF7F7
:1048900043F91020009001208DF8040000208DF8CD
:1048A000060002208DF8070000208DF805006946FB
:1048B0000148FDF74EF81CBD0000024010B5012074
:1048C0000349087010210348FDF7B9F810BD000036
:1048D000240000200000024010B5002003490870A9
:1048E00010210348FDF7A9F810BD000024000020A6
:1048F000000002407CB505460C4601210846FEF743
:104900000BF9072209211A48FDF76BF84FF40070E4
:10491000009002208DF8040000208DF80600012090
:104920008DF8070002208DF8050069461048FDF754
:1049300010F801210846FEF7EFF807220A210C487B
:10494000FDF74FF84FF48060009002208DF80400CE
:1049500000208DF8070069460548FCF7FAFFFFF7CD
:104960006DFE2046FFF7B4FD2846FFF7FDFD7CBD38
:104970000000024070B50446002507E00B480078AF
:1049800000B105E00120FCF7B9FC6D1CA542F5DB88
:1049900000BF0648007810B90548008870BD0020A7
:1049A0000249087002480088F8E700004000002033
:1049B0004200002070B504460D4604B970BD0026C3
:1049C00007E01048007800B105E00120FCF796FCF4
:1049D000761CAE42F5DB00BF0A48007800B9EDE76F
:1049E00000210948FCF7FAFB21460748FCF782FC46
:1049F00000200449087001210348FCF7EFFB00BFC9
:104A0000DCE7000041000020B86402400FB4084B0E
:104A100010B504A902AA039800F0DEF8044602A922
:104A2000002000F05CFC204610BC5DF814FB000088
:104A3000DF52000802E008C8121F08C1002AFAD19C
:104A400070477047002001E001C1121F002AFBD10E
:104A5000704700002DE9FF5F82B00021DDE90430DE
:104A6000020DDDF840B0034318D044F61050A2F216
:104A7000FF3242431514119801281FD0A5EB0B00FB
:104A8000401C5FEA000A4FF000064E4FDFF83891F5
:104A9000B046504615D5CAF1000413E01198012420
:104AA0004AA3012801D16FEA0B010298119AC0E9CB
:104AB0000031C0E9024206B0BDE8F09FCBF1000032
:104AC000DFE704460021404A491842EB0450CDE993
:104AD000001012E0E00707D032463B464046494608
:104AE000FBF7FEFB8046894632463B461046194698
:104AF000FBF7F6FB06460F466410002CEAD1DDE911
:104B00000401DDE90023BAF1000F06DAFBF7E8FB48
:104B100042464B46FBF7E4FB05E0FBF74AFE424604
:104B20004B46FBF746FE04460E460022284BFBF799
:104B3000C7FE03D84FF0FF30014607E00022254BA7
:104B400020463146FBF78EFDFBF7A2FE102409E05C
:104B5000002C0ADB0A220023FBF779FC039B30328E
:104B60001A55641E50EA0102F2D1641C039AC4F182
:104B700011031444119A012A03D0012208430DD1D4
:104B80000AE0084304D000204FF0110B119072E7A7
:104B9000A3EB0B056D1E0DE05B4504DD4FF000023D
:104BA00005F1010504E003DA4FF00002A5F101056B
:104BB000002AECD002981199C0E90231C0E9004501
:104BC00079E70000000014400000F03F30000000D2
:104BD0000000F0430000E03F2DE9FF4F95B09A46FA
:104BE000884606460025EEE1252877D10024274691
:104BF000F94A0121039400E0044316F8013F203BE9
:104C000001FA03F01042F7D130782A2811D06FF062
:104C10002F033078A0F13002092A16D8039A44F005
:104C2000020402EB820203EB42021044761C039062
:104C3000EFE758F8042B0392002A03DA504244F4B9
:104C40000054039044F00204761C30782E2816D1CC
:104C500016F8010F44F004042A280DD06FF02F023B
:104C60003078A0F13003092B09D807EB870302EB5A
:104C70004303C718761CF3E758F8047B761C30789A
:104C80006C280FD006DC4C2817D068280DD06A2875
:104C900014D104E0742810D07A280FD10DE044F428
:104CA00000140AE044F4801401E044F440147278E3
:104CB000824202D104F58014761C761C3078662876
:104CC0000BD013DC582877D009DC002875D0452894
:104CD000F6D04628F4D047281AD193E118E063288B
:104CE00035D0642879D0652812D18BE1702873D033
:104CF00008DC6728F1D069286FD06E280DD06F28A6
:104D000006D1ACE073282CD0752874D0782853D005
:104D10005246179990476D1C54E1C4F30250022883
:104D200009D003280DD0D8F8001004280DD00D604C
:104D300008F1040846E1D8F80010EA17C1E900526A
:104D4000F6E7D8F800100D80F2E70D70F0E718F8DC
:104D5000041B8DF8001000208DF80100EB460120A7
:104D600003E058F804BB4FF0FF3061074FF000013B
:104D700002D40DE009F101018946B9420FDA8145FB
:104D8000F8DB1BF809100029F4D108E009F1010152
:104D900089468142FADB1BF809100029F6D10398F5
:104DA0005346A0EB090721463846179A00F080FACF
:104DB000284400EB090507E044E008E10DE01BF89A
:104DC000010B524617999047B9F10109F7D25346A2
:104DD00021463846179AF2E039E00A21C4F302521C
:104DE0004FF0000B0091022A06D058F8040BC117AF
:104DF000032A09D00AE023E008F1070020F00702A7
:104E0000F2E80201904605E000B2C117042A01D180
:104E100040B2C117002906DA0A460021404261EB80
:104E200002012D2202E0220504D52B228DF8042058
:104E3000012203E0E20701D02022F7E7914657E084
:104E40000A2100E010214FF0000B00910BE010212F
:104E50004FF0000B44F004040827009103E0082001
:104E60004FF0000B0090C4F30252022A05D058F80C
:104E7000040B0021032A08D008E008F1070020F005
:104E80000702F2E80201904603E080B2042A00D152
:104E9000C0B24FF0000922072AD53278702A07D015
:104EA000DDF800C08CF0100C5CEA0B0C05D00EE0B5
:104EB00040228DF80420012208E050EA010306D0C8
:104EC00030238DF804308DF8052002229146009B96
:104ED00083F0080353EA0B030AD150EA010201D11F
:104EE000620705D530228DF804204FF001097F1E9E
:104EF0003278582A04D039A20C920CAA02920BE004
:104F00003BA2F9E75B46009AFBF7A1FA0C9B9B5C7E
:104F1000029A521E0292137050EA0102F2D10298D4
:104F200004A9081A00F1200B600702D524F480348C
:104F300000E001275F4502DDA7EB0B0000E0002049
:104F400000EB0B01009003984944401A0390E003E2
:104F500006D453462146179A039800F0A9F9054450
:104F6000002706E001A85246C05D179990476D1CC6
:104F70007F1C4F45F6DBE0030CD553462146179ABC
:104F8000039800F095F9054404E030205246179943
:104F900090476D1C0099481E00900029F5DC08E040
:104FA0000298029952460078491C0291179990473D
:104FB0006D1CBBF10001ABF1010BF1DC5BE100F01A
:104FC00065F90544761C307800287FF40DAE19B0E1
:104FD0002846BDE8F08F0000092801003031323347
:104FE0003435363738396162636465660000000025
:104FF000303132333435363738394142434445460F
:1050000000000000600700D4062708F1070020F028
:105010000700F0E80223804603F0004C5FEA0C0032
:1050200001D097A009E0200501D596A005E0E00792
:1050300001D095A001E0AFF24C001390307823F03E
:10504000004365280CD006DC452809D046281DD031
:1050500047287FD13BE0662818D067287AD136E010
:105060000021112F01DB112000E0781CCDE90001A7
:1050700004A90CA8FFF7EEFCDDE90D010C9A4FF036
:10508000000B07F10109109200914EE04FF0004033
:105090000097CDE9011004A90CA8FFF7DBFCDDE9BE
:1050A0000D020C9B0F994FF0000B9146109300924C
:1050B00011B9791C00EB0109B7EB090003D4C0F169
:1050C000FF3B07F10109A9EB0700019042E0012F26
:1050D00000DA01270021112F01DD112000E0384600
:1050E000CDE9000104A90CA8FFF7B4FCDDE90D012E
:1050F0000C9A00914FF0000BB946109221070FD483
:10510000009A4A4503DA914601E0A9F10109B9F193
:10511000010F05DD109AA9F10101515C3029F4D08D
:10512000B84202DA10F1040F03DA0121CDE90110CF
:1051300010E0002803DC8344A9EB000102E0411CDD
:10514000494500DD8946A0EB0B00401C01904FF063
:1051500000400290200705D40198484502DB4FF03B
:10516000FF30019000208DF84B0002980DF14B07A5
:10517000B0F1004F25D002200C902B200D9002980A
:1051800000280CDA404202902D200D9007E00A2101
:105190000298FBF746F93031029007F8011D0C998F
:1051A000481E0C900029F2DC02980028EFD1791EED
:1051B0000D980870307800F0200040F0450007F8A6
:1051C000020D11A8C01BC01D02901398007800B1F9
:1051D000012000EB0901019801EBE0710298014404
:1051E0000398401A401E0390E00306D4534621461C
:1051F000179A039800F05CF805441398007818B1EA
:105200005246179990476D1CE00323D5534621461B
:10521000179A039800F04CF805441BE0BBF1000F0F
:1052200007DB0098584504DD1098179910F80B001B
:1052300001E0179930205246904701980BF1010B7D
:10524000401E05F10105019004D12E205246179908
:1052500090476D1CB9F10001A9F10109DEDC05E000
:1052600017F8010B5246179990476D1C0299481E7A
:1052700002900029F4DC53462146179A03989EE6D3
:105280002D0000002B000000200000002DE9F0415F
:10529000044600251E461746880404D405E0394616
:1052A0002020B0476D1C641EF9D52846BDE8F0816A
:1052B0002DE9F041044600251E469046C80301D55D
:1052C000302700E02027880404D505E04146384611
:1052D000B0476D1C641EF9D52846BDE8F0810A6808
:1052E000531C0B601070704786B0FEF75DFC4AE0FF
:1052F000FEF708FEFEF76AFD10B1FEF723FE42E05E
:10530000FEF7D2FA40B114221FA101A8FAF7B4FFA8
:1053100001A8FEF711FA36E0FEF7B8FA38B11FA27D
:1053200007CA03AB07C303A8FEF706FA2BE0FEF794
:1053300083FBE8B1FEF7D6F888B1FEF7E9F808B1CB
:10534000FEF7F2F8FEF750FD30B1FEF7A3FBFEF7D3
:1053500011FEFEF797FC16E0FEF7FEFC13E0FEF7E9
:105360004FF910B1FEF75AF90DE0FEF70FFD0AE014
:10537000FEF7B8F810B9FEF721FD10B1FEF71CF9E1
:1053800001E0FEF761FBB3E744657669636520469B
:1053900061696C7572652021000000004E4545442E
:1053A0002048454C50210000000000000000000093
:1053B000002F000000000700070000147F147F1476
:1053C00000242A7F2A1200626408132300364955FC
:1053D000225000000503000000001C2241000000D4
:1053E00041221C000014083E08140008083E08086A
:1053F000000000A0600000080808080800006060C5
:105400000000002010080402003E5149453E000003
:10541000427F4000004261514946002141454B31E5
:10542000001814127F10002745454539003C4A49B1
:105430004930000171090503003649494936000623
:105440004949291E0000363600000000563600008B
:105450000008142241000014141414140000412206
:10546000140800020151090600324959513E007CDE
:105470001211127C007F49494936003E41414122C8
:10548000007F4141221C007F49494941007F0909B1
:105490000901003E4149497A007F0808087F000061
:1054A000417F4100002040413F01007F081422411C
:1054B000007F40404040007F020C027F007F0408D4
:1054C000107F003E4141413E007F09090906003E30
:1054D0004151215E007F0919294600464949493159
:1054E0000001017F0101003F4040403F001F20407C
:1054F000201F003F4038403F00631408146300073A
:105500000870080700615149454300007F41410090
:1055100000552A552A55000041417F000004020130
:10552000020400404040404000000102040000200E
:1055300054545478007F484444380038444444204C
:1055400000384444487F00385454541800087E09F9
:1055500001020018A4A4A47C007F080404780000C1
:10556000447D4000004080847D00007F102844007E
:105570000000417F4000007C04180478007C08048F
:10558000047800384444443800FC242424180018CB
:10559000242418FC007C08040408004854545420B7
:1055A00000043F444020003C4040207C001C204040
:1055B000201C003C4030403C004428102844001C83
:1055C000A0A0A07C004464544C441414141414147B
:1055D00000000000000000000000000000000000CB
:1055E000000000F800000000000000333000000060
:1055F00000100C06100C0600000000000000000067
:1056000040C07840C0784000043F04043F040400D8
:10561000007088FC08300000001820FF211E0000E8
:10562000F008F000E018000000211C031E211E00FD
:1056300000F00888700000001E2123241927211083
:1056400010160E0000000000000000000000000026
:10565000000000E0180402000000000718204000CD
:1056600000020418E00000000040201807000000BD
:10567000404080F0804040000202010F0102020021
:10568000000000F0000000000101011F0101010005
:10569000000000000000000080B07000000000006A
:1056A00000000000000000000001010101010101F3
:1056B000000000000000000000303000000000008A
:1056C000000000008060180400601806010000005F
:1056D00000E010080810E000000F102020100F005C
:1056E000001010F8000000000020203F20200000E3
:1056F000007008080888700000302824222130003B
:1057000000300888884830000018202020110E0042
:105710000000C02010F8000000070424243F2400EB
:1057200000F80888880808000019212020110E00C0
:1057300000E0108888180000000F112020110E00D2
:1057400000380808C83808000000003F00000000CA
:105750000070880808887000001C222121221C008B
:1057600000E010080810E0000000312222110F00B4
:10577000000000C0C0000000000000303000000049
:1057800000000080000000000000806000000000B9
:1057900000008040201008000001020408102000D2
:1057A000404040404040400004040404040404001D
:1057B00000081020408000000020100804020100B2
:1057C000007048080808F0000000003036010000B2
:1057D000C030C828E810E0000718272423140B0065
:1057E0000000C038E0000000203C230202273820DF
:1057F00008F8888888700000203F202020110E00C3
:10580000C0300808080838000718202020100800B9
:1058100008F808080810E000203F202020100F00A2
:1058200008F88888E8081000203F2020232018006E
:1058300008F88888E8081000203F200003000000D6
:10584000C03008080838000007182020221E020077
:1058500008F808000008F808203F210101213F2036
:10586000000808F8080800000020203F2020000061
:1058700000000808F8080800C08080807F00000051
:1058800008F888C028180800203F2001263820008A
:1058900008F8080000000000203F202020203000F1
:1058A00008F8F800F8F80800203F003F003F20000B
:1058B00008F830C00008F808203F200007183F0013
:1058C000E01008080810E0000F10202020100F0042
:1058D00008F808080808F000203F21010101000035
:1058E000E01008080810E0000F18242438504F007A
:1058F00008F8888888887000203F2000030C30203A
:1059000000708808080838000038202121221C0077
:10591000180808F8080818000000203F20000000C0
:1059200008F808000008F808001F202020201F00A9
:105930000878880000C83808000007380E01000009
:10594000F80800F80008F800033C0700073C0300D3
:10595000081868808068180820302C03032C302039
:105960000838C800C83808000000203F20000000A8
:1059700010080808C8380800203826212020180000
:10598000000000FE020202000000007F40404000D4
:10599000000C30C000000000000000010638C0000C
:1059A00000020202FE000000004040407F000000B4
:1059B00000000402020204000000000000000000D9
:1059C00000000000000000008080808080808080D7
:1059D00000020204000000000000000000000000BF
:1059E00000008080808000000019242222223F20B5
:1059F00008F8008080000000003F112020110E00F8
:105A00000000008080800000000E11202020110086
:105A1000000000808088F800000E112020103F2038
:105A20000000808080800000001F222222221300BC
:105A3000008080F0888888180020203F2020000007
:105A40000000808080808000006B949494936000BC
:105A500008F8008080800000203F210000203F20C7
:105A600000809898000000000020203F20200000C7
:105A7000000000809898000000C08080807F0000B7
:105A800008F8000080808000203F24022D30200094
:105A9000000808F8000000000020203F202000003F
:105AA0008080808080808000203F20003F20003F59
:105AB0008080008080800000203F210000203F2067
:105AC0000000808080800000001F202020201F0018
:105AD000808000808000000080FFA12020110E0047
