:020000040800F2
:1000000090090020AD01000831240008AF17000856
:10001000B1200008A70C000877420008000000008B
:10002000000000000000000000000000452E000855
:1000300065100008000000003D280008F93C000899
:10004000C7010008C7010008C7010008C701000870
:10005000C7010008C7010008C7010008C701000860
:1000600001140008C7010008C7010008C701000803
:10007000C7010008C7010008C7010008C701000840
:10008000C7010008C70100080D0A000800000000B1
:10009000000000000000000000000000091500083A
:1000A000C7010008C7010008C7010008C701000810
:1000B000C7010008F13D0008B13E0008C701000873
:1000C000C7010008C7010008C7010008C7010008F0
:1000D000C7010008C5410008C70100080000000072
:1000E000C7010008C7010008C701000800000000A0
:1000F000000000000000000000000000C701000830
:1001000000000000C7010008C7010008C70100087F
:1001100000000000000000000000000000000000DF
:10012000C7010008C7010008C7010008C70100088F
:10013000C7010008000000000000000000000000EF
:10014000000000000000000000000000C7010008DF
:10015000250F0008C7010008810F0008C70100082B
:10016000C7010008C70100080000000000000000EF
:10017000000000000000000000000000000000007F
:1001800000000000C701000800000000000000009F
:10019000C7010008DFF810D000F0AAFB00480047B4
:1001A0006D4C0008AFF3008090090020064880479E
:1001B00006480047FEE7FEE7FEE7FEE7FEE7FEE74C
:1001C000FEE7FEE7FEE7FEE7FD3C000895010008BC
:1001D00038B5D0E90221491E01EB410102EBC10112
:1001E0004268C1EB011102EB81010268C1EB011110
:1001F00002EB8102D0E9043101EB410103EB810103
:100200003023A1F5527191FBF3F4174D6C4302EBCF
:10021000C41291FBF3F403FB141100921A2902DBC0
:10022000124B1A4400920C2291FBF2F3104C6343E0
:10023000009C04EBC313009391FBF2F302FB131138
:100240000C4A08E0491E40F2A324535C6343009C1F
:1002500004EBC31300930029F4DC0146684600F068
:1002600027F9009838BD00003F0C0F0080510100B5
:1002700067C203004C55000840EA01039B0703D006
:1002800009E008C9121F08C0042AFAD203E011F8D5
:10029000013B00F8013B521EF9D2704730B50546CC
:1002A0002A460B4612F8010B13F8014B08B1A04285
:1002B000F8D01CB1002802D06D1CF1E7284630BDF3
:1002C000421C10F8011B0029FBD1801A704703461D
:1002D00011F8012B00F8012B002AF9D118467047BC
:1002E0002DE9FE4F81EA030404F0004421F00041AF
:1002F00000944FF0000B23F0004350EA01045ED05D
:1003000052EA03045BD0C3F30A54C1F30A552C44E8
:10031000A4F2F3340194A0FB0254C1F3130141F49D
:100320008011C3F3130343F4801301FB024400FB69
:10033000034E840A970A44EA815447EA8357A4FB90
:10034000076802958D0A05FB07854FEA932C04FB8D
:100350000C542705029D4FEA065847EA1637B5EBBD
:1003600008056EEB070C870E920E47EA811742EAEA
:100370008312A7FB0201B6EB0B0164EB00042B0D0B
:1003800043EA0C335E1844EB1C50DA465146E7FB57
:100390000201C5F313044FEA0B3343EA14534FEA47
:1003A0000432019C43EA0603A4F10C040294009C6D
:1003B000CDE900B400F008F903B0BDE8F08F0020EB
:1003C0000146F9E700F0004230F000400AD0C10DCC
:1003D00001F56071C0F3160042EA0151C2084007FE
:1003E0001143704700200146704701F0004330B4CC
:1003F00021F0004150EA010206D00A0DA2F5607218
:10040000C1F31301002A02DC30BC00207047440F06
:1004100044EAC104C100E01830BC00EBC25000F057
:100420008DB830B50B46014600202022012409E09A
:1004300021FA02F59D4205D303FA02F5491B04FA9D
:1004400002F52844151EA2F10102F1DC30BD2DE9B0
:10045000F05F0546002092469B4688460646814648
:1004600040241BE0284641464746224600F061FAF8
:1004700053465A46C01A914110D311461846224697
:1004800000F048FA2D1A67EB01084F46224601207A
:10049000002100F03FFA17EB00094E41201EA4F1A5
:1004A0000104DFDC484631462A464346BDE8F09F5A
:1004B00010B500683C22B0FBF2F302FB1303B0FB63
:1004C000F2F00B60B0FBF2F302FB1303B0FBF2F0AF
:1004D00018224B60B0FBF2F302FB1303B0FBF2F007
:1004E000021D8B600723B2FBF3F403FB1422800090
:1004F00040F2B55300F66C308A61B0FBF3F2B0FB0A
:10050000F3F403FB1400443280084A61C8613B28BD
:1005100002D3920700D0401C0022074C13460A6108
:10052000E25C824203D8801A5B1C0B61F8E7401C36
:10053000C860084610BD0000585500080029A8BF33
:100540007047401C490008BF20F00100704710B4FC
:10055000B0FA80FC00FA0CF050EA010404BF10BCB1
:10056000704749B1CCF1200421FA04F411FA0CF1DE
:1005700018BF012121430843A3EB0C01CB1D4FEA17
:1005800000614FEA102042BF002010BC704700EB12
:10059000C35010440029A4BF10BC7047401C490040
:1005A00008BF20F0010010BC704710B5141E73F195
:1005B000000408DA401C41F1000192185B411A4323
:1005C00001D120F0010010BD2DE9F04D92469B466F
:1005D00011B1B1FA81F202E0B0FA80F22032904615
:1005E00000F098F904460F4640EA0A0041EA0B0180
:1005F00053465A46084313D0114653EA010019D016
:10060000C8F14002504600F094F905460E465046A7
:100610005946424600F07EF9084305D0012004E027
:1006200020463946BDE8F08D0020054346EAE076D5
:100630002C4337430A986305E40AA0EB0800002224
:10064000FD0A44EA47540A3002D500200146E9E792
:10065000010510196941DDE9084500196941BDE846
:10066000F04DA2E72DE9FE4F804681EA0300C00F5E
:100670000C46009021F0004123F00045B8EB020049
:10068000A94105D24046214690461C460B460246EB
:1006900023F00040104347D0270DC7F30A00C3F3EF
:1006A0000A510290401A019040286BDAC3F31300FC
:1006B00040F4801B0098924620B10023D2EB030A3D
:1006C00063EB0B0B01985946C0F14002504600F015
:1006D00021F906460D4650465946019A00F039F96F
:1006E00010EB08006141002487EA115284EAE773A5
:1006F0001A4340D0009A62B3019A012A4FEA075286
:1007000015DC001B61EB02014FF0004202EA0752C8
:10071000CDE90042001C41F5801132462B46FFF71F
:1007200053FF03B0BDE8F08F40462146F9E7001BB8
:1007300061EB0201001C41F5801300185B41201899
:10074000A2F5001747EB030140EAD570B6196D41D9
:1007500011E06D084FEA360645EAC0754FEA0752C8
:10076000001B61EB0201001C41F5801149084FEAB2
:1007700030000019514132462B4603B0BDE8F04F1E
:10078000FFF713BF0098012240000023D0EB0202C4
:1007900063EBE073009821464FEAE074B8EB000089
:1007A00061EB0401E9E783F000435BE781F000417E
:1007B00058E72DE9F04D81EA030404F0004B21F0E5
:1007C000004514464FF0000A23F0004150EA0502AC
:1007D00020D054EA01021DD0C5F30A570246C5F3E2
:1007E0001303C1F31300C1F30A5640F4801543F418
:1007F0008013A7EB0608101BD64608F2FD3873EBF2
:10080000050002D308F1010801E092185B41B8F13C
:10081000000F03DA00200146BDE8F08D00204FF400
:100820008011064684460EE0171B73EB050705D3BF
:10083000121B63EB050306434CEA010C49084FEA1F
:10084000300092185B4150EA0107EDD152EA0300F3
:1008500012D082EA040083EA0501084305D0101B88
:10086000AB4106D20122002306E000224FF00043F4
:1008700002E06FF0010253101AEB06004CEB085136
:1008800010EB0A0041EB0B01BDE8F04DFFF78DBE08
:10089000C1F30A52C1F3130140F2FF3341F4801156
:1008A0009A4202DA00200146704740F233439A42EE
:1008B000A2F2334202DC524200F03BB800F02AB808
:1008C00030B5041E71F1000404DB4FF000444042D7
:1008D00064EB0101141E73F1000405DB1C464FF0AC
:1008E0000043524263EB0403994208BF904230BD7B
:1008F000064C074D06E0E06840F0010394E807006D
:1009000098471034AC42F6D3FFF748FC6455000812
:1009100084550008202A04DB203A00FA02F1002066
:1009200070479140C2F1200320FA03F3194390402D
:100930007047202A04DB203A21FA02F00021704798
:1009400021FA02F3D040C2F1200291400843194637
:100950007047202A06DBCB17203A41FA02F043EA1F
:10096000E07306E041FA02F3D040C2F12002914068
:1009700008431946704700220A12D34303607047A8
:1009800021B1826842F00102826003E0826822F0B5
:1009900001028260704700000021084A1168084A7D
:1009A0001140D0E900231A4383681A43C3681A43ED
:1009B0001143044AC2F804137047000004230140A5
:1009C000E030FCFF0020014010B50121080201F0D9
:1009D00095FF00214FF4807001F090FF10BD01469B
:1009E000C86C80B2704770B5024600200023002416
:1009F0000B12556801268E4005EA060415681D4055
:100A000015B10CB1012000E0002070BD10B540F21E
:100A100005210E48FFF7E7FFB8B140F205210B486A
:100A2000FFF7A9FF0948FFF7DAFF0949094A1278D9
:100A300021F8120007480078401C06490870084653
:100A400000780A2801DB0020087010BD002001405A
:100A50004C0000201800002010B50B460021D9B230
:100A6000012404FA01F11AB144680C43446002E025
:100A700044688C43446010BD30B50246002000231A
:100A80005068104C20400D790C6844EA052420433E
:100A9000506090680C4C2040D1E903542C438D6881
:100AA0002C434D7944EA450420439060D06A20F4F9
:100AB00070000C7D641EE4B2234340EA0350D06210
:100AC00030BD0000FFFEFFFCFDF7FFC0F0B504469F
:100AD0000D4600200021092D11DDE068A5F10A0670
:100AE00006EB4607072606FA07F18843A5F10A0632
:100AF00006EB460603FA06F10843E0600CE02069C5
:100B000005EB4507072606FA07F1884305EB45067E
:100B100003FA06F108432061072A0FDA606B561EBC
:100B200006EB86071F2606FA07F18843561E06EBDA
:100B3000860605FA06F10843606322E00D2A0FDA03
:100B4000206BD61F06EB86071F2606FA07F188439F
:100B5000D61F06EB860605FA06F10843206310E06F
:100B6000E06AA2F10D0606EB86071F2606FA07F1DA
:100B70008843A2F10D0606EB860605FA06F1084346
:100B8000E062F0BD816841F0804181607047000003
:100B90001CB50121022001F081FE082000900120F7
:100BA0008DF8040000208DF8060001208DF8070064
:100BB00000208DF8050069460D4800F080FD0121F8
:100BC000022001F06BFE4FF48060009001208DF850
:100BD000040000208DF8060001208DF80700002099
:100BE0008DF805006946024800F069FD1CBD000053
:100BF0000004024010B50446204600F001F810BD84
:100C000070B50446E6B22512284600F00BF8022023
:100C100000F02AFA304600F005F8022000F024FA2D
:100C200070BD000070B504464FF48061184800F0B4
:100C3000BAFD052000F018FA00251DE04FF4806190
:100C4000134800F0B0FD04F0010020B10821104865
:100C500000F0ABFD03E008210D4800F0A4FDC82022
:100C600000F032FA4FF48061094800F09EFDC82080
:100C700000F02AFA64106D1C082DDFDB4FF4806150
:100C8000034800F092FD0821014800F08EFD70BD80
:100C90000004024010B504464FF6E071214488B2CA
:100CA000FFF7AEFF10BD00BFFEE7000000B585B046
:100CB0000121084601F0F2FD2020039000208DF86C
:100CC000100001208DF8130003A92A4800F0F7FC5A
:100CD0000121880301F002FE0521002002F0B4F892
:100CE0002020019000208DF808000C208DF80900CC
:100CF00001208DF80A0001A800F034FC012108460B
:100D000001F0CCFD4020039000208DF81000012060
:100D10008DF8130003A9174800F0D1FC01218803C6
:100D200001F0DCFD0621002002F08EF84020019049
:100D300000208DF808000C208DF8090001208DF8A6
:100D40000A0001A800F00EFC17208DF80000012019
:100D50008DF8010000208DF8020001208DF80300BD
:100D6000684601F067FB03F079F803F0D7F805B0A7
:100D700000BD0000000002402DE9F0410746884612
:100D800015460421052001F05FF90021012001F042
:100D900075F980210A2001F064F9002405E0395D2D
:100DA000092001F06BF9601CC4B24445F7DB032154
:100DB000012001F063F9FF2400BF052001F028F9AC
:100DC0000646601EC4B21CB106F004000028F4D030
:100DD000222001F01DF92870212001F019F9687016
:100DE000BDE8F08110B5C0B0002411E0684600F005
:100DF00015F800B90BE008A16846FFF74FFA10B1EB
:100E0000002040B010BD022000F02EF900BF641C8D
:100E1000322CEBDB0120F4E74F4B000070B50546A8
:100E2000642003F067FA04460CB9204670BDB4F59F
:100E3000807F01DD4FF48074224603492846FFF786
:100E40001BFA2046F2E70000600100202DE9F04186
:100E5000C2B006460D4617461C46334620A225A1C1
:100E600002A8009503F094FA02A92648FFF72FFA8A
:100E70002448FFF725FA1FFA80F86421404603F062
:100E80005BFAFFF7AFFF18B1012042B0BDE8F08177
:100E900033461DA21FA102A8009503F079FA22464D
:100EA00039460DF11B00FFF7E7F90D2104F113009E
:100EB00002AA11540A21401C1154401C84B222463B
:100EC00002A91048FFF7D8F96421204603F034FA4C
:100ED000FFF788FF08B10120D7E70020D5E7000021
:100EE00041542B5A4947425F554944544F49443D68
:100EF00000000000257325303258253032580D0A85
:100F0000000000006000002041542B55545F534501
:100F10004E443D00257330332C2530325825303275
:100F2000582C000010B51049104800F067F8D0B1F7
:100F30000D490E4800F038F80D480088B0F5807F64
:100F400003DD4FF480700A49088009480288094986
:100F500009480068FFF790F901200849087001214D
:100F6000024800F03BF810BD008800208864024071
:100F70002E00002060020020300000202C00002005
:100F800010B50649064800F039F830B10349044865
:100F900000F00AF801200349087010BD0080002805
:100FA000B86402402D0000200246094B9A4201D24B
:100FB000084801E00648103801F000531BB1064B09
:100FC0000B40C36002E0044B0B408360704700009D
:100FD00010640240006002407D0F7D0F21B1026865
:100FE00042F00102026003E0026822F001020260A6
:100FF00070470146486880B27047000070B50246ED
:10100000002000240025124EB24201D2114B01E013
:101010000F4B103B104E0E4036B11E2606EAD1246F
:10102000166806EA040502E0566906F0800501F03C
:1010300000560EB15C6800E01C68084E344004EABB
:10104000010616B10DB1012000E0002070BD0000C6
:1010500010640240006002403C0F3C0F7D0F7D0F8A
:101060004160704770470000104A12684FF47A736D
:10107000B2FBF3F24243D2084FF0E0235A61002260
:101080009A6101221A611A46116902E04FF0E022CA
:10109000116901F001021AB101F48032002AF5D081
:1010A00000224FF0E0231A619A617047000000208F
:1010B00010B5044603E04FF47A70FFF7D5FF201E09
:1010C000A4F10104F7D110BD104A1268104BB2FB15
:1010D000F3F24243D2084FF0E0235A6100229A61B2
:1010E00001221A611A46116902E04FF0E0221169EB
:1010F00001F001021AB101F48032002AF5D0002279
:101100004FF0E0231A619A61704700000000002050
:1011100040420F0070B5002419E004F1B001C8B2DC
:10112000012100F0D1FB0121002000F0CDFB0121C5
:10113000102000F0C9FB002505E00021084600F062
:10114000C3FB681CC5B2802DF7DB601CC4B2082C41
:10115000E3DB70BD1CB50121022001F09FFB802064
:10116000009001208DF804008DF806008DF807002E
:101170008DF8050069460F4800F0A1FA80210D485E
:1011800000F013FB0121022001F088FB40200090B9
:1011900001208DF804008DF806008DF807008DF809
:1011A00005006946034800F08AFA4021014800F032
:1011B000FCFA1CBD0004024010B5FFF7CBFF012074
:1011C000FFF752FFC820FFF74FFF0121AE2000F0CC
:1011D0007BFB0121002000F077FB0121102000F0B3
:1011E00073FB0121402000F06FFB0121B02000F0D3
:1011F0006BFB0121812000F067FB0121FF2000F043
:1012000063FB0121A02000F05FFB0121A62000F07C
:101210005BFB0121A82000F057FB01211F2000F0FB
:1012200053FB0121C02000F04FFB0121D32000F02F
:101230004BFB0121002000F047FB0121D52000F0ED
:1012400043FB0121002000F03FFB0121D92000F0E9
:101250003BFB01211F2000F037FB0121DA2000F0C9
:1012600033FB0121022000F02FFB0121DB2000F0E5
:101270002BFB0121302000F027FB01218D2000F005
:1012800023FB0121142000F01FFB0121AF2000F0FF
:101290001BFBFFF73FFF10BD70B504460D4605F17F
:1012A000B001C8B2012100F00FFB102141EA141077
:1012B000012100F009FB04F00F00012100F004FB04
:1012C00070BD00002DE9F04707460E46904699464E
:1012D00000250024A8F12000C5B2B9F1010F2CD1DE
:1012E0005F2D00DB0025782F00DD0027022E00DDBA
:1012F000002631463846FFF7CFFF002408E01E499C
:1013000001EB0511085D002100F0DEFA601CC4B29B
:10131000082CF4DB701CC1B23846FFF7BDFF08246F
:1013200008E0154901EB0511085D002100F0CCFA39
:10133000601CC4B2102CF4DB1BE05C2D00DB00252C
:101340007A2F00DD0027032E00DD002631463846C7
:10135000FFF7A2FF00240AE005EB4501074A02EB74
:101360004101085D002100F0AFFA601CC4B2062CF8
:10137000F2DBBDE8F08700005C4F0008344D000848
:101380002DE9F04705460E4617469846DDF82090B1
:101390000024B9F1010F19D113E03A5D4B463146F3
:1013A0002846FFF78FFF05F10800C5B2782D02DD52
:1013B0000025B01CC6B2022E01DDBDE8F087601C1E
:1013C000C4B2385DC8B14445E7DB16E011E03A5DD0
:1013D0004B4631462846FFF775FFA81DC5B27A2D4A
:1013E00002DD0025701CC6B2032E00DDE5E7601C9F
:1013F000C4B2385D08B14445E9DB00BFDDE7000059
:1014000010B5042000F0A2F800286FD0042000F0EE
:1014100097F8374802F0E2FD84B20021344802F028
:10142000C2FD0021324802F047FE0121304802F09F
:10143000BAFD40F26C7084420CDA40F2A46084423F
:1014400008DD01202B49087000202B4908702B492A
:10145000087030E040F2AA50844214DA40F2E240D0
:10146000844210DD2348007828B3244800784010D7
:10147000224908700846007808701F480078401C10
:101480001D49087017E0B4F57A7F14DAB4F5487F87
:1014900011DD1848007870B11848007840101749DD
:1014A00008700846007840F0800008701248007804
:1014B000401C1149087010480078082815DB0021ED
:1014C0000B4802F070FD0021094802F0F5FD0B48C1
:1014D00000780B4908700020084908700649087018
:1014E0000449087001200749087000BF10BD0000C2
:1014F000000C00401E0000201C0000201D000020E9
:101500001B0000201A00002010B5202000F01EF85B
:1015100030B1202000F014F80121074802F043FD0B
:10152000402000F013F830B1402000F009F801210C
:10153000024802F038FD10BD0004004000080040E1
:101540000149086070470000143C0140014600203A
:10155000034A12680A400AB1012000E000207047E7
:10156000143C0140002123498279002A3AD00A46DE
:10157000126803689A430B461A600A1D12680368D2
:101580009A430B1D1A60027911440A6803681A43D2
:101590000A60184A0832126803689A43154B0833E8
:1015A0001A601A1D126803689A43124B0C331A60B2
:1015B0004279102A0ED11A1F126803681A430D4B84
:1015C00008331A601A1D126803681A43094B0C335A
:1015D0001A600DE00749427911440A6803681A430A
:1015E0000A6005E0027911440A6803689A430A60B8
:1015F00070470000003C014000204FF080414862ED
:101600007047000000B500F00BF800EE900AB8EE4D
:10161000601ADFED021A81EE210A00BD0000E143ED
:101620004FF08040406A704700B585B00121084600
:1016300001F034F901220021174800F088F8012058
:10164000039002208DF810008DF8130003A91248B2
:1016500000F035F80121084601F030F90020ADF81E
:101660000800ADF80200401E01900020ADF8000017
:101670008DF80A0069464FF0804002F03FFD0023DC
:101680001A465021880602F019FD00204FF08041D3
:10169000486205B000BD00000000024010B5002007
:1016A0004FF0804148620121880702F07CFC10BDA8
:1016B00010B500214FF0804002F075FC10BDF0B570
:1016C0000A4600210023002400BF3DE0012505FA61
:1016D00001F3156805EA03049C4234D105684F0004
:1016E0000326BE40B543056015794E00B540066837
:1016F000354305601579012D02D01579022D16D1DB
:1017000085684F000326BE40B543856055794E007D
:10171000B540866835438560456801268E40B543EF
:101720004560456896798E40B6B235434560C568D8
:101730004F000326BE40B543C560D5794E00B54085
:10174000C6683543C560491C1029BFD3F0BDF0B54C
:10175000002300244D07ED0E02FA05F3CE1000F130
:10176000200555F826504E07F70E0F26BE40B5430C
:10177000CF1000F1200646F82750CE1000F12005CA
:1017800055F8265045EA0304CE1000F1200545F82F
:101790002640F0BD0246002013690B400BB101202A
:1017A00000E000207047418370470183704700BF0D
:1017B000FEE7000010B5002480211148FFF7F5FF77
:1017C0000120FFF781FC40210D48FFF7EEFF0120CB
:1017D000FFF77AFC07E0601CC4B2FA2C03DD00F0CE
:1017E0002BF8012010BD80210548FFF7D3FF00280A
:1017F000F1D140210248FFF7D6FF0020F2E70000B8
:101800000004024010B580210A48FFF7CEFF4021B6
:101810000848FFF7CAFF0120FFF756FC8021054862
:10182000FFF7C1FF0120FFF74FFC40210148FFF700
:10183000BAFF10BD0004024010B540210A48FFF76E
:10184000B2FF80210848FFF7AEFF0120FFF73CFC04
:1018500040210548FFF7A9FF80210348FFF7A5FFB6
:101860000120FFF731FC10BD0004024070B50446B2
:1018700040211448FFF797FF002520E004F0800086
:10188000802804D180210F48FFF78FFF03E08021DB
:101890000C48FFF788FF6006040E0120FFF714FCD8
:1018A00040210848FFF781FF0120FFF70DFC402190
:1018B0000448FFF778FF0120FFF706FC6D1C082D98
:1018C000DCDB70BD0004024070B506460D46012DFC
:1018D00001D1002400E04024FFF794FF7820FFF7B7
:1018E000C5FFFFF767FF08B1012070BD2046FFF775
:1018F000BDFFFFF75FFF08B10120F6E73046FFF7B5
:10190000B5FFFFF757FF08B10120EEE7FFF794FF9F
:101910000020EAE770B504460D462146002001F09C
:10192000A3F82946002001F0C5F870BD00B58DB0C0
:10193000694601A8FFF7EEFF9DF8070064300790A5
:101940009DF80500401E06909DF8060005909DF844
:10195000000004909DF8010003909DF802000290A1
:1019600000200A9002A8FEF733FC0DB000BD00B5C0
:1019700085B00121080700F0A1FF012000F058FF09
:10198000012000F0EBFF00BF412000F0C7FF00285E
:10199000FAD04FF4807000F0FDFF012000F0F4FF5A
:1019A00001F0AEF9002001F0DBF901F02BF87C200A
:1019B0000390FE2004900020029002A801F0A2F8FB
:1019C00016208DF8070005208DF805001E208DF8E3
:1019D000060001208DF8040001A9002001F0C4F8E0
:1019E00008208DF8000000208DF801008DF802001D
:1019F0008DF80300694601F01BF901F02BF8012076
:101A000001F0AEF9002000F013FF05B000BD70B585
:101A100004460D460121080700F050FF012000F0A8
:101A200007FF2146002001F09FF82946002001F021
:101A3000FFF8002000F0FCFE70BD000000B585B08E
:101A40000121084600F02AFF0420039000208DF8B1
:101A5000100001208DF8130003A91548FFF72FFE91
:101A60000121880300F03AFF0221002001F0ECF987
:101A70000420019000208DF8080008208DF809004E
:101A800001208DF80A0001A8FFF76CFD08208DF8F1
:101A9000000002208DF8010000208DF802000120D6
:101AA0008DF80300684600F0C5FC05B000BD0000DD
:101AB0000000024000B58BB00121084600F00EFF87
:101AC0000020ADF82800ADF82200DB2009900920A5
:101AD000ADF8200000208DF82A0008A91F4802F068
:101AE0000DFB6020ADF80C006E2005900120ADF8D4
:101AF0000E000020ADF81800ADF81C00ADF8100085
:101B000003A9164802F088FA0821144802F0C2FA24
:101B10000121124802F053FA0121084600F0BEFEEE
:101B2000012208210E48FFF712FE4FF48070019049
:101B300002208DF8080000208DF80A008DF80B00B7
:101B40008DF8090001A90648FFF7B9FD4FF480712F
:101B50000348FFF72AFE0BB000BD00000000014063
:101B60000000024070B5044600250EE009480078E8
:101B700038B100F059F8A04201D1012070BD002019
:101B8000FCE70120FFF7A0FA6D1C0A2DEEDB002018
:101B9000F4E700001A00002010B500F00BF804492B
:101BA0000978884201DD012010BD0020FCE700001B
:101BB0001900002070B50026002422E02046E1171D
:101BC00004EB91718910A4EB810131B1012906D098
:101BD000022906D0032908D105E0552506E0CC25C9
:101BE00004E0AA2502E0332500E000BF00BF28463C
:101BF00000F026F82846FFF7B5FF08B1701C86B242
:101C0000641C0A2CDADBF0B270BD000010B504468B
:101C100004480470FFF712FFFFF74CFF02F0A8F929
:101C200010BD000019000020034908780021024A75
:101C30001170024A117070471B0000201A0000202A
:101C400070B504460021154802F0ADF90021134893
:101C500002F032FA00F024F840F24650FFF734FA6E
:101C6000002511E004F0010030B100F019F84FF444
:101C7000E170FFF729FA05E000F012F84FF4617007
:101C8000FFF722FA64106D1C082DEBDB00F008F85A
:101C90004FF4E170FFF718FA70BD0000000C00402F
:101CA00010B50121054802F07EF94FF4E170FFF70D
:101CB0000BFA0021014802F076F910BD0000014046
:101CC00000B58DB00121042000F0E8FD04200B9048
:101CD00003208DF8300000208DF833000BA9214837
:101CE000FFF7EDFC0121080200F0F8FDFEF76CFEA5
:101CF000002007904FF440300890002009904FF4E6
:101D000020600A9007A8FEF747FE002001908DF89A
:101D100008008DF809000390059001208DF8180047
:101D200001A91148FEF7A8FE01231A460C210E480E
:101D3000FEF7CCFE12208DF8000002208DF8010085
:101D400000208DF8020001208DF80300684600F0A5
:101D500071FB012240F205210348FEF77DFE0DB024
:101D600000BD000000080240002001401CB5012118
:101D7000084600F093FD0820009001208DF8040033
:101D800000208DF8060001208DF8070000208DF856
:101D9000050069460148FFF792FC1CBD00000240A7
:101DA00010B500F00BF804490988884201DD0020D5
:101DB00010BD0120FCE700001600002070B50024D3
:101DC00001211648FEF7DCFD08211548FFF7EDFC60
:101DD000C820FFF749F9002506E01048FEF7D2FEBB
:101DE0000A20FFF771F96D1C0A2DF6DB002005E0D3
:101DF0000C4931F8101021448CB2401C0A28F7DB42
:101E00000A2094FBF0F084B208210548FFF7CBFCD0
:101E100000210248FEF7B4FD204670BD00200140BD
:101E2000000002404C00002010B504460348048026
:101E3000FFF746FFFFF79AFF10BD000016000020D5
:101E400030B5039C08700012107000121870001258
:101E5000207030BD30B50446002018430002104306
:101E6000000208430002204330BD30B50446002084
:101E7000184300021043000208430002204330BD13
:101E800010B50446412C25D10821084600F0DCF8A5
:101E90003D21112000F0F2F88621172000F0EEF825
:101EA0007F21262000F0EAF81E212D2000F0E6F820
:101EB00000212C2000F0E2F88D212A2000F0DEF82D
:101EC0003E212B2000F0DAF80A20FFF7FDF800F0A1
:101ED000F3FA01E0FF2010BD0020FCE72DE9FE4FE2
:101EE0000646884691469A46DDF830B0FE200290BC
:101EF0000020019000900C2E06D00E2E09D1122049
:101F000001901020009005E0772001903020009093
:101F100000E000BF00BF019840F08001022000F007
:101F2000ADF88021042000F08FF80021012000F09E
:101F3000A5F880210A2000F094F8002505E018F8A3
:101F40000510092000F09AF86D1C4D45F7D3314675
:101F5000012000F093F80C2E03D180210D2000F019
:101F600080F84FF47A7500BF042000F051F8044661
:101F70006D1E35B104F0010018B90098204000280A
:101F8000F2D080210D2000F05FF8002D35D0062022
:101F900000F03EF800F01B0068BB002002900198A2
:101FA000204000F0010008B1FF2002900C2E24D147
:101FB0000A2000F02DF804460C2000F029F800F06B
:101FC00007072FB1601E07EBC000ABF8000002E06E
:101FD000E000ABF8000004B90124122C00DD12244B
:101FE000002505E0092000F013F80AF805006D1C33
:101FF000A542F7D301E0FE20029080210C2000F0E2
:1020000030F80021012000F039F80298BDE8FE8F79
:1020100070B504467E2000EA440040F080054FF48D
:1020200080510848FFF7BFFB284600F0A7FEFF20BD
:1020300000F0A4FE06464FF480510248FFF7B5FBBE
:10204000304670BD0004024070B505460C46284677
:10205000FFF7DEFF064626EA0401284600F00EF8E8
:1020600070BD70B505460C462846FFF7D1FF064601
:1020700046EA0401284600F001F870BD70B5044638
:102080000D467E2000EA44064FF480510748FFF7D2
:102090008AFB304600F072FE284600F06FFE4FF4D7
:1020A00080510248FFF781FB70BD00000004024030
:1020B00000BFFEE710B500F01BF84FF480510A484E
:1020C000FFF773FB4FF480510848FFF76EFB00F0F9
:1020D000DFFA00F0EBF90120FEF7C6FF00F0ECF9A3
:1020E0004120FFF7CDFE10BD000002400004024079
:1020F00000B587B00121084600F0D0FB8020059094
:1021000001208DF8180000208DF81A008DF81B00B2
:1021100002208DF8190005A95648FFF7D0FA0121D1
:10212000022000F0BBFB4FF48050059001208DF899
:10213000180000208DF81A008DF81B0002208DF881
:10214000190005A94C48FFF7BAFA0121022000F056
:10215000A5FB0120059000208DF8180002208DF8C5
:102160001B0000208DF8190005A94348FFF7A7FAC6
:102170000121022000F092FB05220D213E48FFF7CD
:10218000E6FA4FF40050059002208DF81800002068
:102190008DF81A008DF81B0002208DF8190005A992
:1021A0003548FFF78CFA0121022000F077FB052269
:1021B0000E213148FFF7CBFA4FF480400590022002
:1021C0008DF8180000208DF81A008DF81B000220F1
:1021D0008DF8190005A92848FFF771FA012102209E
:1021E00000F05CFB05220F212348FFF7B0FA4FF403
:1021F0000040059002208DF8180000208DF81A008C
:102200008DF81B0002208DF8190005A91A48FFF768
:1022100056FA4FF480511848FFF7C7FA00211748C3
:1022200000F0D8FD0121880300F048FB0020ADF844
:1022300000004FF48270ADF802000020ADF80400F9
:10224000ADF80E00ADF80600ADF808004FF40070D0
:10225000ADF80A003820ADF80C000720ADF81000EA
:102260006946064800F0D0FD0121044800F0B2FDA7
:1022700007B000BD000002400004024000380040EA
:102280002DE9FC4104460E4690461F4601A9522006
:1022900000F0D3F90546E5B9684600F01AF905469D
:1022A000BDB9684600F03EFA054695B9032000EB3B
:1022B0008400C1B26B464246602000F042F90546F8
:1022C0003DB906EB8401C8B2394600F08BF90546EA
:1022D00000BF00F06DF92846BDE8FC812DE9FF4103
:1022E00005460F460026BFB92E46002004E0290E01
:1022F0000DF800102D02401C0428F8DB6B46134A31
:10230000134801781348007800F064F80446DCB103
:10231000204604B0BDE8F0816B460C4A0C480178B9
:102320000C480078FFF7ACFF04460CB12046F0E7FC
:10233000002004E01DF800100E433602401C032864
:10234000F8DB9DF8030006433046E2E72300002057
:10235000200000201F0000202DE9FF4105460F4608
:102360000026BFB92E46002004E0290E0DF800100B
:102370002D02401C0428F8DB6B46134A13480178F1
:102380001348007800F026F80446DCB1204604B07B
:10239000BDE8F0816B460C4A0C4801780C48007887
:1023A000FFF76EFF04460CB12046F0E7002004E082
:1023B0001DF800100E433602401C0328F8DB9DF880
:1023C000030006433046E2E72300002022000020FD
:1023D000210000202DE9FC4104460E4690461F4690
:1023E00001A9522000F029F90546E5B9684600F038
:1023F00070F80546BDB9684600F094F9054695B9F0
:10240000032000EB8400C1B26B464246602000F01E
:1024100098F805463DB906EB8401C8B2394600F08C
:10242000BBF9054600BF00F0C3F82846BDE8FC81B3
:102430007047000070B5002100230F22C4781CB340
:10244000174C246804F4E064C4F5E064C4F3072185
:10245000C1F10404E3B20A4144789C40E1B28478BB
:10246000144021430C07210E0E4C05786155047869
:1024700004F01F050124AC4005786D11AD0005F195
:10248000E025C5F8004109E0047804F01F050124A7
:10249000AC40054D0678761145F8264070BD000029
:1024A0000CED00E000E400E080E100E010B5032165
:1024B0001420FFF7C9FD10BD10B51420FFF7A8FDCB
:1024C000044604F0030018B903211420FFF7C9FDE6
:1024D00010BDF0B587B00546002708210846FFF774
:1024E000B3FD00210D20FFF7C9FD80210E20FFF76D
:1024F000ABFD93208DF8040020208DF8050006A880
:1025000001AB022201A900900C20FFF7E7FC064670
:1025100086B9002407E001A8005D285501A8005DE8
:102520004740601CC4B2042CF5DB01A8005DB84232
:1025300000D0FE2680210E20FFF793FD304607B025
:10254000F0BD2DE9F04387B006460F469046994608
:102550008DF804608DF80570002406E018F804106A
:1025600001AAA01C1154601CC4B2062CF6DB002486
:1025700007E019F8041001AA04F108001154601CC6
:10258000C4B2062CF5DB06A801AB0C2201A9009011
:102590000E20FFF7A3FC05462DB90820FFF738FDF4
:1025A00000F0080000B9FE25284607B0BDE8F0831A
:1025B00010B588B050208DF8080000208DF8090073
:1025C0000DF10A02022102A8FEF7D6FB07A802AB12
:1025D000042202A900900C20FFF780FC044620464C
:1025E00008B010BDF0B587B005460E4630208DF816
:1025F00004008DF805500DF10602022101A8FEF736
:10260000BBFB06A801AB042201A900900C20FFF738
:1026100065FC07466FB9BDF81800902809D1002461
:1026200004E001A8005D3055601CC4B2102CF8DB3A
:1026300000E0FE27384607B0F0BD70B588B005460B
:102640000C4608210846FFF7FFFC07210D20FFF785
:1026500015FD03211420FFF704FD8DF8085007A88D
:1026600002AB012202A900900C20FFF737FC0646BE
:1026700056B9BDF81C00102806D19DF8080020703E
:102680009DF80900607000E0FE26F0B208B070BD51
:1026900010B5002480212248FFF787F80A20FEF7B2
:1026A00013FD80211E48FFF77EF80A20FEF70CFD7F
:1026B00080211B48FFF779F80A20FEF705FD0F215E
:1026C0000120FFF7DBFC06E0601C84B2B4F5FA7F62
:1026D00001DDFE2010BD0120FFF79AFC00F00F0085
:1026E0000028F1D10120FEF7EFFC3D211120FFF77A
:1026F000C5FC1E212D20FFF7C1FC00212C20FFF777
:10270000BDFC8D212A20FFF7B9FC3E212B20FFF7CD
:10271000B5FC40211520FFF7B1FC0020DAE70000EE
:102720000000024070B588B0054693208DF808007F
:1027300070208DF8090000208DF80E0000240BE0B9
:10274000295D02AAA01C11549DF80E00295D484085
:102750008DF80E00601CC4B2042CF1DB0DF10F02E9
:10276000072102A8FEF708FB08210846FFF76CFCCA
:1027700007A802AB092202A900900C20FFF7AEFBCC
:1027800006462EB9BDF81C00182801D1002600E02D
:10279000FE26304608B070BDF0B587B006460F463D
:1027A000A0208DF804008DF805600DF106020221CD
:1027B00001A8FEF7E1FA06A801AB042201A90090E6
:1027C0000C20FFF78BFB05464DB9BDF81800042817
:1027D00005D19DF8040000F00F000A2800D0FE2566
:1027E00015BB002404E0385D01A90855601CC4B283
:1027F000102CF8DB05AA102101A8FEF7BDFA06A8E7
:1028000001AB122201A900900C20FFF767FB0546DF
:102810004DB9BDF81800042805D19DF8040000F05A
:102820000F000A2800D0FE25284607B0F0BD0000A2
:10283000014908627047000000000E427047000026
:102840001CB50121084600F029F802200090002064
:102850008DF8040001208DF8070069460148FEF755
:102860002EFF1CBD000002401CB50121084600F0EF
:1028700015F80220009001208DF8040000208DF84A
:10288000060002208DF8050001208DF8070069463A
:102890000148FEF714FF1CBD0000024029B1064AA2
:1028A00012680243044B1A6004E0034A1268824330
:1028B000014B1A60704700003038024029B1064AC7
:1028C00012680243044B1A6004E0034A1268824310
:1028D000014B1A60704700004038024029B1064A97
:1028E00012680243044B1A6004E0034A12688243F0
:1028F000014B1A60704700004438024029B1064A73
:1029000012680243044B1A6004E0034A12688243CF
:10291000014B1A60704700002438024010B5014690
:102920000022002300204A11012A02D10A4C236808
:1029300008E0022A03D1084C7034236802E0064CF8
:102940007434236801F01F02012494401C400CB130
:10295000012000E0002010BD003802400021094A9B
:1029600011701170012802D0042808D103E0012160
:10297000044A117004E00521024A117000E000BF12
:1029800000BF70477038024001490860704700007E
:102990003C0E4742002100F44072B2F5407F08D15E
:1029A000094A116821F4F811084A02401143064A05
:1029B0001160054A68321268C0F30B031A43024BD8
:1029C00068331A607047000008380240FFFCFF0FB0
:1029D000014600BF080900EB8000420001F00F0033
:1029E0001044C0B270470146002204E0501CC2B23D
:1029F000A1F10A00C1B20A29F8DA100741EA106011
:102A00007047000008B50022009200200021104A03
:102A1000126802F04002CAB9421E0D4B1A6000BF94
:102A20000B4A126802F04001009A521C0092009A70
:102A3000B2F5803F01D00029F2D0054A126802F0B9
:102A400040020AB1012002E0002000E0012008BDA0
:102A50000C2800400348006820F08000014908600D
:102A6000704700000C28004070B506460C46002553
:102A70000E4800680E4900EA0105280CE070C5F315
:102A80000420607005F03F00A070C5F34230207054
:102A90005EB9E078FFF79CFFE0706078FFF798FF81
:102AA0006070A078FFF794FFA07070BD042800400C
:102AB0003FFFFF0070B506460C4600250F48006832
:102AC0000F4900EA0105C5F305402070C5F3062053
:102AD000607005F07F00A07005F48000000CE070CD
:102AE0005EB92078FFF774FF20706078FFF770FF01
:102AF0006070A078FFF76CFFA07070BD00280040E8
:102B00007F7F7F0030B504460025CA201549086044
:102B100053200860FFF776FF00B91DE011481C380C
:102B2000006820F040000F491C3908600846006822
:102B3000216808430B491C3908600A491439A06808
:102B4000086008460068A18840EA01400549143938
:102B50000860FFF77FFF0125FF2002490860284633
:102B600030BD0000242800402DE9F04105460C4608
:102B7000002600274DB9607800F01000102804D11D
:102B8000607820F010000A30607005B908E06078C5
:102B9000FFF71EFF0646A078FFF71AFF064600BFA4
:102BA00055B1E0780004617840EA0120A17808433B
:102BB000217840EA413611E0E078FFF714FF4FEA50
:102BC00000486078FFF70FFF48EA0028A078FFF779
:102BD0000AFF48EA0008207848EA4036CA2012492D
:102BE000086053200860FFF70DFF08B9002714E0C4
:102BF0000E4830400C4920390860FFF72BFF0A4887
:102C00001C38006800F0200030B900F079F808B9ED
:102C1000002702E0012700E00127FF2002490860A9
:102C20003846BDE8F0810000242800403FFFFF0047
:102C30002DE9F04105460C46002600274DB92E48E7
:102C4000006800F0400000B102E00020E07000BF2A
:102C50000DE02948006800F0400020B12078FFF71F
:102C6000B7FE064602E00020E07000BF00BF55B18D
:102C700020780004617840EA0120A1780843E178D7
:102C800040EA014611E02078FFF7ADFE4FEA004828
:102C90006078FFF7A8FE48EA0028A078FFF7A3FEB7
:102CA00048EA0008E07848EA0046CA2012491C3188
:102CB000086053200860FFF7A5FE08B9002713E05D
:102CC0000E4830400C4908390860FFF7C3FE0A4837
:102CD000006800F0200030B900F012F808B90027B1
:102CE00002E0012700E00127FF2003491C310860B2
:102CF0003846BDE8F0810000082800407F7F7F0053
:102D000008B50022009200200021CA22134B1A604D
:102D100053221A60114A183A126822F0A0020F4B8F
:102D2000183B1A6000BF0D4A183A126802F02001E1
:102D3000009A521C0092009AB2F5003F01D000297F
:102D4000F1D0064A183A126802F020020AB10120B6
:102D500000E00020FF22014B1A6008BD242800403B
:102D600018B1FF21044A116004E0CA21024A11602F
:102D700053211160704700002428004070B50546BB
:102D8000002406E0601C84B2B4F5FA7F01DD002067
:102D900070BD02210E4800F029F80028F2D0294623
:102DA0000B4800F02FF8002406E0601C84B2B4F554
:102DB000FA7F01DD0020EBE70121054800F016F85D
:102DC0000028F2D0024800F01AF8C0B2E0E7000094
:102DD0000038004021B1028842F04002028004E045
:102DE00002884FF6BF731A400280704702460020E7
:102DF00013890B400BB1012000E000207047014611
:102E0000888970478181704710B50022028802F4DA
:102E100041520B884C8823438C882343CC8823431E
:102E20000C8923434C8923438C892343CC89234336
:102E30001A430280838B4FF2FF74234083830B8AF3
:102E4000038210BD7047000030B500228B071C0FB5
:102E50000F2303FA04F20B4B8C1053F824309343E6
:102E6000084C8D1044F8253023468C1053F824303C
:102E70008C07240F00FA04F42343024C8D1044F80D
:102E8000253030BD0838014010B50024FFF7D8FCCC
:102E900004E0601CC4B20120FEF716F902210848C4
:102EA000FEF778FC08B1322CF3DB322C01DB012079
:102EB00010BDC4F5FA70FEF707F90020F8E700002E
:102EC0000000024010B500F09DF8FFF7DDFFCC20B8
:102ED00000F0D4F8442000F0D1F810BD70B52DED0D
:102EE000068B00F08FF8FFF7CFFFCC2000F0C6F87C
:102EF000BE2000F0C3F800F075F8064600F072F846
:102F00000546072D21DDF043C6B2E843C5B22C4685
:102F10004FF6FF7000EA0424A01984B200EE104AB4
:102F2000B8EE400A10EE100AFDF74CFA41EC1A0B0D
:102F30009FED170B53EC102BFDF7D2F941EC190B59
:102F4000FDF753FA08EE100A1CE02C464FF6FF700E
:102F500000EA0424A01984B200EE104AB8EE400A38
:102F600010EE100AFDF72EFA41EC1A0B9FED0A0B3A
:102F700053EC102BFDF7B4F941EC190BFDF735FAC2
:102F800008EE100AB0EE480ABDEC068B70BD0000DA
:102F9000000000000000B0BF000000000000B03FD3
:102FA00010B5FFF761FC02210D48FEF7FCFB022083
:102FB000FEF78AF802210A48FEF7F7FBFFF740FC0C
:102FC0000820FEF781F802210548FEF7E3FB08B16F
:102FD000012400E000243C20FEF776F8204610BDD6
:102FE0000000024070B50025002607E0FFF7D8FF7B
:102FF0000446E00140EA6500C5B2761C082EF5DB08
:10300000284670BD10B5FFF72FFC02210748FEF7D8
:10301000CAFB4FF47A70FEF757F802210348FEF717
:10302000C4FB0F20FEF750F810BD00000000024066
:1030300010B50446FFF718FC74B102210E48FEF7E4
:10304000B2FB0520FEF740F802210B48FEF7ADFB6E
:103050003C20FEF739F80DE002210748FEF7A3FBFC
:103060003C20FEF731F802210348FEF79EFB0520C5
:10307000FEF72AF810BD00000000024070B50446BB
:10308000002606E004F0010564102846FFF7D0FF93
:10309000761C082EF6DB70BD0CB500200190009068
:1030A0003348006840F480303149086000BF304840
:1030B000006800F4003000900198401C01900098D6
:1030C00018B90198B0F5A04FF1D12948006800F473
:1030D000003010B10120009001E000200090009825
:1030E000012844D122484030006840F080502049F7
:1030F000403108601F48006840F440401D490860A6
:103100001B48083000681A49083108600846006802
:1031100008600846006840F4805008601648091F9F
:103120000860081F006840F08070091F086000BF39
:103130000F48006800F000700028F9D040F20270DB
:103140000E4908600A480830006820F0030008496A
:10315000083108600846006840F00200086000BFBF
:1031600003480830006800F00C000828F8D10CBDB6
:10317000003802400070004008544107003C024003
:1031800000B587B007A103C9CDE9050101AB05AAC8
:1031900000210120FFF774F810B9012007B000BD2D
:1031A0000020FBE7FFFFFFFFFFFF0000044800785F
:1031B00018B901200249087070470020FCE70000A0
:1031C0003C0000201CB50020FDF714FD0A20FDF78F
:1031D0004BFF1EA103C9CDE90001684600F000F9CC
:1031E00001210020FFF77AF81A49486001210020E8
:1031F000FFF7B2F817498860084690F82C0040F0B5
:10320000080081F82C00FF2000F06CFCFF2000F08B
:10321000B5F900F0EDFC0F4890F82C0020F0080004
:103220000C4981F82C0000F049FC70B101F026F83F
:1032300028B90020FDF7DEFC0A20FDF715FF01F09C
:103240003DF8FEF7D9F9FEF729FA1CBD57616974FC
:103250002E2E2E006003002000B585B00B4890F89C
:103260002C0040F01000094981F82C000720FDF7E0
:10327000C1FC07A1684601F08BF8684600F0B0F881
:103280000120FDF715FF05B000BD00006003002020
:103290004F626A656374204C65667421000000000B
:1032A00005480078012804D1002003490870012056
:1032B00070470020FCE700003C00002000B52DED29
:1032C000048B85B0404890F82C0000F020002028A6
:1032D00014D000203C49486088609FED3C0A0846B5
:1032E00080ED080A9FED390A80ED090A9FED370A43
:1032F00080ED0A0A05B0BDEC048B00BDFEF782F933
:10330000314880ED090A90ED090A3148D0ED000AF4
:1033100020EE208A2C4890ED0A0A30EE480A80ED13
:103320000A0AFEF7C5F9FEF767F900F0A7FF0128C2
:1033300005D10020FDF75EFC0A20FDF795FE00F0A8
:10334000CBFF18EE100AFDF73DF841EC190B53ECDA
:10335000192B20A1684601F01BF8684600F040F8E0
:10336000194890F82C0040F00400174981F82C000F
:10337000FF2000F0B7FBFF2000F000F900F038FC60
:10338000114890F82C0020F004000F4981F82C001F
:10339000084690F82C0020F0200081F82C00002036
:1033A000486088609FED090A084680ED080A9FED95
:1033B000070A80ED090A9FED050A80ED0A0A01203F
:1033C000FDF776FE00BF95E76003002000000000D7
:1033D00040000020436F73743A20252E32660000AF
:1033E00070B58AB006464549081FFEF793FA434870
:1033F0001438407D41491439097D404A143A927C81
:10340000CDE9002102903D481438437CC27C3CA1A8
:1034100004A800F0BDFF0020162304AA0146009076
:10342000FDF7AEFF3548143890F82C0000F080000E
:10343000802804D138A104A800F0AAFF03E038A135
:1034400004A800F0A5FF0020162304AA014600905E
:103450004E20FDF795FF3046FCF732FFC0F110001B
:10346000C0F34704002507E0E906080E01232022E7
:103470001946FDF727FF6D1CA542F5DB3046FCF72A
:103480001FFFC5B20120E1060090080E2B46324610
:103490000121FDF775FF3046FCF712FF051907E023
:1034A000E906080E012320221946FDF70BFF6D1CCB
:1034B000102DF5DB00F0E2FE20B11BA104A800F006
:1034C00067FF03E01BA104A800F062FF00201623A1
:1034D00004AA03210090FDF753FF0848143818A1EF
:1034E000826804A800F054FF0020162304AA0321D8
:1034F00000903C20FDF744FF0AB070BD740300202B
:103500002530326425303264253032642025303253
:10351000643A25303264200057617465724F4E0062
:103520004E6F57617465720056616C7665204F4E20
:103530002000000056616C7665204F464620000052
:103540002530313164000000054890F82C0000F06F
:103550000200022801D1012070470020FCE7000092
:1035600060030020044890F82C0000F0010008B12E
:10357000012070470020FCE760030020F0B5C1B0D7
:10358000044600250026FEF7D1F9074600BF01A832
:10359000FDF744FC0546002D7DD09DF8040024284D
:1035A0007ED19DF8230024287AD19DF809309DF81A
:1035B00008209DF807109DF80600FEF756FC4649C6
:1035C00088609DF80A0081F82C009DF80E309DF867
:1035D0000D209DF80C109DF80B00FEF73BFC00EE53
:1035E000100AB8EEC00ADFED3D0A80EE201A3A4814
:1035F00080ED0A1A9DF80F10C1749DF810104174E7
:103600009DF8111081749DF81200334908749DF8DB
:10361000130008759DF814102F4841759DF815107A
:1036200081759DF81610C1759DF817002A49087616
:103630009DF81810284841769DF8191081769DF85C
:103640001A10C1769DF81B00234908779DF81C10BD
:10365000214841779DF81D1081779DF81E10C17794
:103660009DF822309DF821209DF820109DF81F0024
:10367000FEF7FBFB1849C8601948027819A11B48DE
:1036800000F086FE0423194A194801780020FDF74E
:10369000DDFB012601E010E002E000F0A9FA0CE0F9
:1036A0000F48027813A1154800F072FE0423134A54
:1036B0000F4801780020FDF7C9FBFEF737F9C01B62
:1036C000A04201D941B0F0BD002D3FF460AF012E02
:1036D0007FF45DAF00BFF5E7600300200000C84243
:1036E00034000020242563412400000090030020C2
:1036F000350000202425634E2400000090040020A3
:1037000010B5FEF749FA08B1012010BD0020FCE712
:1037100000B585B00B4890F82C0000F04000402820
:1037200004D109A1684600F033FE03E009A1684610
:1037300000F02EFE6846FFF753FE0120FDF7B8FCAF
:1037400005B000BD60030020526573657276656444
:103750002100000049646C652E2E2E0010B52DED61
:10376000028B86B0354890F82C0040F02000334999
:1037700081F82C00FFF7A6FBFFF7B0FB2F4880ED88
:10378000080AFDF73FFF2D4880ED090A90ED0A0A6F
:10379000D0ED090A2A4890ED001A00EEC10A10EE99
:1037A000104A28480078032190FBF1F201FB120037
:1037B00080B9224890ED080A10EE101A0846FCF76E
:1037C00001FE41EC180B53EC182B1FA101A800F0CF
:1037D000DFFD24E01B480078032190FBF1F201FBA0
:1037E0001200012810D1154890ED090A10EE101AA8
:1037F0000846FCF7E7FD41EC180B53EC182B15A11C
:1038000001A800F0C5FD0AE02046FCF7DBFD41EC15
:10381000180B53EC182B12A101A800F0B9FD01A858
:10382000FFF7DEFD07480078401C064908700120BC
:10383000FDF73EFC06B0BDEC028B10BD600300201E
:10384000400000204700002054656D703A20252E6E
:1038500032660000466C6F773A20252E32660000F3
:1038600052656D61696E3A20252E326600000000B7
:1038700000B585B00A20FDF7F7FBFEF778F800F0F9
:1038800041F8FDF785F90F20FDF704FAFDF70EFA70
:10389000FDF792FCFDF73EFCFDF7C6FEFDF7ACFE22
:1038A00012480078FEF7B2F911480088FEF7BCFA1A
:1038B000FEF700FC00F064FC00F0E6FC00F00CFDFC
:1038C0000CA30FCBCDE90323CDE901010120FF2398
:1038D00001AA014600901020FDF752FD0520FDF7DA
:1038E000E7FBFDF717FC05B000BD00004600002017
:1038F00044000020496E697469616C697A656421CD
:103900000000000010B510480078104908701048F9
:1039100000784870002048608860C8601431081F33
:10392000FDF7F8FF9FED0B0A084880ED080A9FEDB0
:10393000090A80ED090A9FED070A80ED0A0A0020B6
:10394000024981F82C0010BD3500002060030020E2
:10395000340000200000000030B585B02A48007F08
:103960004FF4616110FB01F12748407FC0EB00106C
:1039700001EB80012448807F0C182348007D4FF420
:10398000616110FB01F12048407DC0EB001001EBAC
:1039900080011D48807D0D181C480078052190FB92
:1039A000F1F201FB120070B9A5420CD30620FDF71D
:1039B00021F917A1684600F0EBFC6846FFF710FDFF
:1039C0000320FDF775FB114800780F2190FBF1F201
:1039D00001FB120080B9601BB0F5967F0CD8052062
:1039E000FDF708F90DA1684600F0D2FC6846FFF724
:1039F000F7FC0320FDF75CFB04480078401C0349FA
:103A0000087005B030BD00006003002048000020B1
:103A100054696D65205570210000000054696D6582
:103A200020557020536F6F6E2100000000B585B0E7
:103A30000320FDF7DFF806A1684600F0A9FC684600
:103A4000FFF7CEFC0120FDF733FB05B000BD000001
:103A50004E6F204170706F696E746D656E742100D9
:103A600000B585B00220FDF7C5F806A1684600F054
:103A70008FFC6846FFF7B4FC0120FDF719FB05B089
:103A800000BD0000537769706520436172642100B6
:103A900010B5FEF785F908B1012010BD0020FCE744
:103AA000054890F82C0000F01000102801D10120EA
:103AB00070470020FCE7000060030020084890F8F1
:103AC0002C0000F04000402807D1054880680449D8
:103AD000C968884201D1012070470020FCE700003E
:103AE0006003002030B5C1B00446FDF71FFF054656
:103AF00024208DF804003A4800788DF805000DF177
:103B000009003849009002AB5A1E4868511E00F067
:103B1000A8FB0DF10D003349009003AB5A1E8868D5
:103B2000511E00F09EFB2F4890F82C008DF80E00DF
:103B30000DF112002B49009091ED080ADFED2A0AE1
:103B400020EE200ABDEEC00A10EE100A0DF111039E
:103B500004AA511EFEF774F90DF1160021490090D8
:103B600091ED090ADFED200A20EE200ABDEEC00A21
:103B700010EE100A0DF1150305AA511EFEF760F9AB
:103B80000DF11A001749009091ED0A0ADFED160AAF
:103B900020EE200ABDEEC00A10EE100A0DF1190346
:103BA00006AA511EFEF74CF924208DF81B0000BF19
:103BB0004FF49670FDF758FA182301AA0B480178C4
:103BC0000020FDF743F9FDF7B1FE401BA04201D9EB
:103BD00041B030BD00F064F80028E9D000BFF7E73D
:103BE00034000020600300200000C842350000209F
:103BF00010B50249081FFDF70AFF10BD740300202D
:103C0000044890F82C0040F00200024981F82C0092
:103C10007047000060030020044890F82C0040F03A
:103C20000100024981F82C00704700006003002069
:103C300010B5FFF7A5FA10B9FFF72AFF10B1FFF78B
:103C40000BFB09E0054890F82C0020F01000034918
:103C500081F82C00FFF75CFD10BD00006003002020
:103C600000B585B00A4890F82C0000F0800080284C
:103C70000CD00420FCF7BEFF06A1684600F088FBCC
:103C80006846FFF7ADFB0320FDF712FA05B000BD53
:103C90006003002057617465722053746F702100B7
:103CA00010B5C0B0002421E00120FDF7DDF9684621
:103CB000FDF7B4F800B918E09DF80000242803D1FE
:103CC0009DF80300242800D00FE09DF80100094969
:103CD0000978884200D008E09DF80200412802D10E
:103CE000012040B010BD0020FBE7641C0A2CDBDB88
:103CF0000020F6E7340000207047000010B515489A
:103D0000006840F47000134908601348006840F0F0
:103D100001001149086000200F49083108600E4871
:103D200000680E4908400C4908600D48091D0860EC
:103D3000081F006820F48020091F08600020064941
:103D40000C310860FFF7A8F94FF000600149803995
:103D5000086010BD88ED00E000380240FFFFF6FE6D
:103D600010300024F0B50C46154600210022068CC8
:103D70004FF6FE773E400684018B028C4FF60C76A0
:103D800031407E1C06EA03162E4331434FF6F5768A
:103D9000324044F00106324301830284F0BDF0B5A5
:103DA0000C461546002100220026078C4FF6EF7CBA
:103DB00007EA0C070784018B028C4FF6FF7707EAAE
:103DC000041640F6FF4739404FF6FF7707EA0337FE
:103DD00039434FF6FF7707EA052739434FF65F77F8
:103DE0003A4046F010073A4301830284F0BD0000D8
:103DF0001FB50121134800F0F4F808B30121114860
:103E000000F0CEF800210F4800F0CDF800210D4859
:103E100000F052F920210C48FDF7BCFC80B9FFF7F7
:103E2000FBFE0AA30FCB8DE80F006846FFF7D8FA18
:103E30000120FCF7DFFE4FF4FA70FDF715F900BF23
:103E40001FBD000000040040000002404465766988
:103E50006365204661696C75726521001FB501219B
:103E60000220FEF72BFD0020ADF80C00ADF8060097
:103E70006320029042F2CF00ADF8040001A90B4884
:103E800000F03CF91D208DF8000000208DF80100A5
:103E90008DF8020001208DF803006846FEF7CAFA8B
:103EA00001221146014800F0ADF81FBD000400409A
:103EB0000EB50121144800F094F820B301211248F6
:103EC00000F06EF80021104800F06DF800210E4857
:103ED00000F0F2F840210D48FDF75CFC98B9FFF7BF
:103EE0008FFEFFF73FFB38B909A207CA8DE807002C
:103EF0006846FFF775FA00BF0120FCF77BFE4FF420
:103F0000FA70FDF7B1F80EBD000800400000024055
:103F10004E6565642048656C702100001FB5012165
:103F20000420FEF7CBFC0020ADF80C00ADF8060035
:103F30006320029042F2CF00ADF8040001A90B48C3
:103F400000F0DCF81E208DF8000000208DF8010044
:103F50008DF8020001208DF803006846FEF76AFA2A
:103F600001221146014800F04DF81FBD0008004035
:103F70000EB501210820FEF7A1FC0020ADF80800D5
:103F8000ADF802004FF6FF7001905320ADF800002D
:103F90006946024800F0B2F80EBD0000000C004077
:103FA000CA430282704721B1028842F001020280B6
:103FB00004E002884FF6FE731A400280704731B168
:103FC000B0F8442042F40042A0F8442005E0B0F8E4
:103FD0004420C2F30E02A0F8442070470146486A0C
:103FE000704730B50246002000230024158A05EAF8
:103FF0000103958905EA010413B10CB1012000E029
:10400000002030BD1AB183890B43838102E083898C
:104010008B4383817047000070B500240022002389
:10402000058C4FF6FE7635400584028C8388048B20
:104030004FF68F752C40B51E2C400D882C43751EF5
:104040002A408D892A434D882A43104DA84202D028
:104050000F4DA84213D14FF6F7752A40CD892A4358
:104060004FF6FB752A408D882A434FF6FF652B409B
:104070004FF6FF552B400D8A2B434D8A2B438380EF
:1040800004838D684563028470BD00000000014018
:10409000000401400A460021018B4FF6F7731940D6
:1040A0001143018370470A46002101894FF68F733F
:1040B0001940114301817047416270472DE9F04179
:1040C00004460D4616461F46602D06D13B4601228A
:1040D00031462046FFF763FE05E03B4601223146AC
:1040E0002046FFF73FFE29462046FFF7DCFF2089E8
:1040F00040F007002081BDE8F08100000022028826
:10410000184B98420ED0184B98420BD0B0F1804F0C
:1041100008D0164B984205D0154B984202D0154B4B
:10412000984204D14FF68F731A404B881A43124BB2
:10413000984207D0114B984204D04FF6FF431A40E3
:104140000B891A4302804B68C3620B880385054BB9
:10415000984202D0044B984201D18B7A0386012306
:1041600083827047000001400004014000040040C9
:1041700000080040000C0040001000400014004007
:104180001CB501210846FEF789FB022000900120A2
:104190008DF8040000208DF8060002208DF805003F
:1041A00001208DF8070069460548FDF788FA0221CD
:1041B0000348FDF7FAFAFEF725FFFEF765FE1CBD82
:1041C0000000024010B540F224410B4800F01AF8FC
:1041D00080B10A48FCF70DFF4FF6FF71081A084935
:1041E000088000210548FCF7F9FE034800F034F888
:1041F000C4B200BF10BD000000100140886402403E
:104200002E00002070B50246002400230025002067
:1042100040F66A16B14200D100BFC1F3421501F069
:104220001F03012606FA03F3012D02D196893340BC
:1042300006E0022D02D1168A334001E0968A33400F
:104240000C12012606FA04F41688344013B10CB19E
:10425000012000E0002070BD01468888C0F30800FE
:10426000704730B5039C0870000A1070000A18707F
:10427000000A207030BD00BFFEE700000148007852
:1042800070470000140000201CB501210846FEF70D
:1042900005FB1020009001208DF8040000208DF80F
:1042A000060002208DF8070000208DF80500694601
:1042B0000148FDF704FA1CBD0000024010B50120C2
:1042C0000349087010210348FDF76FFA10BD000084
:1042D000140000200000024010B5002003490870BF
:1042E00010210348FDF75FFA10BD00001400002004
:1042F0000000024070B50446002607E00C48007834
:1043000000B105E00120FCF7AFFE761CA642F5DB0C
:1043100000BF0748007810B90648008870BD0548FE
:104320000588002002490870024908802846F5E700
:104330002C0000202E00002070B504460D4604B964
:1043400070BD002607E01048007800B105E00120AC
:10435000FCF78AFE761CAE42F5DB00BF0A48007807
:1043600000B9EDE700210948FCF738FE214607486F
:10437000FCF776FE00200449087001210348FCF791
:104380002DFE00BFDCE700002D000020B8640240D5
:104390000FB4084B10B504A902AA039800F0DEF888
:1043A000044602A9002000F05CFC204610BC5DF829
:1043B00014FB0000634C000802E008C8121F08C18B
:1043C000002AFAD170477047002001E001C1121F96
:1043D000002AFBD1704700002DE9FF5F82B0002169
:1043E000DDE90430020DDDF840B0034318D044F697
:1043F0001050A2F2FF3242431514119801281FD029
:10440000A5EB0B00401C5FEA000A4FF000064E4F80
:10441000DFF83891B046504615D5CAF1000413E0D4
:10442000119801244AA3012801D16FEA0B010298D7
:10443000119AC0E90031C0E9024206B0BDE8F09F20
:10444000CBF10000DFE704460021404A491842EB67
:104450000450CDE9001012E0E00707D032463B4699
:1044600040464946FBF73CFF8046894632463B467C
:1044700010461946FBF734FF06460F466410002C21
:10448000EAD1DDE90401DDE90023BAF1000F06DA23
:10449000FBF726FF42464B46FBF722FF05E0FCF701
:1044A00088F942464B46FCF784F904460E46002242
:1044B000284BFCF705FA03D84FF0FF30014607E020
:1044C0000022254B20463146FCF7CCF8FCF7E0F9FA
:1044D000102409E0002C0ADB0A220023FBF7B7FFB7
:1044E000039B30321A55641E50EA0102F2D1641C5B
:1044F000039AC4F111031444119A012A03D0012232
:1045000008430DD10AE0084304D000204FF0110BFE
:10451000119072E7A3EB0B056D1E0DE05B4504DD0A
:104520004FF0000205F1010504E003DA4FF000024C
:10453000A5F10105002AECD002981199C0E90231D9
:10454000C0E9004579E70000000014400000F03F9A
:10455000300000000000F0430000E03F2DE9FF4F75
:1045600095B09A46884606460025EEE1252877D183
:1045700000242746F94A0121039400E0044316F879
:10458000013F203B01FA03F01042F7D130782A288E
:1045900011D06FF02F033078A0F13002092A16D81D
:1045A000039A44F0020402EB820203EB420210443D
:1045B000761C0390EFE758F8042B0392002A03DAE5
:1045C000504244F40054039044F00204761C3078C6
:1045D0002E2816D116F8010F44F004042A280DD015
:1045E0006FF02F023078A0F13003092B09D807EBC8
:1045F000870302EB4303C718761CF3E758F8047BE4
:10460000761C30786C280FD006DC4C2817D0682830
:104610000DD06A2814D104E0742810D07A280FD164
:104620000DE044F400140AE044F4801401E044F482
:1046300040147278824202D104F58014761C761CF4
:10464000307866280BD013DC582877D009DC002896
:1046500075D04528F6D04628F4D047281AD193E1E2
:1046600018E0632835D0642879D0652812D18BE111
:10467000702873D008DC6728F1D069286FD06E28C5
:104680000DD06F2806D1ACE073282CD0752874D0DB
:10469000782853D05246179990476D1C54E1C4F3C3
:1046A0000250022809D003280DD0D8F800100428A1
:1046B0000DD00D6008F1040846E1D8F80010EA17A3
:1046C000C1E90052F6E7D8F800100D80F2E70D704E
:1046D000F0E718F8041B8DF8001000208DF8010099
:1046E000EB46012003E058F804BB4FF0FF306107B0
:1046F0004FF0000102D40DE009F101018946B942F1
:104700000FDA8145F8DB1BF809100029F4D108E025
:1047100009F1010189468142FADB1BF809100029E1
:10472000F6D103985346A0EB090721463846179A5D
:1047300000F080FA284400EB090507E044E008E1B6
:104740000DE01BF8010B524617999047B9F101098A
:10475000F7D2534621463846179AF2E039E00A214B
:10476000C4F302524FF0000B0091022A06D058F811
:10477000040BC117032A09D00AE023E008F107005F
:1047800020F00702F2E80201904605E000B2C117EE
:10479000042A01D140B2C117002906DA0A460021D5
:1047A000404261EB02012D2202E0220504D52B22BA
:1047B0008DF80420012203E0E20701D02022F7E770
:1047C000914657E00A2100E010214FF0000B0091C4
:1047D0000BE010214FF0000B44F004040827009177
:1047E00003E008204FF0000B0090C4F30252022AAD
:1047F00005D058F8040B0021032A08D008E008F17E
:10480000070020F00702F2E80201904603E080B2C0
:10481000042A00D1C0B24FF0000922072AD532780D
:10482000702A07D0DDF800C08CF0100C5CEA0B0C8D
:1048300005D00EE040228DF80420012208E050EA65
:10484000010306D030238DF804308DF805200222B4
:104850009146009B83F0080353EA0B030AD150EA08
:10486000010201D1620705D530228DF804204FF0F6
:1048700001097F1E3278582A04D039A20C920CAA62
:1048800002920BE03BA2F9E75B46009AFBF7DFFDE3
:104890000C9B9B5C029A521E0292137050EA01021A
:1048A000F2D1029804A9081A00F1200B600702D582
:1048B00024F4803400E001275F4502DDA7EB0B0004
:1048C00000E0002000EB0B01009003984944401ADF
:1048D0000390E00306D453462146179A039800F04C
:1048E000A9F90544002706E001A85246C05D1799C2
:1048F00090476D1C7F1C4F45F6DBE0030CD55346FB
:104900002146179A039800F095F9054404E03020F9
:104910005246179990476D1C0099481E0090002937
:10492000F5DC08E00298029952460078491C029191
:10493000179990476D1CBBF10001ABF1010BF1DC45
:104940005BE100F065F90544761C307800287FF4BF
:104950000DAE19B02846BDE8F08F0000092801000F
:1049600030313233343536373839616263646566E5
:1049700000000000303132333435363738394142A7
:104980004344454600000000600700D4062708F1B4
:10499000070020F00700F0E80223804603F0004CF7
:1049A0005FEA0C0001D097A009E0200501D596A090
:1049B00005E0E00701D095A001E0AFF24C001390B4
:1049C000307823F0004365280CD006DC452809D058
:1049D00046281DD047287FD13BE0662818D067289D
:1049E0007AD136E00021112F01DB112000E0781C84
:1049F000CDE9000104A90CA8FFF7EEFCDDE90D01EB
:104A00000C9A4FF0000B07F10109109200914EE053
:104A10004FF000400097CDE9011004A90CA8FFF762
:104A2000DBFCDDE90D020C9B0F994FF0000B91466A
:104A30001093009211B9791C00EB0109B7EB090042
:104A400003D4C0F1FF3B07F10109A9EB0700019076
:104A500042E0012F00DA01270021112F01DD112092
:104A600000E03846CDE9000104A90CA8FFF7B4FC2A
:104A7000DDE90D010C9A00914FF0000BB946109240
:104A800021070FD4009A4A4503DA914601E0A9F1C3
:104A90000109B9F1010F05DD109AA9F10101515C7D
:104AA0003029F4D0B84202DA10F1040F03DA012100
:104AB000CDE9011010E0002803DC8344A9EB0001DC
:104AC00002E0411C494500DD8946A0EB0B00401C7B
:104AD00001904FF000400290200705D4019848450E
:104AE00002DB4FF0FF30019000208DF84B00029860
:104AF0000DF14B07B0F1004F25D002200C902B2078
:104B00000D90029800280CDA404202902D200D9062
:104B100007E00A210298FBF784FC3031029007F885
:104B2000011D0C99481E0C900029F2DC0298002807
:104B3000EFD1791E0D980870307800F0200040F019
:104B4000450007F8020D11A8C01BC01D0290139864
:104B5000007800B1012000EB0901019801EBE07140
:104B6000029801440398401A401E0390E00306D4C3
:104B700053462146179A039800F05CF805441398B1
:104B8000007818B15246179990476D1CE00323D561
:104B900053462146179A039800F04CF805441BE051
:104BA000BBF1000F07DB0098584504DD10981799FA
:104BB00010F80B0001E017993020524690470198F9
:104BC0000BF1010B401E05F10105019004D12E20CF
:104BD0005246179990476D1CB9F10001A9F10109DE
:104BE000DEDC05E017F8010B5246179990476D1C63
:104BF0000299481E02900029F4DC53462146179A78
:104C000003989EE62D0000002B000000200000000D
:104C10002DE9F041044600251E461746880404D4B9
:104C200005E039462020B0476D1C641EF9D52846A2
:104C3000BDE8F0812DE9F041044600251E4690466E
:104C4000C80301D5302700E02027880404D505E0FB
:104C500041463846B0476D1C641EF9D52846BDE86C
:104C6000F0810A68531C0B601070704786B0FEF725
:104C7000FFFD4EE00220FEF735FF0220FEF77EFC2E
:104C8000FEF70EFF10B1FEF7D3FF42E0FEF76AFC1D
:104C900040B114221FA101A8FBF7EEFA01A8FEF70C
:104CA0009FFB36E0FEF750FC38B11FA207CA03ABEA
:104CB00007C303A8FEF794FB2BE0FEF721FDE8B144
:104CC000FEF75EFA88B1FEF771FA08B1FEF77AFADC
:104CD000FEF7F4FE30B1FEF741FDFEF7C1FFFEF72F
:104CE0003BFE16E0FEF7A2FE13E0FEF7D9FA10B184
:104CF000FEF7E4FA0DE0FEF7B3FE0AE0FEF740FA35
:104D000010B9FEF7C5FE10B1FEF7A6FA01E0FEF7F6
:104D1000FFFCAFE7446576696365204661696C75A1
:104D200072652021000000004E4545442048454C56
:104D3000502100000000000000000000002F0000D3
:104D400000000700070000147F147F1400242A7F4E
:104D50002A120062640813230036495522500000CD
:104D60000503000000001C224100000041221C003D
:104D70000014083E08140008083E0808000000A0BF
:104D800060000008080808080000606000000020BB
:104D900010080402003E5149453E0000427F400099
:104DA000004261514946002141454B31001814121F
:104DB0007F10002745454539003C4A4949300001EC
:104DC0007109050300364949493600064949291E3B
:104DD000000036360000000056360000000814229D
:104DE000410000141414141400004122140800029D
:104DF0000151090600324959513E007C1211127CC2
:104E0000007F49494936003E41414122007F4141EE
:104E1000221C007F49494941007F09090901003EE0
:104E20004149497A007F0808087F0000417F41001E
:104E3000002040413F01007F08142241007F404094
:104E40004040007F020C027F007F0408107F003E7C
:104E50004141413E007F09090906003E4151215E62
:104E6000007F091929460046494949310001017F5F
:104E70000101003F4040403F001F2040201F003FF5
:104E80004038403F006314081463000708700807A7
:104E900000615149454300007F41410000552A55BA
:104EA0002A55000041417F00000402010204004035
:104EB0004040404000000102040000205454547857
:104EC000007F484444380038444444200038444477
:104ED000487F00385454541800087E090102001815
:104EE000A4A4A47C007F080404780000447D400052
:104EF000004080847D00007F102844000000417F36
:104F00004000007C04180478007C08040478003811
:104F10004444443800FC242424180018242418FC99
:104F2000007C0804040800485454542000043F4402
:104F30004020003C4040207C001C2040201C003CC5
:104F40004030403C004428102844001CA0A0A07C15
:104F5000004464544C44141414141414000000004D
:104F6000000000000000000000000000000000F849
:104F700000000000000000333000000000100C06AC
:104F8000100C0600000000000000000040C0784047
:104F9000C0784000043F04043F040400007088FC13
:104FA00008300000001820FF211E0000F008F0006B
:104FB000E018000000211C031E211E0000F00888DC
:104FC000700000001E2123241927211010160E0046
:104FD000000000000000000000000000000000E0F1
:104FE0001804020000000007182040000002041806
:104FF000E00000000040201807000000404080F062
:10500000804040000202010F01020200000000F097
:10501000000000000101011F01010100000000006B
:105020000000000080B070000000000000000000E0
:105030000000000000010101010101010000000069
:105040000000000000303000000000000000000000
:1050500080601804006018060100000000E01008DD
:105060000810E000000F102020100F00001010F8B2
:10507000000000000020203F2020000000700808F1
:105080000888700000302824222130000030088871
:10509000884830000018202020110E000000C02099
:1050A00010F8000000070424243F240000F80888BA
:1050B000880808000019212020110E0000E0108847
:1050C00088180000000F112020110E000038080879
:1050D000C83808000000003F000000000070880889
:1050E00008887000001C222121221C0000E010080A
:1050F0000810E0000000312222110F00000000C063
:10510000C0000000000000303000000000000080FF
:1051100000000000000080600000000000008040EF
:105120002010080000010204081020004040404008
:10513000404040000404040404040400000810205B
:1051400040800000002010080402010000704808A0
:105150000808F0000000003036010000C030C82808
:10516000E810E0000718272423140B000000C038C3
:10517000E0000000203C23020227382008F888883D
:1051800088700000203F202020110E00C030080849
:1051900008083800071820202010080008F8080820
:1051A0000810E000203F202020100F0008F8888819
:1051B000E8081000203F20202320180008F88888E5
:1051C000E8081000203F200003000000C03008085D
:1051D0000838000007182020221E020008F80800E6
:1051E0000008F808203F210101213F20000808F8AD
:1051F000080800000020203F2020000000000808D0
:10520000F8080800C08080807F00000008F888C08F
:1052100028180800203F20012638200008F8080040
:1052200000000000203F20202020300008F8F80077
:10523000F8F80800203F003F003F200008F830C089
:105240000008F808203F200007183F00E010080879
:105250000810E0000F10202020100F0008F80808A8
:105260000808F000203F210101010000E0100808BB
:105270000810E0000F18242438504F0008F88888E0
:1052800088887000203F2000030C302000708808C0
:10529000080838000038202121221C00180808F8CE
:1052A000080818000000203F2000000008F808004F
:1052B0000008F808001F202020201F000878880020
:1052C00000C83808000007380E010000F80800F890
:1052D0000008F800033C0700073C0300081868803A
:1052E0008068180820302C03032C30200838C800B0
:1052F000C83808000000203F2000000010080808FF
:10530000C83808002038262120201800000000FEA0
:10531000020202000000007F40404000000C30C04C
:1053200000000000000000010638C0000002020278
:10533000FE000000004040407F000000000004022A
:105340000202040000000000000000000000000055
:105350000000000080808080808080800002020445
:10536000000000000000000000000000000080803D
:10537000808000000019242222223F2008F80080AB
:1053800080000000003F112020110E00000000806E
:1053900080800000000E11202020110000000080FD
:1053A0008088F800000E112020103F20000080802F
:1053B00080800000001F222222221300008080F043
:1053C000888888180020203F20200000000080806E
:1053D00080808000006B94949493600008F80080B3
:1053E00080800000203F210000203F20008098980E
:1053F000000000000020203F20200000000000806E
:105400009898000000C08080807F000008F80000AD
:1054100080808000203F24022D302000000808F802
:10542000000000000020203F2020000080808080BD
:1054300080808000203F20003F20003F808000804F
:1054400080800000203F210000203F20000080805D
:1054500080800000001F202020201F00808000800E
:105460008000000080FFA12020110E0000000080BD
:1054700080808000000E112020A0FF8080808000AE
:105480008080800020203F212000010000008080DB
:10549000808080000033242424241900008080E0D0
:1054A000808000000000001F20200000808000009D
:1054B00000808000001F202020103F20808080007E
:1054C0000080808000010E3008060100808000808E
:1054D000008080800F300C030C300F0000808000B3
:1054E000808080000020312E0E31200080808000DE
:1054F0000080808080818E7018060100008080808E
:10550000808080000021302C22213000000000002B
:10551000807C020200000000003F404000000000CC
:10552000FF00000000000000FF0000000002027CFD
:10553000800000000040403F000000000006010124
:105540000202040400000000000000001F1C1F1ED7
:105550001F1E1F1F1E1F1E1F1F1D1F1E1F1E1F1F62
:105560001E1F1E1F84550008000000204C00000074
:10557000B8430008D05500084C0000204409000042
:10558000C843000800BD0105000000000000000045
:1055900001020304060708090000000800080000D3
:1055A00000000001020502FFFFFFFFFFFF000000F7
:1055B000000100000000000001010F003412111171
:1055C000000000000AD7233D00080800000000008A
:040000050800019559
:00000001FF
