:020000040800F2
:1000000040040020AD010008970F0008F90800081F
:100010008D0C0008B9020008CB1700080000000092
:100020000000000000000000000000009114000823
:1000300029030008000000002F1300087D150008A8
:10004000C7010008C7010008C7010008C701000870
:10005000C7010008C7010008C7010008C701000860
:10006000A5060008C7010008C7010008C70100086D
:10007000C7010008C7010008C7010008C701000840
:10008000C7010008C701000859020008000000006D
:10009000000000000000000000000000AD070008A4
:1000A000C7010008C7010008C7010008C701000810
:1000B000C7010008E915000851160008C70100082B
:1000C000C7010008C7010008C7010008C7010008F0
:1000D000C7010008C7010008C701000800000000B0
:1000E000C7010008C7010008C701000800000000A0
:1000F000000000000000000000000000C701000830
:1001000000000000C7010008C7010008C70100087F
:1001100000000000000000000000000000000000DF
:10012000C7010008C7010008C7010008C70100088F
:10013000C7010008000000000000000000000000EF
:10014000000000000000000000000000C7010008DF
:10015000C7010008C7010008C7010008C70100085F
:10016000C7010008C70100080000000000000000EF
:10017000000000000000000000000000000000007F
:1001800000000000C701000800000000000000009F
:10019000C7010008DFF810D000F030F80048004731
:1001A000A9190008AFF300804004002006488047EA
:1001B00006480047FEE7FEE7FEE7FEE7FEE7FEE74C
:1001C000FEE7FEE7FEE7FEE781150008950100085F
:1001D00030B50B46014600202022012409E021FA17
:1001E00002F59D4205D303FA02F5491B04FA02F514
:1001F0002844151EA2F10102F1DC30BD064C074D6A
:1002000006E0E06840F0010394E8070098471034E6
:10021000AC42F6D3FFF7C2FF1822000838220008CC
:1002200000220A12D343036070470146C86C80B2B3
:10023000704770B502460020002300240B12556859
:1002400001268E4005EA060415681D4015B10CB163
:10025000012000E0002070BD10B540F205211248D9
:10026000FFF7E7FFF8B140F205210F48FFF7D8FF8D
:100270000D48FFF7DAFF0D490D4A127821F81200F8
:1002800008460B4A127830F812100AA001F0A0FAC2
:1002900007480078401C06490870084600780A287C
:1002A00001DB0020087010BD002001402C00002060
:1002B0001600002025640A0000BFFEE72DE9F0418A
:1002C0000746884615460421052000F0ABFC0021B6
:1002D000012000F0C1FC80210A2000F0B0FC0024C5
:1002E00005E0395D092000F0B7FC601CC4B244454C
:1002F000F7DB0321012000F0AFFCFF2400BF052045
:1003000000F074FC0646601EC4B21CB106F0040086
:100310000028F4D0222000F069FC2870212000F091
:1003200065FC6870BDE8F08170470000104A1268F3
:100330004FF47A73B2FBF3F24243D2084FF0E0235A
:100340005A6100229A6101221A611A46116902E07B
:100350004FF0E022116901F001021AB101F480327C
:10036000002AF5D000224FF0E0231A619A6170470D
:1003700000000020104A1268104BB2FBF3F2424317
:10038000D2084FF0E0235A6100229A6101221A61DB
:100390001A46116902E04FF0E022116901F00102F2
:1003A0001AB101F48032002AF5D000224FF0E02388
:1003B0001A619A61704700000000002040420F005F
:1003C00070B5002419E004F1B001C8B2012100F0B9
:1003D0001FFB0121002000F01BFB0121102000F079
:1003E00017FB002505E00021084600F011FB681C02
:1003F000C5B2802DF7DB601CC4B2082CE3DB70BDF6
:100400001CB50121022000F0AFFF802000900120E8
:100410008DF804008DF806008DF807008DF80500B2
:1004200069460F4800F0F0F980210D4800F062FAAB
:100430000121022000F098FF4020009001208DF85B
:1004400004008DF806008DF807008DF80500694658
:10045000034800F0D9F94021014800F04BFA1CBDD7
:100460000004024010B5FFF7CBFF0120FFF75EFF4D
:10047000C820FFF75BFF0121AE2000F0C9FA01217F
:10048000002000F0C5FA0121102000F0C1FA01217E
:10049000402000F0BDFA0121B02000F0B9FA01219E
:1004A000812000F0B5FA0121FF2000F0B1FA01210E
:1004B000A02000F0ADFA0121A62000F0A9FA012148
:1004C000A82000F0A5FA01211F2000F0A1FA0121C7
:1004D000C02000F09DFA0121D32000F099FA0121FB
:1004E000002000F095FA0121D52000F091FA0121B9
:1004F000002000F08DFA0121D92000F089FA0121B5
:100500001F2000F085FA0121DA2000F081FA012194
:10051000022000F07DFA0121DB2000F079FA0121B0
:10052000302000F075FA01218D2000F071FA0121D0
:10053000142000F06DFA0121AF2000F069FAFFF7F6
:100540003FFF10BD70B504460D4605F1B001C8B2BD
:10055000012100F05DFA102141EA1410012100F0A0
:1005600057FA04F00F00012100F052FA70BD0000AC
:100570002DE9F04707460E4690469946002500248F
:10058000A8F12000C5B2B9F1010F2CD15F2D00DB1D
:100590000025782F00DD0027022E00DD00263146E1
:1005A0003846FFF7CFFF002408E01E4901EB051194
:1005B000085D002100F02CFA601CC4B2082CF4DBAA
:1005C000701CC1B23846FFF7BDFF082408E015498A
:1005D00001EB0511085D002100F01AFA601CC4B29D
:1005E000102CF4DB1BE05C2D00DB00257A2F00DDF6
:1005F0000027032E00DD002631463846FFF7A2FF14
:1006000000240AE005EB4501074A02EB4101085DC1
:10061000002100F0FDF9601CC4B2062CF2DBBDE83D
:10062000F0870000281C0008001A00082DE9F0419E
:1006300005460E46174698460024B8F1010F18D11A
:1006400013E03A5D434631462846FFF791FF05F136
:100650000800C5B2782D02DD0025B01CC6B2022EFE
:1006600001DDBDE8F081601CC4B2385D0028E8D12E
:1006700015E011E03A5D434631462846FFF778FF22
:10068000A81DC5B27A2D02DD0025701CC6B2032E4E
:1006900000DDE6E7601CC4B2385D0028EAD100BF87
:1006A000DFE7000010B5042000F0A2F800286FD0AA
:1006B000042000F097F8374801F00DF884B20021CB
:1006C000344800F0FCFF0021324801F018F8012105
:1006D000304800F0F4FF40F26C7084420CDA40F2D3
:1006E000A460844208DD01202B49087000202B49BA
:1006F00008702B49087030E040F2AA50844214DAA6
:1007000040F2E240844210DD2348007828B32448B8
:1007100000784010224908700846007808701F4889
:100720000078401C1D49087017E0B4F57A7F14DA90
:10073000B4F5487F11DD1848007870B1184800788A
:100740004010174908700846007840F08000087093
:1007500012480078401C1149087010480078082899
:1007600015DB00210B4800F0AAFF0021094800F02A
:10077000C6FF0B4800780B49087000200849087034
:10078000064908700449087001200749087000BF35
:1007900010BD0000000C00401C0000201A000020CA
:1007A0001B000020190000201800002010B5202098
:1007B00000F01EF830B1202000F014F801210748A5
:1007C00000F07DFF402000F013F830B1402000F031
:1007D00009F80121024800F072FF10BD000400403A
:1007E000000800400149086070470000143C0140C7
:1007F00001460020034A12680A400AB1012000E0C5
:1008000000207047143C0140F0B50A460021002347
:10081000002400BF3DE0012505FA01F3156805EA53
:1008200003049C4234D105684F000326BE40B54303
:10083000056015794E00B5400668354305601579A9
:10084000012D02D01579022D16D185684F0003269F
:10085000BE40B543856055794E00B5408668354346
:100860008560456801268E40B543456045689679A8
:100870008E40B6B235434560C5684F000326BE4082
:10088000B543C560D5794E00B540C6683543C560EF
:10089000491C1029BFD3F0BDF0B5002300244D073B
:1008A000ED0E02FA05F3CE1000F1200555F82650A2
:1008B0004E07F70E0F26BE40B543CF1000F12006BD
:1008C00046F82750CE1000F1200555F8265045EA8D
:1008D0000304CE1000F1200545F82640F0BD024685
:1008E000002013690B400BB1012000E0002070478D
:1008F000418370470183704700BFFEE710B50024B5
:1009000080211148FFF7F6FF0120FFF733FD40215A
:100910000D48FFF7EFFF0120FFF72CFD07E0601CFB
:10092000C4B2FA2C03DD00F02BF8012010BD8021A9
:100930000548FFF7D4FF0028F1D140210248FFF716
:10094000D7FF0020F2E700000004024010B580212C
:100950000A48FFF7CFFF40210848FFF7CBFF0120EF
:10096000FFF708FD80210548FFF7C2FF0120FFF7D0
:1009700001FD40210148FFF7BBFF10BD000402400C
:1009800010B540210A48FFF7B3FF80210848FFF760
:10099000AFFF0120FFF7EEFC40210548FFF7AAFF5B
:1009A00080210348FFF7A6FF0120FFF7E3FC10BDFD
:1009B0000004024070B5044640211448FFF798FF38
:1009C000002520E004F08000802804D180210F4819
:1009D000FFF790FF03E080210C48FFF789FF6006D6
:1009E000040E0120FFF7C6FC40210848FFF782FFF4
:1009F0000120FFF7BFFC40210448FFF779FF0120E9
:100A0000FFF7B8FC6D1C082DDCDB70BD0004024054
:100A100070B506460D46012D01D1002400E04024AA
:100A2000FFF794FF7820FFF7C5FFFFF767FF08B1D6
:100A3000012070BD2046FFF7BDFFFFF75FFF08B143
:100A40000120F6E73046FFF7B5FFFFF757FF08B183
:100A50000120EEE7FFF794FF0020EAE710B5044617
:100A6000412C25D10821084600F0DCF83D21112059
:100A700000F0F2F88621172000F0EEF87F21262002
:100A800000F0EAF81E212D2000F0E6F800212C20CD
:100A900000F0E2F88D212A2000F0DEF83E212B2024
:100AA00000F0DAF80A20FFF765FC00F085FA01E0B3
:100AB000FF2010BD0020FCE72DE9FE4F06468846CA
:100AC00091469A46DDF830B0FE2002900020019059
:100AD00000900C2E06D00E2E09D11220019010206D
:100AE000009005E0772001903020009000E000BFEA
:100AF00000BF019840F08001022000F0ADF8802195
:100B0000042000F08FF80021012000F0A5F88021DA
:100B10000A2000F094F8002505E018F805100920D7
:100B200000F09AF86D1C4D45F7D33146012000F0D6
:100B300093F80C2E03D180210D2000F080F84FF4A3
:100B40007A7500BF042000F051F804466D1E35B1DF
:100B500004F0010018B9009820400028F2D080214C
:100B60000D2000F05FF8002D35D0062000F03EF893
:100B700000F01B0068BB002002900198204000F0AC
:100B8000010008B1FF2002900C2E24D10A2000F0B1
:100B90002DF804460C2000F029F800F007072FB1CB
:100BA000601E07EBC000ABF8000002E0E000ABF80D
:100BB000000004B90124122C00DD1224002505E0F8
:100BC000092000F013F80AF805006D1CA542F7D3C0
:100BD00001E0FE20029080210C2000F030F800217E
:100BE000012000F039F80298BDE8FE8F70B5044688
:100BF0007E2000EA440040F080054FF48051084810
:100C0000FFF776FE284600F0DFFBFF2000F0DCFB5C
:100C100006464FF480510248FFF76CFE304670BD27
:100C20000004024070B505460C462846FFF7DEFF7B
:100C3000064626EA0401284600F00EF870BD70B59D
:100C400005460C462846FFF7D1FF064646EA040152
:100C5000284600F001F870BD70B504460D467E20B0
:100C600000EA44064FF480510748FFF741FE304642
:100C700000F0AAFB284600F0A7FB4FF48051024881
:100C8000FFF738FE70BD00000004024000BFFEE721
:100C900010B500F01BF84FF480510A48FFF72AFE08
:100CA0004FF480510848FFF725FE00F071FA00F07C
:100CB0007DF90A20FFF75EFB00F07EF94120FFF787
:100CC000CDFE10BD000002400004024000B587B018
:100CD0000121084600F048FB8020059001208DF896
:100CE000180000208DF81A008DF81B0002208DF8E6
:100CF000190005A95648FFF787FD0121022000F0E1
:100D000033FB4FF48050059001208DF8180000202F
:100D10008DF81A008DF81B0002208DF8190005A926
:100D20004C48FFF771FD0121022000F01DFB01205E
:100D3000059000208DF8180002208DF81B0000207F
:100D40008DF8190005A94348FFF75EFD0121022037
:100D500000F00AFB05220D213E48FFF79DFD4FF4F0
:100D60000050059002208DF8180000208DF81A0020
:100D70008DF81B0002208DF8190005A93548FFF7F2
:100D800043FD0121022000F0EFFA05220E21314837
:100D9000FFF782FD4FF48040059002208DF8180087
:100DA00000208DF81A008DF81B0002208DF8190024
:100DB00005A92848FFF728FD0121022000F0D4FAF8
:100DC00005220F212348FFF767FD4FF400400590EF
:100DD00002208DF8180000208DF81A008DF81B00F5
:100DE00002208DF8190005A91A48FFF70DFD4FF4F0
:100DF00080511848FFF77EFD0021174800F010FBD6
:100E00000121880300F0C0FA0020ADF800004FF483
:100E10008270ADF802000020ADF80400ADF80E00BD
:100E2000ADF80600ADF808004FF40070ADF80A0008
:100E30003820ADF80C000720ADF8100069460648D0
:100E400000F008FB0121044800F0EAFA07B000BDF9
:100E50000000024000040240003800402DE9FC413F
:100E600004460E4690461F4601A9522000F064F940
:100E70000546E5B9684600F0ACF80546BDB96846D8
:100E800000F0D0F9054695B9032000EB8400C1B20B
:100E90006B464246602000F0D4F805463DB906EBAB
:100EA0008401C8B2394600F01CF9054600BF00F0C5
:100EB000FFF805462846BDE8FC8100002DE9FF410A
:100EC00005460F460026BFB92E46002004E0290E35
:100ED0000DF800102D02401C0428F8DB6B46134A65
:100EE000134801781348007800F026F80446DCB176
:100EF000204604B0BDE8F0816B460C4A0C480178EE
:100F00000C480078FFF7AAFF04460CB12046F0E732
:100F1000002004E01DF800100E433602401C032898
:100F2000F8DB9DF8030006433046E2E7210000208D
:100F3000200000201F0000202DE9FC4104460E4641
:100F400090461F4601A9522000F0F6F80546E5B983
:100F5000684600F03EF80546BDB9684600F062F903
:100F6000054695B9032000EB8400C1B26B464246AA
:100F7000602000F066F805463DB906EB8401C8B272
:100F8000394600F089F9054600BF00F091F80546A2
:100F90002846BDE8FC81704702490143024A1160BE
:100FA000704700000000FA050CED00E010B50321C9
:100FB0001420FFF737FE10BD10B51420FFF716FE02
:100FC000044604F0030018B903211420FFF737FE8C
:100FD00010BDF0B587B00546002708210846FFF789
:100FE00021FE00210D20FFF737FE80210E20FFF7A4
:100FF00019FE93208DF8040020208DF8050006A826
:1010000001AB022201A900900C20FFF755FD064616
:1010100086B9002407E001A8005D285501A8005DFD
:101020004740601CC4B2042CF5DB01A8005DB84247
:1010300000D0FE2680210E20FFF701FE304607B0CB
:10104000F0BD2DE9F04387B006460F46904699461D
:101050008DF804608DF80570002406E018F804107F
:1010600001AAA01C1154601CC4B2062CF6DB00249B
:1010700007E019F8041001AA04F108001154601CDB
:10108000C4B2062CF5DB06A801AB0C2201A9009026
:101090000E20FFF711FD05462DB90820FFF7A6FD2C
:1010A00000F0080000B9FE25284607B0BDE8F0832F
:1010B00000B587B050208DF8040000208DF80500A1
:1010C0000DF10602022101A8FFF7F8F806A801AB0E
:1010D000042201A900900C20FFF7EEFC002007B0CD
:1010E00000BDF0B587B005460E4630208DF80400EF
:1010F0008DF805500DF10602022101A8FFF7DEF878
:1011000006A801AB042201A900900C20FFF7D4FC33
:1011100007466FB9BDF81800902809D1002404E0F3
:1011200001A8005D3055601CC4B2102CF8DB00E053
:10113000FE27384607B0F0BD70B588B005460C46AE
:1011400008210846FFF76EFD07210D20FFF784FDFB
:1011500003211420FFF773FD8DF8085007A802AB98
:10116000012202A900900C20FFF7A6FC064656B902
:10117000BDF81C00102806D19DF8080020709DF8CD
:101180000900607000E0FE26F0B208B070BD0000FB
:1011900010B5002480212248FFF7ACFB0A20FFF79E
:1011A000E9F880211E48FFF7A3FB0A20FFF7E2F8C9
:1011B00080211B48FFF79EFB0A20FFF7DBF80F2179
:1011C0000120FFF749FD06E0601C84B2B4F5FA7F08
:1011D00001DDFE2010BD0120FFF708FD00F00F002B
:1011E0000028F1D10120FFF7C5F83D211120FFF7BC
:1011F00033FD1E212D20FFF72FFD00212C20FFF7AE
:101200002BFD8D212A20FFF727FD3E212B20FFF704
:1012100023FD40211520FFF71FFD0020DAE7000025
:101220000000024070B588B0054693208DF8080094
:1012300070208DF8090000208DF80E0000240BE0CE
:10124000295D02AAA01C11549DF80E00295D48409A
:101250008DF80E00601CC4B2042CF1DB0DF10F02FE
:10126000072102A8FFF72AF808210846FFF7DAFC51
:1012700007A802AB092202A900900C20FFF71CFC72
:1012800006462EB9BDF81C00182801D1002600E042
:10129000FE26304608B070BDF0B587B006460F4652
:1012A000A0208DF804008DF805600DF106020221E2
:1012B00001A8FFF703F806A801AB042201A90090DA
:1012C0000C20FFF7F9FB05464DB9BDF818000428BE
:1012D00005D19DF8040000F00F000A2800D0FE257B
:1012E00015BB002404E0385D01A90855601CC4B298
:1012F000102CF8DB05AA102101A8FEF7DFFF06A8D5
:1013000001AB122201A900900C20FFF7D5FB054686
:101310004DB9BDF81800042805D19DF8040000F06F
:101320000F000A2800D0FE25284607B0F0BD704700
:101330000EB50121080400F037F80020ADF80800D0
:10134000ADF802004FF6FF7001905320ADF8000099
:101350006946044800F0D6F90121024800F0AFF9CF
:101360000EBD00000040014029B1064A1268024348
:10137000044B1A6004E0034A12688243014B1A606E
:10138000704700003038024029B1064A1268024313
:10139000044B1A6004E0034A12688243014B1A604E
:1013A000704700004038024029B1064A12680243E3
:1013B000044B1A6004E0034A12688243014B1A602E
:1013C000704700004438024070B50546002406E02E
:1013D000601C84B2B4F5FA7F01DD002070BD0221EB
:1013E0000E4800F029F80028F2D029460B4800F0FA
:1013F0002FF8002406E0601C84B2B4F5FA7F01DD0A
:101400000020EBE70121054800F016F80028F2D093
:10141000024800F01AF8C0B2E0E7000000380040CF
:1014200021B1028842F04002028004E002884FF6B7
:10143000BF731A40028070470246002013890B4098
:101440000BB1012000E000207047014688897047F9
:101450008181704710B50022028802F441520B8846
:101460004C8823438C882343CC8823430C89234313
:101470004C8923438C892343CC8923431A4302801C
:10148000838B4FF2FF74234083830B8A038210BD4A
:10149000704700000CB500200190009033480068B0
:1014A00040F480303149086000BF3048006800F4E3
:1014B000003000900198401C0190009818B90198E4
:1014C000B0F5A04FF1D12948006800F4003010B108
:1014D0000120009001E0002000900098012844D1F4
:1014E00022484030006840F0805020494031086078
:1014F0001F48006840F440401D4908601B48083000
:1015000000681A4908310860084600680860084603
:10151000006840F4805008601648091F0860081FE2
:10152000006840F08070091F086000BF0F48006825
:1015300000F000700028F9D040F202700E490860F7
:101540000A480830006820F00300084908310860A4
:101550000846006840F00200086000BF03480830F9
:10156000006800F00C000828F8D10CBD00380240DB
:101570000070004008544107003C024070470000E2
:1015800010B51548006840F470001349086013480E
:10159000006840F001001149086000200F4908313F
:1015A00008600E4800680E4908400C4908600D4864
:1015B000091D0860081F006820F48020091F0860CA
:1015C000002006490C310860FFF764FF4FF000600F
:1015D00001498039086010BD88ED00E00038024004
:1015E000FFFFF6FE1030002400B5C1B00121144801
:1015F00000F074F808B30121114800F05DF80021F3
:101600000F4800F05CF800210D4800F078F8202128
:101610000C48FFF764F980B90BA101A800F0E8F8C5
:10162000012301AA00210846FFF700F84FF47A7061
:10163000FEF77CFEFEF7C4FE00BF41B000BD000017
:1016400000040040000002405265706169720A00A7
:1016500000B5C1B00121144800F040F808B30121E1
:10166000114800F029F800210F4800F028F8002167
:101670000D4800F044F840210C48FFF730F980B9DC
:101680000BA101A800F0B4F8012301AA0221002057
:10169000FEF7CCFF4FF47A70FEF748FEFEF790FE9F
:1016A00000BF41B000BD0000000800400000024043
:1016B00048656C700A000000CA430282704721B17D
:1016C000028842F00102028004E002884FF6FE73B5
:1016D0001A40028070470146486A704730B502469A
:1016E000002000230024158A05EA0103958905EAF4
:1016F000010413B10CB1012000E0002030BD4162B3
:101700007047000000220288184B98420ED0184BF8
:1017100098420BD0B0F1804F08D0164B984205D0BC
:10172000154B984202D0154B984204D14FF68F7357
:101730001A404B881A43124B984207D0114B9842DB
:1017400004D04FF6FF431A400B891A4302804B68BE
:10175000C3620B880385054B984202D0044B984224
:1017600001D18B7A038601238382704700000140F8
:10177000000401400004004000080040000C00404C
:10178000001000400014004010B5044600BF802146
:10179000044800F009F80028F9D02146014800F07B
:1017A00010F810BD0010014002460020B1F5007F86
:1017B00000D100BF13880B400BB1012000E00020D6
:1017C0007047C1F308028280704700BFFEE7000047
:1017D0000FB4054B10B503A9044A029800F02CF889
:1017E00010BC5DF814FB00009719000828000020C9
:1017F0000FB4084B10B504A902AA039800F01CF816
:10180000044602A9002000F0C1F8204610BC5DF893
:1018100014FB00008D19000802E008C8121F08C15F
:10182000002AFAD170477047002001E001C1121F61
:10183000002AFBD1704700002DE9FF4F89B09B467D
:101840000446002506E025280BD05A460B99904700
:10185000641C6D1C20780028F5D10DB02846BDE829
:10186000F08F0027B8460122474900E0074314F8EB
:10187000013F203B02FA03F00842F7D120782E28DE
:1018800019D114F8010F47F004072A280ED06FF081
:101890002F022078A0F1300109290CD808EB88012B
:1018A00002EB410100EB0108641CF2E70A98641C9A
:1018B00050F8048B0A9020780028CED0642808D0F5
:1018C000692806D075281ED05A460B9990476D1C82
:1018D00058E00A994FF00A0901C90A91002802DA72
:1018E00040422D2102E0390504D52B218DF820102E
:1018F000012103E0F90704D02021F7E78A4608AE6A
:101900000DE00021FAE70A994FF00A0901C90A918E
:10191000F7E74946FEF75CFC303106F8011D002868
:10192000F7D1ADEB060000F12009780701D44FF0A4
:101930000108C84502DDA8EB090000E00020804650
:10194000002706E008A85A46C05D0B9990476D1C19
:101950007F1C5745F6DB04E030205A460B99904730
:101960006D1CB8F10001A8F10108F5DC05E016F8DE
:10197000010B5A460B9990476D1CB9F10001A9F172
:101980000109F4DC641C65E7092801000A68531C9E
:101990000B601070704770B504460D46E0B2FFF75B
:1019A000F3FE204670BD0000C0B04FF47A70FEF721
:1019B000E1FC4FF4A060FFF7EFFAFFF769F9FFF7DA
:1019C000B7FCFEF74FFD0120FEF7B0FC14E04FF42A
:1019D0007A70FEF7ABFC01210020FFF76FFA044696
:1019E000224606A16846FFF703FF01236A4600214D
:1019F0000846FEF71BFE00BFE9E7000025640A0069
:101A00000000000000000000002F000000000700A0
:101A1000070000147F147F1400242A7F2A1200621A
:101A200064081323003649552250000005030000C6
:101A300000001C224100000041221C000014083E4E
:101A400008140008083E0808000000A06000000814
:101A50000808080800006060000000201008040268
:101A6000003E5149453E0000427F40000042615126
:101A70004946002141454B31001814127F100027C0
:101A800045454539003C4A49493000017109050383
:101A900000364949493600064949291E00003636B4
:101AA0000000000056360000000814224100001417
:101AB00014141414000041221408000201510906F4
:101AC00000324959513E007C1211127C007F494975
:101AD0004936003E41414122007F4141221C007FA6
:101AE00049494941007F09090901003E4149497AB4
:101AF000007F0808087F0000417F4100002040412E
:101B00003F01007F08142241007F40404040007F99
:101B1000020C027F007F0408107F003E4141413EDD
:101B2000007F09090906003E4151215E007F091925
:101B300029460046494949310001017F0101003F22
:101B40004040403F001F2040201F003F4038403FA2
:101B50000063140814630007087008070061514906
:101B6000454300007F41410000552A552A55000099
:101B700041417F0000040201020400404040404017
:101B8000000001020400002054545478007F4844AF
:101B9000443800384444442000384444487F0038E6
:101BA0005454541800087E0901020018A4A4A47C0F
:101BB000007F080404780000447D400000408084D9
:101BC0007D00007F102844000000417F4000007C21
:101BD00004180478007C080404780038444444382D
:101BE00000FC242424180018242418FC007C080479
:101BF000040800485454542000043F444020003C52
:101C00004040207C001C2040201C003C4030403CD8
:101C1000004428102844001CA0A0A07C0044645468
:101C20004C441414141414140000000000000000AC
:101C30000000000000000000000000F800000000AC
:101C4000000000333000000000100C06100C0600ED
:101C5000000000000000000040C07840C078400054
:101C6000043F04043F040400007088FC08300000B6
:101C7000001820FF211E0000F008F000E01800000E
:101C800000211C031E211E0000F0088870000000C7
:101C90001E2123241927211010160E000000000019
:101CA0000000000000000000000000E01804020036
:101CB000000000071820400000020418E0000000A7
:101CC0000040201807000000404080F080404000A5
:101CD0000202010F01020200000000F000000000FB
:101CE0000101011F010101000000000000000000CF
:101CF00080B0700000000000000000000000000044
:101D000000010101010101010000000000000000CC
:101D10000030300000000000000000008060180467
:101D2000006018060100000000E010080810E00044
:101D3000000F102020100F00001010F8000000000D
:101D40000020203F20200000007008080888700054
:101D500000302824222130000030088888483000D4
:101D60000018202020110E000000C02010F80000F4
:101D700000070424243F240000F80888880808008D
:101D80000019212020110E0000E0108888180000A2
:101D9000000F112020110E0000380808C838080074
:101DA0000000003F000000000070880808887000F4
:101DB000001C222121221C0000E010080810E00075
:101DC0000000312222110F00000000C0C0000000FE
:101DD0000000003030000000000000800000000023
:101DE000000080600000000000008040201008001B
:101DF00000010204081020004040404040404000E4
:101E000004040404040404000008102040800000BE
:101E10000020100804020100007048080808F000C3
:101E20000000003036010000C030C828E810E00093
:101E30000718272423140B000000C038E00000001E
:101E4000203C23020227382008F888888870000088
:101E5000203F202020110E00C0300808080838005C
:101E6000071820202010080008F808080810E000D3
:101E7000203F202020100F0008F88888E808100074
:101E8000203F20202320180008F88888E808100048
:101E9000203F200003000000C03008080838000080
:101EA00007182020221E020008F808000008F80881
:101EB000203F210101213F20000808F80808000008
:101EC0000020203F2020000000000808F80808003B
:101ED000C08080807F00000008F888C028180800B3
:101EE000203F20012638200008F8080000000000EC
:101EF000203F20202020300008F8F800F8F80800E3
:101F0000203F003F003F200008F830C00008F808DC
:101F1000203F200007183F00E01008080810E000EC
:101F20000F10202020100F0008F808080808F00003
:101F3000203F210101010000E01008080810E00026
:101F40000F18242438504F0008F8888888887000BB
:101F5000203F2000030C302000708808080838005B
:101F60000038202121221C00180808F80808180051
:101F70000000203F2000000008F808000008F808D2
:101F8000001F202020201F000878880000C8380883
:101F9000000007380E010000F80800F80008F800FB
:101FA000033C0700073C0300081868808068180895
:101FB00020302C03032C30200838C800C838080013
:101FC0000000203F2000000010080808C838080062
:101FD0002038262120201800000000FE0202020006
:101FE0000000007F40404000000C30C000000000B6
:101FF000000000010638C00000020202FE000000DE
:10200000004040407F000000000004020202040083
:1020100000000000000000000000000000000000C0
:1020200080808080808080800002020400000000A8
:1020300000000000000000000000808080800000A0
:102040000019242222223F2008F80080800000008E
:10205000003F112020110E00000000808080000051
:10206000000E112020201100000000808088F80060
:10207000000E112020103F20000080808080000092
:10208000001F222222221300008080F088888818F6
:102090000020203F20200000000080808080800001
:1020A000006B94949493600008F800808080000096
:1020B000203F210000203F20008098980000000071
:1020C0000020203F202000000000008098980000A1
:1020D00000C08080807F000008F8000080808000C1
:1020E000203F24022D302000000808F800000000E6
:1020F0000020203F202000008080808080808000A1
:10210000203F20003F20003F808000808080000032
:10211000203F210000203F200000808080800000C0
:10212000001F202020201F008080008080000000F1
:1021300080FFA12020110E00000000808080800020
:10214000000E112020A0FF80808080008080800011
:1021500020203F212000010000008080808080003E
:102160000033242424241900008080E080800000B3
:102170000000001F20200000808000000080800000
:10218000001F202020103F20808080000080808061
:1021900000010E30080601008080008000808080F1
:1021A0000F300C030C300F00008080008080800016
:1021B0000020312E0E312000808080000080808041
:1021C00080818E70180601000080808080808000F1
:1021D0000021302C2221300000000000807C02020F
:1021E00000000000003F404000000000FF00000031
:1021F00000000000FF0000000002027C80000000E0
:102200000040403F000000000006010102020404FB
:10221000000000000000000038220008000000203C
:102220002C00000018180008642200082C00002070
:10223000140400002818000800BD0105000000007B
:102240000000000001020304060708090008000856
:10225000000000000001020502FFFFFFFFFFFF007A
:04226000000000007A
:040000050800019559
:00000001FF
