:020000040800F2
:1000000048040020AD010008210B0008AD070008DE
:100010001D0B00082D040008F51200080000000068
:10002000000000000000000000000000550D000866
:100030003104000800000000B10B0008810E000828
:10004000C7010008C7010008C7010008C701000870
:10005000C7010008C7010008C7010008C701000860
:10006000C9040008C7010008C7010008C70100084B
:10007000C7010008C7010008C7010008C701000840
:10008000C7010008C7010008B50200080000000011
:10009000000000000000000000000000D105000882
:1000A000C7010008C7010008C7010008C701000810
:1000B000C7010008ED0E0008350F0008C701000851
:1000C000C7010008C7010008C7010008C7010008F0
:1000D000C7010008C7010008C701000800000000B0
:1000E000C7010008C7010008C701000800000000A0
:1000F000000000000000000000000000C701000830
:1001000000000000C7010008C7010008C70100087F
:1001100000000000000000000000000000000000DF
:10012000C7010008C7010008C7010008C70100088F
:10013000C7010008000000000000000000000000EF
:10014000000000000000000000000000C7010008DF
:10015000C7010008C7010008C7010008C70100085F
:10016000C7010008C70100080000000000000000EF
:10017000000000000000000000000000000000007F
:1001800000000000C701000800000000000000009F
:10019000C7010008DFF810D000F030F80048004731
:1001A0009D140008AFF300804804002006488047F3
:1001B00006480047FEE7FEE7FEE7FEE7FEE7FEE74C
:1001C000FEE7FEE7FEE7FEE7850E00089501000862
:1001D00030B50B46014600202022012409E021FA17
:1001E00002F59D4205D303FA02F5491B04FA02F514
:1001F0002844151EA2F10102F1DC30BD064C074D6A
:1002000006E0E06840F0010394E8070098471034E6
:10021000AC42F6D3FFF7C2FF1415000834150008EE
:1002200000220A12D3430360704721B1826842F072
:100230000102826003E0826822F00102826070475E
:100240000021084A1168084A1140D0E900231A43E6
:1002500083681A43C3681A431143044AC2F804135B
:100260007047000004230140E030FCFF0020014003
:1002700010B50121080200F0E9FC00214FF4807064
:1002800000F0E4FC10BD0146C86C80B2704770B548
:1002900002460020002300240B12556801268E40E0
:1002A00005EA060415681D4015B10CB1012000E0F7
:1002B000002070BD10B540F205210E48FFF7E7FFA2
:1002C000B8B140F205210B48FFF7AAFF0948FFF734
:1002D000DAFF0949094A127821F812000748007824
:1002E000401C06490870084600780A2801DB0020F7
:1002F000087010BD002001403400002026000020BE
:1003000010B50B460021D9B2012404FA01F11AB14B
:1003100044680C43446002E044688C43446010BD70
:1003200030B50246002000235068104C20400D7963
:100330000C6844EA05242043506090680C4C20402F
:10034000D1E903542C438D682C434D7944EA45048C
:1003500020439060D06A20F470000C7D641EE4B2EB
:10036000234340EA0350D06230BD0000FFFEFFFC93
:10037000FDF7FFC0F0B504460D4600200021092D11
:1003800011DDE068A5F10A0606EB4607072606FA26
:1003900007F18843A5F10A0606EB460603FA06F1C3
:1003A0000843E0600CE0206905EB4507072606FAE4
:1003B00007F1884305EB450603FA06F1084320617F
:1003C000072A0FDA606B561E06EB86071F2606FA11
:1003D00007F18843561E06EB860605FA06F1084328
:1003E000606322E00D2A0FDA206BD61F06EB86072A
:1003F0001F2606FA07F18843D61F06EB860605FA84
:1004000006F10843206310E0E06AA2F10D0606EB56
:1004100086071F2606FA07F18843A2F10D0606EBB0
:10042000860605FA06F10843E062F0BD00BFFEE76C
:1004300070470000104A12684FF47A73B2FBF3F26F
:100440004243D2084FF0E0235A6100229A61012210
:100450001A611A46116902E04FF0E022116901F0B9
:1004600001021AB101F48032002AF5D000224FF0C7
:10047000E0231A619A61704700000020104A126858
:10048000104BB2FBF3F24243D2084FF0E0235A6123
:1004900000229A6101221A611A46116902E04FF0A6
:1004A000E022116901F001021AB101F48032002A40
:1004B000F5D000224FF0E0231A619A6170470000E6
:1004C0000000002040420F0010B5042000F0A2F808
:1004D00000286FD0042000F097F8374800F084FD22
:1004E00084B20021344800F064FD0021324800F05D
:1004F000D6FD0121304800F05CFD40F26C70844272
:100500000CDA40F2A460844208DD01202B49087017
:1005100000202B4908702B49087030E040F2AA50A7
:10052000844214DA40F2E240844210DD234800782D
:1005300028B3244800784010224908700846007803
:1005400008701F480078401C1D49087017E0B4F57A
:100550007A7F14DAB4F5487F11DD1848007870B15D
:10056000184800784010174908700846007840F095
:100570008000087012480078401C1149087010482B
:100580000078082815DB00210B4800F012FD00213F
:10059000094800F084FD0B4800780B4908700020E2
:1005A0000849087006490870044908700120074985
:1005B000087000BF10BD0000000C00402C0000209F
:1005C0002A0000202B000020290000202800002005
:1005D00010B5202000F01EF830B1202000F014F8F3
:1005E0000121074800F0E5FC402000F013F830B18D
:1005F000402000F009F80121024800F0DAFC10BDAB
:1006000000040040000800400149086070470000F5
:10061000143C014001460020034A12680A400AB116
:10062000012000E000207047143C014000212349D4
:100630008279002A3AD00A46126803689A430B4628
:100640001A600A1D126803689A430B1D1A6002792A
:1006500011440A6803681A430A60184A083212688B
:1006600003689A43154B08331A601A1D1268036811
:100670009A43124B0C331A604279102A0ED11A1F7A
:10068000126803681A430D4B08331A601A1D12686A
:1006900003681A43094B0C331A600DE0074942798D
:1006A00011440A6803681A430A6005E0027911449C
:1006B0000A6803689A430A6070470000003C0140E2
:1006C000F0B50A4600210023002400BF3DE00125CB
:1006D00005FA01F3156805EA03049C4234D1056864
:1006E0004F000326BE40B543056015794E00B54066
:1006F0000668354305601579012D02D01579022D64
:1007000016D185684F000326BE40B54385605579F4
:100710004E00B540866835438560456801268E40A9
:10072000B5434560456896798E40B6B2354345601D
:10073000C5684F000326BE40B543C560D5794E005D
:10074000B540C6683543C560491C1029BFD3F0BD0C
:10075000F0B5002300244D07ED0E02FA05F3CE108C
:1007600000F1200555F826504E07F70E0F26BE4023
:10077000B543CF1000F1200646F82750CE1000F107
:10078000200555F8265045EA0304CE1000F1200557
:1007900045F82640F0BD0246002013690B400BB11E
:1007A000012000E0002070470183704700BFFEE792
:1007B00000B585B00121022000F018FA0420039052
:1007C00000208DF8100001208DF8130003A91548B2
:1007D000FFF776FF0121880300F028FA02210120AB
:1007E00000F0BAFA0420019000208DF808000820DB
:1007F0008DF8090001208DF80A0001A8FFF716FF07
:1008000008208DF8000002208DF8010000208DF8EE
:10081000020001208DF80300684600F083F905B05E
:1008200000BD00000004024000B58BB00121084665
:1008300000F0FCF90020ADF82800ADF82200DB2024
:1008400009900920ADF8200000208DF82A0008A9A1
:100850001F4800F027FC6020ADF80C006E200590CA
:100860000120ADF80E000020ADF81800ADF81C0016
:10087000ADF8100003A9164800F0CAFB082114487F
:1008800000F004FC0121124800F09FFB0121084602
:1008900000F0ACF9012208210E48FFF759FF4FF490
:1008A0008070019002208DF8080000208DF80A0069
:1008B0008DF80B008DF8090001A90648FFF700FF2D
:1008C0004FF480710348FFF76FFF0BB000BD0000CD
:1008D000000001400000024070B5044600250EE013
:1008E0000948007838B100F053F8A04201D1012046
:1008F00070BD0020FCE70120FFF7C0FD6D1C0A2D34
:10090000EEDB0020F4E700002800002010B500F026
:100910000BF804490978884201DD012010BD002050
:10092000FCE700002700002070B50026002422E02C
:100930002046E11704EB91718910A4EB810131B1DC
:10094000012906D0022906D0032908D105E0552542
:1009500006E0CC2504E0AA2502E0332500E000BF34
:1009600000BF284600F020F82846FFF7B5FF08B181
:10097000701C86B2641C0A2CDADBF0B270BD10B5B4
:10098000FFF716FFFFF750FF00F0F8FA10BD000068
:10099000034908780021024A1170024A1170704719
:1009A000290000202800002070B5044600211548C9
:1009B00000F0FFFA0021134800F071FB00F024F86A
:1009C00040F24650FFF75AFD002511E004F0010007
:1009D00030B100F019F84FF4E170FFF74FFD05E07A
:1009E00000F012F84FF46170FFF748FD64106D1CC1
:1009F000082DEBDB00F008F84FF4E170FFF73EFD47
:100A000070BD0000000C004010B50121054800F049
:100A1000D0FA4FF4E170FFF731FD0021014800F0FA
:100A2000C8FA10BD0000014000B58DB001210420BE
:100A300000F0DCF804200B9003208DF8300000203B
:100A40008DF833000BA92348FFF73AFE0121080275
:100A500000F0ECF8FFF70CFC002007904FF440305A
:100A60000890002009904FF420600A9007A8FFF733
:100A7000E7FB002001908DF808008DF80900039035
:100A8000059001208DF8180001A91348FFF748FCD4
:100A900001231A460C211048FFF76CFC12208DF838
:100AA000000002208DF8010000208DF802000120D6
:100AB0008DF80300684600F035F8012240F2052168
:100AC0000548FFF71DFC01210348FFF7AEFB0DB001
:100AD00000BD000000080240002001401CB50121BB
:100AE000084600F083F80820009001208DF80400EB
:100AF00000208DF8060001208DF8070000208DF8F9
:100B0000050069460148FFF7DBFD1CBD00000240FF
:100B100010B5FFF789FFFFF7E1FF10BD00BFFEE74B
:100B20007047000070B5002100230F22C4781CB369
:100B3000174C246804F4E064C4F5E064C4F30721AE
:100B4000C1F10404E3B20A4144789C40E1B28478E4
:100B5000144021430C07210E0E4C05786155047892
:100B600004F01F050124AC4005786D11AD0005F1BE
:100B7000E025C5F8004109E0047804F01F050124D0
:100B8000AC40054D0678761145F8264070BD000052
:100B90000CED00E000E400E080E100E002490143E8
:100BA000024A1160704700000000FA050CED00E0F9
:100BB000704700000EB50121080400F037F800204E
:100BC000ADF80800ADF802004FF6FF700190532019
:100BD000ADF800006946044800F064FA01210248BB
:100BE00000F0E7F90EBD00000040014029B1064ABF
:100BF00012680243044B1A6004E0034A12688243FD
:100C0000014B1A60704700003038024029B1064A93
:100C100012680243044B1A6004E0034A12688243DC
:100C2000014B1A60704700004038024029B1064A63
:100C300012680243044B1A6004E0034A12688243BC
:100C4000014B1A60704700004438024029B1064A3F
:100C500012680243044B1A6004E0034A126882439C
:100C6000014B1A607047000024380240F0B50021A3
:100C700000220024022500260223324F3F6807F09D
:100C80000C0121B1042905D0082937D105E02E4FE8
:100C9000076036E02D4F076033E02A4F3F1F3F6863
:100CA000C7F38056274F3F1F3F6807F03F036EB1E1
:100CB000264FB7FBF3F7DFF88CC0ACF1040CDCF87F
:100CC00000C0CCF3881C07FB0CF40CE01E4FB7FBF4
:100CD000F3F7DFF870C0ACF1040CDCF800C0CCF323
:100CE000881C07FB0CF4174F3F1F3F68C7F30147F1
:100CF0007F1C7D00B4FBF5F7076002E0124F076030
:100D000000BF00BF0F4F3F6807F0F0010909104F07
:100D10007A5C0768D74047600A4F3F6807F4E051A4
:100D2000890A0B4F7A5C4768D7408760054F3F6858
:100D300007F46041490B064F7A5C4768D740C760AB
:100D4000F0BD0000083802400024F40000127A00D0
:100D5000140000207047000030B500228B071C0FE4
:100D60000F2303FA04F20B4B8C1053F824309343F7
:100D7000084C8D1044F8253023468C1053F824304D
:100D80008C07240F00FA04F42343024C8D1044F81E
:100D9000253030BD083801400CB50020019000908E
:100DA0003348006840F480303149086000BF304863
:100DB000006800F4003000900198401C01900098F9
:100DC00018B90198B0F5A04FF1D12948006800F496
:100DD000003010B10120009001E000200090009848
:100DE000012844D122484030006840F0805020491A
:100DF000403108601F48006840F440401D490860C9
:100E00001B48083000681A49083108600846006825
:100E100008600846006840F4805008601648091FC2
:100E20000860081F006840F08070091F086000BF5C
:100E30000F48006800F000700028F9D040F20270FE
:100E40000E4908600A480830006820F0030008498D
:100E5000083108600846006840F00200086000BFE2
:100E600003480830006800F00C000828F8D10CBDD9
:100E7000003802400070004008544107003C024026
:100E80007047000010B51548006840F47000134921
:100E900008601348006840F0010011490860002014
:100EA0000F49083108600E4800680E4908400C4997
:100EB00008600D48091D0860081F006820F48020A4
:100EC000091F0860002006490C310860FFF764FF25
:100ED0004FF0006001498039086010BD88ED00E0E6
:100EE00000380240FFFFF6FE1030002410B501214B
:100EF0000C4800F07CF898B101210A4800F056F83F
:100F00000021084800F055F80021064800F0C7F815
:100F100020210548FFF73FFC10B904A000F0ECF9D0
:100F200010BD0000000400400000024052657061E6
:100F300069720A0010B501210C4800F058F898B108
:100F400001210A4800F032F80021084800F031F889
:100F50000021064800F0A3F840210548FFF71BFCDC
:100F600010B904A000F0C8F910BD0000000800404E
:100F70000000024048656C700A0000000EB50121B7
:100F80000820FFF743FE0020ADF80800ADF802008E
:100F90004FF6FF7001905320ADF8000069460248FB
:100FA00000F080F80EBD0000000C0040CA43028231
:100FB000704721B1028842F00102028004E00288F9
:100FC0004FF6FE731A400280704731B1B0F84420EA
:100FD00042F40042A0F8442005E0B0F84420C2F3F7
:100FE0000E02A0F8442070470146486A704730B5A9
:100FF0000246002000230024158A05EA0103958992
:1010000005EA010413B10CB1012000E0002030BD5D
:1010100070B5002400220023058C4FF6FE76354083
:101020000584028C8388048B4FF68F752C40B51E87
:101030002C400D882C43751E2A408D892A434D88EB
:101040002A43104DA84202D00F4DA84213D14FF6AB
:10105000F7752A40CD892A434FF6FB752A408D88C3
:101060002A434FF6FF652B404FF6FF552B400D8A64
:101070002B434D8A2B43838004838D684563028410
:1010800070BD000000000140000401400A4600213C
:10109000018B4FF6F773194011430183704741628A
:1010A0007047000000220288184B98420ED0184B5F
:1010B00098420BD0B0F1804F08D0164B984205D023
:1010C000154B984202D0154B984204D14FF68F73BE
:1010D0001A404B881A43124B984207D0114B984242
:1010E00004D04FF6FF431A400B891A4302804B6825
:1010F000C3620B880385054B984202D0044B98428B
:1011000001D18B7A0386012383827047000001405E
:10111000000401400004004000080040000C0040B2
:10112000001000400014004000B587B001210846BF
:10113000FFF75CFD072209212048FFF709FB4FF468
:101140000070059002208DF8180000208DF81A001C
:1011500001208DF81B0002208DF8190005A9174801
:10116000FFF7AEFA07220A211448FFF7F1FA4FF40D
:101170008060059002208DF8180005A90F48FFF740
:101180009FFA01211020FFF751FD4FF416500190F6
:101190000020ADF80800ADF80A00ADF80C00ADF87D
:1011A00010000C20ADF80E0001A9054800F034F83D
:1011B0000121034800F016F807B000BD000002400E
:1011C0000010014010B5044600BF8021044800F023
:1011D00015F80028F9D02146014800F087F810BD25
:1011E0000010014021B1828942F40052828104E062
:1011F00082894DF6FF731A408281704702460020B3
:10120000B1F5007F00D100BF13880B400BB1012066
:1012100000E00020704700002DE9FF4705460E461C
:101220000024A14600BFA046B08900B100BF2C8AAF
:1012300024F44054F08804432C82AC8941F20C60C1
:101240008443B08831890843718908430443AC81E1
:10125000AC8A24F44074B0890443AC826846FFF73A
:1012600005FD2048854202D01F48854202D1DDF8A5
:101270000C9001E0DDF80890A88900F4004040B12E
:1012800009EBC90000EB091031684900B0FBF1F728
:1012900007E009EBC90000EB091031688900B0FBD9
:1012A000F1F76420B7FBF0F004012009642101FB91
:1012B0001078A88900F4004040B1322000EBC8004B
:1012C000B0FBF1F000F00700044308E0322000EB2F
:1012D00008106421B0FBF1F000F00F0004432C81F2
:1012E000BDE8FF870010014000140140C1F308026F
:1012F0008280704700BFFEE70FB4054B10B503A90D
:10130000044A029800F018F810BC5DF814FB0000C5
:101310008D1400083000002002E008C8121F08C128
:10132000002AFAD170477047002001E001C1121F66
:10133000002AFBD1704700002DE9FF4F89B09B4682
:101340000446002506E025280BD05A460B99904705
:10135000641C6D1C20780028F5D10DB02846BDE82E
:10136000F08F0027B8460122474900E0074314F8F0
:10137000013F203B02FA03F00842F7D120782E28E3
:1013800019D114F8010F47F004072A280ED06FF086
:101390002F022078A0F1300109290CD808EB880130
:1013A00002EB410100EB0108641CF2E70A98641C9F
:1013B00050F8048B0A9020780028CED0642808D0FA
:1013C000692806D075281ED05A460B9990476D1C87
:1013D00058E00A994FF00A0901C90A91002802DA77
:1013E00040422D2102E0390504D52B218DF8201033
:1013F000012103E0F90704D02021F7E78A4608AE6F
:101400000DE00021FAE70A994FF00A0901C90A9193
:10141000F7E74946FEF7DCFE303106F8011D0028EB
:10142000F7D1ADEB060000F12009780701D44FF0A9
:101430000108C84502DDA8EB090000E00020804655
:10144000002706E008A85A46C05D0B9990476D1C1E
:101450007F1C5745F6DB04E030205A460B99904735
:101460006D1CB8F10001A8F10108F5DC05E016F8E3
:10147000010B5A460B9990476D1CB9F10001A9F177
:101480000109F4DC641C65E70928010070B5044615
:101490000D46E0B2FFF796FE204670BD4FF47A701D
:1014A000FEF7ECFF4FF4A060FFF778FBFFF73CFE80
:1014B000FFF72EFBFFF763FAFFF77CFB0120FEF737
:1014C000B9FF11E0FFF722FA0446214607A0FFF713
:1014D00013FFFFF729FA0446214609A0FFF70CFF86
:1014E0004FF47A70FEF7A6FFECE70000496E6672D3
:1014F0006172656453746174653A2025640A000062
:10150000496E66726172656456616C75653A202534
:10151000640A0000341500080000002034000000B8
:101520001813000868150008340000201404000097
:101530002813000800BD01050000000000000000A5
:101540000102030406070809000000000102030469
:101550000102030406070809000800080000000053
:08156000000000000000000083
:040000050800019559
:00000001FF
