:020000040800F2
:1000000050060020AD010008690E0008010D00082F
:10001000650E000899030008331600080000000070
:100020000000000000000000000000002510000893
:100030002907000800000000F90E0008111100084F
:10004000C7010008C7010008C7010008C701000870
:10005000C7010008C7010008C7010008C701000860
:10006000AD0A0008C7010008C7010008C701000861
:10007000C7010008C7010008C7010008C701000840
:10008000C7010008C701000839030008000000008C
:10009000000000000000000000000000B50B000898
:1000A000C7010008C7010008C7010008C701000810
:1000B000C70100087D110008E9110008C701000808
:1000C000C7010008C7010008C7010008C7010008F0
:1000D000C7010008CD130008C70100080000000098
:1000E000C7010008C7010008C701000800000000A0
:1000F000000000000000000000000000C701000830
:1001000000000000C7010008C7010008C70100087F
:1001100000000000000000000000000000000000DF
:10012000C7010008C7010008C7010008C70100088F
:10013000C7010008000000000000000000000000EF
:10014000000000000000000000000000C7010008DF
:1001500081050008C7010008B1050008C7010008B3
:10016000C7010008C70100080000000000000000EF
:10017000000000000000000000000000000000007F
:1001800000000000C701000800000000000000009F
:10019000C7010008DFF810D000F080F800480047E1
:1001A0002D1C0008AFF30080500600200648804751
:1001B00006480047FEE7FEE7FEE7FEE7FEE7FEE74C
:1001C000FEE7FEE7FEE7FEE71511000895010008CF
:1001D00040EA01039B0703D009E008C9121F08C0C9
:1001E000042AFAD203E011F8013B00F8013B521E49
:1001F000F9D2704730B505462A460B4612F8010B76
:1002000013F8014B08B1A042F8D01CB1002802D06D
:100210006D1CF1E7284630BD421C10F8011B002977
:10022000FBD1801A7047034611F8012B00F8012B0F
:10023000002AF9D1184670472DE9F05F05460020E5
:1002400092469B4688460646814640241BE0284647
:1002500041464746224600F042F853465A46C01AE5
:10026000914110D311461846224600F029F82D1A64
:1002700067EB01084F4622460120002100F020F8DC
:1002800017EB00094E41201EA4F10104DFDC4846B3
:1002900031462A464346BDE8F09F0000064C074D14
:1002A00006E0E06840F0010394E807009847103446
:1002B000AC42F6D3FFF772FFE425000804260008DD
:1002C000202A04DB203A00FA02F100207047914016
:1002D000C2F1200320FA03F3194390407047202A0B
:1002E00004DB203A21FA02F00021704721FA02F3E0
:1002F000D040C2F1200291400843194670470022C5
:100300000A12D343036070470146C86C80B270473D
:1003100070B502460020002300240B125568012608
:100320008E4005EA060415681D4015B10CB1012088
:1003300000E0002070BD000010B540F20521124819
:10034000FFF7E6FFF8B140F205210F48FFF7D7FFAE
:100350000D48FFF7D9FF0D490D4A127821F8120018
:1003600008460B4A127830F812100AA001F0F0F992
:1003700007480078401C06490870084600780A289B
:1003800001DB0020087010BD002001403800002073
:100390002600002025640A0000BFFEE710B54FF4D8
:1003A0007A7000F0C3F91249124801F045F912A120
:1003B0001048FFF738FF0F48FFF72EFF84B24FF4C5
:1003C0009671204601F098F900F022F808B101205A
:1003D00010BD052000F0AAF90C4802780021022087
:1003E00000F02AF808B10120F2E70020F0E7000051
:1003F0004C0100204C00002041542B55545F5245C5
:10040000434F564552590D0A000000002D000020B0
:1004100000B5C1B001A800F09FF810B1012041B0B3
:1004200000BD04A101A8FFF7E5FE08B90120F6E729
:100430000020F4E74F4B0000F0B5C1B004460D4674
:10044000164623462EA232A101A801F091F901A976
:100450003148FFF7E8FE3048FFF7DEFE87B24FF481
:100460009671384601F048F9FFF7D2FF10B101202C
:1004700041B0F0BD29A12848FFF7D5FE2648FFF777
:10048000CBFE87B24FF49671384601F035F9FFF78D
:10049000BFFF08B10120EBE7234624A226A101A853
:1004A000009601F065F901A91B48FFF7BCFE1A4848
:1004B000FFF7B2FE87B24FF49671384601F01CF98F
:1004C000FFF7A6FF08B10120D2E72B461EA210A11C
:1004D00001A801F04DF901A90F48FFF7A4FE0E484D
:1004E000FFF79AFE87B24FF49671384601F004F98F
:1004F000FFF78EFF08B10120BAE70020B8E700003F
:1005000041542B5A4947425F545950453D00000021
:10051000257325640D0A00004C00002041542B5522
:10052000545F52455345540D0A00000041542B5569
:10053000545F5549443D000025732530325825301D
:1005400032580D0A0000000041542B5A4947425FBF
:1005500052584D4F44453D0070B505464FF49670D6
:1005600001F0AAF804460CB9012070BD002003492F
:1005700008552846FFF757FE0020F6E74C010020FB
:1005800010B50849084800F051F850B1054906482F
:1005900000F022F80120054908700121024800F00E
:1005A00035F810BD00880020886402402E0000202D
:1005B00010B50649064800F039F830B1034904483F
:1005C00000F00AF801200349087010BD00800028DF
:1005D000B86402402F0000200246094B9A4201D223
:1005E000084801E00648103801F000531BB1064BE3
:1005F0000B40C36002E0044B0B4083607047000077
:1006000010640240006002407D0F7D0F21B102683E
:1006100042F00102026003E0026822F0010202607F
:1006200070470146486880B27047000070B50246C6
:10063000002000240025124EB24201D2114B01E0ED
:100640000F4B103B104E0E4036B11E2606EAD12449
:10065000166806EA040502E0566906F0800501F016
:1006600000560EB15C6800E01C68084E344004EA95
:10067000010616B10DB1012000E0002070BD0000A0
:1006800010640240006002403C0F3C0F7D0F7D0F64
:1006900010B501F080034BB122B1436943F08003F0
:1006A000436103E0436923F08003436180290BD059
:1006B0002AB1036801F01E042343036004E00368C9
:1006C00001F01E04A343036010BD000010B500221A
:1006D0000268134B1A40CC680B6823434C692343D0
:1006E0008C692343CC6923430C6A23434C6A23431C
:1006F0008C6A23434C6B23438C6B23431A43026065
:10070000426922F00702D1E90B3423431A434261C4
:100710000B6943604B6883608B68C36010BD000049
:100720003F801CF04160704770470000104A12681B
:100730004FF47A73B2FBF3F24243D2084FF0E02356
:100740005A6100229A6101221A611A46116902E077
:100750004FF0E022116901F001021AB101F4803278
:10076000002AF5D000224FF0E0231A619A61704709
:1007700000000020104A1268104BB2FBF3F2424313
:10078000D2084FF0E0235A6100229A6101221A61D7
:100790001A46116902E04FF0E022116901F00102EE
:1007A0001AB101F48032002AF5D000224FF0E02384
:1007B0001A619A61704700000000002040420F005B
:1007C00070B5002419E004F1B001C8B2012100F0B5
:1007D00023FB0121002000F01FFB0121102000F06D
:1007E0001BFB002505E00021084600F015FB681CF6
:1007F000C5B2802DF7DB601CC4B2082CE3DB70BDF2
:100800001CB50121022000F079FB8020009001201E
:100810008DF804008DF806008DF807008DF80500AE
:1008200069460F4800F0F4F980210D4800F066FA9F
:100830000121022000F062FB4020009001208DF891
:1008400004008DF806008DF807008DF80500694654
:10085000034800F0DDF94021014800F04FFA1CBDCB
:100860000004024010B5FFF7CBFF0120FFF75EFF49
:10087000C820FFF75BFF0121AE2000F0CDFA012177
:10088000002000F0C9FA0121102000F0C5FA012172
:10089000402000F0C1FA0121B02000F0BDFA012192
:1008A000812000F0B9FA0121FF2000F0B5FA012102
:1008B000A02000F0B1FA0121A62000F0ADFA01213C
:1008C000A82000F0A9FA01211F2000F0A5FA0121BB
:1008D000C02000F0A1FA0121D32000F09DFA0121EF
:1008E000002000F099FA0121D52000F095FA0121AD
:1008F000002000F091FA0121D92000F08DFA0121A9
:100900001F2000F089FA0121DA2000F085FA012188
:10091000022000F081FA0121DB2000F07DFA0121A4
:10092000302000F079FA01218D2000F075FA0121C4
:10093000142000F071FA0121AF2000F06DFAFFF7EA
:100940003FFF10BD70B504460D4605F1B001C8B2B9
:10095000012100F061FA102141EA1410012100F098
:100960005BFA04F00F00012100F056FA70BD0000A0
:100970002DE9F04707460E4690469946002500248B
:10098000A8F12000C5B2B9F1010F2CD15F2D00DB19
:100990000025782F00DD0027022E00DD00263146DD
:1009A0003846FFF7CFFF002408E01E4901EB051190
:1009B000085D002100F030FA601CC4B2082CF4DBA2
:1009C000701CC1B23846FFF7BDFF082408E0154986
:1009D00001EB0511085D002100F01EFA601CC4B295
:1009E000102CF4DB1BE05C2D00DB00257A2F00DDF2
:1009F0000027032E00DD002631463846FFF7A2FF10
:100A000000240AE005EB4501074A02EB4101085DBD
:100A1000002100F001FA601CC4B2062CF2DBBDE834
:100A2000F0870000F41F0008CC1D00082DE9F047F6
:100A300005460E4617469846DDF820900024B9F189
:100A4000010F19D113E03A5D4B4631462846FFF7B6
:100A50008FFF05F10800C5B2782D02DD0025B01C1E
:100A6000C6B2022E01DDBDE8F087601CC4B2385D5D
:100A7000C8B14445E7DB16E011E03A5D4B4631462C
:100A80002846FFF775FFA81DC5B27A2D02DD0025A7
:100A9000701CC6B2032E00DDE5E7601CC4B2385DF1
:100AA00008B14445E9DB00BFDDE7000010B50420D4
:100AB00000F0A2F800286FD0042000F097F8374823
:100AC00000F0D7FB84B20021344800F0C6FB0021BF
:100AD000324800F0E2FB0121304800F0BEFB40F25A
:100AE0006C7084420CDA40F2A460844208DD01207C
:100AF0002B49087000202B4908702B49087030E002
:100B000040F2AA50844214DA40F2E240844210DDFE
:100B10002348007828B32448007840102249087000
:100B20000846007808701F480078401C1D4908706E
:100B300017E0B4F57A7F14DAB4F5487F11DD184870
:100B4000007870B1184800784010174908700846BE
:100B5000007840F08000087012480078401C11496D
:100B6000087010480078082815DB00210B4800F0B9
:100B700074FB0021094800F090FB0B4800780B49FA
:100B80000870002008490870064908700449087078
:100B900001200749087000BF10BD0000000C004094
:100BA0002C0000202A0000202B000020290000201B
:100BB0002800002010B5202000F01EF830B12020C1
:100BC00000F014F80121074800F047FB402000F036
:100BD00013F830B1402000F009F80121024800F07C
:100BE0003CFB10BD000400400008004001490860C3
:100BF00070470000143C014001460020034A12687F
:100C00000A400AB1012000E000207047143C014076
:100C1000F0B50A4600210023002400BF3DE0012575
:100C200005FA01F3156805EA03049C4234D105680E
:100C30004F000326BE40B543056015794E00B54010
:100C40000668354305601579012D02D01579022D0E
:100C500016D185684F000326BE40B543856055799F
:100C60004E00B540866835438560456801268E4054
:100C7000B5434560456896798E40B6B235434560C8
:100C8000C5684F000326BE40B543C560D5794E0008
:100C9000B540C6683543C560491C1029BFD3F0BDB7
:100CA000F0B5002300244D07ED0E02FA05F3CE1037
:100CB00000F1200555F826504E07F70E0F26BE40CE
:100CC000B543CF1000F1200646F82750CE1000F1B2
:100CD000200555F8265045EA0304CE1000F1200502
:100CE00045F82640F0BD0246002013690B400BB1C9
:100CF000012000E000207047418370470183704766
:100D000000BFFEE710B5002480211148FFF7F6FF71
:100D10000120FFF72FFD40210D48FFF7EFFF0120D5
:100D2000FFF728FD07E0601CC4B2FA2C03DD00F0D9
:100D30002BF8012010BD80210548FFF7D4FF0028C3
:100D4000F1D140210248FFF7D7FF0020F2E7000071
:100D50000004024010B580210A48FFF7CFFF402170
:100D60000848FFF7CBFF0120FFF704FD802105486D
:100D7000FFF7C2FF0120FFF7FDFC40210148FFF70C
:100D8000BBFF10BD0004024010B540210A48FFF728
:100D9000B3FF80210848FFF7AFFF0120FFF7EAFC0F
:100DA00040210548FFF7AAFF80210348FFF7A6FF6F
:100DB0000120FFF7DFFC10BD0004024070B50446BF
:100DC00040211448FFF798FF002520E004F0800040
:100DD000802804D180210F48FFF790FF03E0802195
:100DE0000C48FFF789FF6006040E0120FFF7C2FCE4
:100DF00040210848FFF782FF0120FFF7BBFC40219C
:100E00000448FFF779FF0120FFF7B4FC6D1C082DA3
:100E1000DCDB70BD0004024070B506460D46012DB6
:100E200001D1002400E04024FFF794FF7820FFF771
:100E3000C5FFFFF767FF08B1012070BD2046FFF72F
:100E4000BDFFFFF75FFF08B10120F6E73046FFF76F
:100E5000B5FFFFF757FF08B10120EEE7FFF794FF5A
:100E60000020EAE700BFFEE77047000070B50021F0
:100E700000230F22C4781CB3174C246804F4E064E8
:100E8000C4F5E064C4F30721C1F10404E3B20A41EC
:100E900044789C40E1B28478144021430C07210E31
:100EA0000E4C05786155047804F01F050124AC4010
:100EB00005786D11AD0005F1E025C5F8004109E0A8
:100EC000047804F01F050124AC40054D0678761126
:100ED00045F8264070BD00000CED00E000E400E0A5
:100EE00080E100E002490143024A116070470000BE
:100EF0000000FA050CED00E07047000029B1064A39
:100F000012680243044B1A6004E0034A12688243E9
:100F1000014B1A60704700003038024029B1064A80
:100F200012680243044B1A6004E0034A12688243C9
:100F3000014B1A607047000044380240F0B50021B0
:100F400000220024022500260223324F3F6807F0CA
:100F50000C0121B1042905D0082937D105E02E4F15
:100F6000076036E02D4F076033E02A4F3F1F3F6890
:100F7000C7F38056274F3F1F3F6807F03F036EB10E
:100F8000264FB7FBF3F7DFF88CC0ACF1040CDCF8AC
:100F900000C0CCF3881C07FB0CF40CE01E4FB7FB21
:100FA000F3F7DFF870C0ACF1040CDCF800C0CCF350
:100FB000881C07FB0CF4174F3F1F3F68C7F301471E
:100FC0007F1C7D00B4FBF5F7076002E0124F07605D
:100FD00000BF00BF0F4F3F6807F0F0010909104F35
:100FE0007A5C0768D74047600A4F3F6807F4E051D2
:100FF000890A0B4F7A5C4768D7408760054F3F6886
:1010000007F46041490B064F7A5C4768D740C760D8
:10101000F0BD0000083802400024F40000127A00FD
:1010200014000020704700000CB5002001900090D3
:101030003348006840F480303149086000BF3048D0
:10104000006800F4003000900198401C0190009866
:1010500018B90198B0F5A04FF1D12948006800F403
:10106000003010B10120009001E0002000900098B5
:10107000012844D122484030006840F08050204987
:10108000403108601F48006840F440401D49086036
:101090001B48083000681A49083108600846006893
:1010A00008600846006840F4805008601648091F30
:1010B0000860081F006840F08070091F086000BFCA
:1010C0000F48006800F000700028F9D040F202706C
:1010D0000E4908600A480830006820F003000849FB
:1010E000083108600846006840F00200086000BF50
:1010F00003480830006800F00C000828F8D10CBD47
:10110000003802400070004008544107003C024093
:101110007047000010B51548006840F4700013498E
:1011200008601348006840F0010011490860002081
:101130000F49083108600E4800680E4908400C4904
:1011400008600D48091D0860081F006820F4802011
:10115000091F0860002006490C310860FFF764FF92
:101160004FF0006001498039086010BD88ED00E053
:1011700000380240FFFFF6FE1030002400B5C1B079
:101180000121154800F078F818B30121124800F049
:1011900061F80021104800F060F800210E4800F0CE
:1011A0007CF820210D48FFF79EFD90B90CA101A805
:1011B00000F0DEFA0120FF2301AA0021009008467A
:1011C000FFF734FC4FF47A70FFF7B0FAFFF7F8FA44
:1011D00000BF41B000BD000000040040000002401C
:1011E0005265706169720A0000B5C1B001211548ED
:1011F00000F042F818B30121124800F02BF800214A
:10120000104800F02AF800210E4800F046F840216E
:101210000D48FFF768FD90B90CA101A800F0A8FAED
:101220000120FF2301AA022100900020FFF7FEFB0E
:101230004FF47A70FFF77AFAFFF7C2FA00BF41B0B5
:1012400000BD0000000800400000024048656C70CE
:101250000A000000CA430282704721B1028842F0AE
:101260000102028004E002884FF6FE731A400280F9
:1012700070470146486A704730B502460020002397
:101280000024158A05EA0103958905EA010413B1D2
:101290000CB1012000E0002030BD41627047000029
:1012A00010B590B0044601218805FFF727FE4FF0E6
:1012B00000600190002004900A904FF440300B90A1
:1012C00000200C9003200D901848029000200890F8
:1012D00006900F90039409904FF4806007900020CF
:1012E0000E904FF6FF70059001A91148FFF7EEF937
:1012F00010490F48FFF770F9012210210C48FFF741
:10130000C7F944208DF8000002208DF8010000206C
:101310008DF8020001208DF803006846FFF7A6FD56
:1013200001210348FFF772F910B010BD041001400D
:10133000886402400088002010B590B00446012166
:101340008805FFF7DBFD4FF000600190402004901E
:1013500000200A904FF440300B9000200C900320A6
:101360000D90174802900020089006900F9003946B
:1013700009904FF48060079000200E904FF6FF70A8
:10138000059001A90F48FFF7A1F90F490D48FFF794
:1013900023F9012210210B48FFF77AF946208DF836
:1013A000000002208DF8010000208DF802000120CD
:1013B0008DF803006846FFF759FD10B010BD00001E
:1013C00004100140B86402400080002810B540F2CB
:1013D00024410B4800F06FF880B10A48FFF721F96B
:1013E0004FF6FF71081A0849088000210548FFF7E9
:1013F0000DF9034800F018F9C4B200BF10BD000099
:1014000000100140886402403000002000B585B023
:1014100001211020FFF782FD4FF4E1300190002000
:10142000ADF80800ADF80A00ADF80C00ADF81000FA
:101430000C20ADF80E0001A9134800F08BF8012232
:1014400040F22441104800F060F825208DF800009B
:1014500002208DF8010000208DF8020001208DF897
:1014600003006846FFF702FD01224021064800F014
:1014700019F801228021044800F014F801210248E3
:1014800000F004F805B000BD0010014021B18289D0
:1014900042F40052828104E082894DF6FF731A40C3
:1014A000828170471AB1838A0B43838202E0838A68
:1014B0008B438382704770B50246002400230025C9
:1014C000002040F66A16B14200D100BFC1F34215B8
:1014D00001F01F03012606FA03F3012D02D19689BC
:1014E000334006E0022D02D1168A334001E0968A8D
:1014F00033400C12012606FA04F41688344013B166
:101500000CB1012000E0002070BDF0B503460024BE
:1015100000260025002040F66A17B94200D100BF1E
:101520001846C1F3421401F01F06012707FA06F519
:10153000012C01D10C3004E0022C01D1103000E06C
:1015400014301AB107682F43076002E00768AF4301
:101550000760F0BD2DE9FF4705460E460024A14671
:1015600000BFA046B08900B100BF2C8A24F44054CB
:10157000F08804432C82AC8941F20C608443B0882B
:1015800031890843718908430443AC81AC8A24F44F
:101590004074B0890443AC826846FFF7CFFC204812
:1015A000854202D01F48854202D1DDF80C9001E04F
:1015B000DDF80890A88900F4004040B109EBC900AB
:1015C00000EB091031684900B0FBF1F707E009EBC7
:1015D000C90000EB091031688900B0FBF1F7642005
:1015E000B7FBF0F004012009642101FB1078A88901
:1015F00000F4004040B1322000EBC800B0FBF1F035
:1016000000F00700044308E0322000EB08106421DA
:10161000B0FBF1F000F00F0004432C81BDE8FF8720
:10162000001001400014014001468888C0F3080002
:10163000704700BFFEE700007CB505460C4601215F
:101640000846FFF75BFC072209211A48FFF728FB31
:101650004FF40070009002208DF8040000208DF8F7
:10166000060001208DF8070002208DF8050069466C
:101670001048FFF7CDFA01210846FFF73FFC07228B
:101680000A210C48FFF70CFB4FF480600090022009
:101690008DF8040000208DF8070069460548FFF723
:1016A000B7FAFFF7B3FE2046FFF7FAFD2846FFF72B
:1016B00043FE7CBD0000024070B50446002507E0F3
:1016C0000B48007800B105E00120FFF72FF86D1CF2
:1016D000A542F5DB00BF0648007810B90548008830
:1016E00070BD00200249087002480088F8E7000039
:1016F0002E0000203000002070B504460D4604B9CD
:1017000070BD002607E01048007800B105E0012018
:10171000FFF70CF8761CAE42F5DB00BF0A480078F4
:1017200000B9EDE700210948FEF770FF21460748A0
:10173000FEF7F8FF00200449087001210348FEF776
:1017400065FF00BFDCE700002F000020B864024006
:101750000FB4054B10B503A9044A029800F02CF809
:1017600010BC5DF814FB0000191C000834000020B8
:101770000FB4084B10B504A902AA039800F01CF896
:10178000044602A9002000F042FA204610BC5DF891
:1017900014FB00000F1C000802E008C8121F08C15B
:1017A000002AFAD170477047002001E001C1121FE2
:1017B000002AFBD1704700002DE9FF4F8DB00F4686
:1017C0000546002606E025280BD0DDE90F129047DC
:1017D0006D1C761C28780028F5D111B03046BDE884
:1017E000F08F0024A246A1460122E94900E004430B
:1017F00015F8013F203B02FA03F00842F7D12878A0
:101800002A2810D06FF02F022878A0F13001092982
:1018100014D80AEB8A0102EB410144F0020400EB08
:10182000010A6D1CF0E701CF5FEA000A03D544F41A
:101830000054CAF1000A44F002046D1C28782E28D6
:1018400017D115F8010F44F004042A280ED06FF0C8
:101850002F022878A0F1300109290AD809EB890163
:1018600002EB410100EB01096D1CF2E757F8049B04
:101870006D1C28786C280FD006DC4C2817D06828FF
:101880000DD06A2814D104E0742810D07A280FD122
:101890000DE044F400140AE044F4801401E044F440
:1018A00040146978814202D104F580146D1C6D1CCE
:1018B00028786E281ED00CDC632830D004DC002889
:1018C0008BD0582811D19FE0642867D069280CD1AB
:1018D00064E073282DD004DC6F2872D0702804D106
:1018E00094E075286ED078286DD0DDE90F1290470E
:1018F000761C4BE1C4F30250022806D0032809D01D
:10190000042801CF09D0066040E101CFF117C0E9FA
:1019100000613BE101CF068038E1067036E117F83F
:10192000040B8DF8000000208DF80100EB4601202B
:1019300003E057F804BB4FF0FF3061074FF00001A0
:1019400002D40DE008F10101884649450FDA8045CF
:10195000F8DB1BF808100029F4D108E008F10101B8
:1019600088468142FADB1BF808100029F6D1DDE930
:101970000F23AAEB08008146214600F031F93044DC
:1019800000EB080604E0DDE90F121BF8010B90479D
:10199000B8F10108F7D221464846F2E00A21C4F323
:1019A00002524FF0000B0891022A04D001CFC11758
:1019B000032A09D00AE0FF1D27F00707F7E8020114
:1019C00008E02CE01EE01FE000B2C117042A01D19C
:1019D00040B2C117021E71F1000206DA0023D0EBFB
:1019E000030063EB01012D2202E0220504D52B2226
:1019F0008DF82420012203E0E20701D02022F7E73E
:101A0000904653E00A210BE0102109E010214FF02D
:101A1000000B44F004044FF00809089103E008218A
:101A20004FF0000B0891C4F30252022A04D001CFF8
:101A30000021032A06D006E0FF1D27F00707F7E87C
:101A4000020103E080B2042A00D1C0B24FF00008C6
:101A500022072BD52A78702A07D0DDF820C08CF019
:101A6000100C5CEA0B0C05D00EE040228DF824200F
:101A7000012208E050EA010306D030238DF824301B
:101A80008DF8252002229046089B83F0080353EA34
:101A90000B030BD150EA010201D1620706D53022B7
:101AA0008DF824204FF00108A9F101092A78582A5D
:101AB00004D038A20B9208AA0A920BE03AA2F9E7E6
:101AC0005B46089AFEF7B8FB0B9B9B5C0A9A521E7A
:101AD0000A92137050EA0102F2D10A98ADEB0000AD
:101AE00000F1200B600702D524F4803401E04FF0B0
:101AF0000109D94502DDA9EB0B0000E0002000EB55
:101B00000B0141440890AAEB010AE00306D4DDE989
:101B10000F232146504600F063F806444FF00009B9
:101B200008E009A911F80900DDE90F12904709F151
:101B30000109761CC145F4DBE0030CD5DDE90F2378
:101B40002146504600F04CF8064404E0DDE90F124F
:101B500030209047761C0899481E08900029F5DC33
:101B600008E00A980A990078491C0A91DDE90F12E9
:101B70009047761CBBF10001ABF1010BF1DC214673
:101B80005046DDE90F2300F019F806446D1C21E6EC
:101B90000928010030313233343536373839616243
:101BA0006364656600000000303132333435363707
:101BB0003839414243444546000000002DE9F041D8
:101BC000044600251E461746880404D405E039461D
:101BD0002020B0476D1C641EF9D52846BDE8F08171
:101BE0002DE9F041044600251E469046C80301D564
:101BF000302700E02027880404D505E04146384618
:101C0000B0476D1C641EF9D52846BDE8F0810A680E
:101C1000531C0B601070704738B504468DF80000F7
:101C200069460320ABBE204638BD0000ADF5067DF9
:101C30001FA30FCB859382AB07C34FF4807220495B
:101C400002A8FEF7C5FA4FF47A70FEF76FFD4FF465
:101C5000A060FFF747F9FEF705FEFEF79FFB04467D
:101C60004FF47A70FEF762FD21E04FF47A70FEF7D0
:101C70005DFD224613A102A8FFF77AFDFEF7A0FD45
:101C80000020FF2302AA01460090FEF7CFFE42A8E3
:101C9000FEF762FC4FF47A70FEF748FDFEF790FD08
:101CA0000020FF2342AA01460090FEF7BFFEDCE7BA
:101CB00048656C6C6F20776F726C642100000000C7
:101CC000CC1C000825640D0A0000000048656C6CFF
:101CD0006F20776F726C642100000000000000002C
:101CE00000000000000000000000000000000000F4
:101CF00000000000000000000000000000000000E4
:101D000000000000000000000000000000000000D3
:101D100000000000000000000000000000000000C3
:101D200000000000000000000000000000000000B3
:101D300000000000000000000000000000000000A3
:101D40000000000000000000000000000000000093
:101D50000000000000000000000000000000000083
:101D60000000000000000000000000000000000073
:101D70000000000000000000000000000000000063
:101D80000000000000000000000000000000000053
:101D90000000000000000000000000000000000043
:101DA0000000000000000000000000000000000033
:101DB0000000000000000000000000000000000023
:101DC0000000000000000000000000000000000013
:101DD00000000000002F00000000070007000014B2
:101DE0007F147F1400242A7F2A12006264081323C0
:101DF00000364955225000000503000000001C2257
:101E00004100000041221C000014083E0814000894
:101E1000083E0808000000A0600000080808080844
:101E2000000060600000002010080402003E5149DC
:101E3000453E0000427F400000426151494600217A
:101E400041454B31001814127F1000274545453994
:101E5000003C4A49493000017109050300364949EF
:101E6000493600064949291E0000363600000000A8
:101E700056360000000814224100001414141414F3
:101E8000000041221408000201510906003249599C
:101E9000513E007C1211127C007F49494936003EB8
:101EA00041414122007F4141221C007F4949494173
:101EB000007F09090901003E4149497A007F08086D
:101EC000087F0000417F4100002040413F01007F2A
:101ED00008142241007F40404040007F020C027FF6
:101EE000007F0408107F003E4141413E007F090908
:101EF0000906003E4151215E007F0919294600462E
:101F0000494949310001017F0101003F4040403F04
:101F1000001F2040201F003F4038403F006314084E
:101F20001463000708700807006151494543000029
:101F30007F41410000552A552A55000041417F004C
:101F40000004020102040040404040400000010241
:101F50000400002054545478007F4844443800382A
:101F60004444442000384444487F003854545418B2
:101F700000087E0901020018A4A4A47C007F0804C4
:101F800004780000447D4000004080847D00007F94
:101F9000102844000000417F4000007C04180478B1
:101FA000007C0804047800384444443800FC2424AD
:101FB00024180018242418FC007C08040408004895
:101FC0005454542000043F444020003C4040207CB6
:101FD000001C2040201C003C4030403C00442810A5
:101FE0002844001CA0A0A07C004464544C44141459
:101FF0001414141400000000000000000000000091
:1020000000000000000000F80000000000000033A5
:102010003000000000100C06100C0600000000004C
:102020000000000040C07840C0784000043F040435
:102030003F040400007088FC08300000001820FFF6
:10204000211E0000F008F000E018000000211C0331
:102050001E211E0000F00888700000001E212324AD
:102060001927211010160E000000000000000000CB
:1020700000000000000000E018040200000000075B
:102080001820400000020418E00000000040201862
:1020900007000000404080F0804040000202010F35
:1020A00001020200000000F0000000000101011F19
:1020B00001010100000000000000000080B070007D
:1020C000000000000000000000000000000101010D
:1020D000010101010000000000000000003030009C
:1020E0000000000000000000806018040060180676
:1020F0000100000000E010080810E000000F1020B0
:1021000020100F00001010F8000000000020203FF9
:102110002020000000700808088870000030282483
:102120002221300000300888884830000018202024
:1021300020110E000000C02010F800000007042449
:10214000243F240000F8088888080800001921208E
:1021500020110E0000E0108888180000000F1120E8
:1021600020110E0000380808C83808000000003FA1
:10217000000000000070880808887000001C222100
:1021800021221C0000E010080810E00000003122AD
:1021900022110F00000000C0C0000000000000304D
:1021A000300000000000008000000000000080609F
:1021B0000000000000008040201008000001020420
:1021C0000810200040404040404040000404040407
:1021D00004040400000810204080000000201008C3
:1021E00004020100007048080808F00000000030F8
:1021F00036010000C030C828E810E0000718272486
:1022000023140B000000C038E0000000203C230233
:102210000227382008F8888888700000203F202096
:1022200020110E00C03008080808380007182020C8
:102230002010080008F808080810E000203F2020BF
:1022400020100F0008F88888E8081000203F2020A0
:102250002320180008F88888E8081000203F200094
:1022600003000000C03008080838000007182020CC
:10227000221E020008F808000008F808203F21018B
:1022800001213F20000808F8080800000020203F36
:102290002020000000000808F8080800C0808080A6
:1022A0007F00000008F888C028180800203F20019F
:1022B0002638200008F8080000000000203F2020F9
:1022C0002020300008F8F800F8F80800203F003F10
:1022D000003F200008F830C00008F808203F200028
:1022E00007183F00E01008080810E0000F10202039
:1022F00020100F0008F808080808F000203F21010E
:1023000001010000E01008080810E0000F18242464
:1023100038504F0008F8888888887000203F2000D7
:10232000030C30200070880808083800003820218D
:1023300021221C00180808F8080818000000203F97
:102340002000000008F808000008F808001F2020FE
:1023500020201F000878880000C8380800000738CF
:102360000E010000F80800F80008F800033C070020
:10237000073C0300081868808068180820302C0388
:10238000032C30200838C800C83808000000203F5F
:102390002000000010080808C8380800203826214E
:1023A00020201800000000FE020202000000007F52
:1023B00040404000000C30C0000000000000000160
:1023C0000638C00000020202FE000000004040404B
:1023D0007F00000000000402020204000000000070
:1023E00000000000000000000000000080808080ED
:1023F00080808080000202040000000000000000D5
:10240000000000000000808080800000001924226D
:1024100022223F2008F8008080000000003F1120A9
:1024200020110E000000008080800000000E1120AE
:1024300020201100000000808088F800000E11208C
:1024400020103F200000808080800000001F22229A
:1024500022221300008080F0888888180020203F06
:10246000202000000000808080808000006B949419
:102470009493600008F8008080800000203F2100D5
:1024800000203F2000809898000000000020203F9E
:1024900020200000000000809898000000C080808C
:1024A000807F000008F8000080808000203F240228
:1024B0002D302000000808F8000000000020203F18
:1024C000202000008080808080808000203F2000CD
:1024D0003F20003F8080008080800000203F21005E
:1024E00000203F200000808080800000001F20200E
:1024F00020201F00808000808000000080FFA1203D
:1025000020110E000000008080808000000E11204D
:1025100020A0FF80808080008080800020203F21DC
:10252000200001000000808080808000003324248F
:1025300024241900008080E0808000000000001F3B
:10254000202000008080000000808000001F2020EC
:1025500020103F20808080000080808000010E30AD
:102560000806010080800080008080800F300C030E
:102570000C300F0000808000808080000020312E11
:102580000E312000808080000080808080818E70ED
:102590001806010000808080808080000021302C9F
:1025A0002221300000000000807C020200000000B8
:1025B000003F404000000000FF000000000000005D
:1025C000FF0000000002027C800000000040403F4D
:1025D00000000000000601010202040400000000E7
:1025E0000000000004260008000000203800000061
:1025F000981700083C260008380000201806000044
:10260000A817000800BD0105000000000000000040
:102610000102030406070809000000000102030488
:102620000102030406070809000800080000000072
:0C2630000001000100000000000000009C
:040000050800019559
:00000001FF
