:020000040800F2
:1000000050040020AD0100085D0B00081506000833
:1000100049080008B9020008C915000800000000DE
:100020000000000000000000000000004111000876
:100030002903000800000000F70E00082D12000838
:10004000C7010008C7010008C7010008C701000870
:10005000C7010008C7010008C7010008C701000860
:10006000C1030008C7010008C7010008C701000854
:10007000C7010008C7010008C7010008C701000840
:10008000C7010008C701000859020008000000006D
:10009000000000000000000000000000C90400088B
:1000A000C7010008C7010008C7010008C701000810
:1000B000C701000899120008E1120008C7010008F2
:1000C000C7010008C7010008C7010008C7010008F0
:1000D000C7010008C7010008C701000800000000B0
:1000E000C7010008C7010008C701000800000000A0
:1000F000000000000000000000000000C701000830
:1001000000000000C7010008C7010008C70100087F
:1001100000000000000000000000000000000000DF
:10012000C7010008C7010008C7010008C70100088F
:10013000C7010008000000000000000000000000EF
:10014000000000000000000000000000C7010008DF
:10015000C7010008C7010008C7010008C70100085F
:10016000C7010008C70100080000000000000000EF
:10017000000000000000000000000000000000007F
:1001800000000000C701000800000000000000009F
:10019000C7010008DFF810D000F030F80048004731
:1001A00071170008AFF30080500400200648804714
:1001B00006480047FEE7FEE7FEE7FEE7FEE7FEE74C
:1001C000FEE7FEE7FEE7FEE73112000895010008B2
:1001D00030B50B46014600202022012409E021FA17
:1001E00002F59D4205D303FA02F5491B04FA02F514
:1001F0002844151EA2F10102F1DC30BD064C074D6A
:1002000006E0E06840F0010394E8070098471034E6
:10021000AC42F6D3FFF7C2FFD4170008F41700086A
:1002200000220A12D343036070470146C86C80B2B3
:10023000704770B502460020002300240B12556859
:1002400001268E4005EA060415681D4015B10CB163
:10025000012000E0002070BD10B540F205211248D9
:10026000FFF7E7FFF8B140F205210F48FFF7D8FF8D
:100270000D48FFF7DAFF0D490D4A127821F81200F8
:1002800008460B4A127830F812100AA001F09EF9C5
:1002900007480078401C06490870084600780A287C
:1002A00001DB0020087010BD002001403C00002050
:1002B0002600002025640A0000BFFEE72DE9F0417A
:1002C0000746884615460421052000F089FA0021DA
:1002D000012000F09FFA80210A2000F08EFA00240D
:1002E00005E0395D092000F095FA601CC4B2444570
:1002F000F7DB0321012000F08DFAFF2400BF052069
:1003000000F052FA0646601EC4B21CB106F00400AA
:100310000028F4D0222000F047FA2870212000F0B5
:1003200043FA6870BDE8F08170470000104A126817
:100330004FF47A73B2FBF3F24243D2084FF0E0235A
:100340005A6100229A6101221A611A46116902E07B
:100350004FF0E022116901F001021AB101F480327C
:10036000002AF5D000224FF0E0231A619A6170470D
:1003700000000020104A1268104BB2FBF3F2424317
:10038000D2084FF0E0235A6100229A6101221A61DB
:100390001A46116902E04FF0E022116901F00102F2
:1003A0001AB101F48032002AF5D000224FF0E02388
:1003B0001A619A61704700000000002040420F005F
:1003C00010B5042000F0A2F800286FD0042000F03F
:1003D00097F8374800F0B7FF84B20021344800F0A6
:1003E000A6FF0021324800F0C2FF0121304800F092
:1003F0009EFF40F26C7084420CDA40F2A4608442AA
:1004000008DD01202B49087000202B4908702B497A
:10041000087030E040F2AA50844214DA40F2E24020
:10042000844210DD2348007828B324480078401027
:10043000224908700846007808701F480078401C60
:100440001D49087017E0B4F57A7F14DAB4F5487FD7
:1004500011DD1848007870B118480078401017492D
:1004600008700846007840F0800008701248007854
:10047000401C1149087010480078082815DB00213D
:100480000B4800F054FF0021094800F070FF0B48B2
:1004900000780B4908700020084908700649087068
:1004A0000449087001200749087000BF10BD000012
:1004B000000C00402C0000202A0000202B0000200F
:1004C000290000202800002010B5202000F01EF890
:1004D00030B1202000F014F80121074800F027FF78
:1004E000402000F013F830B1402000F009F801215D
:1004F000024800F01CFF10BD00040040000800404E
:100500000149086070470000143C0140014600208A
:10051000034A12680A400AB1012000E00020704737
:10052000143C0140F0B50A4600210023002400BF1E
:100530003DE0012505FA01F3156805EA03049C4234
:1005400034D105684F000326BE40B54305601579D8
:100550004E00B5400668354305601579012D02D07F
:100560001579022D16D185684F000326BE40B5438C
:10057000856055794E00B54086683543856045688D
:1005800001268E40B5434560456896798E40B6B2E7
:1005900035434560C5684F000326BE40B543C5607E
:1005A000D5794E00B540C6683543C560491C102951
:1005B000BFD3F0BDF0B5002300244D07ED0E02FAC5
:1005C00005F3CE1000F1200555F826504E07F70E22
:1005D0000F26BE40B543CF1000F1200646F8275045
:1005E000CE1000F1200555F8265045EA0304CE1040
:1005F00000F1200545F82640F0BD024600201369B1
:100600000B400BB1012000E0002070474183704790
:100610000183704700BFFEE710B50446412C25D189
:100620000821084600F0DCF83D21112000F0F2F826
:100630008621172000F0EEF87F21262000F0EAF84E
:100640001E212D2000F0E6F800212C2000F0E2F819
:100650008D212A2000F0DEF83E212B2000F0DAF870
:100660000A20FFF787FE00F08BFA01E0FF2010BDA3
:100670000020FCE72DE9FE4F0646884691469A4643
:10068000DDF830B0FE2002900020019000900C2E8A
:1006900006D00E2E09D1122001901020009005E006
:1006A000772001903020009000E000BF00BF01984B
:1006B00040F08001022000F0ADF88021042000F01D
:1006C0008FF80021012000F0A5F880210A2000F019
:1006D00094F8002505E018F80510092000F09AF8B4
:1006E0006D1C4D45F7D33146012000F093F80C2ED8
:1006F00003D180210D2000F080F84FF47A7500BFFF
:10070000042000F051F804466D1E35B104F00100DC
:1007100018B9009820400028F2D080210D2000F068
:100720005FF8002D35D0062000F03EF800F01B00E9
:1007300068BB002002900198204000F0010008B141
:10074000FF2002900C2E24D10A2000F02DF8044640
:100750000C2000F029F800F007072FB1601E07EB0E
:10076000C000ABF8000002E0E000ABF8000004B904
:100770000124122C00DD1224002505E0092000F0E0
:1007800013F80AF805006D1CA542F7D301E0FE201E
:10079000029080210C2000F030F80021012000F0B0
:1007A00039F80298BDE8FE8F70B504467E2000EA55
:1007B000440040F080054FF480510848FFF726FFC1
:1007C000284600F059FCFF2000F056FC06464FF486
:1007D00080510248FFF71CFF304670BD0004024004
:1007E00070B505460C462846FFF7DEFF064626EAAA
:1007F0000401284600F00EF870BD70B505460C46A1
:100800002846FFF7D1FF064646EA0401284600F0D5
:1008100001F870BD70B504460D467E2000EA44061E
:100820004FF480510748FFF7F1FE304600F024FCFA
:10083000284600F021FC4FF480510248FFF7E8FE03
:1008400070BD00000004024000BFFEE710B500F0DC
:100850001BF84FF480510A48FFF7DAFE4FF480513D
:100860000848FFF7D5FE00F077FA00F083F90A2078
:10087000FFF780FD00F084F94120FFF7CDFE10BDA9
:10088000000002400004024000B587B00121084684
:1008900000F04EFB8020059001208DF8180000200C
:1008A0008DF81A008DF81B0002208DF8190005A99B
:1008B0005648FFF737FE0121022000F039FB4FF4C4
:1008C0008050059001208DF8180000208DF81A0046
:1008D0008DF81B0002208DF8190005A94C48FFF780
:1008E00021FE0121022000F023FB012005900020C1
:1008F0008DF8180002208DF81B0000208DF81900DB
:1009000005A94348FFF70EFE0121022000F010FB6D
:1009100005220D213E48FFF74DFE4FF40050059093
:1009200002208DF8180000208DF81A008DF81B00A9
:1009300002208DF8190005A93548FFF7F3FD0121C4
:10094000022000F0F5FA05220E213148FFF732FEB1
:100950004FF48040059002208DF8180000208DF89B
:100960001A008DF81B0002208DF8190005A92848EF
:10097000FFF7D8FD0121022000F0DAFA05220F214D
:100980002348FFF717FE4FF40040059002208DF832
:10099000180000208DF81A008DF81B0002208DF839
:1009A000190005A91A48FFF7BDFD4FF480511848FA
:1009B000FFF72EFE0021174800F08AFB0121880373
:1009C00000F0C6FA0020ADF800004FF48270ADF8D8
:1009D00002000020ADF80400ADF80E00ADF80600EE
:1009E000ADF808004FF40070ADF80A003820ADF8FB
:1009F0000C000720ADF810006946064800F082FBA5
:100A00000121044800F064FB07B000BD0000024073
:100A100000040240003800402DE9FC4105460E4626
:100A200090461F4601A9522000F06AF90446FCB91D
:100A3000684600F0B2F80446D4B9684600F0D6F92A
:100A40000446ACB9032000EB8500C1B26B464246B8
:100A5000602000F0DAF8044654B906EB8501C8B20C
:100A6000394600F022F9044614B904A000F0AEFDA6
:100A700000F002F904462046BDE8FC81526561643D
:100A8000210A00007FB504460E46002596B925468A
:100A9000002004E0210E0DF800102402401C042860
:100AA000F8DB6B460F4A104801781048007800F0D8
:100AB0001FF813E06B460B4A0B4801780B4800788F
:100AC000FFF7AAFF002004E01DF800100D432D02DF
:100AD000401C0328F8DB9DF803000543284604B0BA
:100AE00070BD0000310000202E0000202D000020ED
:100AF0002DE9FC4105460E4690461F4601A95220AD
:100B000000F0FEF80446FCB9684600F046F80446DA
:100B1000D4B9684600F06AF90446ACB9032000EB8A
:100B20008500C1B26B464246602000F06EF8044674
:100B300054B906EB8501C8B2394600F091F9044674
:100B400014B904A000F042FD00F096F804462046D7
:100B5000BDE8FC815772697465210A007047000086
:100B600002490143024A1160704700000000FA0583
:100B70000CED00E010B503211420FFF731FE10BD8D
:100B800010B51420FFF710FE044604F0030018B956
:100B900003211420FFF731FE10BDF0B587B00546E4
:100BA000002708210846FFF71BFE00210D20FFF754
:100BB00031FE80210E20FFF713FE93208DF80400F4
:100BC00020208DF8050006A801AB022201A90090A3
:100BD0000C20FFF74FFD064686B9002407E001A868
:100BE000005D285501A8005D4740601CC4B2042C7C
:100BF000F5DB01A8005DB84200D0FE2680210E2062
:100C0000FFF7FBFD304607B0F0BD2DE9F04387B09C
:100C100006460F46904699468DF804608DF805709B
:100C2000002406E018F8041001AAA01C1154601C4E
:100C3000C4B2062CF6DB002407E019F8041001AA60
:100C400004F108001154601CC4B2062CF5DB06A8A0
:100C500001AB0C2201A900900E20FFF70BFD054609
:100C60002DB90820FFF7A0FD00F0080000B9FE250F
:100C7000284607B0BDE8F08300B587B050208DF856
:100C8000040000208DF805000DF10602022101A8E4
:100C9000FFF714FB06A801AB042201A900900C2069
:100CA000FFF7E8FC002007B000BDF0B587B00546AF
:100CB0000E4630208DF804008DF805500DF1060227
:100CC000022101A8FFF7FAFA06A801AB042201A944
:100CD00000900C20FFF7CEFC07466FB9BDF8180056
:100CE000902809D1002404E001A8005D3055601C63
:100CF000C4B2102CF8DB00E0FE27384607B0F0BD88
:100D000070B588B005460C4608210846FFF768FD17
:100D100007210D20FFF77EFD03211420FFF76DFD55
:100D20008DF8085007A802AB012202A900900C2000
:100D3000FFF7A0FC064656B9BDF81C00102806D1E6
:100D40009DF8080020709DF80900607000E0FE2604
:100D5000F0B208B070BD000010B500248021224818
:100D6000FFF756FC0A20FFF705FB80211E48FFF71E
:100D70004DFC0A20FFF7FEFA80211B48FFF748FCD4
:100D80000A20FFF7F7FA0F210120FFF743FD06E0E5
:100D9000601C84B2B4F5FA7F01DDFE2010BD012095
:100DA000FFF702FD00F00F000028F1D10120FFF74E
:100DB000E1FA3D211120FFF72DFD1E212D20FFF727
:100DC00029FD00212C20FFF725FD8D212A20FFF78A
:100DD00021FD3E212B20FFF71DFD40211520FFF7AF
:100DE00019FD0020DAE700000000024070B588B06D
:100DF000054693208DF8080070208DF8090000202A
:100E00008DF80E0000240BE0295D02AAA01C1154ED
:100E10009DF80E00295D48408DF80E00601CC4B29C
:100E2000042CF1DB0DF10F02072102A8FFF746FAAF
:100E300008210846FFF7D4FC07A802AB092202A943
:100E400000900C20FFF716FC06462EB9BDF81C00DA
:100E5000182801D1002600E0FE26304608B070BDFB
:100E6000F0B587B006460F46A0208DF804008DF837
:100E700005600DF10602022101A8FFF71FFA06A87E
:100E800001AB042201A900900C20FFF7F3FB0546FB
:100E90004DB9BDF81800042805D19DF8040000F0F4
:100EA0000F000A2800D0FE2515BB002404E0385DA1
:100EB00001A90855601CC4B2102CF8DB05AA10214A
:100EC00001A8FFF7FBF906A801AB122201A90090C7
:100ED0000C20FFF7CFFB05464DB9BDF818000428DC
:100EE00005D19DF8040000F00F000A2800D0FE256F
:100EF000284607B0F0BD70470EB50121080400F088
:100F000037F80020ADF80800ADF802004FF6FF708A
:100F100001905320ADF800006946044800F02AFA19
:100F20000121024800F003FA0EBD0000004001401C
:100F300029B1064A12680243044B1A6004E0034ACE
:100F400012688243014B1A6070470000303802403B
:100F500029B1064A12680243044B1A6004E0034AAE
:100F600012688243014B1A6070470000403802400B
:100F700029B1064A12680243044B1A6004E0034A8E
:100F800012688243014B1A607047000044380240E7
:100F9000F0B5002100220024022500260223324F52
:100FA0003F6807F00C0121B1042905D0082937D189
:100FB00005E02E4F076036E02D4F076033E02A4FE3
:100FC0003F1F3F68C7F38056274F3F1F3F6807F01A
:100FD0003F036EB1264FB7FBF3F7DFF88CC0ACF1DF
:100FE000040CDCF800C0CCF3881C07FB0CF40CE00C
:100FF0001E4FB7FBF3F7DFF870C0ACF1040CDCF860
:1010000000C0CCF3881C07FB0CF4174F3F1F3F6850
:10101000C7F301477F1C7D00B4FBF5F7076002E0D2
:10102000124F076000BF00BF0F4F3F6807F0F0018D
:101030000909104F7A5C0768D74047600A4F3F683C
:1010400007F4E051890A0B4F7A5C4768D740876004
:10105000054F3F6807F46041490B064F7A5C4768CB
:10106000D740C760F0BD0000083802400024F400FB
:1010700000127A001400002070B50546002406E036
:10108000601C84B2B4F5FA7F01DD002070BD02213E
:101090000E4800F029F80028F2D029460B4800F04D
:1010A0002FF8002406E0601C84B2B4F5FA7F01DD5D
:1010B0000020EBE70121054800F016F80028F2D0E7
:1010C000024800F01AF8C0B2E0E700000038004023
:1010D00021B1028842F04002028004E002884FF60B
:1010E000BF731A40028070470246002013890B40EC
:1010F0000BB1012000E0002070470146888970474D
:101100008181704710B50022028802F441520B8899
:101110004C8823438C882343CC8823430C89234366
:101120004C8923438C892343CC8923431A4302806F
:10113000838B4FF2FF74234083830B8A038210BD9D
:10114000704700000CB50020019000903348006803
:1011500040F480303149086000BF3048006800F436
:10116000003000900198401C0190009818B9019837
:10117000B0F5A04FF1D12948006800F4003010B15B
:101180000120009001E0002000900098012844D147
:1011900022484030006840F08050204940310860CB
:1011A0001F48006840F440401D4908601B48083053
:1011B00000681A4908310860084600680860084657
:1011C000006840F4805008601648091F0860081F36
:1011D000006840F08070091F086000BF0F48006879
:1011E00000F000700028F9D040F202700E4908604B
:1011F0000A480830006820F00300084908310860F8
:101200000846006840F00200086000BF034808304C
:10121000006800F00C000828F8D10CBD003802402E
:101220000070004008544107003C02407047000035
:1012300010B51548006840F4700013490860134861
:10124000006840F001001149086000200F49083192
:1012500008600E4800680E4908400C4908600D48B7
:10126000091D0860081F006820F48020091F08601D
:10127000002006490C310860FFF764FF4FF0006062
:1012800001498039086010BD88ED00E00038024057
:10129000FFFFF6FE1030002410B501210C4800F0CD
:1012A00055F898B101210A4800F03EF8002108489D
:1012B00000F03DF80021064800F059F820210548CB
:1012C000FFF79BF910B904A000F080F910BD0000F1
:1012D00000040040000002405265706169720A001B
:1012E00010B501210C4800F031F898B101210A48ED
:1012F00000F01AF80021084800F019F8002106480B
:1013000000F035F840210548FFF777F910B904A03F
:1013100000F05CF910BD0000000800400000024031
:1013200048656C700A000000CA430282704721B110
:10133000028842F00102028004E002884FF6FE7348
:101340001A40028070470146486A704730B502462D
:10135000002000230024158A05EA0103958905EA87
:10136000010413B10CB1012000E0002030BD416246
:101370007047000000220288184B98420ED0184B8C
:1013800098420BD0B0F1804F08D0164B984205D050
:10139000154B984202D0154B984204D14FF68F73EB
:1013A0001A404B881A43124B984207D0114B98426F
:1013B00004D04FF6FF431A400B891A4302804B6852
:1013C000C3620B880385054B984202D0044B9842B8
:1013D00001D18B7A0386012383827047000001408C
:1013E000000401400004004000080040000C0040E0
:1013F000001000400014004000B587B00121022019
:10140000FFF796FD072206212048FFF7D3F840207A
:10141000059002208DF8180000208DF81A00012098
:101420008DF81B0002208DF8190005A91748FFF759
:1014300079F807220A211648FFF7BCF84FF48060BC
:10144000059002208DF8180005A91148FFF76AF8E9
:1014500001211020FFF78CFD4FF4E13001900020B6
:10146000ADF80800ADF80A00ADF80C00ADF81000BA
:101470000C20ADF80E0001A9064800F037F8012154
:10148000044800F019F807B000BD00000004024055
:10149000000002400010014010B5044600BF80214A
:1014A000044800F015F80028F9D02146014800F062
:1014B00087F810BD0010014021B1828942F400522A
:1014C000828104E082894DF6FF731A408281704761
:1014D00002460020B1F5007F00D100BF13880B4009
:1014E0000BB1012000E00020704700002DE9FF470C
:1014F00005460E460024A14600BFA046B08900B1B3
:1015000000BF2C8A24F44054F08804432C82AC8918
:1015100041F20C608443B0883189084371890843E3
:101520000443AC81AC8A24F44074B0890443AC8297
:101530006846FFF72DFD2048854202D01F488542AE
:1015400002D1DDF80C9001E0DDF80890A88900F4E4
:10155000004040B109EBC90000EB091031684900B7
:10156000B0FBF1F707E009EBC90000EB09103168A7
:101570008900B0FBF1F76420B7FBF0F0040120090B
:10158000642101FB1078A88900F4004040B13220AA
:1015900000EBC800B0FBF1F000F00700044308E0E6
:1015A000322000EB08106421B0FBF1F000F00F00D6
:1015B00004432C81BDE8FF87001001400014014066
:1015C000C1F308028280704700BFFEE70FB4054BED
:1015D00010B503A9044A029800F018F810BC5DF891
:1015E00014FB0000611700083800002002E008C862
:1015F000121F08C1002AFAD170477047002001E08D
:1016000001C1121F002AFBD1704700002DE9FF4FD6
:1016100089B09B460446002506E025280BD05A4693
:101620000B999047641C6D1C20780028F5D10DB0F3
:101630002846BDE8F08F0027B8460122474900E060
:10164000074314F8013F203B02FA03F00842F7D1A8
:1016500020782E2819D114F8010F47F004072A2802
:101660000ED06FF02F022078A0F1300109290CD89C
:1016700008EB880102EB410100EB0108641CF2E772
:101680000A98641C50F8048B0A9020780028CED069
:10169000642808D0692806D075281ED05A460B99B0
:1016A00090476D1C58E00A994FF00A0901C90A9148
:1016B000002802DA40422D2102E0390504D52B2111
:1016C0008DF82010012103E0F90704D02021F7E76D
:1016D0008A4608AE0DE00021FAE70A994FF00A09A0
:1016E00001C90A91F7E74946FEF772FD303106F865
:1016F000011D0028F7D1ADEB060000F120097807A5
:1017000001D44FF00108C84502DDA8EB090000E054
:1017100000208046002706E008A85A46C05D0B99C5
:1017200090476D1C7F1C5745F6DB04E030205A467D
:101730000B9990476D1CB8F10001A8F10108F5DC88
:1017400005E016F8010B5A460B9990476D1CB9F14C
:101750000001A9F10109F4DC641C65E70928010016
:1017600070B504460D46E0B2FFF796FE204670BD08
:101770004FF47A70FEF7FEFD4FF4A060FFF7F0F92A
:10178000FFF73AFEFFF762F8FFF7B6FB0120FEF71E
:10179000CDFD09A0FFF71AFF0DE001210020FFF7A2
:1017A00071F9044621460AA0FFF710FF4FF47A7042
:1017B000FEF7BCFD00BFF0E7496E697469616C69B2
:1017C0007A652066696E69736865640A00000000C6
:1017D00025640A00F4170008000000203C00000007
:1017E000EC150008301800083C000020140400002C
:1017F000FC15000800BD010500000000000000000D
:1018000001020304060708090000000001020304A6
:101810000102030406070809000800080000000090
:101820000001020502FFFFFFFFFFFF0000000000B4
:040000050800019559
:00000001FF
