:020000040800F2
:10000000E05C0020AD0100088D200008491C0008BC
:10001000892000089B0B0008274200080000000010
:100020000000000000000000000000003D27000864
:100030005516000800000000152100088F3900083F
:10004000C7010008C7010008C7010008C701000870
:10005000C7010008C7010008C7010008C701000860
:10006000C7010008C7010008C7010008C701000850
:10007000C7010008C7010008C7010008C701000840
:10008000C7010008C7010008690900080000000056
:10009000000000000000000000000000F11900084E
:1000A000C7010008C7010008C7010008C701000810
:1000B000C7010008F9390008993A0008C70100088B
:1000C000C7010008C7010008C7010008C7010008F0
:1000D000C7010008C53D0008C70100080000000076
:1000E000C7010008C7010008C701000800000000A0
:1000F000000000000000000000000000C701000830
:1001000000000000C7010008C7010008C70100087F
:1001100000000000000000000000000000000000DF
:10012000C7010008FD130008C7010008C701000847
:10013000C7010008000000000000000000000000EF
:10014000000000000000000000000000C7010008DF
:1001500059140008B5140008DD140008C13F000858
:10016000C7010008C70100080000000000000000EF
:10017000000000000000000000000000000000007F
:1001800000000000C701000800000000000000009F
:10019000C7010008DFF810D000F0FCFA0048004763
:1001A0003D4D0008AFF30080E05C0020064880472A
:1001B00006480047FEE7FEE7FEE7FEE7FEE7FEE74C
:1001C000FEE7FEE7FEE7FEE791390008950100082B
:1001D00038B5D0E90221491E01EB410102EBC10112
:1001E0004268C1EB011102EB81010268C1EB011110
:1001F00002EB8102D0E9043101EB410103EB810103
:100200003023A1F5527191FBF3F4174D6C4302EBCF
:10021000C41291FBF3F403FB141100921A2902DBC0
:10022000124B1A4400920C2291FBF2F3104C6343E0
:10023000009C04EBC313009391FBF2F302FB131138
:100240000C4A08E0491E40F2A324535C6343009C1F
:1002500004EBC31300930029F4DC0146684600F068
:10026000B3F8009838BD00003F0C0F00805101002A
:1002700067C20300A655000840EA01039B0703D0AC
:1002800009E008C9121F08C0042AFAD203E011F8D5
:10029000013B00F8013B521EF9D2704730B50546CC
:1002A0002A460B4612F8010B13F8014B08B1A04285
:1002B000F8D01CB1002802D06D1CF1E7284630BDF3
:1002C000421C10F8011B0029FBD1801A704703461D
:1002D00011F8012B00F8012B002AF9D118467047BC
:1002E00000F0004230F000400AD0C10D01F560710D
:1002F000C0F3160042EA0151C2084007114370479B
:10030000002001467047000030B5041E71F1000462
:1003100004DB4FF00044404264EB0101141E73F112
:10032000000405DB1C464FF00043524263EB04031C
:10033000994208BF904230BD30B50B4601460020BF
:100340002022012409E021FA02F59D4205D303FA97
:1003500002F5491B04FA02F52844151EA2F1010218
:10036000F1DC30BD2DE9F05F0546002092469B464A
:1003700088460646814640241BE0284641464746BB
:10038000224600F028FA53465A46C01A914110D32B
:1003900011461846224600F00FFA2D1A67EB0108A5
:1003A0004F4622460120002100F006FA17EB000913
:1003B0004E41201EA4F10104DFDC484631462A46A6
:1003C0004346BDE8F09F000010B500683C22B0FB3A
:1003D000F2F302FB1303B0FBF2F00B60B0FBF2F39D
:1003E00002FB1303B0FBF2F018224B60B0FBF2F3F8
:1003F00002FB1303B0FBF2F0021D8B600723B2FB7C
:10040000F3F403FB1422800040F2B55300F66C3085
:100410008A61B0FBF3F2B0FBF3F403FB1400443247
:1004200080084A61C8613B2802D3920700D0401C73
:100430000022074C13460A61E25C824203D8801A0C
:100440005B1C0B61F8E7401CC860084610BD00004B
:10045000B25500082DE9FE4F804681EA0300C00F27
:100460000C46009021F0004123F00045B8EB02005B
:10047000A94105D24046214690461C460B460246FD
:1004800023F00040104347D0270DC7F30A00C3F301
:100490000A510290401A019040286BDAC3F313000E
:1004A00040F4801B0098924620B10023D2EB030A4F
:1004B00063EB0B0B01985946C0F14002504600F027
:1004C0007BF906460D4650465946019A00F093F9CD
:1004D00010EB08006141002487EA115284EAE773B7
:1004E0001A4340D0009A62B3019A012A4FEA075298
:1004F00015DC001B61EB02014FF0004202EA0752DB
:10050000CDE90042001C41F5801132462B4600F037
:1005100093F903B0BDE8F08F40462146F9E7001B90
:1005200061EB0201001C41F5801300185B412018AB
:10053000A2F5001747EB030140EAD570B6196D41EB
:1005400011E06D084FEA360645EAC0754FEA0752DA
:10055000001B61EB0201001C41F5801149084FEAC4
:1005600030000019514132462B4603B0BDE8F04F30
:1005700000F053B90098012240000023D0EB0202A2
:1005800063EBE073009821464FEAE074B8EB00009B
:1005900061EB0401E9E783F000435BE781F0004190
:1005A00058E72DE9FE4F81EA030404F0004421F0EE
:1005B000004100944FF0000B23F0004350EA010487
:1005C0005ED052EA03045BD0C3F30A54C1F30A5568
:1005D0002C44A4F2F3340194A0FB0254C1F31301A0
:1005E00041F48011C3F3130343F4801301FB02446D
:1005F00000FB034E840A970A44EA815447EA835772
:10060000A4FB076802958D0A05FB07854FEA932C2A
:1006100004FB0C542705029D4FEA065847EA16379B
:10062000B5EB08056EEB070C870E920E47EA8117B3
:1006300042EA8312A7FB0201B6EB0B0164EB000454
:100640002B0D43EA0C335E1844EB1C50DA4651463E
:10065000E7FB0201C5F313044FEA0B3343EA1453DB
:100660004FEA0432019C43EA0603A4F10C0402940D
:10067000009CCDE900B400F0DFF803B0BDE8F08FD6
:1006800000200146F9E72DE9F04D81EA030404F06A
:10069000004B21F0004514464FF0000A23F00041C2
:1006A00050EA050220D054EA01021DD0C5F30A57D2
:1006B0000246C5F31303C1F31300C1F30A5640F415
:1006C000801543F48013A7EB0608101BD64608F2EA
:1006D000FD3873EB050002D308F1010801E0921820
:1006E0005B41B8F1000F03DA00200146BDE8F08D50
:1006F00000204FF48011064684460EE0171B73EB72
:10070000050705D3121B63EB050306434CEA010CF6
:1007100049084FEA300092185B4150EA0107EDD1D9
:1007200052EA030012D082EA040083EA050108437A
:1007300005D0101BAB4106D20122002306E00022A7
:100740004FF0004302E06FF0010253101AEB060075
:100750004CEB085110EB0A0041EB0B01BDE8F04DEA
:1007600000F05BB8C1F30A52C1F3130140F2FF334A
:1007700041F480119A4202DA00200146704740F2AB
:1007800033439A42A2F2334202DC524200F023B8D1
:1007900000F012B8064C074D06E0E06840F0010397
:1007A00094E8070098471034AC42F6D3FFF7F6FC04
:1007B000C0550008E0550008202A04DB203A00FA62
:1007C00002F1002070479140C2F1200320FA03F3A8
:1007D000194390407047202A04DB203A21FA02F0A6
:1007E0000021704721FA02F3D040C2F1200291406B
:1007F000084319467047202A06DBCB17203A41FAF6
:1008000002F043EAE07306E041FA02F3D040C2F19D
:100810002002914008431946704710B5141E73F129
:10082000000408DA401C41F1000192185B411A43B0
:1008300001D120F0010010BD2DE9F04D92469B46FC
:1008400011B1B1FA81F202E0B0FA80F220329046A2
:10085000FFF7B2FF04460F4640EA0A0041EA0B01E7
:1008600053465A46084313D0114653EA010019D0A3
:10087000C8F140025046FFF7AEFF05460E4650460F
:1008800059464246FFF798FF084305D0012004E08F
:1008900020463946BDE8F08D0020054346EAE07663
:1008A0002C4337430A986305E40AA0EB08000022B2
:1008B000FD0A44EA47540A3002D500200146E9E720
:1008C000010510196941DDE9084500196941BDE8D4
:1008D000F04DA2E700220A12D3430360704721B112
:1008E000826842F00102826003E0826822F0010225
:1008F000826070470021084A1168084A1140D0E917
:1009000000231A4383681A43C3681A431143044AF5
:10091000C2F804137047000004230140E030FCFFDC
:100920000020014010B50121080201F053FC002114
:100930004FF4807001F04EFC10BD0146C86C80B2CF
:10094000704770B502460020002300240B12556842
:1009500001268E4005EA060415681D4015B10CB14C
:10096000012000E0002070BD10B540F205210E48C6
:10097000FFF7E7FFB8B140F205210B48FFF7AAFFE8
:100980000948FFF7DAFF0949094A127821F81200ED
:1009900007480078401C06490870084600780A2875
:1009A00001DB0020087010BD00200140B0000020D5
:1009B0003000002010B50B460021D9B2012404FA02
:1009C00001F11AB144680C43446002E044688C436E
:1009D000446010BD30B50246002000235068104C22
:1009E00020400D790C6844EA05242043506090684B
:1009F0000C4C2040D1E903542C438D682C434D7995
:100A000044EA450420439060D06A20F470000C7DD5
:100A1000641EE4B2234340EA0350D06230BD0000BC
:100A2000FFFEFFFCFDF7FFC0F0B504460D460020B9
:100A30000021092D11DDE068A5F10A0606EB460745
:100A4000072606FA07F18843A5F10A0606EB4606D3
:100A500003FA06F10843E0600CE0206905EB450766
:100A6000072606FA07F1884305EB450603FA06F167
:100A700008432061072A0FDA606B561E06EB8607D3
:100A80001F2606FA07F18843561E06EB860605FA6E
:100A900006F10843606322E00D2A0FDA206BD61FAF
:100AA00006EB86071F2606FA07F18843D61F06EBDA
:100AB000860605FA06F10843206310E0E06AA2F119
:100AC0000D0606EB86071F2606FA07F18843A2F1FA
:100AD0000D0606EB860605FA06F10843E062F0BD56
:100AE000816841F080418160704710B5044620461E
:100AF00000F001F810BD70B50446E6B22512284694
:100B000000F00AF8022000F0A7FD304600F004F8DB
:100B1000022000F0A1FD70BD70B504464FF4806165
:100B2000184801F08DF8052000F096FD00251DE025
:100B30004FF48061134801F083F804F0010020B104
:100B40000821104801F07EF803E008210D4801F06B
:100B500077F8C82000F0B0FD4FF48061094801F03B
:100B600071F8C82000F0A8FD64106D1C082DDFDBB3
:100B70004FF48061034801F065F80821014801F055
:100B800061F870BD0004024010B504464FF6E071F4
:100B9000214488B2FFF7AFFF10BD00BFFEE70000A1
:100BA00000B585B00121084601F0E4FA2020039049
:100BB00000208DF8100001208DF8130003A92A48A9
:100BC00000F0CAFF0121880301F0F4FA052100209A
:100BD00001F0B6FD2020019000208DF808000C20C7
:100BE0008DF8090001208DF80A0001A800F02EFF01
:100BF0000121084601F0BEFA4020039000208DF844
:100C0000100001208DF8130003A9174800F0A4FF7D
:100C10000121880301F0CEFA0621002001F090FDA9
:100C20004020019000208DF808000C208DF809006C
:100C300001208DF80A0001A800F008FF17208DF8A8
:100C4000000001208DF8010000208DF80200012035
:100C50008DF80300684601F01BFA02F0F3FE02F083
:100C600045FF05B000BD0000000002402DE9F04145
:100C700004460D4616461F463A4804703A48057029
:100C80003A4806803A480780012000F009FD3949BA
:100C9000394803F057FB39A13748FFF718FB3648AE
:100CA000FFF70EFB1FFA80F86421404603F0ACFB0F
:100CB00000F0EEF910B10120BDE8F081032000F052
:100CC000EFFC284802780021084600F0FFF908B13F
:100CD0000120F1E7012000F0E3FC2D492D4803F04D
:100CE000A5FA2DA12B48FFF7F2FA2A48FFF7E8FAF8
:100CF0001FFA80F86421404603F0F8FA00F054F837
:100D0000052000F0CDFC2348FFF7DAFA1FFA80F83F
:100D10006421404603F0EAFA00F046F8012000F0B2
:100D2000BFFC16A11B48FFF7D2FA1A48FFF7C8FA12
:100D30001FFA80F86421404603F0D8FA00F034F836
:100D400008B10120B8E7012000F0AAFC13A115A00A
:100D500000F048F808B10120AEE7012000F0A0FC47
:100D60000020A9E758000020590000205A00002068
:100D70005C000020C40C0020C408002041542B5506
:100D8000545F5245434F564552590D0A000000002A
:100D9000C4140020C41000203C2D3E005443504396
:100DA000000000005354410010B5ADF5806D0024E3
:100DB00012E0684600F04AF900B90CE008A1684664
:100DC000FFF76CFA18B100200DF5806D10BD012001
:100DD00000F042FC00BF641C052CEADB0120F3E7B5
:100DE0004F4B000070B5ADF5816D04460E465DA118
:100DF0006248FFF76CFA6148FFF762FA85B2642136
:100E0000284603F073FAFFF7CFFF18B101200DF564
:100E1000816D70BD5A485B4923465BA2CDE9001045
:100E20005CA102A803F01CFB02A95448FFF74FFA8B
:100E30005248FFF745FA85B26421284603F056FA76
:100E4000FFF7B2FF08B10120E1E757A358A25CA168
:100E500002A803F005FB02A94848FFF738FA474803
:100E6000FFF72EFA85B26421284603F03FFAFFF718
:100E70009BFF08B10120CAE753480088534954A397
:100E800055A2CDE9001058A102A803F0E9FA02A981
:100E90003A48FFF71CFA3948FFF712FA85B2642185
:100EA000284603F023FAFFF77FFF08B10120AEE7E1
:100EB00051A33FA242A102A803F0D2FA02A92F48EF
:100EC000FFF705FA2D48FFF7FBF985B264212846A4
:100ED00003F00CFAFFF768FF08B1012097E748A07C
:100EE000002349A24CA1009002A803F0B9FA02A97C
:100EF0002248FFF7ECF92148FFF7E2F985B26421B7
:100F0000284603F0F3F9FFF74FFF08B101207EE711
:100F100044A346A22AA102A803F0A2FA02A91748F4
:100F2000FFF7D5F91548FFF7CBF985B264212846BC
:100F300003F0DCF9FFF738FF08B1012067E73FA1B4
:100F40000E48FFF7C4F90D48FFF7BAF985B26421DE
:100F5000284603F0CBF9FFF727FF052000F07CFBC4
:100F6000002054E741542B55545F524553484F5786
:100F70003D44495341424C450D0A0000C410002035
:100F8000690000205E00002041542B574946493D2E
:100F900000000000257325732C25732C25732C4F1E
:100FA00050454E0D0A00000044495341424C450053
:100FB00041542B4554485F434831454E3D000000A5
:100FC000257325730D0A00008600002074000020A0
:100FD000544350430000000041542B4554485F43A4
:100FE0004831503D00000000257325732C25732CDB
:100FF00025640D0A00000000454E41424C450000AA
:10100000313233343536000041542B4554485F4368
:1010100048314854503D0000257325642C25730D3C
:101020000A000000544350554450000041542B55D1
:10103000545F574B4D4F44453D00000041542B55E4
:10104000545F52455345540D0A00000070B50546E3
:10105000642003F029F904460CB9204670BD2246ED
:1010600002492846FFF708F92046F7E7C414002094
:1010700070B505460C46224629460448FFF7FCF8A1
:101080006421204603F032F970BD0000C410002036
:1010900010B5ADF5806D002412E0684600F02EF921
:1010A00000B90CE008A16846FFF7F8F818B1002075
:1010B0000DF5806D10BD012000F0CEFA00BF641C5C
:1010C000052CEADB0120F3E74F4B0000F0B5ADF251
:1010D000044D04460D46164623465BA25EA101A8B8
:1010E00003F0BEF901A95E48FFF7F1F85C48FFF78D
:1010F000E7F887B26421384603F086F9FFF7C8FFA6
:1011000018B101200DF2044DF0BD5648037856A2E7
:1011100051A101A803F0A4F901A95148FFF7D7F89C
:101120004F48FFF7CDF887B26421384603F06CF9D9
:10113000FFF7AEFF08B10120E4E74F4803884FA254
:1011400052A101A803F08CF901A94548FFF7BFF8A7
:101150004348FFF7B5F887B26421384603F054F9E5
:10116000FFF796FF08B10120CCE74B4803884BA25C
:1011700046A101A803F074F901A93948FFF7A7F8BF
:101180003748FFF79DF887B26421384603F03CF9F1
:10119000FFF77EFF08B10120B4E7234643A246A132
:1011A00001A8009603F05CF901A92D48FFF78FF81C
:1011B0002B48FFF785F887B26421384603F024F9FD
:1011C000FFF766FF08B101209CE72B463EA222A153
:1011D00001A803F045F901A92148FFF778F8204854
:1011E000FFF76EF887B26421384603F00DF9FFF778
:1011F0004FFF08B1012085E737A11948FFF767F8CD
:101200001748FFF75DF887B26421384603F0FCF811
:10121000FFF73EFF08B1012074E7032000F040FA19
:1012200031A10F48FFF753F80D48FFF749F887B28F
:101230006421384603F0E8F8FFF72AFF08B10120DF
:1012400060E700205EE7000041542B5A4947425FA7
:10125000545950453D000000257325640D0A0000D7
:10126000C40800205900002041542B52465F4348D7
:10127000414E4E454C3D00005A00002041542B5A2F
:101280004947425F50414E49443D00002573253097
:1012900034580D0A000000005C00002041542B4E21
:1012A00045545F47524F555049443D0041542B55DA
:1012B000545F5549443D0000257325303258253090
:1012C00032580D0A0000000041542B5A4947425F32
:1012D00052584D4F44453D0041542B55545F5245A3
:1012E0005345540D0A00000041542B5A4947425FB0
:1012F0005354415455533D3F0D0A000070B5054607
:10130000642003F05FF804460CB9204670BD224605
:1013100002492846FEF7B0FF2046F7E7C40C00203C
:101320002DE9F041ADF5816D06460D4617461C4688
:10133000334621A225A102A8009503F091F802A945
:101340002648FEF7C4FF2548FEF7BAFF1FFA80F8CB
:101350006421404603F058F8FFF79AFE20B10120BF
:101360000DF5816DBDE8F08133461DA21FA102A8D5
:10137000009503F075F8224639460DF11B00FEF783
:101380007BFF0D2104F1130002AA11540A21401C15
:101390001154401C84B2224602A91048FEF76CFF8B
:1013A0006421204603F030F8FFF772FE08B10120F7
:1013B000D6E70020D4E7000041542B5A4947425F4A
:1013C000554944544F49443D0000000025732530E1
:1013D0003258253032580D0A00000000C4080020A1
:1013E00041542B55545F53454E443D0025733033D3
:1013F0002C25303258253032582C000010B51049B9
:10140000104800F0A9F8D0B10D490E4800F07AF864
:101410000D480088B0F5806F03DD4FF480600A4905
:10142000088009480288094909480068FEF724FF36
:101430000120084908700121024800F07DF810BD24
:10144000008800102864024052000020C4040020DC
:10145000540000205000002010B51049104800F042
:101460007BF8D0B10D490E4800F04CF80D480088CB
:10147000B0F5806F03DD4FF480600A4908800948A9
:101480000288094909480068FEF7F6FE012008496C
:1014900008700121024800F04FF810BD00880020BC
:1014A000886402404A000020C40000204C00002054
:1014B0004800002010B50649064800F04DF830B14C
:1014C0000349044800F01EF801200349087010BDCC
:1014D00000802020A06402405100002010B5064981
:1014E000064800F039F830B10349044800F00AF822
:1014F00001200349087010BD00800028B864024034
:10150000490000200246094B9A4201D2084801E0F6
:101510000648103801F000531BB1064B0B40C36066
:1015200002E0044B0B4083607047000010640240EF
:10153000006002407D0F7D0F21B1026842F0010280
:10154000026003E0026822F0010202607047014677
:10155000486880B27047000070B502460020002441
:101560000025124EB24201D2114B01E00F4B103B4D
:10157000104E0E4036B11E2606EAD124166806EA41
:10158000040502E0566906F0800501F000560EB130
:101590005C6800E01C68084E344004EA010616B19D
:1015A0000DB1012000E0002070BD00001064024079
:1015B000006002403C0F3C0F7D0F7D0F10B501F025
:1015C00080034BB122B1436943F08003436103E0E0
:1015D000436923F08003436180290BD02AB103685B
:1015E00001F01E042343036004E0036801F01E04BD
:1015F000A343036010BD000010B500220268134B26
:101600001A40CC680B6823434C6923438C692343FD
:10161000CC6923430C6A23434C6A23438C6A2343DB
:101620004C6B23438C6B23431A430260426922F0C4
:101630000702D1E90B3423431A4342610B6943602B
:101640004B6883608B68C36010BD00003F801CF056
:101650004160704770470000104A12684FF47A7377
:10166000B2FBF3F24243D2084FF0E0235A6100226A
:101670009A6101221A611A46116902E04FF0E022D4
:10168000116901F001021AB101F48032002AF5D08B
:1016900000224FF0E0231A619A6170470000002099
:1016A00010B5044603E04FF47A70FFF7D5FF201E13
:1016B000A4F10104F7D110BD104A1268104BB2FB1F
:1016C000F3F24243D2084FF0E0235A6100229A61BC
:1016D00001221A611A46116902E04FF0E0221169F5
:1016E00001F001021AB101F48032002AF5D0002283
:1016F0004FF0E0231A619A6170470000000000205B
:1017000040420F0070B5002419E004F1B001C8B2E6
:10171000012100F025FB0121002000F021FB012127
:10172000102000F01DFB002505E00021084600F018
:1017300017FB681CC5B2802DF7DB601CC4B2082CF7
:10174000E3DB70BD1CB50121022000F013FD8020F9
:10175000009001208DF804008DF806008DF8070038
:101760008DF8050069460F4800F0F6F980210D4814
:1017700000F068FA0121022000F0FCFC40200090FB
:1017800001208DF804008DF806008DF807008DF813
:1017900005006946034800F0DFF94021014800F0E8
:1017A00051FA1CBD0004024010B5FFF7CBFF012029
:1017B000FFF752FFC820FFF74FFF0121AE2000F0D6
:1017C000CFFA0121002000F0CBFA0121102000F017
:1017D000C7FA0121402000F0C3FA0121B02000F037
:1017E000BFFA0121812000F0BBFA0121FF2000F0A7
:1017F000B7FA0121A02000F0B3FA0121A62000F0E1
:10180000AFFA0121A82000F0ABFA01211F2000F05F
:10181000A7FA0121C02000F0A3FA0121D32000F093
:101820009FFA0121002000F09BFA0121D52000F051
:1018300097FA0121002000F093FA0121D92000F04D
:101840008FFA01211F2000F08BFA0121DA2000F02D
:1018500087FA0121022000F083FA0121DB2000F049
:101860007FFA0121302000F07BFA01218D2000F069
:1018700077FA0121142000F073FA0121AF2000F063
:101880006FFAFFF73FFF10BD70B504460D4605F136
:10189000B001C8B2012100F063FA102141EA14102E
:1018A000012100F05DFA04F00F00012100F058FA68
:1018B00070BD00002DE9F04707460E469046994658
:1018C00000250024A8F12000C5B2B9F1010F2CD1E8
:1018D0005F2D00DB0025782F00DD0027022E00DDC4
:1018E000002631463846FFF7CFFF002408E01E49A6
:1018F00001EB0511085D002100F032FA601CC4B252
:10190000082CF4DB701CC1B23846FFF7BDFF082479
:1019100008E0154901EB0511085D002100F020FAEF
:10192000601CC4B2102CF4DB1BE05C2D00DB002536
:101930007A2F00DD0027032E00DD002631463846D1
:10194000FFF7A2FF00240AE005EB4501074A02EB7E
:101950004101085D002100F003FA601CC4B2062CAE
:10196000F2DBBDE8F0870000B64F00088E4D00089E
:101970002DE9F04705460E4617469846DDF82090BB
:101980000024B9F1010F19D113E03A5D4B463146FD
:101990002846FFF78FFF05F10800C5B2782D02DD5C
:1019A0000025B01CC6B2022E01DDBDE8F087601C28
:1019B000C4B2385DC8B14445E7DB16E011E03A5DDA
:1019C0004B4631462846FFF775FFA81DC5B27A2D54
:1019D00002DD0025701CC6B2032E00DDE5E7601CA9
:1019E000C4B2385D08B14445E9DB00BFDDE7000063
:1019F00010B5202000F01EF830B1202000F014F8BF
:101A00000121074802F09FF8402000F013F830B1A0
:101A1000402000F009F80121024802F094F810BDBE
:101A200000040040000800400149086070470000C1
:101A3000143C014001460020034A12680A400AB1E2
:101A4000012000E000207047143C014000212349A0
:101A50008279002A3AD00A46126803689A430B46F4
:101A60001A600A1D126803689A430B1D1A600279F6
:101A700011440A6803681A430A60184A0832126857
:101A800003689A43154B08331A601A1D12680368DD
:101A90009A43124B0C331A604279102A0ED11A1F46
:101AA000126803681A430D4B08331A601A1D126836
:101AB00003681A43094B0C331A600DE00749427959
:101AC00011440A6803681A430A6005E00279114468
:101AD0000A6803689A430A6070470000003C0140AE
:101AE0000148007870470000240000201CB5012147
:101AF000084600F03FFB0820009001208DF804000C
:101B000000208DF8060002208DF8070000208DF8D7
:101B100005006946014800F01FF81CBD00000240A6
:101B200010B50120034908700821034800F08AF825
:101B300010BD0000240000200000024010B500206D
:101B4000034908700821034800F07AF810BD00002E
:101B50002400002000000240F0B50A4600210023C6
:101B6000002400BF3DE0012505FA01F3156805EAF0
:101B700003049C4234D105684F000326BE40B543A0
:101B8000056015794E00B540066835430560157946
:101B9000012D02D01579022D16D185684F0003263C
:101BA000BE40B543856055794E00B54086683543E3
:101BB0008560456801268E40B54345604568967945
:101BC0008E40B6B235434560C5684F000326BE401F
:101BD000B543C560D5794E00B540C6683543C5608C
:101BE000491C1029BFD3F0BDF0B5002300244D07D8
:101BF000ED0E02FA05F3CE1000F1200555F826503F
:101C00004E07F70E0F26BE40B543CF1000F1200659
:101C100046F82750CE1000F1200555F8265045EA29
:101C20000304CE1000F1200545F82640F0BD024621
:101C3000002013690B400BB1012000E00020704729
:101C4000418370470183704700BFFEE710B5002451
:101C500080211148FFF7F6FF0120FFF72DFD4021FD
:101C60000D48FFF7EFFF0120FFF726FD07E0601C9E
:101C7000C4B2FA2C03DD00F02BF8012010BD802146
:101C80000548FFF7D4FF0028F1D140210248FFF7B3
:101C9000D7FF0020F2E700000004024010B58021C9
:101CA0000A48FFF7CFFF40210848FFF7CBFF01208C
:101CB000FFF702FD80210548FFF7C2FF0120FFF773
:101CC000FBFC40210148FFF7BBFF10BD00040240B0
:101CD00010B540210A48FFF7B3FF80210848FFF7FD
:101CE000AFFF0120FFF7E8FC40210548FFF7AAFFFE
:101CF00080210348FFF7A6FF0120FFF7DDFC10BDA0
:101D00000004024070B5044640211448FFF798FFD4
:101D1000002520E004F08000802804D180210F48B5
:101D2000FFF790FF03E080210C48FFF789FF600672
:101D3000040E0120FFF7C0FC40210848FFF782FF96
:101D40000120FFF7B9FC40210448FFF779FF01208B
:101D5000FFF7B2FC6D1C082DDCDB70BD00040240F7
:101D600070B506460D46012D01D1002400E0402447
:101D7000FFF794FF7820FFF7C5FFFFF767FF08B173
:101D8000012070BD2046FFF7BDFFFFF75FFF08B1E0
:101D90000120F6E73046FFF7B5FFFFF757FF08B120
:101DA0000120EEE7FFF794FF0020EAE770B5044654
:101DB0000D462146002000F037FB2946002000F0A8
:101DC00059FB70BD00B58DB0694601A8FFF7EEFF65
:101DD0009DF80700643007909DF80500401E0690AE
:101DE0009DF8060005909DF8000004909DF8010004
:101DF00003909DF80200029000200A9002A8FEF7CE
:101E0000E7F90DB000BD00B585B00121080700F06D
:101E1000C1F9012000F078F9012000F07FFA00BF3D
:101E2000412000F05BFA0028FAD04FF4807000F0F7
:101E300091FA012000F088FA00F042FC002000F046
:101E40006FFC00F0BFFA7C200390FE20049000207D
:101E5000029002A800F036FB16208DF8070005203E
:101E60008DF805001E208DF8060001208DF8040075
:101E700001A9002000F058FB08208DF80000002088
:101E80008DF801008DF802008DF80300694600F01E
:101E9000AFFB00F0BFFA012000F042FC002000F090
:101EA00033F905B000BD70B504460D4601210807A1
:101EB00000F070F9012000F027F92146002000F021
:101EC00033FB2946002000F093FB002000F01CF9B2
:101ED00070BD30B5039C08700012107000121870AD
:101EE0000012207030BD000070B50024012115489B
:101EF000FEF7F5FC002506E01248FEF7F1FD012093
:101F0000FFF7DAFB6D1C0A2DF6DB002005E00E4919
:101F100031F8101021448CB2401C0A28F7DB002154
:101F20000848FEF7DCFC00EE104AB8EE400A07480D
:101F3000D0ED000A60EE200AB2EE041A80EE810AAB
:101F400070BD000000200140B00000202C000020E7
:101F500000B52DED028B8DB0B0EE408A294880EDA2
:101F6000008A0121042000F005F904200B900320D1
:101F70008DF8300000208DF833000BA92248FFF7C0
:101F8000EBFD0121080200F015F9FEF7CBFC002063
:101F900007904FF440300890002009904FF42060E3
:101FA0000A9007A8FEF7A6FC002001908DF8080013
:101FB0008DF809000390059001208DF8180001A903
:101FC0001248FEF707FD01231A460C210F48FEF7C1
:101FD0002BFD12208DF8000003208DF80100002059
:101FE0008DF8020001208DF80300684600F050F8DB
:101FF000012240F205210548FEF7DCFC0DB0BDECE6
:10200000028B00BD28000020000802400020014093
:102010000148007870470000250000201CB5012110
:10202000084600F0A7F81020009001208DF8040069
:1020300000208DF8060002208DF8070000208DF8A2
:10204000050069460148FFF787FD1CBD00000240FE
:1020500010B501200349087010210348FFF7F2FD75
:1020600010BD0000250000200000024010B5002037
:102070000349087010210348FFF7E2FD10BD00007E
:10208000250000200000024000BFFEE7704700006E
:1020900070B5002100230F22C4781CB3174C2468AC
:1020A00004F4E064C4F5E064C4F30721C1F104045E
:1020B000E3B20A4144789C40E1B284781440214361
:1020C0000C07210E0E4C05786155047804F01F05AD
:1020D0000124AC4005786D11AD0005F1E025C5F88F
:1020E000004109E0047804F01F050124AC40054DCF
:1020F0000678761145F8264070BD00000CED00E032
:1021000000E400E080E100E001490862704700005F
:1021100000000E42704700001CB50121084600F087
:1021200029F80220009000208DF8040001208DF88D
:10213000070069460148FFF70FFD1CBD0000024083
:102140001CB50121084600F015F80220009001207E
:102150008DF8040000208DF8060002208DF805009F
:1021600001208DF8070069460148FFF7F5FC1CBD0A
:102170000000024029B1064A12680243044B1A606B
:1021800004E0034A12688243014B1A607047000062
:102190003038024029B1064A12680243044B1A60E3
:1021A00004E0034A12688243014B1A607047000042
:1021B0004038024029B1064A12680243044B1A60B3
:1021C00004E0034A12688243014B1A607047000022
:1021D0004438024029B1064A12680243044B1A608F
:1021E00004E0034A12688243014B1A607047000002
:1021F00024380240F0B500210022002402250026E8
:102200000223324F3F6807F00C0121B1042905D0A9
:10221000082937D105E02E4F076036E02D4F0760C3
:1022200033E02A4F3F1F3F68C7F38056274F3F1FB9
:102230003F6807F03F036EB1264FB7FBF3F7DFF8B7
:102240008CC0ACF1040CDCF800C0CCF3881C07FB9C
:102250000CF40CE01E4FB7FBF3F7DFF870C0ACF1E5
:10226000040CDCF800C0CCF3881C07FB0CF4174FFF
:102270003F1F3F68C7F301477F1C7D00B4FBF5F7A4
:10228000076002E0124F076000BF00BF0F4F3F68BA
:1022900007F0F0010909104F7A5C0768D7404760E2
:1022A0000A4F3F6807F4E051890A0B4F7A5C476890
:1022B000D7408760054F3F6807F46041490B064FE0
:1022C0007A5C4768D740C760F0BD0000083802401C
:1022D0000024F40000127A001400002010B501461A
:1022E0000022002300204A11012A02D10A4C23684F
:1022F00008E0022A03D1084C7034236802E0064C3F
:102300007434236801F01F02012494401C400CB176
:10231000012000E0002010BD003802400021094AE1
:1023200011701170012802D0042808D103E00121A6
:10233000044A117004E00521024A117000E000BF58
:1023400000BF7047703802400149086070470000C4
:102350003C0E4742002100F44072B2F5407F08D1A4
:10236000094A116821F4F811084A02401143064A4B
:102370001160054A68321268C0F30B031A43024B1E
:1023800068331A607047000008380240FFFCFF0FF6
:10239000014600BF080900EB8000420001F00F0079
:1023A0001044C0B270470146002204E0501CC2B283
:1023B000A1F10A00C1B20A29F8DA100741EA106057
:1023C0007047000008B50022009200200021104A4A
:1023D000126802F04002CAB9421E0D4B1A6000BFDB
:1023E0000B4A126802F04001009A521C0092009AB7
:1023F000B2F5803F01D00029F2D0054A126802F000
:1024000040020AB1012002E0002000E0012008BDE6
:102410000C2800400348006820F080000149086053
:10242000704700000C28004070B506460C46002599
:102430000E4800680E4900EA0105280CE070C5F35B
:102440000420607005F03F00A070C5F3423020709A
:102450005EB9E078FFF79CFFE0706078FFF798FFC7
:102460006070A078FFF794FFA07070BD0428004052
:102470003FFFFF0070B506460C4600250F48006878
:102480000F4900EA0105C5F305402070C5F3062099
:10249000607005F07F00A07005F48000000CE07013
:1024A0005EB92078FFF774FF20706078FFF770FF47
:1024B0006070A078FFF76CFFA07070BD002800402E
:1024C0007F7F7F0030B504460025CA20154908608B
:1024D00053200860FFF776FF00B91DE011481C3853
:1024E000006820F040000F491C3908600846006869
:1024F000216808430B491C3908600A491439A0684F
:10250000086008460068A18840EA0140054914397E
:102510000860FFF77FFF0125FF2002490860284679
:1025200030BD0000242800402DE9F04105460C464E
:10253000002600274DB9607800F01000102804D163
:10254000607820F010000A30607005B908E060780B
:10255000FFF71EFF0646A078FFF71AFF064600BFEA
:1025600055B1E0780004617840EA0120A178084381
:10257000217840EA413611E0E078FFF714FF4FEA96
:1025800000486078FFF70FFF48EA0028A078FFF7BF
:102590000AFF48EA0008207848EA4036CA20124973
:1025A000086053200860FFF70DFF08B9002714E00A
:1025B0000E4830400C4920390860FFF72BFF0A48CD
:1025C0001C38006800F0200030B900F079F808B934
:1025D000002702E0012700E00127FF2002490860F0
:1025E0003846BDE8F0810000242800403FFFFF008E
:1025F0002DE9F04105460C46002600274DB92E482E
:10260000006800F0400000B102E00020E07000BF70
:102610000DE02948006800F0400020B12078FFF765
:10262000B7FE064602E00020E07000BF00BF55B1D3
:1026300020780004617840EA0120A1780843E1781D
:1026400040EA014611E02078FFF7ADFE4FEA00486E
:102650006078FFF7A8FE48EA0028A078FFF7A3FEFD
:1026600048EA0008E07848EA0046CA2012491C31CE
:10267000086053200860FFF7A5FE08B9002713E0A3
:102680000E4830400C4908390860FFF7C3FE0A487D
:10269000006800F0200030B900F012F808B90027F7
:1026A00002E0012700E00127FF2003491C310860F8
:1026B0003846BDE8F0810000082800407F7F7F0099
:1026C00008B50022009200200021CA22134B1A6094
:1026D00053221A60114A183A126822F0A0020F4BD6
:1026E000183B1A6000BF0D4A183A126802F0200128
:1026F000009A521C0092009AB2F5003F01D00029C6
:10270000F1D0064A183A126802F020020AB10120FC
:1027100000E00020FF22014B1A6008BD2428004081
:1027200018B1FF21044A116004E0CA21024A116075
:1027300053211160704700002428004070470000BA
:1027400030B500228B071C0F0F2303FA04F20B4B4A
:102750008C1053F824309343084C8D1044F82530E6
:1027600023468C1053F824308C07240F00FA04F40D
:102770002343024C8D1044F8253030BD0838014009
:1027800010B50024FFF7C8FC04E0601CC4B20120AF
:10279000FEF792FF02210848FFF749FA08B12D2CF5
:1027A000F3DD2D2C01DD012010BDC4F59170FEF785
:1027B00083FF0020F8E700000000024010B500F0A1
:1027C00039F9FFF7DDFFCC2000F070F9DD2000F0D3
:1027D0006DF900F01FF91049088000F01BF90E494F
:1027E000097840EA01200C49088000F013F90B49F0
:1027F000088000F00FF90949097840EA01200749EB
:10280000088000F017F9FFF7BBFFCC2000F04EF96D
:10281000102000F04BF910BD4400002046000020BD
:102820002DE9F0412DED028B00F004F9FFF7A8FF30
:10283000CC2000F03BF9BD2000F038F900F0EAF8B8
:10284000074600F0E7F805462E4647EA062006B29E
:1028500006EB86014800C11700EB1161091201F572
:10286000C87600F0D7F8074600F0D4F805462C46A5
:1028700047EA042423480088201A4FF4167148437D
:10288000214909881F4A1288891A90FBF1F000F546
:102890009674A6F1FA0000EBC00101EB0010642170
:1028A00090FBF1F0044400EE104AB8EEC00AF2EEDC
:1028B000040A80EE201A154880ED001A0068FDF722
:1028C0000FFD9FED130B53EC102BFDF71DFD05D2F3
:1028D0009FED110A0D4880ED000A0BE00B4890EDCA
:1028E000000AB5EEC00AF1EE10FA03D29FED0B0A12
:1028F00080ED000A054890ED000ABDEC028BBDE8B2
:10290000F081000046000020440000203800002034
:102910009A99999999F95840CDCCC7420000000086
:1029200070B500F087F8FFF72BFFCC2000F0BEF861
:10293000BD2000F0BBF800F06DF8054600F06AF825
:102940000646344645EA042004B204EB84014800FC
:10295000C11700EB1161091201F5C87400EE104AAD
:10296000B8EEC00AF2EE040A80EE201A024880EDAA
:10297000001A90ED000A70BD3400002010B52DED56
:10298000028BFFF71BFFFFF7CBFFB0EE408AFFF78C
:1029900015FFFFF745FFF0EE408A0B4890ED000A67
:1029A000B4EEC08AF1EE10FA07DC084890ED000A98
:1029B000F4EEC08AF1EE10FA03DD0120BDEC028BCB
:1029C00010BD0020FAE700003C000020400000207D
:1029D00010B5FFF7B5FB02210D48FFF731F90220D2
:1029E000FEF76AFE02210A48FFF72CF9FFF794FB75
:1029F0000820FEF761FE02210548FFF718F908B12B
:102A0000012400E000243220FEF756FE204610BDCF
:102A10000000024070B50025002607E0FFF7D8FF50
:102A20000446E00140EA6500C5B2761C082EF5DBDD
:102A3000284670BD10B5FFF783FB02210748FFF75A
:102A4000FFF84FF47070FEF737FE02210348FFF7DE
:102A5000F9F80F20FEF730FE10BD00000000024024
:102A600010B50446FFF76CFB74B102210E48FFF766
:102A7000E7F80520FEF720FE02210B48FFF7E2F8F9
:102A80003C20FEF719FE0DE002210748FFF7D8F8B9
:102A90003C20FEF711FE02210348FFF7D3F8052082
:102AA000FEF70AFE10BD00000000024070B50446AB
:102AB000002606E004F0010564102846FFF7D0FF69
:102AC000761C082EF6DB70BD0CB50020019000903E
:102AD0003348006840F480303149086000BF304816
:102AE000006800F4003000900198401C01900098AC
:102AF00018B90198B0F5A04FF1D12948006800F449
:102B0000003010B10120009001E0002000900098FA
:102B1000012844D122484030006840F080502049CC
:102B2000403108601F48006840F440401D4908607B
:102B30001B48083000681A490831086008460068D8
:102B400008600846006840F4805008601648091F75
:102B50000860081F006840F08070091F086000BF0F
:102B60000F48006800F000700028F9D040F20270B1
:102B70000E4908600A480830006820F00300084940
:102B8000083108600846006840F00200086000BF95
:102B900003480830006800F00C000828F8D10CBD8C
:102BA000003802400070004008544107003C0240D9
:102BB00000B52DED028B89B06249081FFFF7F6F8CA
:102BC0006048401F80795F49491F49795D4A521F1B
:102BD000D278CDE9002102905A48401F83780279CB
:102BE00059A103A801F03CFC0020162303AA0146CA
:102BF0000090FEF7BDFE5348401F007E00F0040029
:102C0000042804D156A103A801F02AFC03E056A130
:102C100003A801F025FC0020162303AA014600901A
:102C20004E20FEF7A5FE52A103A801F019FC0120D9
:102C3000032303AA014600900020FEF799FE4DA150
:102C400003A801F00DFC0120162303AA0146009001
:102C50001820FEF78DFE3B48401F007E00F010005C
:102C6000102811D13748401F90ED040A10EE101AB9
:102C70000846FDF735FB41EC180B53EC182B41A12E
:102C800003A801F0EDFB10E02E48401F90ED040A70
:102C900010EE101A0846FDF723FB41EC180B53EC1D
:102CA000182B3AA103A801F0DBFB0020162303AA8E
:102CB00003210090FEF75CFE2248401F007E00F0DA
:102CC0000800082811D11F48401F90ED040A10EE9B
:102CD000101A0846FDF704FB41EC180B53EC182BB7
:102CE0002CA103A801F0BCFB10E01648401F90ED9A
:102CF000040A10EE101A0846FDF7F2FA41EC180B20
:102D000053EC182B26A103A801F0AAFB00201623E0
:102D100003AA032100903020FEF72AFE0948401F35
:102D2000827E22A103A801F09BFB0020162303AAA8
:102D3000032100906C20FEF71BFE09B0BDEC028B56
:102D400000BD0000C91800202530326425303264EF
:102D50002530326420253032643A25303264200038
:102D600057617465724F4E004E6F57617465720003
:102D7000202020004E4545442048454C502120202D
:102D80002000000046616E204F4E200046616E20FC
:102D90004F4646004C69676874204F4E2000000083
:102DA0004C69676874204F464600000025640000A7
:102DB00000B52DED028B89B07849081FFEF7F6FFAC
:102DC0007648401F80797549491F4979734A521FD7
:102DD000D278CDE9002102907048401F83780279B3
:102DE0006FA103A801F03CFB0020162303AA0146B3
:102DF0000090FEF7BDFD6948401F007E00F0040012
:102E0000042804D16CA103A801F02AFB03E06CA103
:102E100003A801F025FB0020162303AA0146009019
:102E20004E20FEF7A5FD68A103A801F019FB0120C3
:102E3000032303AA014600900020FEF799FD634991
:102E4000087800EBD0714910A0EB410189B95348D3
:102E5000401F90ED030A10EE101A0846FDF740FAE5
:102E600041EC180B53EC182B59A103A801F0F8FA08
:102E700010E04A48401F90ED040A10EE101A084670
:102E8000FDF72EFA41EC180B53EC182B54A103A8B4
:102E900001F0E6FA0120162303AA0146009018204B
:102EA000FEF766FD3D48401F007E00F01000102830
:102EB00011D13A48401F90ED040A10EE101A08464E
:102EC000FDF70EFA41EC180B53EC182B48A103A8A0
:102ED00001F0C6FA10E03148401F90ED040A10EEF0
:102EE000101A0846FDF7FCF941EC180B53EC182BAF
:102EF00041A103A801F0B4FA0020162303AA03217C
:102F00000090FEF735FD2548401F007E00F00800C8
:102F1000082811D12148401F90ED040A10EE101A24
:102F20000846FDF7DDF941EC180B53EC182B34A1E2
:102F300003A801F095FA10E01848401F90ED040A2C
:102F400010EE101A0846FDF7CBF941EC180B53ECC4
:102F5000182B2EA103A801F083FA0020162303AA40
:102F6000032100903020FEF703FD0C48401F827EB5
:102F700029A103A801F074FA0020162303AA032153
:102F800000906C20FEF7F4FC10480078401C0F49BC
:102F9000087009B0BDEC028B00BD0000C91800200C
:102FA00025303264253032642530326420253032B9
:102FB000643A25303264200057617465724F4E00C8
:102FC0004E6F57617465720020202000AE00002013
:102FD00054656D703A20252E3266202000000000D6
:102FE00048756D3A20252E32662020200000000012
:102FF00046616E204F4E200046616E204F464600CF
:103000004C69676874204F4E200000004C69676867
:1030100074204F46460000002564000000B52DEDE9
:10302000028B89B06249081FFEF7C0FE6048401F4E
:1030300080795F49491F49795D4A521FD278CDE9AD
:10304000002102905A48401F8378027959A103A8B1
:1030500001F006FA0020162303AA01460090FEF7AD
:1030600087FC5348401F007E00F00400042804D170
:1030700056A103A801F0F4F903E056A103A801F05A
:10308000EFF90020162303AA014600904E20FEF718
:103090006FFC52A103A801F0E3F90120022303AA67
:1030A000014600900020FEF763FC4DA103A801F04B
:1030B000D7F90120162303AA014600900820FEF745
:1030C00057FC3B48401F007E00F01000102811D133
:1030D0003748401F90ED040A10EE101A0846FDF71D
:1030E000FFF841EC180B53EC182B41A103A801F099
:1030F000B7F910E02E48401F90ED040A10EE101AA8
:103100000846FDF7EDF841EC180B53EC182B3AA1EB
:1031100003A801F0A5F90020162303AA03210090BB
:10312000FEF726FC2248401F007E00F00800082819
:1031300011D11F48401F90ED040A10EE101A0846E6
:10314000FDF7CEF841EC180B53EC182B2CA103A87B
:1031500001F086F910E01648401F90ED040A10EEC9
:10316000101A0846FDF7BCF841EC180B53EC182B6D
:1031700026A103A801F074F90020162303AA032155
:1031800000903020FEF7F4FB0948401F827E22A108
:1031900003A801F065F90020162303AA032100907B
:1031A0006C20FEF7E5FB09B0BDEC028B00BD000012
:1031B000C91800202530326425303264253032644D
:1031C00020253032643A253032642000576174651E
:1031D000724F4E004E6F57617465720020200000E0
:1031E000446576696365204661696C757265210086
:1031F00046616E204F4E200046616E204F464600CD
:103200004C69676874204F4E200000004C69676865
:1032100074204F46460000002564000010B5184891
:10322000407E00F01000102800D110BDFFF7A6FB73
:1032300088B1FEF755FC28B90020FDF756FC0A209E
:10324000FEF70AFAFEF76CFC0D48007E40F0100015
:103250000B49087611E0FEF743FC012805D1002058
:10326000FDF743FC0A20FEF7F7F9FEF767FC044878
:10327000007E20F010000249087600BFD5E700006C
:10328000C41800200448007E00F0010008B10120AD
:1032900070470020FCE70000C41800200448007EAE
:1032A00000F00200022801D1012070470020FCE755
:1032B000C41800202DE9F041ADF5806D05460024CD
:1032C0000026FEF77FFD074600BF6846FDF7BEFEFD
:1032D0000446002C68D09DF8000024285AD1E01E36
:1032E0001DF80000242855D19DF8010036490978C1
:1032F000884259D19DF80200334908769DF80300B1
:1033000048769DF80410304801719DF805108170D1
:103310009DF80610C1709DF807002B4948709DF874
:10332000080048719DF80910274881719DF80A101E
:10333000C1719DF80B1001729DF80C80002016E001
:103340000E2101EB40111DF8012000210CE00D239E
:1033500003EB40130B441DF80330DFF870C00CEB97
:10336000822C0CF80130491C2029F0DB401C404520
:10337000E6DB1748027817A1184801F071F804211C
:103380001648FDF775FE012601201549087000F06A
:1033900039FA09E00E48027812A1144801F060F8E9
:1033A00004211248FDF764FEFEF70CFDC01BA84285
:1033B00003D90DF5806DBDE8F081002C85D0012E7C
:1033C00083D100BFF5E70000C4180020E0180020FA
:1033D000880000202425634124000000E0500020E4
:1033E000AD0000202425634E24000000E05400209E
:1033F0002DE9F047ADF5806D05460026002743E036
:103400004FF00008FEF7DEFC8146C24600BF68466A
:10341000FDF774FF8046B8F1000F26D09DF800003C
:10342000242822D19DF8170024281ED19DF80140A0
:103430002248005DC8B9224901EB84201822694660
:10344000FCF71AFF01201F49085522461EA12048FB
:1034500001F006F804231E4A21460120FDF760FF13
:103460004FF0010A01201B490870FEF7ABFCA0EBEE
:103470000900A84200D905E0B8F1000FC7D0BAF1A1
:10348000010FC4D100BF7F1C1348807E401CB8428E
:10349000B6DC0A480021016081808171012004E0CE
:1034A0000849095C3144CEB2401C0728F8DB0A48C1
:1034B00086760DF5806DBDE8F0870000970000204E
:1034C000E034002090000020242563412400000007
:1034D000E0500020AC000020C418002010B5FFF719
:1034E0006DF9FFF79DF9024880ED040A10BD000058
:1034F000C418002000B585B00A20FEF7ADF8FEF72D
:1035000082FC00F04DF80F20FDF73EFBFDF748FB75
:103510001848038818480288184801781848007825
:10352000FDF7A4FBFEF740F9FEF7ECF8154890ED27
:10353000000AFEF70DFD00F024FA1348D0ED000A52
:10354000124890ED000A00F069FB11A30FCBCDE902
:103550000323CDE901010120FF2301AA01460090C8
:103560001020FEF705FA0A20FEF79AF8FEF7CAF8CF
:1035700005B000BD8E0000208C0000208A000020D5
:1035800088000020A0000020A8000020A400002047
:10359000496E697469616C697A6564210000000094
:1035A00010B50E4800780E4908700E4800788876ED
:1035B0000C200876002048769FED0B0A084680ED27
:1035C000050A9FED0A0A80ED040AB3EE0E0A80EDAB
:1035D000030A411D401CFEF7E9FB10BD88000020D6
:1035E000C418002089000020000000000000B44240
:1035F00010B5FEF779FC024880ED050A10BD000009
:10360000C418002070B5ADF5816D064624208DF8F4
:1036100008004D4800788DF809004C48007E8DF870
:103620000A000DF10E004949009091ED030ABDEE2C
:10363000C00A10EE101A642201FB02F00DF10D0316
:1036400003AA511EFEF745FC0DF112003F49009000
:1036500091ED040ABDEEC00A10EE101A642201FBBF
:1036600002F00DF1110304AA511EFEF732FC0DF118
:1036700016003649009091ED050ABDEEC00A10EE25
:10368000101A642201FB02F00DF1150305AA511E68
:10369000FEF71FFC2D48807E8DF8170000250024C2
:1036A00014E02B48005D00B90FE02A4A02EB8421A8
:1036B00005EB4502102303EBC20202ABD01818221F
:1036C000FCF7DAFD681CC5B200BF641C062CE8DB01
:1036D00024201E49897E01EB4101102202EBC10129
:1036E00002AA50540D201949897E01EB4101112293
:1036F00002EBC10102AA50540A201449897E01EB51
:103700004101122202EBC10102AA50540F48807EEF
:1037100000EB4000132202EBC00102A8FDF7A8FC59
:1037200000F0D6F860B90520FDF796FF0748807EC7
:1037300000EB4000132202EBC00102A8FDF798FC49
:103740000DF5816D70BD000088000020C4180020B8
:1037500090000020E034002070B5ADF5806D054686
:1037600024480078012843D12348007801283FD11C
:10377000FEF728FB0646002432E02048005D00B931
:103780002DE01F4800EB842120226846FCF774FDE1
:103790001B4800EB8420417820236A460120FDF776
:1037A000BFFD00BF0520FDF757FF154800EB842043
:1037B000417820236A460120FDF7B2FDFEF702FBA7
:1037C000801BA84202D90DF5806D70BD0C4901EB3C
:1037D0008421487800F0AAF80028E3D000BF641CD8
:1037E000062CCADB0020034908700349087000BF9B
:1037F00000BFE8E7AC000020AD00002090000020F2
:10380000E018002010B52149081FFEF74CFB1F48A7
:10381000401F007E00F0100010280BD1FEF760F969
:1038200028B90020FDF761F90A20FDF715FFFEF722
:1038300077F90BE0FEF754F9012805D10020FDF7D8
:1038400054F90A20FDF708FFFEF778F90F48401FEA
:10385000007E00F0080008280BD1FEF7D9FB28B93C
:103860000020FDF742F90A20FDF7F6FEFEF7F0FB17
:103870000BE0FEF7CDFB012805D10020FDF735F95F
:103880000A20FDF7E9FEFEF7F1FB10BDC918002084
:103890000348007E40F001000149087670470000AF
:1038A000C41800200348007E40F002000149087659
:1038B00070470000C418002010B5FEF77FFFFFF727
:1038C0002FF8024880ED030A10BD0000C418002044
:1038D00010B5ADF5806D002422E00120FDF7BCFE9F
:1038E0006846FDF7B3FB00B919E09DF800002428F5
:1038F00003D19DF80300242800D010E09DF80100BA
:1039000009490978884200D009E09DF80200412861
:1039100003D101200DF5806D10BD0020FAE7641C75
:103920000A2CDADB0020F5E78800002030B5ADF284
:10393000044D0446002520E00120FDF78DFE01A87E
:10394000FDF7DCFC00B917E09DF80400242803D142
:103950009DF80700242800D00EE09DF80500A04245
:1039600000D009E09DF80600412803D101200DF2A6
:10397000044D30BD0020FAE76D1C0A2DDCDB002071
:10398000F5E710B5FEF74AFBFEF7B0F810BD70473B
:1039900010B51548006840F47000134908601348DA
:1039A000006840F001001149086000200F4908310B
:1039B00008600E4800680E4908400C4908600D4830
:1039C000091D0860081F006820F48020091F086096
:1039D000002006490C310860FFF776F84FF00060D0
:1039E00001498039086010BD88ED00E000380240D0
:1039F000FFFFF6FE1030002410B501210F4800F043
:103A0000AEF8D0B101210D4800F09AF800210B4822
:103A100000F099F80021094800F0BBF8202108487F
:103A2000FEF705F948B9FFF73DFFFFF7F7FA032066
:103A3000FDF75BF80A20FDF70FFE10BD0004004003
:103A4000000002401FB501210220FEF7A3FB002069
:103A5000ADF80C00ADF806006320029042F2CF00F2
:103A6000ADF8040001A90B4800F096F81D208DF870
:103A7000000000208DF801008DF8020001208DF873
:103A800003006846FEF704FB01221146014800F0DE
:103A900077F81FBD0004004010B50121114800F067
:103AA0005EF8E8B101210F4800F04AF800210D4806
:103AB00000F049F800210B4800F06BF840210A485B
:103AC000FEF7B5F860B9FFF7E3FEFFF7E7FB08B9CB
:103AD000FFF76EF80220FDF708F80A20FDF7BCFD9D
:103AE00010BD000000080040000002401FB5012189
:103AF0000420FEF74FFB0020ADF80C00ADF80600E7
:103B00006320029042F2CF00ADF8040001A90B48F7
:103B100000F042F81E208DF8000000208DF8010012
:103B20008DF8020001208DF803006846FEF7B0FA18
:103B300001221146014800F023F81FBD0008004093
:103B4000CA430282704721B1028842F0010202801A
:103B500004E002884FF6FE731A400280704730B5C9
:103B60000246002000230024158A05EA01039589F6
:103B700005EA010413B10CB1012000E0002030BDC2
:103B80001AB183890B43838102E083898B4383814C
:103B9000704741627047000000220288184B98422B
:103BA0000ED0184B98420BD0B0F1804F08D0164B76
:103BB000984205D0154B984202D0154B984204D13B
:103BC0004FF68F731A404B881A43124B984207D016
:103BD000114B984204D04FF6FF431A400B891A4309
:103BE00002804B68C3620B880385054B984202D064
:103BF000044B984201D18B7A03860123838270475C
:103C000000000140000401400004004000080040A2
:103C1000000C0040001000400014004000B52DEDE5
:103C2000028B83B0F0EE408AB0EE608A1348C0ED9C
:103C3000008A134880ED008A01210846FEF79AFAAF
:103C40000220019001208DF8080000208DF80A0064
:103C500002208DF8090001208DF80B0001A9094808
:103C6000FDF77AFF02210748FDF7ECFFFEF7E2FEC1
:103C7000FEF786FD03B0BDEC028B00BD3C000020CA
:103C8000400000200000024010B590B00446012121
:103C90008805FEF76FFA4FF0006001900020049055
:103CA0000A904FF440300B9000200C9003200D90B0
:103CB0001A4802900020089006900F901848039030
:103CC000002009904FF48060079000200E904FF67E
:103CD000FF70059001A91348FDF78EFC12491148A9
:103CE000FDF710FC012210210E48FDF767FC44206F
:103CF0008DF8000002208DF8010000208DF80200F0
:103D000001208DF803006846FEF7C2F9012105483D
:103D1000FDF712FC0548046010B010BD041001400E
:103D2000C400002088640240008800204C0000206D
:103D300010B590B0044601218805FEF71BFA4FF03C
:103D4000006001904020049000200A904FF4403021
:103D50000B9000200C9003200D901748029000203B
:103D6000089006900F90039409904FF4806007909C
:103D700000200E904FF6FF70059001A90F48FDF747
:103D80003BFC0F490D48FDF7BDFB012210210B48FC
:103D9000FDF714FC46208DF8000002208DF801008C
:103DA00000208DF8020001208DF803006846FEF720
:103DB0006FF910B010BD000004100140B86402405B
:103DC0000080002810B540F224410B4800F06DF946
:103DD00080B10A48FDF7BBFB4FF6FF71081A08498E
:103DE000088000210548FDF7A7FB034800F016FAFC
:103DF000C4B200BF10BD0000001001408864024042
:103E00004A00002000B585B001211020FEF7D2F94C
:103E10004FF4E13001900020ADF80800ADF80A0041
:103E2000ADF80C00ADF810000C20ADF80E0001A9A3
:103E3000134800F089F9012240F22441104800F0B3
:103E40005EF925208DF8000002208DF80100002089
:103E50008DF8020001208DF803006846FEF718F97E
:103E600001224021064800F017F901228021044870
:103E700000F012F90121024800F002F905B000BD7E
:103E80000010014010B590B0044601218805FEF7EE
:103E900071F94FF020600190002004900A904FF4D7
:103EA00040300B9000200C9003200D901A48029097
:103EB0000020089006900F90184803900020099069
:103EC0004FF48060079000200E904FF6FF70059031
:103ED00001A91348FDF790FB12491148FDF712FBA9
:103EE000012210210E48FDF769FB39208DF80000F2
:103EF00002208DF8010000208DF8020001208DF8CD
:103F000003006846FEF7C4F801210548FDF714FBDD
:103F10000548046010B010BD04140140C404002022
:103F200028640240008800105400002010B590B0B2
:103F3000044601218805FEF71DF94FF0206001902D
:103F40004020049000200A904FF440300B90002055
:103F50000C9003200D9017480290002008900690C6
:103F60000F90039409904FF48060079000200E900A
:103F70004FF6FF70059001A90F48FDF73DFB0F4973
:103F80000D48FDF7BFFA012210210B48FDF716FB83
:103F900045208DF8000002208DF8010000208DF8EA
:103FA000020001208DF803006846FEF771F810B09A
:103FB00010BD000004140140A064024000802020D5
:103FC00010B540F224410B4800F06FF880B10A4868
:103FD000FDF7BDFA4FF6FF71081A08490880002165
:103FE0000548FDF7A9FA034800F018F9C4B200BF6C
:103FF00010BD00000014014028640240520000205F
:1040000000B585B001212020FEF7D4F84FF4E1304F
:1040100001900020ADF80800ADF80A00ADF80C00E2
:10402000ADF810000C20ADF80E0001A9134800F007
:104030008BF8012240F22441104800F060F847203C
:104040008DF8000002208DF8010000208DF802009C
:1040500001208DF803006846FEF71AF8012240217E
:10406000064800F019F801228021044800F014F8F5
:104070000121024800F004F805B000BD0014014021
:1040800021B1828942F40052828104E082894DF696
:10409000FF731A40828170471AB1838A0B4383826F
:1040A00002E0838A8B438382704770B50246002406
:1040B00000230025002040F66A16B14200D100BF5F
:1040C000C1F3421501F01F03012606FA03F3012D87
:1040D00002D19689334006E0022D02D1168A334080
:1040E00001E0968A33400C12012606FA04F4168881
:1040F000344013B10CB1012000E0002070BDF0B5D8
:104100000346002400260025002040F66A17B94225
:1041100000D100BF1846C1F3421401F01F06012769
:1041200007FA06F5012C01D10C3004E0022C01D174
:10413000103000E014301AB107682F43076002E026
:104140000768AF430760F0BD2DE9FF4705460E46FF
:104150000024A14600BFA046B08900B100BF2C8A50
:1041600024F44054F08804432C82AC8941F20C6062
:104170008443B08831890843718908430443AC8182
:10418000AC8A24F44074B0890443AC826846FEF7DC
:1041900031F82048854202D01F48854202D1DDF81F
:1041A0000C9001E0DDF80890A88900F4004040B1CF
:1041B00009EBC90000EB091031684900B0FBF1F7C9
:1041C00007E009EBC90000EB091031688900B0FB7A
:1041D000F1F76420B7FBF0F004012009642101FB32
:1041E0001078A88900F4004040B1322000EBC800EC
:1041F000B0FBF1F000F00700044308E0322000EBD0
:1042000008106421B0FBF1F000F00F0004432C8192
:10421000BDE8FF8700100140001401400146888876
:10422000C0F30800704700BFFEE700007CB50546FC
:104230000C4601210420FDF79DFF082206211948A4
:10424000FDF7D2FC4020009002208DF804000020F1
:104250008DF8060001208DF8070002208DF805007A
:1042600069461048FDF778FC01210420FDF782FF24
:10427000082207210B48FDF7B7FC802000900220A0
:104280008DF8040000208DF8070069460548FDF709
:1042900063FCFFF7B5FE2046FFF7F4FD2846FFF765
:1042A00045FE7CBD0008024070B50446002607E0CC
:1042B0000C48007800B105E00120FDF7CDF9761C2F
:1042C000A642F5DB00BF0748007810B90648008811
:1042D00070BD054805880020024908700249088021
:1042E0002846F5E7500000205200002070B5044633
:1042F0000D4604B970BD002607E01048007800B1F3
:1043000005E00120FDF7A8F9761CAE42F5DB00BF01
:104310000A48007800B9EDE700210948FDF70CF9DB
:1043200021460748FDF794F900200449087001214F
:104330000348FDF701F900BFDCE700005100002051
:10434000A06402407CB505460C4601210846FDF7F5
:1043500011FF072209211A48FDF746FC4FF40070AF
:10436000009002208DF8040000208DF80600012046
:104370008DF8070002208DF8050069461048FDF70A
:10438000EBFB01210846FDF7F5FE07220A210C4848
:10439000FDF72AFC4FF48060009002208DF80400A5
:1043A00000208DF8070069460548FDF7D5FBFFF7AB
:1043B00029FD2046FFF768FC2846FFF7B9FC7CBDC5
:1043C0000000024070B50446002607E00C48007863
:1043D00000B105E00120FDF73FF9761CA642F5DBB0
:1043E00000BF0748007810B90648008870BD05482E
:1043F0000588002002490870024908802846F5E730
:10440000480000204A00002070B504460D4604B95B
:1044100070BD002607E01048007800B105E00120DB
:10442000FDF71AF9761CAE42F5DB00BF0A480078AA
:1044300000B9EDE700210948FDF77EF8214607485D
:10444000FDF706F900200449087001210348FDF733
:1044500073F800BFDCE7000049000020B8640240A8
:104460000FB4084B10B504A902AA039800F0DEF8B7
:10447000044602A9002000F05CFC204610BC5DF858
:1044800014FB0000334D000802E008C8121F08C1E9
:10449000002AFAD170477047002001E001C1121FC5
:1044A000002AFBD1704700002DE9FF5F82B0002198
:1044B000DDE90430020DDDF840B0034318D044F6C6
:1044C0001050A2F2FF3242431514119801281FD058
:1044D000A5EB0B00401C5FEA000A4FF000064E4FB0
:1044E000DFF83891B046504615D5CAF1000413E004
:1044F000119801244AA3012801D16FEA0B01029807
:10450000119AC0E90031C0E9024206B0BDE8F09F4F
:10451000CBF10000DFE704460021404A491842EB96
:104520000450CDE9001012E0E00707D032463B46C8
:1045300040464946FCF735F88046894632463B46B8
:1045400010461946FCF72DF806460F466410002C5D
:10455000EAD1DDE90401DDE90023BAF1000F06DA52
:10456000FCF71FF842464B46FCF71BF805E0FCF74A
:104570008AF842464B46FCF786F804460E4600226F
:10458000284BFBF7C1FE03D84FF0FF30014607E090
:104590000022254B20463146FBF75CFFFCF7E2F892
:1045A000102409E0002C0ADB0A220023FBF7DAFEC4
:1045B000039B30321A55641E50EA0102F2D1641C8A
:1045C000039AC4F111031444119A012A03D0012261
:1045D00008430DD10AE0084304D000204FF0110B2E
:1045E000119072E7A3EB0B056D1E0DE05B4504DD3A
:1045F0004FF0000205F1010504E003DA4FF000027C
:10460000A5F10105002AECD002981199C0E9023108
:10461000C0E9004579E70000000014400000F03FC9
:10462000300000000000F0430000E03F2DE9FF4FA4
:1046300095B09A46884606460025EEE1252877D1B2
:1046400000242746F94A0121039400E0044316F8A8
:10465000013F203B01FA03F01042F7D130782A28BD
:1046600011D06FF02F033078A0F13002092A16D84C
:10467000039A44F0020402EB820203EB420210446C
:10468000761C0390EFE758F8042B0392002A03DA14
:10469000504244F40054039044F00204761C3078F5
:1046A0002E2816D116F8010F44F004042A280DD044
:1046B0006FF02F023078A0F13003092B09D807EBF7
:1046C000870302EB4303C718761CF3E758F8047B13
:1046D000761C30786C280FD006DC4C2817D0682860
:1046E0000DD06A2814D104E0742810D07A280FD194
:1046F0000DE044F400140AE044F4801401E044F4B2
:1047000040147278824202D104F58014761C761C23
:10471000307866280BD013DC582877D009DC0028C5
:1047200075D04528F6D04628F4D047281AD193E111
:1047300018E0632835D0642879D0652812D18BE140
:10474000702873D008DC6728F1D069286FD06E28F4
:104750000DD06F2806D1ACE073282CD0752874D00A
:10476000782853D05246179990476D1C54E1C4F3F2
:104770000250022809D003280DD0D8F800100428D0
:104780000DD00D6008F1040846E1D8F80010EA17D2
:10479000C1E90052F6E7D8F800100D80F2E70D707D
:1047A000F0E718F8041B8DF8001000208DF80100C8
:1047B000EB46012003E058F804BB4FF0FF306107DF
:1047C0004FF0000102D40DE009F101018946B94220
:1047D0000FDA8145F8DB1BF809100029F4D108E055
:1047E00009F1010189468142FADB1BF80910002911
:1047F000F6D103985346A0EB090721463846179A8D
:1048000000F080FA284400EB090507E044E008E1E5
:104810000DE01BF8010B524617999047B9F10109B9
:10482000F7D2534621463846179AF2E039E00A217A
:10483000C4F302524FF0000B0091022A06D058F840
:10484000040BC117032A09D00AE023E008F107008E
:1048500020F00702F2E80201904605E000B2C1171D
:10486000042A01D140B2C117002906DA0A46002104
:10487000404261EB02012D2202E0220504D52B22E9
:104880008DF80420012203E0E20701D02022F7E79F
:10489000914657E00A2100E010214FF0000B0091F3
:1048A0000BE010214FF0000B44F0040408270091A6
:1048B00003E008204FF0000B0090C4F30252022ADC
:1048C00005D058F8040B0021032A08D008E008F1AD
:1048D000070020F00702F2E80201904603E080B2F0
:1048E000042A00D1C0B24FF0000922072AD532783D
:1048F000702A07D0DDF800C08CF0100C5CEA0B0CBD
:1049000005D00EE040228DF80420012208E050EA94
:10491000010306D030238DF804308DF805200222E3
:104920009146009B83F0080353EA0B030AD150EA37
:10493000010201D1620705D530228DF804204FF025
:1049400001097F1E3278582A04D039A20C920CAA91
:1049500002920BE03BA2F9E75B46009AFBF702FDEF
:104960000C9B9B5C029A521E0292137050EA010249
:10497000F2D1029804A9081A00F1200B600702D5B1
:1049800024F4803400E001275F4502DDA7EB0B0033
:1049900000E0002000EB0B01009003984944401A0E
:1049A0000390E00306D453462146179A039800F07B
:1049B000A9F90544002706E001A85246C05D1799F1
:1049C00090476D1C7F1C4F45F6DBE0030CD553462A
:1049D0002146179A039800F095F9054404E0302029
:1049E0005246179990476D1C0099481E0090002967
:1049F000F5DC08E00298029952460078491C0291C1
:104A0000179990476D1CBBF10001ABF1010BF1DC74
:104A10005BE100F065F90544761C307800287FF4EE
:104A20000DAE19B02846BDE8F08F0000092801003E
:104A30003031323334353637383961626364656614
:104A400000000000303132333435363738394142D6
:104A50004344454600000000600700D4062708F1E3
:104A6000070020F00700F0E80223804603F0004C26
:104A70005FEA0C0001D097A009E0200501D596A0BF
:104A800005E0E00701D095A001E0AFF24C001390E3
:104A9000307823F0004365280CD006DC452809D087
:104AA00046281DD047287FD13BE0662818D06728CC
:104AB0007AD136E00021112F01DB112000E0781CB3
:104AC000CDE9000104A90CA8FFF7EEFCDDE90D011A
:104AD0000C9A4FF0000B07F10109109200914EE083
:104AE0004FF000400097CDE9011004A90CA8FFF792
:104AF000DBFCDDE90D020C9B0F994FF0000B91469A
:104B00001093009211B9791C00EB0109B7EB090071
:104B100003D4C0F1FF3B07F10109A9EB07000190A5
:104B200042E0012F00DA01270021112F01DD1120C1
:104B300000E03846CDE9000104A90CA8FFF7B4FC59
:104B4000DDE90D010C9A00914FF0000BB94610926F
:104B500021070FD4009A4A4503DA914601E0A9F1F2
:104B60000109B9F1010F05DD109AA9F10101515CAC
:104B70003029F4D0B84202DA10F1040F03DA01212F
:104B8000CDE9011010E0002803DC8344A9EB00010B
:104B900002E0411C494500DD8946A0EB0B00401CAA
:104BA00001904FF000400290200705D4019848453D
:104BB00002DB4FF0FF30019000208DF84B0002988F
:104BC0000DF14B07B0F1004F25D002200C902B20A7
:104BD0000D90029800280CDA404202902D200D9092
:104BE00007E00A210298FBF7A7FB3031029007F893
:104BF000011D0C99481E0C900029F2DC0298002837
:104C0000EFD1791E0D980870307800F0200040F048
:104C1000450007F8020D11A8C01BC01D0290139893
:104C2000007800B1012000EB0901019801EBE0716F
:104C3000029801440398401A401E0390E00306D4F2
:104C400053462146179A039800F05CF805441398E0
:104C5000007818B15246179990476D1CE00323D590
:104C600053462146179A039800F04CF805441BE080
:104C7000BBF1000F07DB0098584504DD1098179929
:104C800010F80B0001E01799302052469047019828
:104C90000BF1010B401E05F10105019004D12E20FE
:104CA0005246179990476D1CB9F10001A9F101090D
:104CB000DEDC05E017F8010B5246179990476D1C92
:104CC0000299481E02900029F4DC53462146179AA7
:104CD00003989EE62D0000002B000000200000003D
:104CE0002DE9F041044600251E461746880404D4E9
:104CF00005E039462020B0476D1C641EF9D52846D2
:104D0000BDE8F0812DE9F041044600251E4690469D
:104D1000C80301D5302700E02027880404D505E02A
:104D200041463846B0476D1C641EF9D52846BDE89B
:104D3000F0810A68531C0B6010707047FEF7DAFBB5
:104D400024E00220FEF754FB0220FEF75BFC022069
:104D5000FEF7B0FA0220FEF7FFFCFEF79FFA10B153
:104D6000FEF75CF90FE0FEF78DFA10B1FDF720FFBA
:104D700009E0FEF7A1FDFEF7B1FBFEF74FFAFEF7E3
:104D800037FCFEF715F80120FCF78AFCD9E7000094
:104D9000000000000000002F0000000007000700D6
:104DA00000147F147F1400242A7F2A1200626408F2
:104DB000132300364955225000000503000000006F
:104DC0001C224100000041221C000014083E08146F
:104DD0000008083E0808000000A06000000808085D
:104DE0000808000060600000002010080402003E77
:104DF0005149453E0000427F400000426151494612
:104E0000002141454B31001814127F100027454501
:104E10004539003C4A494930000171090503003613
:104E20004949493600064949291E00003636000026
:104E3000000056360000000814224100001414142B
:104E40001414000041221408000201510906003226
:104E50004959513E007C1211127C007F4949493664
:104E6000003E41414122007F4141221C007F4949CF
:104E70004941007F09090901003E4149497A007F03
:104E80000808087F0000417F4100002040413F01A9
:104E9000007F08142241007F40404040007F020C08
:104EA000027F007F0408107F003E4141413E007FA9
:104EB00009090906003E4151215E007F0919294672
:104EC0000046494949310001017F0101003F40404E
:104ED000403F001F2040201F003F4038403F0063FC
:104EE000140814630007087008070061514945431E
:104EF00000007F41410000552A552A5500004141DC
:104F00007F000004020102040040404040400000D5
:104F100001020400002054545478007F484444386F
:104F200000384444442000384444487F00385454F6
:104F3000541800087E0901020018A4A4A47C007F74
:104F4000080404780000447D4000004080847D0017
:104F5000007F102844000000417F4000007C0418BE
:104F60000478007C0804047800384444443800FC89
:104F7000242424180018242418FC007C08040408A5
:104F800000485454542000043F444020003C40401A
:104F9000207C001C2040201C003C4030403C004451
:104FA00028102844001CA0A0A07C004464544C4459
:104FB0001414141414140000000000000000000079
:104FC000000000000000000000F8000000000000E9
:104FD00000333000000000100C06100C060000002A
:104FE00000000000000040C07840C0784000043F4E
:104FF00004043F040400007088FC0830000000181E
:1050000020FF211E0000F008F000E0180000002141
:105010001C031E211E0000F00888700000001E21E5
:1050200023241927211010160E0000000000000094
:10503000000000000000000000E018040200000072
:1050400000071820400000020418E00000000040A3
:10505000201807000000404080F08040400002021D
:10506000010F01020200000000F000000000010139
:10507000011F01010100000000000000000080B0DD
:1050800070000000000000000000000000000001AF
:1050900001010101010100000000000000000030DA
:1050A0003000000000000000000080601804006074
:1050B00018060100000000E010080810E000000FD2
:1050C000102020100F00001010F800000000002039
:1050D000203F202000000070080808887000003081
:1050E0002824222130000030088888483000001829
:1050F000202020110E000000C02010F80000000742
:105100000424243F240000F80888880808000019B7
:10511000212020110E0000E0108888180000000FE8
:10512000112020110E0000380808C83808000000BF
:10513000003F000000000070880808887000001C14
:10514000222121221C0000E010080810E0000000CD
:10515000312222110F00000000C0C000000000003A
:10516000003030000000000000800000000000005F
:105170008060000000000000804020100800000156
:105180000204081020004040404040404000040419
:1051900004040404040000081020408000000020E3
:1051A000100804020100007048080808F000000020
:1051B000003036010000C030C828E810E0000718B1
:1051C000272423140B000000C038E0000000203C1E
:1051D00023020227382008F8888888700000203FC2
:1051E000202020110E00C0300808080838000718D9
:1051F00020202010080008F808080810E000203FD0
:10520000202020100F0008F88888E8081000203FB0
:1052100020202320180008F88888E8081000203F84
:10522000200003000000C0300808083800000718FC
:105230002020221E020008F808000008F808203F7D
:10524000210101213F20000808F808080000002083
:10525000203F2020000000000808F8080800C08057
:1052600080807F00000008F888C028180800203FD0
:1052700020012638200008F8080000000000203F28
:1052800020202020300008F8F800F8F80800203F1F
:10529000003F003F200008F830C00008F808203F19
:1052A000200007183F00E01008080810E0000F1069
:1052B000202020100F0008F808080808F000203F00
:1052C000210101010000E01008080810E0000F189B
:1052D000242438504F0008F8888888887000203FC0
:1052E0002000030C302000708808080838000038BF
:1052F000202121221C00180808F8080818000000C6
:10530000203F2000000008F808000008F808001FEF
:10531000202020201F000878880000C838080000DE
:1053200007380E010000F80800F80008F800033CF8
:105330000700073C030008186880806818082030C0
:105340002C03032C30200838C800C838080000009F
:10535000203F2000000010080808C8380800203846
:10536000262120201800000000FE0202020000009A
:10537000007F40404000000C30C0000000000000F2
:1053800000010638C00000020202FE0000000040DA
:1053900040407F0000000000040202020400000000
:1053A00000000000000000000000000000008080FD
:1053B00080808080808000020204000000000000E5
:1053C00000000000000000008080808000000019C4
:1053D000242222223F2008F8008080000000003FA5
:1053E000112020110E000000008080800000000EBF
:1053F000112020201100000000808088F800000E9D
:10540000112020103F200000808080800000001FBD
:10541000222222221300008080F088888818002031
:10542000203F202000000000808080808000006BF2
:1054300094949493600008F8008080800000203FDE
:10544000210000203F2000809898000000000020EC
:10545000203F20200000000000809898000000C03D
:105460008080807F000008F8000080808000203F5E
:1054700024022D302000000808F800000000002061
:10548000203F202000008080808080808000203F9E
:1054900020003F20003F8080008080800000203F6F
:1054A000210000203F200000808080800000001F3D
:1054B000202020201F00808000808000000080FFCE
:1054C000A12020110E000000008080808000000ECE
:1054D000112020A0FF80808080008080800020201C
:1054E0003F21200001000000808080808000003388
:1054F000242424241900008080E080800000000023
:10550000001F202000008080000000808000001F1D
:10551000202020103F2080808000008080800001BB
:105520000E300806010080800080008080800F30EF
:105530000C030C300F000080800080808000002071
:10554000312E0E312000808080000080808080819C
:105550008E7018060100008080808080800000210D
:10556000302C2221300000000000807C020200006C
:105570000000003F404000000000FF00000000006D
:105580000000FF0000000002027C800000000040DC
:10559000403F000000000006010102020404000078
:1055A0000000000000001F1C1F1E1F1E1F1F1E1FCB
:1055B0001E1F1F1D1F1E1F1E1F1F1E1F1E1F000040
:1055C000E055000800000020B000000088440008FA
:1055D00090560008B0000020305C0000984400089D
:1055E00000BD0105000000000000000001020304EE
:1055F0000607080900000000010203040102030479
:105600000607080900000000333333403333533AB0
:105610000000000000000000000000000000D04179
:105620000000F04100000000000100000000000048
:105630000001000000000000010F34121111226966
:105640006E73616E697479220022323030313031EC
:1056500032302200223139322E3136382E31333772
:105660002E3133352200102701000F0034121111A2
:10567000000000000000000000000000000000002A
:10568000333333400000D0410000F04100000000FF
:040000050800019559
:00000001FF
