:020000040800F2
:1000000040080020AD01000839090008CF070008AA
:1000100035090008D1020008C10C000800000000EA
:10002000000000000000000000000000750900084A
:100030002D0400080000000051090008610A0008B2
:10004000C7010008C7010008C7010008C701000870
:10005000C7010008C7010008C7010008C701000860
:10006000C7010008C7010008C7010008C701000850
:10007000C7010008C7010008C7010008C701000840
:10008000C7010008C7010008850200080000000041
:10009000000000000000000000000000C906000889
:1000A000C7010008C7010008C7010008C701000810
:1000B000C7010008CD0A0008150B0008C701000899
:1000C000C7010008C7010008C7010008C7010008F0
:1000D000C7010008A10B0008C701000800000000CC
:1000E000C7010008C7010008C701000800000000A0
:1000F000000000000000000000000000C701000830
:1001000000000000C7010008C7010008C70100087F
:1001100000000000000000000000000000000000DF
:10012000C7010008D5020008C7010008C701000880
:10013000C7010008000000000000000000000000EF
:10014000000000000000000000000000C7010008DF
:10015000FD020008250300084D030008E10B00081C
:10016000C7010008C70100080000000000000000EF
:10017000000000000000000000000000000000007F
:1001800000000000C701000800000000000000009F
:10019000C7010008DFF810D000F01AF80048004747
:1001A000250D0008AFF30080400800200648804776
:1001B00006480047FEE7FEE7FEE7FEE7FEE7FEE74C
:1001C000FEE7FEE7FEE7FEE7650A00089501000886
:1001D000064C074D06E0E06840F0010394E8070094
:1001E00098471034AC42F6D3FFF7D8FF600D0008F3
:1001F000800D000870B58C1810F8015B15F007032E
:1002000001D110F8013B2A1106D110F8012B03E0AF
:1002100010F8016B01F8016B5B1EF9D12B0705D4B7
:100220000023521E0DD401F8013BFAE710F8013B00
:10023000CB1A921C03E013F8015B01F8015B521E1C
:10024000F9D5A142D8D3002070BD00220A12D343B1
:10025000036070470146C86C80B2704770B50246B3
:100260000020002300240B12556801268E4005EA69
:10027000060415681D4015B10CB1012000E00020F6
:1002800070BD000010B540F205210E48FFF7E6FFF3
:10029000B8B140F205210B48FFF7D7FF0948FFF737
:1002A000D9FF0949094A127821F812000748007855
:1002B000401C06490870084600780A2801DB002027
:1002C000087010BD002001402C0400201C040020F8
:1002D00000BFFEE710B50649064800F075F830B1DA
:1002E0000349044800F046F801200349087010BD96
:1002F00000880010286402402204002010B506493E
:10030000064800F061F830B10349044800F032F8C3
:1003100001200349087010BD008800208864024055
:100320001E04002010B50649064800F04DF830B113
:100330000349044800F01EF801200349087010BD6D
:1003400000802020A06402402304002010B506494C
:10035000064800F039F830B10349044800F00AF8C3
:1003600001200349087010BD00800028B8640240D5
:100370001F0400200246094B9A4201D2084801E0BE
:100380000648103801F000531BB1064B0B40C36008
:1003900002E0044B0B408360704700001064024091
:1003A000006002407D0F7D0F21B1026842F0010222
:1003B000026003E0026822F0010202607047014619
:1003C000486880B27047000070B5024600200024E3
:1003D0000025124EB24201D2114B01E00F4B103BEF
:1003E000104E0E4036B11E2606EAD124166806EAE3
:1003F000040502E0566906F0800501F000560EB1D2
:100400005C6800E01C68084E344004EA010616B13E
:100410000DB1012000E0002070BD0000106402401A
:10042000006002403C0F3C0F7D0F7D0F70470000C5
:10043000104A12684FF47A73B2FBF3F24243D208C7
:100440004FF0E0235A6100229A6101221A611A4694
:10045000116902E04FF0E022116901F001021AB1C6
:1004600001F48032002AF5D000224FF0E0231A6117
:100470009A61704700000020104A1268104BB2FBCE
:10048000F3F24243D2084FF0E0235A6100229A610E
:1004900001221A611A46116902E04FF0E022116947
:1004A00001F001021AB101F48032002AF5D00022D5
:1004B0004FF0E0231A619A617047000000000020AD
:1004C00040420F0070B5002419E004F1B001C8B239
:1004D000012100F009FA0121002000F005FA0121B4
:1004E000102000F001FA002505E00021084600F088
:1004F000FBF9681CC5B2802DF7DB601CC4B2082C68
:10050000E3DB70BD2DE9F05F06460F469046994645
:10051000DDF828A000250024A3463C4616E021462D
:10052000304600F0BBF835460AE059464A1C1FFA2F
:1005300082FB1AF80100002100F0D6F9681CC5B250
:10054000454501DC802DF0DB601CC4B24C4501DC6C
:10055000042CE4DBBDE8F09F1CB50121022000F073
:10056000F9F98020009001208DF804008DF8060034
:100570008DF807008DF8050069460F4800F0D2F8A5
:1005800080210D4800F021F90121022000F0E2F95C
:100590004020009001208DF804008DF806008DF8B1
:1005A00007008DF805006946034800F0BBF84021BC
:1005B000014800F00AF91CBD0004024010B5FFF725
:1005C000CBFF0120FFF734FFC820FFF731FF0121E7
:1005D000AE2000F089F90121002000F085F9012109
:1005E000102000F081F90121402000F07DF9012167
:1005F000B02000F079F90121812000F075F9012186
:10060000FF2000F071F90121A02000F06DF9012117
:10061000A62000F069F90121A82000F065F9012168
:100620001F2000F061F90121C02000F05DF90121D7
:10063000D32000F059F90121002000F055F90121E3
:10064000D52000F051F90121002000F04DF90121E1
:10065000D92000F049F901211F2000F045F90121BE
:10066000DA2000F041F90121022000F03DF90121DA
:10067000DB2000F039F90121302000F035F90121AB
:100680008D2000F031F90121142000F02DF9012115
:10069000AF2000F029F9FFF715FF10BD70B5044633
:1006A0000D4605F1B001C8B2012100F01DF910217D
:1006B00041EA1410012100F017F904F00F000121A4
:1006C00000F012F970BD000010B5202000F01EF8F7
:1006D00030B1202000F014F80121074800F041FA61
:1006E000402000F013F830B1402000F009F801215B
:1006F000024800F036FA10BD000400400008004037
:100700000149086070470000143C01400146002088
:10071000034A12680A400AB1012000E00020704735
:10072000143C0140F0B50A4600210023002400BF1C
:100730003DE0012505FA01F3156805EA03049C4232
:1007400034D105684F000326BE40B54305601579D6
:100750004E00B5400668354305601579012D02D07D
:100760001579022D16D185684F000326BE40B5438A
:10077000856055794E00B54086683543856045688B
:1007800001268E40B5434560456896798E40B6B2E5
:1007900035434560C5684F000326BE40B543C5607C
:1007A000D5794E00B540C6683543C560491C10294F
:1007B000BFD3F0BD0246002013690B400BB10120EE
:1007C00000E000207047418370470183704700BFFD
:1007D000FEE7000010B5002480211148FFF7F5FF67
:1007E0000120FFF749FE40210D48FFF7EEFF0120F1
:1007F000FFF742FE07E0601CC4B2FA2C03DD00F0F4
:100800002BF8012010BD80210548FFF7D3FF0028F9
:10081000F1D140210248FFF7D6FF0020F2E70000A7
:100820000004024010B580210A48FFF7CEFF4021A6
:100830000848FFF7CAFF0120FFF71EFE8021054888
:10084000FFF7C1FF0120FFF717FE40210148FFF726
:10085000BAFF10BD0004024010B540210A48FFF75E
:10086000B2FF80210848FFF7AEFF0120FFF704FE2A
:1008700040210548FFF7A9FF80210348FFF7A5FFA6
:100880000120FFF7F9FD10BD0004024070B50446D9
:1008900040211448FFF797FF002520E004F0800076
:1008A000802804D180210F48FFF78FFF03E08021CB
:1008B0000C48FFF788FF6006040E0120FFF7DCFDFF
:1008C00040210848FFF781FF0120FFF7D5FD4021B7
:1008D0000448FFF778FF0120FFF7CEFD6D1C082DBF
:1008E000DCDB70BD0004024070B506460D46012DEC
:1008F00001D1002400E04024FFF794FF7820FFF7A7
:10090000C5FFFFF767FF08B1012070BD2046FFF764
:10091000BDFFFFF75FFF08B10120F6E73046FFF7A4
:10092000B5FFFFF757FF08B10120EEE7FFF794FF8F
:100930000020EAE700BFFEE77047000002490143DC
:10094000024A1160704700000000FA050CED00E05B
:100950007047000029B1064A12680243044B1A602E
:1009600004E0034A12688243014B1A60704700009A
:1009700030380240704700000CB500200190009014
:100980003348006840F480303149086000BF304887
:10099000006800F4003000900198401C019000981D
:1009A00018B90198B0F5A04FF1D12948006800F4BA
:1009B000003010B10120009001E00020009000986C
:1009C000012844D122484030006840F0805020493E
:1009D000403108601F48006840F440401D490860ED
:1009E0001B48083000681A4908310860084600684A
:1009F00008600846006840F4805008601648091FE7
:100A00000860081F006840F08070091F086000BF80
:100A10000F48006800F000700028F9D040F2027022
:100A20000E4908600A480830006820F003000849B1
:100A3000083108600846006840F00200086000BF06
:100A400003480830006800F00C000828F8D10CBDFD
:100A5000003802400070004008544107003C02404A
:100A60007047000010B51548006840F47000134945
:100A700008601348006840F0010011490860002038
:100A80000F49083108600E4800680E4908400C49BB
:100A900008600D48091D0860081F006820F48020C8
:100AA000091F0860002006490C310860FFF764FF49
:100AB0004FF0006001498039086010BD88ED00E00A
:100AC00000380240FFFFF6FE1030002410B501216F
:100AD0000C4800F052F898B101210A4800F03EF8A5
:100AE0000021084800F03DF80021064800F056F8C3
:100AF00020210548FFF75EFE10B904A000F0E2F8DF
:100B000010BD00000004004000000240526570610A
:100B100069720A0010B501210C4800F02EF898B156
:100B200001210A4800F01AF80021084800F019F8DD
:100B30000021064800F032F840210548FFF73AFE50
:100B400010B904A000F0BEF810BD0000000800407D
:100B50000000024048656C700A000000CA4302822F
:100B6000704721B1028842F00102028004E002884D
:100B70004FF6FE731A400280704730B502460020DF
:100B800000230024158A05EA0103958905EA01047A
:100B900013B10CB1012000E0002030BD416270476C
:100BA00010B540F224410B4800F047F880B10948E5
:100BB00000F06DF8C4B20848FFF701FC4FF6FF7172
:100BC000081A0649088000210348FFF7EDFB00BF23
:100BD00010BD000000100140886402402004002085
:100BE00010B540F224410B4800F027F880B10948C5
:100BF00000F04DF8C4B20848FFF7E1FB4FF6FF7173
:100C0000081A0649088000210348FFF7CDFB00BF02
:100C100010BD00000014014028640240240400209C
:100C200002460020B1F5007F00D100BF13880B40C1
:100C30000BB1012000E00020704770B5024600248F
:100C400000230025002040F66A16B14200D100BF03
:100C5000C1F3421501F01F03012606FA03F3012D2B
:100C600002D19689334006E0022D02D1168A334024
:100C700001E0968A33400C12012606FA04F4168825
:100C8000344013B10CB1012000E0002070BD0146DA
:100C90008888C0F308007047C1F30802828070475B
:100CA00010B5044600BF80210448FFF7B9FF0028B3
:100CB000F9D021460148FFF7EFFF10BD00100140B9
:100CC00000BFFEE7014A024900F013B8150D000805
:100CD0002804002002E008C8121F08C1002AFAD127
:100CE00070477047002001E001C1121F002AFBD1AC
:100CF00070472DE9F04116460F460446002503E0F3
:100D00003946B047641C6D1C20780028F8D128466D
:100D1000BDE8F08170B504460D46E0B2FFF7C0FFB4
:100D2000204670BD08B54FF47A70FFF7A5FB4FF46D
:100D3000A060FFF703FEFFF741FC0120FFF778FBFF
:100D40000BE04FF4FA60FFF773FB0448082380229E
:100D5000002100900846FFF7D5FBF2E714000020C1
:100D6000800D0008000000202C040000F4010008A1
:100D7000800E00082C04002014040000E40C00087D
:100D80001184BD01051009010203040607080916B4
:100D9000060AFE0AC612E012F062F84EFE7DBBC7DC
:100DA000EF01053EC7BB7DFE300D080CFEFE0C08B2
:100DB0002060FEFE60208F7848FE82BABA030913D5
:100DC0005EAA0101017E6CFEFF0301CBFFFF0F391C
:100DD000BBECC0C0C0271918F92701392975990B38
:100DE0006CFFFF0C01491A0C22E1E1E12701396C8B
:100DF0000F1F1801FB1F0F0F092E270136168C42FB
:100E000022120C26FC020202FC3304FE1620584477
:100E1000FE402A10015912491E4912A92A01233005
:100E20000A24A42E24E4242EA424C00AF84A4C4800
:100E3000F8484C4AF82A01013907490D5915991FFC
:100E40009918091412712BC020A1AB20C00A1130CF
:100E50000A120A07027F02070A121E0B0A0A0A7FF9
:100E60000402560B980A1F2040404050205F800A21
:100E700048093333D33F3333533AD389B4000000A6
:040000050800019559
:00000001FF
