:020000040800F2
:1000000050040020AD010008F9090008910800081B
:10001000F509000819030008F311000800000000AA
:10002000000000000000000000000000B50B000808
:100030000D05000800000000890A0008A10C000856
:10004000C7010008C7010008C7010008C701000870
:10005000C7010008C7010008C7010008C701000860
:10006000C7010008C7010008C7010008C701000850
:10007000C7010008C7010008C7010008C701000840
:10008000C7010008C70100082D0200080000000099
:10009000000000000000000000000000450700080C
:1000A000C7010008C7010008C7010008C701000810
:1000B000C70100080D0D0008750D0008C7010008F4
:1000C000C7010008C7010008C7010008C7010008F0
:1000D000C7010008210E0008C70100080000000049
:1000E000C7010008C7010008C701000800000000A0
:1000F000000000000000000000000000C701000830
:1001000000000000C7010008C7010008C70100087F
:1001100000000000000000000000000000000000DF
:10012000C70100081D030008C7010008C701000837
:10013000C7010008000000000000000000000000EF
:10014000000000000000000000000000C7010008DF
:10015000450300086D030008950300088D0F000893
:10016000C7010008C70100080000000000000000EF
:10017000000000000000000000000000000000007F
:1001800000000000C701000800000000000000009F
:10019000C7010008DFF810D000F01AF80048004747
:1001A0003D130008AFF3008050040020064880474C
:1001B00006480047FEE7FEE7FEE7FEE7FEE7FEE74C
:1001C000FEE7FEE7FEE7FEE7A50C00089501000844
:1001D000064C074D06E0E06840F0010394E8070094
:1001E00098471034AC42F6D3FFF7D8FFD41B000871
:1001F000F41B000800220A12D34303607047014633
:10020000C86C80B2704770B50246002000230024FD
:100210000B12556801268E4005EA060415681D403C
:1002200015B10CB1012000E0002070BD10B540F206
:1002300005210E48FFF7E7FFB8B140F205210B4852
:10024000FFF7D8FF0948FFF7DAFF0949094A127892
:1002500021F8120007480078401C0649087008463B
:1002600000780A2801DB0020087010BD0020014042
:10027000380000202C00002010B50446204600F075
:1002800001F810BD70B50446E6B22512284600F00C
:100290000BF8022000F03CF9304600F005F802208F
:1002A00000F036F970BD000070B504464FF480616F
:1002B000184800F0E9FA052000F02AF900251DE0B1
:1002C0004FF48061134800F0DFFA04F0010020B120
:1002D0000821104800F0DAFA03E008210D4800F088
:1002E000D3FAC82000F038F94FF48061094800F0D3
:1002F000CDFAC82000F030F964106D1C082DDFDB4A
:100300004FF48061034800F0C1FA0821014800F071
:10031000BDFA70BD0004024000BFFEE710B50649FB
:10032000064800F075F830B10349044800F046F87B
:1003300001200349087010BD0088001028640240A5
:100340003200002010B50649064800F061F830B1CF
:100350000349044800F032F801200349087010BD39
:1003600000880020886402402E00002010B5064955
:10037000064800F04DF830B10349044800F01EF87B
:1003800001200349087010BD00802020A0640240B5
:100390003300002010B50649064800F039F830B1A6
:1003A0000349044800F00AF801200349087010BD11
:1003B00000800028B86402402F0000200246094B4C
:1003C0009A4201D2084801E00648103801F0005373
:1003D0001BB1064B0B40C36002E0044B0B40836033
:1003E0007047000010640240006002407D0F7D0FE6
:1003F00021B1026842F00102026003E0026822F0CB
:100400000102026070470146486880B270470000F0
:1004100070B50246002000240025124EB24201D2DF
:10042000114B01E00F4B103B104E0E4036B11E2613
:1004300006EAD124166806EA040502E0566906F0C9
:10044000800501F000560EB15C6800E01C68084EA3
:10045000344004EA010616B10DB1012000E000208D
:1004600070BD000010640240006002403C0F3C0F71
:100470007D0F7D0F10B501F080034BB122B14369B0
:1004800043F08003436103E0436923F08003436149
:1004900080290BD02AB1036801F01E0423430360B6
:1004A00004E0036801F01E04A343036010BD0000D4
:1004B00010B500220268134B1A40CC680B68234326
:1004C0004C6923438C692343CC6923430C6A23433F
:1004D0004C6A23438C6A23434C6B23438C6B23432A
:1004E0001A430260426922F00702D1E90B34234328
:1004F0001A4342610B6943604B6883608B68C36039
:1005000010BD00003F801CF0416070477047000044
:10051000104A12684FF47A73B2FBF3F24243D208E6
:100520004FF0E0235A6100229A6101221A611A46B3
:10053000116902E04FF0E022116901F001021AB1E5
:1005400001F48032002AF5D000224FF0E0231A6136
:100550009A61704700000020104A1268104BB2FBED
:10056000F3F24243D2084FF0E0235A6100229A612D
:1005700001221A611A46116902E04FF0E022116966
:1005800001F001021AB101F48032002AF5D00022F4
:100590004FF0E0231A619A617047000000000020CC
:1005A00040420F0070B5002419E004F1B001C8B258
:1005B000012100F0F9F90121002000F0F5F90121F5
:1005C000102000F0F1F9002505E00021084600F0B8
:1005D000EBF9681CC5B2802DF7DB601CC4B2082C97
:1005E000E3DB70BD70B504460D4605F1B001C8B23D
:1005F000012100F0D9F9102141EA1410012100F085
:10060000D3F904F00F00012100F0CEF970BD000015
:100610002DE9F04707460E469046994600250024EE
:10062000A8F12000C5B2B9F1010F2CD15F2D00DB7C
:100630000025782F00DD0027022E00DD0026314640
:100640003846FFF7CFFF002408E01E4901EB0511F3
:10065000085D002100F0A8F9601CC4B2082CF4DB8E
:10066000701CC1B23846FFF7BDFF082408E01549E9
:1006700001EB0511085D002100F096F9601CC4B281
:10068000102CF4DB1BE05C2D00DB00257A2F00DD55
:100690000027032E00DD002631463846FFF7A2FF73
:1006A00000240AE005EB4501074A02EB4101085D21
:1006B000002100F079F9601CC4B2062CF2DBBDE821
:1006C000F0870000E4150008BC1300082DE9F04194
:1006D00005460E46174698460024B8F1010F18D17A
:1006E00013E03A5D434631462846FFF791FF05F196
:1006F0000800C5B2782D02DD0025B01CC6B2022E5E
:1007000001DDBDE8F081601CC4B2385D0028E8D18D
:1007100015E011E03A5D434631462846FFF778FF81
:10072000A81DC5B27A2D02DD0025701CC6B2032EAD
:1007300000DDE6E7601CC4B2385D0028EAD100BFE6
:10074000DFE7000010B5202000F01EF830B12020B7
:1007500000F014F80121074800F043FB402000F0AE
:1007600013F830B1402000F009F80121024800F0F0
:1007700038FB10BD0004004000080040014908603B
:1007800070470000143C014001460020034A1268F3
:100790000A400AB1012000E000207047143C0140EB
:1007A000F0B50A4600210023002400BF3DE00125EA
:1007B00005FA01F3156805EA03049C4234D1056883
:1007C0004F000326BE40B543056015794E00B54085
:1007D0000668354305601579012D02D01579022D83
:1007E00016D185684F000326BE40B5438560557914
:1007F0004E00B540866835438560456801268E40C9
:10080000B5434560456896798E40B6B2354345603C
:10081000C5684F000326BE40B543C560D5794E007C
:10082000B540C6683543C560491C1029BFD3F0BD2B
:10083000F0B5002300244D07ED0E02FA05F3CE10AB
:1008400000F1200555F826504E07F70E0F26BE4042
:10085000B543CF1000F1200646F82750CE1000F126
:10086000200555F8265045EA0304CE1000F1200576
:1008700045F82640F0BD0246002013690B400BB13D
:10088000012000E0002070474183704701837047DA
:1008900000BFFEE710B5002480211148FFF7F6FFE6
:1008A0000120FFF759FE40210D48FFF7EFFF01201F
:1008B000FFF752FE07E0601CC4B2FA2C03DD00F023
:1008C0002BF8012010BD80210548FFF7D4FF002838
:1008D000F1D140210248FFF7D7FF0020F2E70000E6
:1008E0000004024010B580210A48FFF7CFFF4021E5
:1008F0000848FFF7CBFF0120FFF72EFE80210548B7
:10090000FFF7C2FF0120FFF727FE40210148FFF754
:10091000BBFF10BD0004024010B540210A48FFF79C
:10092000B3FF80210848FFF7AFFF0120FFF714FE57
:1009300040210548FFF7AAFF80210348FFF7A6FFE3
:100940000120FFF709FE10BD0004024070B5044607
:1009500040211448FFF798FF002520E004F08000B4
:10096000802804D180210F48FFF790FF03E0802109
:100970000C48FFF789FF6006040E0120FFF7ECFD2D
:1009800040210848FFF782FF0120FFF7E5FD4021E5
:100990000448FFF779FF0120FFF7DEFD6D1C082DED
:1009A000DCDB70BD0004024070B506460D46012D2B
:1009B00001D1002400E04024FFF794FF7820FFF7E6
:1009C000C5FFFFF767FF08B1012070BD2046FFF7A4
:1009D000BDFFFFF75FFF08B10120F6E73046FFF7E4
:1009E000B5FFFFF757FF08B10120EEE7FFF794FFCF
:1009F0000020EAE700BFFEE77047000070B5002165
:100A000000230F22C4781CB3174C246804F4E0645C
:100A1000C4F5E064C4F30721C1F10404E3B20A4160
:100A200044789C40E1B28478144021430C07210EA5
:100A30000E4C05786155047804F01F050124AC4084
:100A400005786D11AD0005F1E025C5F8004109E01C
:100A5000047804F01F050124AC40054D067876119A
:100A600045F8264070BD00000CED00E000E400E019
:100A700080E100E002490143024A11607047000032
:100A80000000FA050CED00E07047000029B1064AAD
:100A900012680243044B1A6004E0034A126882435E
:100AA000014B1A60704700003038024029B1064AF5
:100AB00012680243044B1A6004E0034A126882433E
:100AC000014B1A607047000044380240F0B5002125
:100AD00000220024022500260223324F3F6807F03F
:100AE0000C0121B1042905D0082937D105E02E4F8A
:100AF000076036E02D4F076033E02A4F3F1F3F6805
:100B0000C7F38056274F3F1F3F6807F03F036EB182
:100B1000264FB7FBF3F7DFF88CC0ACF1040CDCF820
:100B200000C0CCF3881C07FB0CF40CE01E4FB7FB95
:100B3000F3F7DFF870C0ACF1040CDCF800C0CCF3C4
:100B4000881C07FB0CF4174F3F1F3F68C7F3014792
:100B50007F1C7D00B4FBF5F7076002E0124F0760D1
:100B600000BF00BF0F4F3F6807F0F0010909104FA9
:100B70007A5C0768D74047600A4F3F6807F4E05146
:100B8000890A0B4F7A5C4768D7408760054F3F68FA
:100B900007F46041490B064F7A5C4768D740C7604D
:100BA000F0BD0000083802400024F40000127A0072
:100BB00014000020704700000CB500200190009048
:100BC0003348006840F480303149086000BF304845
:100BD000006800F4003000900198401C01900098DB
:100BE00018B90198B0F5A04FF1D12948006800F478
:100BF000003010B10120009001E00020009000982A
:100C0000012844D122484030006840F080502049FB
:100C1000403108601F48006840F440401D490860AA
:100C20001B48083000681A49083108600846006807
:100C300008600846006840F4805008601648091FA4
:100C40000860081F006840F08070091F086000BF3E
:100C50000F48006800F000700028F9D040F20270E0
:100C60000E4908600A480830006820F0030008496F
:100C7000083108600846006840F00200086000BFC4
:100C800003480830006800F00C000828F8D10CBDBB
:100C9000003802400070004008544107003C024008
:100CA0007047000010B51548006840F47000134903
:100CB00008601348006840F00100114908600020F6
:100CC0000F49083108600E4800680E4908400C4979
:100CD00008600D48091D0860081F006820F4802086
:100CE000091F0860002006490C310860FFF764FF07
:100CF0004FF0006001498039086010BD88ED00E0C8
:100D000000380240FFFFF6FE1030002400B5C1B0ED
:100D10000121144800F071F808B30121114800F0D6
:100D20005DF800210F4800F05CF800210D4800F04C
:100D300075F820210C48FFF79EFD80B90BA101A892
:100D400000F0C4FA012301AA00210846FFF7BEFC07
:100D50004FF47A70FFF7DCFBFFF724FC00BF41B0D3
:100D600000BD0000000400400000024052657061B8
:100D700069720A0000B5C1B00121144800F03DF8C5
:100D800008B30121114800F029F800210F4800F0B4
:100D900028F800210D4800F041F840210C48FFF7E9
:100DA0006AFD80B90BA101A800F090FA012301AA05
:100DB00002210020FFF78AFC4FF47A70FFF7A8FBAE
:100DC000FFF7F0FB00BF41B000BD0000000800408D
:100DD0000000024048656C700A000000CA430282AD
:100DE000704721B1028842F00102028004E00288CB
:100DF0004FF6FE731A400280704730B5024600205D
:100E000000230024158A05EA0103958905EA0104F7
:100E100013B10CB1012000E0002030BD41627047E9
:100E200010B540F224410B4800F025F980B10A4882
:100E3000FFF7E9FA4FF6FF71081A08490880002108
:100E40000548FFF7D5FA034800F0CEF9C4B200BF59
:100E500010BD0000001001408864024030000020F6
:100E600010B590B0044601218805FFF70FFE4FF042
:100E700020600190002004900A904FF440300B90C5
:100E800000200C9003200D9018480290002008903C
:100E900006900F90039409904FF480600790002013
:100EA0000E904FF6FF70059001A91148FFF700FB67
:100EB00010490F48FFF782FA012210210C48FFF772
:100EC000D9FA39208DF8000002208DF801000020A9
:100ED0008DF8020001208DF803006846FFF78EFDB3
:100EE00001210348FFF784FA10B010BD041401403B
:100EF000286402400088001010B590B0044601211B
:100F00008805FFF7C3FD4FF020600190402004905A
:100F100000200A904FF440300B9000200C900320EA
:100F20000D90174802900020089006900F900394AF
:100F300009904FF48060079000200E904FF6FF70EC
:100F4000059001A90F48FFF7B3FA0F490D48FFF7C5
:100F500035FA012210210B48FFF78CFA45208DF855
:100F6000000002208DF8010000208DF80200012011
:100F70008DF803006846FFF741FD10B010BD00007A
:100F800004140140A06402400080202010B540F20B
:100F900024410B4800F06FF880B10A48FFF733FA9C
:100FA0004FF6FF71081A0849088000210548FFF72D
:100FB0001FFA034800F018F9C4B200BF10BD0000CA
:100FC00000140140286402403400002000B585B0C0
:100FD00001212020FFF76AFD4FF4E130019000204D
:100FE000ADF80800ADF80A00ADF80C00ADF810003F
:100FF0000C20ADF80E0001A9134800F08BF8012277
:1010000040F22441104800F060F847208DF80000BD
:1010100002208DF8010000208DF8020001208DF8DB
:1010200003006846FFF7EAFC01224021064800F071
:1010300019F801228021044800F014F80121024827
:1010400000F004F805B000BD0014014021B1828910
:1010500042F40052828104E082894DF6FF731A4007
:10106000828170471AB1838A0B43838202E0838AAC
:101070008B438382704770B502460024002300250D
:10108000002040F66A16B14200D100BFC1F34215FC
:1010900001F01F03012606FA03F3012D02D1968900
:1010A000334006E0022D02D1168A334001E0968AD1
:1010B00033400C12012606FA04F41688344013B1AA
:1010C0000CB1012000E0002070BDF0B50346002403
:1010D00000260025002040F66A17B94200D100BF63
:1010E0001846C1F3421401F01F06012707FA06F55E
:1010F000012C01D10C3004E0022C01D1103000E0B1
:1011000014301AB107682F43076002E00768AF4345
:101110000760F0BD2DE9FF4705460E460024A146B5
:1011200000BFA046B08900B100BF2C8A24F440540F
:10113000F08804432C82AC8941F20C608443B0886F
:1011400031890843718908430443AC81AC8A24F493
:101150004074B0890443AC826846FFF7B7FC20486E
:10116000854202D01F48854202D1DDF80C9001E093
:10117000DDF80890A88900F4004040B109EBC900EF
:1011800000EB091031684900B0FBF1F707E009EB0B
:10119000C90000EB091031688900B0FBF1F7642049
:1011A000B7FBF0F004012009642101FB1078A88945
:1011B00000F4004040B1322000EBC800B0FBF1F079
:1011C00000F00700044308E0322000EB081064211F
:1011D000B0FBF1F000F00F0004432C81BDE8FF8765
:1011E000001001400014014001468888C0F3080047
:1011F000704700BFFEE700007CB505460C460121A4
:101200000420FFF743FC082206211948FFF710FBD2
:101210004020009002208DF8040000208DF8060088
:1012200001208DF8070002208DF80500694610485E
:10123000FFF7B6FA01210420FFF728FC0822072156
:101240000B48FFF7F5FA8020009002208DF804008B
:1012500000208DF8070069460548FFF7A1FAFFF75F
:10126000B5FE2046FFF7FCFD2846FFF745FE7CBD96
:101270000008024070B504460D4604B970BD002652
:1012800007E01048007800B105E00120FFF764F99D
:10129000761CAE42F5DB00BF0A48007800B9EDE7E6
:1012A00000210948FFF7A4F821460748FFF72CF969
:1012B00000200449087001210348FFF799F800BF96
:1012C000DCE7000033000020A06402400FB40846B1
:1012D00010B5064A02A900F01AF8044602A9002037
:1012E00000F026F8204610BC5DF814FB311300080E
:1012F00002E008C8121F08C1002AFAD170477047DF
:10130000002001E001C1121F002AFBD170472DE926
:10131000F04116460F460446002503E03946B04723
:10132000641C6D1C20780028F8D12846BDE8F081A7
:101330000A68531C0B60107070470000C4B01BA3F8
:101340000FCB439340AB07C34FF47A70FFF704F918
:101350004FF4A060FFF78EFB694640A8FFF74CFFF3
:101360004FF47A70FFF7D4F80D2464212046FFF77C
:1013700081FF1AE00020FEF77FFF4FF47A70FFF73D
:10138000C7F84FF47A70FFF7C3F84FF47A70FFF79D
:10139000BFF84FF47A70FFF7BBF84FF47A70FFF79D
:1013A000B7F84FF47A70FFF7B3F8E3E741542B55E1
:1013B000545F5645523D3F0D0A00000000000000FA
:1013C00000000000002F00000000070007000014CC
:1013D0007F147F1400242A7F2A12006264081323DA
:1013E00000364955225000000503000000001C2271
:1013F0004100000041221C000014083E08140008AF
:10140000083E0808000000A060000008080808085E
:10141000000060600000002010080402003E5149F6
:10142000453E0000427F4000004261514946002194
:1014300041454B31001814127F10002745454539AE
:10144000003C4A4949300001710905030036494909
:10145000493600064949291E0000363600000000C2
:10146000563600000008142241000014141414140D
:1014700000004122140800020151090600324959B6
:10148000513E007C1211127C007F49494936003ED2
:1014900041414122007F4141221C007F494949418D
:1014A000007F09090901003E4149497A007F080887
:1014B000087F0000417F4100002040413F01007F44
:1014C00008142241007F40404040007F020C027F10
:1014D000007F0408107F003E4141413E007F090922
:1014E0000906003E4151215E007F09192946004648
:1014F000494949310001017F0101003F4040403F1F
:10150000001F2040201F003F4038403F0063140868
:101510001463000708700807006151494543000043
:101520007F41410000552A552A55000041417F0066
:10153000000402010204004040404040000001025B
:101540000400002054545478007F48444438003844
:101550004444442000384444487F003854545418CC
:1015600000087E0901020018A4A4A47C007F0804DE
:1015700004780000447D4000004080847D00007FAE
:10158000102844000000417F4000007C04180478CB
:10159000007C0804047800384444443800FC2424C7
:1015A00024180018242418FC007C080404080048AF
:1015B0005454542000043F444020003C4040207CD0
:1015C000001C2040201C003C4030403C00442810BF
:1015D0002844001CA0A0A07C004464544C44141473
:1015E00014141414000000000000000000000000AB
:1015F00000000000000000F80000000000000033C0
:101600003000000000100C06100C06000000000066
:101610000000000040C07840C0784000043F04044F
:101620003F040400007088FC08300000001820FF10
:10163000211E0000F008F000E018000000211C034B
:101640001E211E0000F00888700000001E212324C7
:101650001927211010160E000000000000000000E5
:1016600000000000000000E0180402000000000775
:101670001820400000020418E0000000004020187C
:1016800007000000404080F0804040000202010F4F
:1016900001020200000000F0000000000101011F33
:1016A00001010100000000000000000080B0700097
:1016B0000000000000000000000000000001010127
:1016C00001010101000000000000000000303000B6
:1016D0000000000000000000806018040060180690
:1016E0000100000000E010080810E000000F1020CA
:1016F00020100F00001010F8000000000020203F14
:10170000202000000070080808887000003028249D
:10171000222130000030088888483000001820203E
:1017200020110E000000C02010F800000007042463
:10173000243F240000F808888808080000192120A8
:1017400020110E0000E0108888180000000F112002
:1017500020110E0000380808C83808000000003FBB
:10176000000000000070880808887000001C22211A
:1017700021221C0000E010080810E00000003122C7
:1017800022110F00000000C0C00000000000003067
:1017900030000000000000800000000000008060B9
:1017A000000000000000804020100800000102043A
:1017B0000810200040404040404040000404040421
:1017C00004040400000810204080000000201008DD
:1017D00004020100007048080808F0000000003012
:1017E00036010000C030C828E810E00007182724A0
:1017F00023140B000000C038E0000000203C23024E
:101800000227382008F8888888700000203F2020B0
:1018100020110E00C03008080808380007182020E2
:101820002010080008F808080810E000203F2020D9
:1018300020100F0008F88888E8081000203F2020BA
:101840002320180008F88888E8081000203F2000AE
:1018500003000000C03008080838000007182020E6
:10186000221E020008F808000008F808203F2101A5
:1018700001213F20000808F8080800000020203F50
:101880002020000000000808F8080800C0808080C0
:101890007F00000008F888C028180800203F2001B9
:1018A0002638200008F8080000000000203F202013
:1018B0002020300008F8F800F8F80800203F003F2A
:1018C000003F200008F830C00008F808203F200042
:1018D00007183F00E01008080810E0000F10202053
:1018E00020100F0008F808080808F000203F210128
:1018F00001010000E01008080810E0000F1824247F
:1019000038504F0008F8888888887000203F2000F1
:10191000030C3020007088080808380000382021A7
:1019200021221C00180808F8080818000000203FB1
:101930002000000008F808000008F808001F202018
:1019400020201F000878880000C8380800000738E9
:101950000E010000F80800F80008F800033C07003A
:10196000073C0300081868808068180820302C03A2
:10197000032C30200838C800C83808000000203F79
:101980002000000010080808C83808002038262168
:1019900020201800000000FE020202000000007F6C
:1019A00040404000000C30C000000000000000017A
:1019B0000638C00000020202FE0000000040404065
:1019C0007F0000000000040202020400000000008A
:1019D0000000000000000000000000008080808007
:1019E00080808080000202040000000000000000EF
:1019F0000000000000008080808000000019242288
:101A000022223F2008F8008080000000003F1120C3
:101A100020110E000000008080800000000E1120C8
:101A200020201100000000808088F800000E1120A6
:101A300020103F200000808080800000001F2222B4
:101A400022221300008080F0888888180020203F20
:101A5000202000000000808080808000006B949433
:101A60009493600008F8008080800000203F2100EF
:101A700000203F2000809898000000000020203FB8
:101A800020200000000000809898000000C08080A6
:101A9000807F000008F8000080808000203F240242
:101AA0002D302000000808F8000000000020203F32
:101AB000202000008080808080808000203F2000E7
:101AC0003F20003F8080008080800000203F210078
:101AD00000203F200000808080800000001F202028
:101AE00020201F00808000808000000080FFA12057
:101AF00020110E000000008080808000000E112068
:101B000020A0FF80808080008080800020203F21F6
:101B100020000100000080808080800000332424A9
:101B200024241900008080E0808000000000001F55
:101B3000202000008080000000808000001F202006
:101B400020103F20808080000080808000010E30C7
:101B50000806010080800080008080800F300C0328
:101B60000C300F0000808000808080000020312E2B
:101B70000E312000808080000080808080818E7007
:101B80001806010000808080808080000021302CB9
:101B90002221300000000000807C020200000000D2
:101BA000003F404000000000FF0000000000000077
:101BB000FF0000000002027C800000000040403F67
:101BC0000000000000060101020204040000000001
:101BD00000000000F41B0008000000203800000096
:101BE000F01200082C1C0008380000201804000027
:101BF0000013000800BD0105000000000000000007
:101C000001020304060708090000000001020304A2
:101C10000102030406070809333333403333533AD0
:0C1C2000000001010000010100000000B4
:040000050800019559
:00000001FF
