:020000040800F2
:1000000078080020AD010008BD1200085511000855
:10001000B9120008850300086B1C000800000000EE
:10002000000000000000000000000000791400083B
:10003000850C0008000000004D130008651500083D
:10004000C7010008C7010008C7010008C701000870
:10005000C7010008C7010008C7010008C701000860
:10006000C7010008C7010008C7010008C701000850
:10007000C7010008C7010008C7010008C701000840
:10008000C7010008C701000839030008000000008C
:10009000000000000000000000000000091000083F
:1000A000C7010008C7010008C7010008C701000810
:1000B000C7010008D11500083D160008C701000857
:1000C000C7010008C7010008C7010008C7010008F0
:1000D000C701000819180008C70100080000000047
:1000E000C7010008C7010008C701000800000000A0
:1000F000000000000000000000000000C701000830
:1001000000000000C7010008C7010008C70100087F
:1001100000000000000000000000000000000000DF
:10012000C7010008850A0008C7010008C7010008C8
:10013000C7010008000000000000000000000000EF
:10014000000000000000000000000000C7010008DF
:10015000B50A0008E50A00080D0B0008051A00089A
:10016000C7010008C70100080000000000000000EF
:10017000000000000000000000000000000000007F
:1001800000000000C701000800000000000000009F
:10019000C7010008DFF810D000F080F800480047E1
:1001A00041230008AFF3008078080020064880470C
:1001B00006480047FEE7FEE7FEE7FEE7FEE7FEE74C
:1001C000FEE7FEE7FEE7FEE7691500089501000877
:1001D00040EA01039B0703D009E008C9121F08C0C9
:1001E000042AFAD203E011F8013B00F8013B521E49
:1001F000F9D2704730B505462A460B4612F8010B76
:1002000013F8014B08B1A042F8D01CB1002802D06D
:100210006D1CF1E7284630BD421C10F8011B002977
:10022000FBD1801A7047034611F8012B00F8012B0F
:10023000002AF9D1184670472DE9F05F05460020E5
:1002400092469B4688460646814640241BE0284647
:1002500041464746224600F042F853465A46C01AE5
:10026000914110D311461846224600F029F82D1A64
:1002700067EB01084F4622460120002100F020F8DC
:1002800017EB00094E41201EA4F10104DFDC4846B3
:1002900031462A464346BDE8F09F0000064C074D14
:1002A00006E0E06840F0010394E807009847103446
:1002B000AC42F6D3FFF772FF042D0008242D00088E
:1002C000202A04DB203A00FA02F100207047914016
:1002D000C2F1200320FA03F3194390407047202A0B
:1002E00004DB203A21FA02F00021704721FA02F3E0
:1002F000D040C2F1200291400843194670470022C5
:100300000A12D343036070470146C86C80B270473D
:1003100070B502460020002300240B125568012608
:100320008E4005EA060415681D4015B10CB1012088
:1003300000E0002070BD000010B540F205210E481D
:10034000FFF7E6FFB8B140F205210B48FFF7D7FFF2
:100350000948FFF7D9FF0949094A127821F8120024
:1003600007480078401C06490870084600780A28AB
:1003700001DB0020087010BD002001406400002057
:100380002C00002000BFFEE710B54FF47A7000F09B
:100390007BFC3B493B4801F0F5FC3BA13948FFF7AA
:1003A00042FF3848FFF738FF84B24FF49671204679
:1003B00001F046FD00F032FA08B1012010BD052021
:1003C00000F062FC354802780021084600F03AFA55
:1003D00008B10120F2E73249324801F049FC32A16C
:1003E0003048FFF720FF2F48FFF716FF84B24FF485
:1003F0009671204601F09AFC00F05EF84FF47A7096
:1004000000F042FC4FF47A7000F03EFC4FF47A703A
:1004100000F03AFC4FF47A7000F036FC4FF47A703A
:1004200000F032FC1F48FFF7F7FE84B24FF49671DC
:10043000204601F07BFC00F03FF84FF47A7000F0AA
:1004400023FC11A11748FFF7EEFE1648FFF7E4FE64
:1004500084B24FF49671204601F068FC00F02CF84D
:1004600008B10120AAE7052000F00EFC0FA111A0A1
:1004700000F036F808B10120A0E700209EE7000058
:10048000780100207800002041542B55545F5245DC
:10049000434F564552590D0A000000003600002017
:1004A00078030020780200203C2D3E005443504346
:1004B000000000005354410000B5C1B001A800F095
:1004C00099F910B1012041B000BD04A101A8FFF7C6
:1004D00091FE08B90120F6E70020F4E74F4B000039
:1004E000F0B5C3B005460F4686A18C48FFF79BFECA
:1004F0008A48FFF791FE86B24FF49671304601F0BC
:1005000015FC4FF4967001F0F1FB0446002084497D
:10051000085584A18248FFF76DFE10B9012043B051
:10052000F0BD814881492B4681A2CDE9001083A10D
:1005300003A801F0B1FC03A97848FFF774FE7748DF
:10054000FFF76AFE86B24FF49671304601F0EEFB7B
:100550004FF4967001F0CAFB04460020704908551C
:1005600070A16F48FFF746FE08B90120D7E778A3CE
:1005700079A27DA103A801F08FFC03A96748FFF7CA
:1005800052FE6648FFF748FE86B24FF49671304639
:1005900001F0CCFB4FF4967001F0A8FB044600205C
:1005A0005F4908555FA15E48FFF724FE08B90120A6
:1005B000B5E76F4800886F496FA371A2CDE90010BD
:1005C00073A103A801F068FC03A95448FFF72BFEB0
:1005D0005248FFF721FE86B24FF49671304601F083
:1005E000A5FB4FF4967001F081FB044600204C49B6
:1005F00008554CA14A48FFF7FDFD08B901208EE7D8
:1006000067A355A258A103A801F046FC03A94348DB
:10061000FFF709FE4148FFF7FFFD86B24FF49671E0
:10062000304601F083FB4FF4967001F05FFB044607
:1006300000203B4908553BA13948FFF7DBFD08B9CD
:1006400001206CE758A0002359A25DA1009003A8E7
:1006500001F022FC03A93148FFF7E5FD2F48FFF721
:10066000DBFD86B24FF49671304601F05FFB4FF42C
:10067000967001F03BFB044600202949085529A14A
:100680002748FFF7B7FD08B9012048E74FA351A25B
:1006900035A103A801F000FC03A92048FFF7C3FD22
:1006A0001E48FFF7B9FD86B24FF49671304601F04F
:1006B0003DFB4FF4967001F019FB044600201849E9
:1006C000085518A11648FFF795FD08B9012026E73F
:1006D00044A11248FFF7A7FD1048FFF79DFD86B221
:1006E0004FF49671304601F021FB4FF4967001F003
:1006F000FDFA044600200A490855052000F0C4FA16
:1007000000200CE741542B55545F524553484F5736
:100710003D44495341424C450D0A000078020020F7
:10072000780300204F4B00004200002037000020DB
:1007300041542B574946493D00000000257325735D
:100740002C25732C25732C4F50454E0D0A000000AC
:1007500044495341424C450041542B4554485F4362
:100760004831454E3D000000257325730D0A0000F9
:10077000600000204D000020544350430000000062
:1007800041542B4554485F434831503D0000000020
:10079000257325732C25732C25640D0A0000000099
:1007A000454E41424C45000031323334353600006D
:1007B00041542B4554485F4348314854503D000054
:1007C000257325642C25730D0A00000054435055F1
:1007D0004450000041542B55545F574B4D4F4445F6
:1007E0003D00000041542B55545F52455345540D74
:1007F0000A00000070B505464FF4967001F076FAD5
:1008000004460CB9012070BD002003490855284654
:10081000FFF709FD0020F6E77803002000B5C1B01E
:1008200001A800F0BBF810B1012041B000BD04A147
:1008300001A8FFF7DFFC08B90120F6E70020F4E784
:100840004F4B0000F0B5C1B004460D461646234696
:1008500037A23BA101A801F01FFB01A93A48FFF70D
:10086000E2FC3948FFF7D8FC87B24FF4967138465E
:1008700001F0E6FAFFF7D2FF10B1012041B0F0BD60
:1008800032A13148FFF7CFFC2F48FFF7C5FC87B2F4
:100890004FF49671384601F0D3FAFFF7BFFF08B165
:1008A0000120EBE723462DA22FA101A8009601F01D
:1008B000F3FA01A92448FFF7B6FC2348FFF7ACFC84
:1008C00087B24FF49671384601F0BAFAFFF7A6FFE7
:1008D00008B10120D2E72B4627A219A101A801F0F7
:1008E000DBFA01A91848FFF79EFC1748FFF794FCB4
:1008F00087B24FF49671384601F0A2FAFFF78EFFE7
:1009000008B10120BAE720A10F48FFF78CFC0E4880
:10091000FFF782FC87B24FF49671384601F090FAE7
:10092000FFF77CFF08B10120A8E70020A6E7000040
:1009300041542B5A4947425F545950453D000000ED
:10094000257325640D0A00007800002041542B55C2
:10095000545F52455345540D0A00000041542B5535
:10096000545F5549443D00002573253032582530E9
:1009700032580D0A0000000041542B5A4947425F8B
:1009800052584D4F44453D0041542B5A4947425F10
:100990005354415455533D3F0D0A000070B5054670
:1009A0004FF4967001F02CFA04460CB9012070BD8A
:1009B0000020034908552846FFF735FC0020F6E7DC
:1009C00078010020F0B5C3B005460C4616462B460C
:1009D0001AA21FA103A8009401F05EFA03A92048FF
:1009E000FFF721FC1E48FFF717FC87B24FF4967102
:1009F000384601F025FAFFF711FF10B1012043B08E
:100A0000F0BD2B4617A21AA103A8CDE9004601F0BC
:100A100043FA03A91248FFF706FC1148FFF7FCFB55
:100A200087B24FF49671384601F00AFAFFF7F6FEE6
:100A300008B10120E3E70020E1E7000041542B5A10
:100A40004947425F554944544F49443D0000000026
:100A5000257325303258253032580D0A0000000029
:100A60007800002041542B55545F53454E443D00BF
:100A7000257330332C25303258253032582C2573CD
:100A80000D0A000010B50849084800F07DF850B183
:100A90000549064800F04EF801200549087001217B
:100AA000024800F061F810BD008800102864024080
:100AB0003200002010B50849084800F065F850B130
:100AC0000549064800F036F8012005490870012163
:100AD000024800F049F810BD0088002088640240F8
:100AE0002E00002010B50649064800F04DF830B140
:100AF0000349044800F01EF801200349087010BDA6
:100B000000802020A06402403300002010B5064978
:100B1000064800F039F830B10349044800F00AF8FB
:100B200001200349087010BD00800028B86402400D
:100B30002F0000200246094B9A4201D2084801E0EA
:100B40000648103801F000531BB1064B0B40C36040
:100B500002E0044B0B4083607047000010640240C9
:100B6000006002407D0F7D0F21B1026842F001025A
:100B7000026003E0026822F0010202607047014651
:100B8000486880B27047000070B50246002000241B
:100B90000025124EB24201D2114B01E00F4B103B27
:100BA000104E0E4036B11E2606EAD124166806EA1B
:100BB000040502E0566906F0800501F000560EB10A
:100BC0005C6800E01C68084E344004EA010616B177
:100BD0000DB1012000E0002070BD00001064024053
:100BE000006002403C0F3C0F7D0F7D0F10B501F0FF
:100BF00080034BB122B1436943F08003436103E0BA
:100C0000436923F08003436180290BD02AB1036834
:100C100001F01E042343036004E0036801F01E0496
:100C2000A343036010BD000010B500220268134BFF
:100C30001A40CC680B6823434C6923438C692343D7
:100C4000CC6923430C6A23434C6A23438C6A2343B5
:100C50004C6B23438C6B23431A430260426922F09E
:100C60000702D1E90B3423431A4342610B69436005
:100C70004B6883608B68C36010BD00003F801CF030
:100C80004160704770470000104A12684FF47A7351
:100C9000B2FBF3F24243D2084FF0E0235A61002244
:100CA0009A6101221A611A46116902E04FF0E022AE
:100CB000116901F001021AB101F48032002AF5D065
:100CC00000224FF0E0231A619A6170470000002073
:100CD000104A1268104BB2FBF3F24243D2084FF0B5
:100CE000E0235A6100229A6101221A611A461169B1
:100CF00002E04FF0E022116901F001021AB101F4A3
:100D00008032002AF5D000224FF0E0231A619A6168
:100D1000704700000000002040420F0070B5002422
:100D200019E004F1B001C8B2012100F09FFA0121DD
:100D3000002000F09BFA0121102000F097FA002516
:100D400005E00021084600F091FA681CC5B2802D2C
:100D5000F7DB601CC4B2082CE3DB70BD1CB50121BD
:100D6000022000F0F5FA8020009001208DF80400A8
:100D70008DF806008DF807008DF8050069460F48CC
:100D800000F070F980210D4800F0E2F90121022005
:100D900000F0DEFA4020009001208DF804008DF86C
:100DA00006008DF807008DF805006946034800F03D
:100DB00059F94021014800F0CBF91CBD0004024064
:100DC00010B5FFF7CBFF0120FFF75EFFC820FFF74C
:100DD0005BFF0121AE2000F049FA0121002000F064
:100DE00045FA0121102000F041FA0121402000F0D5
:100DF0003DFA0121B02000F039FA0121812000F0F4
:100E000035FA0121FF2000F031FA0121A02000F085
:100E10002DFA0121A62000F029FA0121A82000F0D6
:100E200025FA01211F2000F021FA0121C02000F045
:100E30001DFA0121D32000F019FA0121002000F051
:100E400015FA0121D52000F011FA0121002000F04F
:100E50000DFA0121D92000F009FA01211F2000F02C
:100E600005FA0121DA2000F001FA0121022000F048
:100E7000FDF90121DB2000F0F9F90121302000F01B
:100E8000F5F901218D2000F0F1F90121142000F085
:100E9000EDF90121AF2000F0E9F9FFF73FFF10BDA8
:100EA00070B504460D4605F1B001C8B2012100F04D
:100EB000DDF9102141EA1410012100F0D7F904F006
:100EC0000F00012100F0D2F970BD00002DE9F047BC
:100ED00007460E469046994600250024A8F12000BA
:100EE000C5B2B9F1010F2CD15F2D00DB0025782FA1
:100EF00000DD0027022E00DD002631463846FFF7D0
:100F0000CFFF002408E01E4901EB0511085D002118
:100F100000F0ACF9601CC4B2082CF4DB701CC1B248
:100F20003846FFF7BDFF082408E0154901EB05111D
:100F3000085D002100F09AF9601CC4B2102CF4DBAB
:100F40001BE05C2D00DB00257A2F00DD0027032E3F
:100F500000DD002631463846FFF7A2FF00240AE0F4
:100F600005EB4501074A02EB4101085D002100F055
:100F70007DF9601CC4B2062CF2DBBDE8F0870000EE
:100F800014270008EC2400082DE9F04705460E461A
:100F900017469846DDF820900024B9F1010F19D1C9
:100FA00013E03A5D4B4631462846FFF78FFF05F1C7
:100FB0000800C5B2782D02DD0025B01CC6B2022E95
:100FC00001DDBDE8F087601CC4B2385DC8B144459E
:100FD000E7DB16E011E03A5D4B4631462846FFF765
:100FE00075FFA81DC5B27A2D02DD0025701CC6B2A2
:100FF000032E00DDE5E7601CC4B2385D08B144454E
:10100000E9DB00BFDDE7000010B5202000F01EF88E
:1010100030B1202000F014F80121074800F047FB10
:10102000402000F013F830B1402000F009F8012111
:10103000024800F03CFB10BD0004004000080040E6
:101040000149086070470000143C0140014600203F
:10105000034A12680A400AB1012000E000207047EC
:10106000143C0140F0B50A4600210023002400BFD3
:101070003DE0012505FA01F3156805EA03049C42E9
:1010800034D105684F000326BE40B543056015798D
:101090004E00B5400668354305601579012D02D034
:1010A0001579022D16D185684F000326BE40B54341
:1010B000856055794E00B540866835438560456842
:1010C00001268E40B5434560456896798E40B6B29C
:1010D00035434560C5684F000326BE40B543C56033
:1010E000D5794E00B540C6683543C560491C102906
:1010F000BFD3F0BDF0B5002300244D07ED0E02FA7A
:1011000005F3CE1000F1200555F826504E07F70ED6
:101110000F26BE40B543CF1000F1200646F82750F9
:10112000CE1000F1200555F8265045EA0304CE10F4
:1011300000F1200545F82640F0BD02460020136965
:101140000B400BB1012000E0002070474183704745
:101150000183704700BFFEE710B5002480211148CD
:10116000FFF7F6FF0120FFF7B3FD40210D48FFF721
:10117000EFFF0120FFF7ACFD07E0601CC4B2FA2CC2
:1011800003DD00F02BF8012010BD80210548FFF79A
:10119000D4FF0028F1D140210248FFF7D7FF0020FB
:1011A000F2E700000004024010B580210A48FFF772
:1011B000CFFF40210848FFF7CBFF0120FFF788FD54
:1011C00080210548FFF7C2FF0120FFF781FD402184
:1011D0000148FFF7BBFF10BD0004024010B54021DD
:1011E0000A48FFF7B3FF80210848FFF7AFFF01204F
:1011F000FFF76EFD40210548FFF7AAFF8021034855
:10120000FFF7A6FF0120FFF763FD10BD00040240B9
:1012100070B5044640211448FFF798FF002520E0F0
:1012200004F08000802804D180210F48FFF790FF50
:1012300003E080210C48FFF789FF6006040E0120BF
:10124000FFF746FD40210848FFF782FF0120FFF726
:101250003FFD40210448FFF779FF0120FFF738FDEB
:101260006D1C082DDCDB70BD0004024070B5064625
:101270000D46012D01D1002400E04024FFF794FF2A
:101280007820FFF7C5FFFFF767FF08B1012070BDA9
:101290002046FFF7BDFFFFF75FFF08B10120F6E72B
:1012A0003046FFF7B5FFFFF757FF08B10120EEE723
:1012B000FFF794FF0020EAE700BFFEE77047000059
:1012C00070B5002100230F22C4781CB3174C24688A
:1012D00004F4E064C4F5E064C4F30721C1F104043C
:1012E000E3B20A4144789C40E1B28478144021433F
:1012F0000C07210E0E4C05786155047804F01F058B
:101300000124AC4005786D11AD0005F1E025C5F86C
:10131000004109E0047804F01F050124AC40054DAC
:101320000678761145F8264070BD00000CED00E00F
:1013300000E400E080E100E002490143024A11605C
:10134000704700000000FA050CED00E07047000057
:1013500029B1064A12680243044B1A6004E0034AAA
:1013600012688243014B1A60704700003038024017
:1013700029B1064A12680243044B1A6004E0034A8A
:1013800012688243014B1A607047000044380240E3
:10139000F0B5002100220024022500260223324F4E
:1013A0003F6807F00C0121B1042905D0082937D185
:1013B00005E02E4F076036E02D4F076033E02A4FDF
:1013C0003F1F3F68C7F38056274F3F1F3F6807F016
:1013D0003F036EB1264FB7FBF3F7DFF88CC0ACF1DB
:1013E000040CDCF800C0CCF3881C07FB0CF40CE008
:1013F0001E4FB7FBF3F7DFF870C0ACF1040CDCF85C
:1014000000C0CCF3881C07FB0CF4174F3F1F3F684C
:10141000C7F301477F1C7D00B4FBF5F7076002E0CE
:10142000124F076000BF00BF0F4F3F6807F0F00189
:101430000909104F7A5C0768D74047600A4F3F6838
:1014400007F4E051890A0B4F7A5C4768D740876000
:10145000054F3F6807F46041490B064F7A5C4768C7
:10146000D740C760F0BD0000083802400024F400F7
:1014700000127A0014000020704700000CB5002014
:10148000019000903348006840F480303149086092
:1014900000BF3048006800F4003000900198401C04
:1014A0000190009818B90198B0F5A04FF1D12948E2
:1014B000006800F4003010B10120009001E000202D
:1014C00000900098012844D122484030006840F044
:1014D00080502049403108601F48006840F4404077
:1014E0001D4908601B48083000681A490831086027
:1014F0000846006808600846006840F480500860AC
:101500001648091F0860081F006840F08070091F16
:10151000086000BF0F48006800F000700028F9D094
:1015200040F202700E4908600A480830006820F056
:1015300003000849083108600846006840F00200CE
:10154000086000BF03480830006800F00C0008285D
:10155000F8D10CBD0038024000700040085441072B
:10156000003C02407047000010B51548006840F488
:101570007000134908601348006840F001001149E9
:10158000086000200F49083108600E4800680E49C5
:1015900008400C4908600D48091D0860081F0068D4
:1015A00020F48020091F0860002006490C310860E3
:1015B000FFF764FF4FF0006001498039086010BDFB
:1015C00088ED00E000380240FFFFF6FE10300024F6
:1015D00000B5C1B00121154800F075F818B301211C
:1015E000124800F061F80021104800F060F8002176
:1015F0000E4800F079F820210D48FFF79EFD90B9C4
:101600000CA101A800F048FC0120FF2301AA002141
:1016100000900846FFF7B8FC4FF47A70FFF734FBF0
:10162000FFF77CFB00BF41B000BD0000000400409C
:10163000000002405265706169720A0000B5C1B0D5
:101640000121154800F03FF818B30121124800F0BD
:101650002BF80021104800F02AF800210E4800F075
:1016600043F840210D48FFF768FD90B90CA101A88F
:1016700000F012FC0120FF2301AA022100900020AB
:10168000FFF782FC4FF47A70FFF7FEFAFFF746FB94
:1016900000BF41B000BD0000000800400000024053
:1016A00048656C700A000000CA430282704721B18D
:1016B000028842F00102028004E002884FF6FE73C5
:1016C0001A400280704730B50246002000230024F3
:1016D000158A05EA0103958905EA010413B10CB1E5
:1016E000012000E0002030BD4162704710B590B08D
:1016F000044601218805FFF72BFE4FF000600190A2
:10170000002004900A904FF440300B9000200C9081
:1017100003200D90184802900020089006900F902A
:10172000039409904FF48060079000200E904FF6CC
:10173000FF70059001A91148FFF776FA10490F488C
:10174000FFF7F8F9012210210C48FFF74FFA442067
:101750008DF8000002208DF8010000208DF80200B5
:1017600001208DF803006846FFF7AAFD0121034818
:10177000FFF7FAF910B010BD041001408864024070
:101780000088002010B590B0044601218805FFF7BD
:10179000DFFD4FF0006001904020049000200A908F
:1017A0004FF440300B9000200C9003200D90174810
:1017B00002900020089006900F90039409904FF437
:1017C0008060079000200E904FF6FF70059001A9F1
:1017D0000F48FFF729FA0F490D48FFF7ABF901222F
:1017E00010210B48FFF702FA46208DF80000022076
:1017F0008DF8010000208DF8020001208DF8030013
:101800006846FFF75DFD10B010BD000004100140F8
:10181000B86402400080002810B540F224410B4813
:1018200000F065F980B10A48FFF7A9F94FF6FF719A
:10183000081A0849088000210548FFF795F9034870
:1018400000F00EFAC4B200BF10BD0000001001404D
:10185000886402403000002000B585B001211020CE
:10186000FFF786FD4FF4E13001900020ADF808004D
:10187000ADF80A00ADF80C00ADF810000C20ADF882
:101880000E0001A9134800F081F9012240F2244121
:10189000104800F056F925208DF8000002208DF840
:1018A000010000208DF8020001208DF80300684639
:1018B000FFF706FD01224021064800F00FF9012242
:1018C0008021044800F00AF90121024800F0FAF8EA
:1018D00005B000BD0010014010B590B004460121D4
:1018E0008805FFF735FD4FF020600190002004903F
:1018F0000A904FF440300B9000200C9003200D9084
:10190000184802900020089006900F9003940990C8
:101910004FF48060079000200E904FF6FF70059006
:1019200001A91148FFF780F910490F48FFF702F9A4
:10193000012210210C48FFF759F939208DF80000D9
:1019400002208DF8010000208DF8020001208DF8A2
:1019500003006846FFF7B4FC01210348FFF704F9D0
:1019600010B010BD0414014028640240008800102B
:1019700010B590B0044601218805FFF7E9FC4FF04F
:10198000206001904020049000200A904FF44030E5
:101990000B9000200C9003200D901748029000201F
:1019A000089006900F90039409904FF48060079080
:1019B00000200E904FF6FF70059001A90F48FFF729
:1019C00033F90F490D48FFF7B5F8012210210B48F4
:1019D000FFF70CF945208DF8000002208DF801007A
:1019E00000208DF8020001208DF803006846FFF703
:1019F00067FC10B010BD000004140140A064024058
:101A00000080202010B540F224410B4800F06FF810
:101A100080B10A48FFF7B3F84FF6FF71081A08497A
:101A2000088000210548FFF79FF8034800F018F9E7
:101A3000C4B200BF10BD0000001401402864024081
:101A40003400002000B585B001212020FFF790FC74
:101A50004FF4E13001900020ADF80800ADF80A0025
:101A6000ADF80C00ADF810000C20ADF80E0001A987
:101A7000134800F08BF8012240F22441104800F096
:101A800060F847208DF8000002208DF8010000204A
:101A90008DF8020001208DF803006846FFF710FC66
:101AA00001224021064800F019F801228021044853
:101AB00000F014F80121024800F004F805B000BD60
:101AC0000014014021B1828942F40052828104E075
:101AD00082894DF6FF731A40828170471AB1838A5A
:101AE0000B43838202E0838A8B438382704770B505
:101AF0000246002400230025002040F66A16B14269
:101B000000D100BFC1F3421501F01F03012606FA00
:101B100003F3012D02D19689334006E0022D02D154
:101B2000168A334001E0968A33400C12012606FAE9
:101B300004F41688344013B10CB1012000E00020F9
:101B400070BDF0B50346002400260025002040F6B5
:101B50006A17B94200D100BF1846C1F3421401F020
:101B60001F06012707FA06F5012C01D10C3004E00D
:101B7000022C01D1103000E014301AB107682F4355
:101B8000076002E00768AF430760F0BD2DE9FF473B
:101B900005460E460024A14600BFA046B08900B10C
:101BA00000BF2C8A24F44054F08804432C82AC8972
:101BB00041F20C608443B08831890843718908433D
:101BC0000443AC81AC8A24F44074B0890443AC82F1
:101BD0006846FFF7DDFB2048854202D01F4885425A
:101BE00002D1DDF80C9001E0DDF80890A88900F43E
:101BF000004040B109EBC90000EB09103168490011
:101C0000B0FBF1F707E009EBC90000EB0910316800
:101C10008900B0FBF1F76420B7FBF0F00401200964
:101C2000642101FB1078A88900F4004040B1322003
:101C300000EBC800B0FBF1F000F00700044308E03F
:101C4000322000EB08106421B0FBF1F000F00F002F
:101C500004432C81BDE8FF870010014000140140BF
:101C600001468888C0F30800704700BFFEE7000007
:101C70007CB505460C4601210420FFF769FB0822CC
:101C800006211948FFF736FA4020009002208DF80F
:101C9000040000208DF8060001208DF807000220C6
:101CA0008DF8050069461048FFF7DCF90121042092
:101CB000FFF74EFB082207210B48FFF71BFA802095
:101CC000009002208DF8040000208DF8070069467E
:101CD0000548FFF7C7F9FFF7B5FE2046FFF7FCFD03
:101CE0002846FFF745FE7CBD0008024070B504465B
:101CF000002507E00B48007800B105E00120FEF761
:101D0000C3FF6D1CA542F5DB00BF0648007810B983
:101D10000548008870BD002002490870024800880C
:101D2000F8E70000320000203400002070B50446BF
:101D30000D4604B970BD002607E01048007800B1D8
:101D400005E00120FEF7A0FF761CAE42F5DB00BFE8
:101D50000A48007800B9EDE700210948FEF704FFC2
:101D600021460748FEF78CFF002004490870012136
:101D70000348FEF7F9FE00BFDCE700003300002057
:101D8000A06402407CB505460C4601210846FFF7D9
:101D9000DFFA072209211948FFF7ACF94FF4007068
:101DA000009000208DF804008DF8060001208DF8C9
:101DB000070002208DF8050069461048FFF752F928
:101DC00001210846FFF7C4FA07220A210B48FFF752
:101DD00091F94FF48060009000208DF804008DF898
:101DE000070069460548FFF73DF9FFF735FD204636
:101DF000FFF77CFC2846FFF7C5FC7CBD00000240D5
:101E000070B50446002507E00B48007800B105E0F6
:101E10000120FEF739FF6D1CA542F5DB00BF064827
:101E2000007810B90548008870BD0020024908708C
:101E300002480088F8E700002E0000203000002053
:101E400070B504460D4604B970BD002607E0104881
:101E5000007800B105E00120FEF716FF761CAE42C7
:101E6000F5DB00BF0A48007800B9EDE7002109481A
:101E7000FEF77AFE21460748FEF702FF00200449DC
:101E8000087001210348FEF76FFE00BFDCE7000089
:101E90002F000020B86402400FB4084B10B504A90D
:101EA00002AA039800F01CF8044602A9002000F0E2
:101EB00042FA204610BC5DF814FB000037230008EE
:101EC00002E008C8121F08C1002AFAD17047704703
:101ED000002001E001C1121F002AFBD17047000061
:101EE0002DE9FF4F8DB00F460546002606E0252858
:101EF0000BD0DDE90F1290476D1C761C2878002866
:101F0000F5D111B03046BDE8F08F0024A246A146BD
:101F10000122E94900E0044315F8013F203B02FAA1
:101F200003F00842F7D128782A2810D06FF02F024A
:101F30002878A0F13001092914D80AEB8A0102EBB4
:101F4000410144F0020400EB010A6D1CF0E701CFEF
:101F50005FEA000A03D544F40054CAF1000A44F0D1
:101F600002046D1C28782E2817D115F8010F44F0B3
:101F700004042A280ED06FF02F022878A0F1300137
:101F800009290AD809EB890102EB410100EB01099B
:101F90006D1CF2E757F8049B6D1C28786C280FD055
:101FA00006DC4C2817D068280DD06A2814D104E02C
:101FB000742810D07A280FD10DE044F400140AE000
:101FC00044F4801401E044F440146978814202D161
:101FD00004F580146D1C6D1C28786E281ED00CDC56
:101FE000632830D004DC00288BD0582811D19FE022
:101FF000642867D069280CD164E073282DD004DCF4
:102000006F2872D0702804D194E075286ED078289B
:102010006DD0DDE90F129047761C4BE1C4F30250FE
:10202000022806D0032809D0042801CF09D0066071
:1020300040E101CFF117C0E900613BE101CF06802B
:1020400038E1067036E117F8040B8DF80000002027
:102050008DF80100EB46012003E057F804BB4FF078
:10206000FF3061074FF0000102D40DE008F10101DB
:10207000884649450FDA8045F8DB1BF8081000292F
:10208000F4D108E008F1010188468142FADB1BF82F
:1020900008100029F6D1DDE90F23AAEB08008146DC
:1020A000214600F031F9304400EB080604E0DDE998
:1020B0000F121BF8010B9047B8F10108F7D2214627
:1020C0004846F2E00A21C4F302524FF0000B089197
:1020D000022A04D001CFC117032A09D00AE0FF1D4C
:1020E00027F00707F7E8020108E02CE01EE01FE0F8
:1020F00000B2C117042A01D140B2C117021E71F10A
:10210000000206DA0023D0EB030063EB01012D226D
:1021100002E0220504D52B228DF82420012203E0C1
:10212000E20701D02022F7E7904653E00A210BE0B6
:10213000102109E010214FF0000B44F004044FF08F
:102140000809089103E008214FF0000B0891C4F33F
:102150000252022A04D001CF0021032A06D006E051
:10216000FF1D27F00707F7E8020103E080B2042A09
:1021700000D1C0B24FF0000822072BD52A78702A70
:1021800007D0DDF820C08CF0100C5CEA0B0C05D0F9
:102190000EE040228DF82420012208E050EA0103DD
:1021A00006D030238DF824308DF825200222904669
:1021B000089B83F0080353EA0B030BD150EA01029A
:1021C00001D1620706D530228DF824204FF0010896
:1021D000A9F101092A78582A04D038A20B9208AA3A
:1021E0000A920BE03AA2F9E75B46089AFEF724F858
:1021F0000B9B9B5C0A9A521E0A92137050EA0102D2
:10220000F2D10A98ADEB000000F1200B600702D577
:1022100024F4803401E04FF00109D94502DDA9EB37
:102220000B0000E0002000EB0B0141440890AAEBFA
:10223000010AE00306D4DDE90F232146504600F0F1
:1022400063F806444FF0000908E009A911F80900F5
:10225000DDE90F12904709F10109761CC145F4DB55
:10226000E0030CD5DDE90F232146504600F04CF881
:10227000064404E0DDE90F1230209047761C0899EF
:10228000481E08900029F5DC08E00A980A990078B1
:10229000491C0A91DDE90F129047761CBBF1000141
:1022A000ABF1010BF1DC21465046DDE90F2300F0D4
:1022B00019F806446D1C21E609280100303132333B
:1022C0003435363738396162636465660000000072
:1022D000303132333435363738394142434445465C
:1022E000000000002DE9F041044600251E46174677
:1022F000880404D405E039462020B0476D1C641ED4
:10230000F9D52846BDE8F0812DE9F04104460025C5
:102310001E469046C80301D5302700E020278804D8
:1023200004D505E041463846B0476D1C641EF9D51A
:102330002846BDE8F0810A68531C0B601070704796
:10234000ADF5067D22A30FCB859382AB07C34FF477
:102350008072234902A8FDF73BFF4FF47A70FEF725
:10236000B7FC4FF4A060FEF7E7FFFEF729FDFEF78C
:102370000BF804464FF47A70FEF786FC26E04FF423
:102380007A70FEF781FC224616A102A8FFF784FDB1
:10239000FEF7C4FC0020FF2302AA01460090FEF7CE
:1023A000F3FD82AA01210220FEF70CFB42A8FEF7F2
:1023B000F5FA4FF47A70FEF767FCFEF7AFFC0020E9
:1023C000FF2342AA01460090FEF7DEFDD7E700009A
:1023D00048656C6C6F20776F726C642100000000A0
:1023E000EC23000825640D0A0000000048656C6CB1
:1023F0006F20776F726C6421000000000000000005
:1024000000000000000000000000000000000000CC
:1024100000000000000000000000000000000000BC
:1024200000000000000000000000000000000000AC
:10243000000000000000000000000000000000009C
:10244000000000000000000000000000000000008C
:10245000000000000000000000000000000000007C
:10246000000000000000000000000000000000006C
:10247000000000000000000000000000000000005C
:10248000000000000000000000000000000000004C
:10249000000000000000000000000000000000003C
:1024A000000000000000000000000000000000002C
:1024B000000000000000000000000000000000001C
:1024C000000000000000000000000000000000000C
:1024D00000000000000000000000000000000000FC
:1024E00000000000000000000000000000000000EC
:1024F00000000000002F000000000700070000148B
:102500007F147F1400242A7F2A1200626408132398
:1025100000364955225000000503000000001C222F
:102520004100000041221C000014083E081400086D
:10253000083E0808000000A060000008080808081D
:10254000000060600000002010080402003E5149B5
:10255000453E0000427F4000004261514946002153
:1025600041454B31001814127F100027454545396D
:10257000003C4A49493000017109050300364949C8
:10258000493600064949291E000036360000000081
:1025900056360000000814224100001414141414CC
:1025A0000000412214080002015109060032495975
:1025B000513E007C1211127C007F49494936003E91
:1025C00041414122007F4141221C007F494949414C
:1025D000007F09090901003E4149497A007F080846
:1025E000087F0000417F4100002040413F01007F03
:1025F00008142241007F40404040007F020C027FCF
:10260000007F0408107F003E4141413E007F0909E0
:102610000906003E4151215E007F09192946004606
:10262000494949310001017F0101003F4040403FDD
:10263000001F2040201F003F4038403F0063140827
:102640001463000708700807006151494543000002
:102650007F41410000552A552A55000041417F0025
:10266000000402010204004040404040000001021A
:102670000400002054545478007F48444438003803
:102680004444442000384444487F0038545454188B
:1026900000087E0901020018A4A4A47C007F08049D
:1026A00004780000447D4000004080847D00007F6D
:1026B000102844000000417F4000007C041804788A
:1026C000007C0804047800384444443800FC242486
:1026D00024180018242418FC007C0804040800486E
:1026E0005454542000043F444020003C4040207C8F
:1026F000001C2040201C003C4030403C004428107E
:102700002844001CA0A0A07C004464544C44141431
:102710001414141400000000000000000000000069
:1027200000000000000000F800000000000000337E
:102730003000000000100C06100C06000000000025
:102740000000000040C07840C0784000043F04040E
:102750003F040400007088FC08300000001820FFCF
:10276000211E0000F008F000E018000000211C030A
:102770001E211E0000F00888700000001E21232486
:102780001927211010160E000000000000000000A4
:1027900000000000000000E0180402000000000734
:1027A0001820400000020418E0000000004020183B
:1027B00007000000404080F0804040000202010F0E
:1027C00001020200000000F0000000000101011FF2
:1027D00001010100000000000000000080B0700056
:1027E00000000000000000000000000000010101E6
:1027F0000101010100000000000000000030300075
:10280000000000000000000080601804006018064E
:102810000100000000E010080810E000000F102088
:1028200020100F00001010F8000000000020203FD2
:10283000202000000070080808887000003028245C
:1028400022213000003008888848300000182020FD
:1028500020110E000000C02010F800000007042422
:10286000243F240000F80888880808000019212067
:1028700020110E0000E0108888180000000F1120C1
:1028800020110E0000380808C83808000000003F7A
:10289000000000000070880808887000001C2221D9
:1028A00021221C0000E010080810E0000000312286
:1028B00022110F00000000C0C00000000000003026
:1028C0003000000000000080000000000000806078
:1028D00000000000000080402010080000010204F9
:1028E00008102000404040404040400004040404E0
:1028F000040404000008102040800000002010089C
:1029000004020100007048080808F00000000030D0
:1029100036010000C030C828E810E000071827245E
:1029200023140B000000C038E0000000203C23020C
:102930000227382008F8888888700000203F20206F
:1029400020110E00C03008080808380007182020A1
:102950002010080008F808080810E000203F202098
:1029600020100F0008F88888E8081000203F202079
:102970002320180008F88888E8081000203F20006D
:1029800003000000C03008080838000007182020A5
:10299000221E020008F808000008F808203F210164
:1029A00001213F20000808F8080800000020203F0F
:1029B0002020000000000808F8080800C08080807F
:1029C0007F00000008F888C028180800203F200178
:1029D0002638200008F8080000000000203F2020D2
:1029E0002020300008F8F800F8F80800203F003FE9
:1029F000003F200008F830C00008F808203F200001
:102A000007183F00E01008080810E0000F10202011
:102A100020100F0008F808080808F000203F2101E6
:102A200001010000E01008080810E0000F1824243D
:102A300038504F0008F8888888887000203F2000B0
:102A4000030C302000708808080838000038202166
:102A500021221C00180808F8080818000000203F70
:102A60002000000008F808000008F808001F2020D7
:102A700020201F000878880000C8380800000738A8
:102A80000E010000F80800F80008F800033C0700F9
:102A9000073C0300081868808068180820302C0361
:102AA000032C30200838C800C83808000000203F38
:102AB0002000000010080808C83808002038262127
:102AC00020201800000000FE020202000000007F2B
:102AD00040404000000C30C0000000000000000139
:102AE0000638C00000020202FE0000000040404024
:102AF0007F00000000000402020204000000000049
:102B000000000000000000000000000080808080C5
:102B100080808080000202040000000000000000AD
:102B20000000000000008080808000000019242246
:102B300022223F2008F8008080000000003F112082
:102B400020110E000000008080800000000E112087
:102B500020201100000000808088F800000E112065
:102B600020103F200000808080800000001F222273
:102B700022221300008080F0888888180020203FDF
:102B8000202000000000808080808000006B9494F2
:102B90009493600008F8008080800000203F2100AE
:102BA00000203F2000809898000000000020203F77
:102BB00020200000000000809898000000C0808065
:102BC000807F000008F8000080808000203F240201
:102BD0002D302000000808F8000000000020203FF1
:102BE000202000008080808080808000203F2000A6
:102BF0003F20003F8080008080800000203F210037
:102C000000203F200000808080800000001F2020E6
:102C100020201F00808000808000000080FFA12015
:102C200020110E000000008080808000000E112026
:102C300020A0FF80808080008080800020203F21B5
:102C40002000010000008080808080000033242468
:102C500024241900008080E0808000000000001F14
:102C6000202000008080000000808000001F2020C5
:102C700020103F20808080000080808000010E3086
:102C80000806010080800080008080800F300C03E7
:102C90000C300F0000808000808080000020312EEA
:102CA0000E312000808080000080808080818E70C6
:102CB0001806010000808080808080000021302C78
:102CC0002221300000000000807C02020000000091
:102CD000003F404000000000FF0000000000000036
:102CE000FF0000000002027C800000000040403F26
:102CF00000000000000601010202040400000000C0
:102D000000000000242D00080000002064000000E6
:102D1000C01E0008882D0008640000201408000070
:102D2000D01E000800BD01050000000000000000EA
:102D30000102030406070809000000000102030461
:102D40000102030406070809333333403333533A8F
:102D5000000000010000000100000122696E7361A3
:102D60006E697479220022323030313031323022B3
:102D700000223139322E3136382E3133372E31326E
:082D80003122000010270000C1
:040000050800019559
:00000001FF
