:020000040800F2
:1000000058040020AD010008550E0008C90C000876
:10001000510E00084F09000869190008000000008F
:10002000000000000000000000000000AD1000080B
:10003000210A000800000000E50E0008D91400089D
:10004000C7010008C7010008C7010008C701000870
:10005000C7010008C7010008C7010008C701000860
:10006000C7010008C7010008C7010008C701000850
:10007000C7010008C7010008C7010008C701000840
:10008000C7010008C7010008CD07000800000000F4
:10009000000000000000000000000000B50A000899
:1000A000C7010008C7010008C7010008C701000810
:1000B000C701000845150008E1150008C701000840
:1000C000C7010008C7010008C7010008C7010008F0
:1000D000C7010008C7010008C701000800000000B0
:1000E000C7010008C7010008C701000800000000A0
:1000F000000000000000000000000000C701000830
:1001000000000000C7010008C7010008C70100087F
:1001100000000000000000000000000000000000DF
:10012000C7010008C7010008C7010008C70100088F
:10013000C7010008000000000000000000000000EF
:10014000000000000000000000000000C7010008DF
:10015000C7010008C7010008C7010008C70100085F
:10016000C7010008C70100080000000000000000EF
:10017000000000000000000000000000000000007F
:1001800000000000C701000800000000000000009F
:10019000C7010008DFF810D000F02EFA0048004731
:1001A00049220008AFF30080580400200648804729
:1001B00006480047FEE7FEE7FEE7FEE7FEE7FEE74C
:1001C000FEE7FEE7FEE7FEE7DD1400089501000804
:1001D00000F0004230F000400AD0C10D01F560711E
:1001E000C0F3160042EA0151C208400711437047AC
:1001F000002001467047000030B5041E71F1000474
:1002000004DB4FF00044404264EB0101141E73F123
:10021000000405DB1C464FF00043524263EB04032D
:10022000994208BF904230BD30B50B4601460020D0
:100230002022012409E021FA02F59D4205D303FAA8
:1002400002F5491B04FA02F52844151EA2F1010229
:10025000F1DC30BD2DE9F05F0546002092469B465B
:1002600088460646814640241BE0284641464746CC
:10027000224600F0E2F953465A46C01A914110D383
:1002800011461846224600F0C9F92D1A67EB0108FD
:100290004F4622460120002100F0C0F917EB00096B
:1002A0004E41201EA4F10104DFDC484631462A46B7
:1002B0004346BDE8F09F2DE9FE4F804681EA0300EA
:1002C000C00F0C46009021F0004123F00045B8EB30
:1002D0000200A94105D24046214690461C460B46E5
:1002E000024623F00040104347D0270DC7F30A0011
:1002F000C3F30A510290401A019040286BDAC3F30D
:10030000130040F4801B0098924620B10023D2EBEA
:10031000030A63EB0B0B01985946C0F140025046AB
:1003200000F07CF906460D4650465946019A00F009
:1003300094F910EB08006141002487EA115284EA25
:10034000E7731A4340D0009A62B3019A012A4FEA38
:10035000075215DC001B61EB02014FF0004202EA7C
:100360000752CDE90042001C41F5801132462B4670
:1003700000F094F903B0BDE8F08F40462146F9E75C
:10038000001B61EB0201001C41F5801300185B416A
:100390002018A2F5001747EB030140EAD570B61903
:1003A0006D4111E06D084FEA360645EAC0754FEA27
:1003B0000752001B61EB0201001C41F58011490846
:1003C0004FEA30000019514132462B4603B0BDE8D8
:1003D000F04F00F054B90098012240000023D0EB08
:1003E000020263EBE073009821464FEAE074B8EB39
:1003F000000061EB0401E9E783F000435BE781F073
:10040000004158E72DE9FE4F81EA030404F000445F
:1004100021F0004100944FF0000B23F0004350EA1C
:1004200001045ED052EA03045BD0C3F30A54C1F363
:100430000A552C44A4F2F3340194A0FB0254C1F3F6
:10044000130141F48011C3F3130343F4801301FB40
:10045000024400FB034E840A970A44EA815447EAA7
:100460008357A4FB076802958D0A05FB07854FEAB1
:10047000932C04FB0C542705029D4FEA065847EACB
:100480001637B5EB08056EEB070C870E920E47EAA0
:10049000811742EA8312A7FB0201B6EB0B0164EB62
:1004A00000042B0D43EA0C335E1844EB1C50DA4673
:1004B0005146E7FB0201C5F313044FEA0B3343EA4D
:1004C00014534FEA0432019C43EA0603A4F10C04DE
:1004D0000294009CCDE900B400F0E0F803B0BDE860
:1004E000F08F00200146F9E72DE9F04D81EA030481
:1004F00004F0004B21F0004514464FF0000A23F0B1
:10050000004150EA050220D054EA01021DD0C5F393
:100510000A570246C5F31303C1F31300C1F30A5689
:1005200040F4801543F48013A7EB0608101BD64651
:1005300008F2FD3873EB050002D308F1010801E071
:1005400092185B41B8F1000F03DA00200146BDE8C4
:10055000F08D00204FF48011064684460EE0171BF4
:1005600073EB050705D3121B63EB050306434CEA47
:10057000010C49084FEA300092185B4150EA01072C
:10058000EDD152EA030012D082EA040083EA0501A9
:10059000084305D0101BAB4106D20122002306E020
:1005A00000224FF0004302E06FF0010253101AEBFB
:1005B00006004CEB085110EB0A0041EB0B01BDE8C3
:1005C000F04D00F05CB8C1F30A52C1F3130140F2E0
:1005D000FF3341F480119A4202DA0020014670474D
:1005E00040F233439A42A2F2334202DC524200F01C
:1005F00024B800F013B80000064C074D06E0E06890
:1006000040F0010394E8070098471034AC42F6D359
:10061000FFF7C4FD2C2300084C230008202A04DB2C
:10062000203A00FA02F1002070479140C2F1200305
:1006300020FA03F3194390407047202A04DB203A44
:1006400021FA02F00021704721FA02F3D040C2F1F2
:1006500020029140084319467047202A06DBCB1739
:10066000203A41FA02F043EAE07306E041FA02F36D
:10067000D040C2F12002914008431946704710B59E
:10068000141E73F1000408DA401C41F100019218B5
:100690005B411A4301D120F0010010BD2DE9F04D5E
:1006A00092469B4611B1B1FA81F202E0B0FA80F2B3
:1006B00020329046FFF7B2FF04460F4640EA0A0098
:1006C00041EA0B0153465A46084313D0114653EAF8
:1006D000010019D0C8F140025046FFF7AEFF0546B1
:1006E0000E46504659464246FFF798FF084305D04C
:1006F000012004E020463946BDE8F08D0020054386
:1007000046EAE0762C4337430A986305E40AA0EBF7
:1007100008000022FD0A44EA47540A3002D50020AE
:100720000146E9E7010510196941DDE908450019AD
:100730006941BDE8F04DA2E700220A12D3430360ED
:10074000704721B1826842F00102826003E0826852
:1007500022F00102826070470021084A1168084AAD
:100760001140D0E900231A4383681A43C3681A432F
:100770001143044AC2F804137047000004230140E7
:10078000E030FCFF0020014010B50121080200F01C
:1007900009FC00214FF4807000F004FC10BD0146FC
:1007A000C86C80B2704770B5024600200023002458
:1007B0000B12556801268E4005EA060415681D4097
:1007C00015B10CB1012000E0002070BD10B540F261
:1007D00005210E48FFF7E7FFB8B140F205210B48AD
:1007E000FFF7AAFF0948FFF7DAFF0949094A12781B
:1007F00021F8120007480078401C06490870084696
:1008000000780A2801DB0020087010BD002001409C
:10081000400000202C00002010B50B460021D9B26A
:10082000012404FA01F11AB144680C43446002E067
:1008300044688C43446010BD30B50246002000235C
:100840005068104C20400D790C6844EA0524204380
:10085000506090680C4C2040D1E903542C438D68C3
:100860002C434D7944EA450420439060D06A20F43B
:1008700070000C7D641EE4B2234340EA0350D06252
:1008800030BD0000FFFEFFFCFDF7FFC0F0B50446E1
:100890000D4600200021092D11DDE068A5F10A06B2
:1008A00006EB4607072606FA07F18843A5F10A0674
:1008B00006EB460603FA06F10843E0600CE0206907
:1008C00005EB4507072606FA07F1884305EB4506C1
:1008D00003FA06F108432061072A0FDA606B561EFF
:1008E00006EB86071F2606FA07F18843561E06EB1D
:1008F000860605FA06F10843606322E00D2A0FDA46
:10090000206BD61F06EB86071F2606FA07F18843E1
:10091000D61F06EB860605FA06F10843206310E0B1
:10092000E06AA2F10D0606EB86071F2606FA07F11C
:100930008843A2F10D0606EB860605FA06F1084388
:10094000E062F0BD816841F080418160704700BF86
:10095000FEE7000000B585B00121084600F0F2FA7C
:100960002020039000208DF8100001208DF8130046
:1009700003A92A4800F030F90121880300F002FBA6
:100980000521002000F094FB2020019000208DF82C
:1009900008000C208DF8090001208DF80A0001A83C
:1009A00000F0B6F80121084600F0CCFA4020039090
:1009B00000208DF8100001208DF8130003A91748BE
:1009C00000F00AF90121880300F0DCFA062100207A
:1009D00000F06EFB4020019000208DF808000C20F4
:1009E0008DF8090001208DF80A0001A800F090F8A8
:1009F00017208DF8000001208DF8010000208DF8EF
:100A0000020001208DF80300684600F025FA00F08E
:100A1000BDFD00F009FE05B000BD00000000024071
:100A200070470000104A12684FF4FA53B2FBF3F219
:100A300042434FF0E0235A6100229A6101221A6179
:100A40001A46116902E04FF0E022116901F001023B
:100A50001AB101F48032002AF5D000224FF0E023D1
:100A60001A619A6170470000000000200F4A126866
:100A70000F4BB2FBF3F242434FF0E0235A610022E6
:100A80009A6101221A611A46116902E04FF0E022D0
:100A9000116901F001021AB101F48032002AF5D087
:100AA00000224FF0E0231A619A6170470000002095
:100AB00000127A0010B5202000F01EF830B120207E
:100AC00000F014F80121074800F0DBFD402000F0A1
:100AD00013F830B1402000F009F80121024800F07D
:100AE000D0FD10BD0004004000080040014908602E
:100AF00070470000143C014001460020034A126880
:100B00000A400AB1012000E000207047143C014077
:100B1000002123498279002A3AD00A4612680368E4
:100B20009A430B461A600A1D126803689A430B1D0C
:100B30001A60027911440A6803681A430A60184A65
:100B40000832126803689A43154B08331A601A1D5D
:100B5000126803689A43124B0C331A604279102AC8
:100B60000ED11A1F126803681A430D4B08331A601E
:100B70001A1D126803681A43094B0C331A600DE002
:100B80000749427911440A6803681A430A6005E07C
:100B9000027911440A6803689A430A6070470000AA
:100BA000003C01401CB50121084600F0CBF90820AB
:100BB000009001208DF8040000208DF8060002202E
:100BC0008DF8070000208DF805006946014800F007
:100BD00003F81CBD00000240F0B50A4600210023C6
:100BE000002400BF3DE0012505FA01F3156805EA80
:100BF00003049C4234D105684F000326BE40B54330
:100C0000056015794E00B5400668354305601579D5
:100C1000012D02D01579022D16D185684F000326CB
:100C2000BE40B543856055794E00B5408668354372
:100C30008560456801268E40B543456045689679D4
:100C40008E40B6B235434560C5684F000326BE40AE
:100C5000B543C560D5794E00B540C6683543C5601B
:100C6000491C1029BFD3F0BDF0B5002300244D0767
:100C7000ED0E02FA05F3CE1000F1200555F82650CE
:100C80004E07F70E0F26BE40B543CF1000F12006E9
:100C900046F82750CE1000F1200555F8265045EAB9
:100CA0000304CE1000F1200545F82640F0BD0246B1
:100CB000002013690B400BB1012000E000207047B9
:100CC000418370470183704700BFFEE770B5002481
:100CD000002503E00D48FFF735FE6D1C0A2DF9DBFA
:100CE000002005E00A4931F8101021448CB2401C64
:100CF0000A28F7DB0A2094FBF0F084B2054800884C
:100D0000844201DD002070BD0120FCE7002001408D
:100D1000400000202400002070B50024002503E0DE
:100D20000E48FFF70FFE6D1C0A2DF9DB002005E0D1
:100D30000B4931F8101021448CB2401C0A28F7DB13
:100D400000EE104AB8EE400A0648D0ED000A60EE08
:100D5000200AB2EE041A80EE810A70BD0020014024
:100D6000400000202800002000B58DB001210420A3
:100D700000F0E8F804200B9003208DF830000020EC
:100D80008DF833000BA92348FFF726FF0121080245
:100D900000F0F8F8FFF7F8FC002007904FF440301F
:100DA0000890002009904FF420600A9007A8FFF7F0
:100DB000D3FC002001908DF808008DF80900039005
:100DC000059001208DF8180001A91348FFF734FDA4
:100DD00001231A460C211048FFF758FD12208DF808
:100DE000000002208DF8010000208DF80200012093
:100DF0008DF80300684600F02FF8012240F205212B
:100E00000548FFF709FD01210348FFF79AFC0DB0E3
:100E100000BD000000080240002001401CB5012177
:100E2000084600F08FF81020009001208DF8040093
:100E300000208DF8060002208DF8070000208DF8B4
:100E4000050069460148FFF7C7FE1CBD00000240CF
:100E500000BFFEE77047000070B5002100230F229D
:100E6000C4781CB3174C246804F4E064C4F5E0644F
:100E7000C4F30721C1F10404E3B20A4144789C4061
:100E8000E1B28478144021430C07210E0E4C057802
:100E90006155047804F01F050124AC4005786D11FC
:100EA000AD0005F1E025C5F8004109E0047804F043
:100EB0001F050124AC40054D0678761145F8264003
:100EC00070BD00000CED00E000E400E080E100E017
:100ED00002490143024A1160704700000000FA0510
:100EE0000CED00E0704700001CB50121084600F041
:100EF00029F80220009000208DF8040001208DF8D0
:100F0000070069460148FFF767FE1CBD000002406C
:100F10001CB50121084600F015F8022000900120C0
:100F20008DF8040000208DF8060002208DF80500E1
:100F300001208DF8070069460148FFF74DFE1CBDF2
:100F40000000024029B1064A12680243044B1A60AD
:100F500004E0034A12688243014B1A6070470000A4
:100F60003038024029B1064A12680243044B1A6025
:100F700004E0034A12688243014B1A607047000084
:100F80004038024029B1064A12680243044B1A60F5
:100F900004E0034A12688243014B1A607047000064
:100FA0004438024029B1064A12680243044B1A60D1
:100FB00004E0034A12688243014B1A607047000044
:100FC00024380240F0B5002100220024022500262A
:100FD0000223324F3F6807F00C0121B1042905D0EC
:100FE000082937D105E02E4F076036E02D4F076006
:100FF00033E02A4F3F1F3F68C7F38056274F3F1FFC
:101000003F6807F03F036EB1264FB7FBF3F7DFF8F9
:101010008CC0ACF1040CDCF800C0CCF3881C07FBDE
:101020000CF40CE01E4FB7FBF3F7DFF870C0ACF127
:10103000040CDCF800C0CCF3881C07FB0CF4174F41
:101040003F1F3F68C7F301477F1C7D00B4FBF5F7E6
:10105000076002E0124F076000BF00BF0F4F3F68FC
:1010600007F0F0010909104F7A5C0768D740476024
:101070000A4F3F6807F4E051890A0B4F7A5C4768D2
:10108000D7408760054F3F6807F46041490B064F22
:101090007A5C4768D740C760F0BD0000083802405E
:1010A0000024F40000127A001400002070470000B1
:1010B00030B500228B071C0F0F2303FA04F20B4BF1
:1010C0008C1053F824309343084C8D1044F825308D
:1010D00023468C1053F824308C07240F00FA04F4B4
:1010E0002343024C8D1044F8253030BD08380140B0
:1010F00010B50024FFF7F8FE04E0601CC4B2012024
:10110000FFF7B4FC02210848FFF7D1FD08B12D2CF0
:10111000F3DD2D2C01DD012010BDC4F59170FFF72A
:10112000A5FC0020F8E700000000024010B500F028
:101130000FF9FFF7DDFFCC2000F046F9DD2000F0CD
:1011400043F900F0F5F81049088000F0F1F80E4975
:10115000097840EA01200C49088000F0E9F80B49C1
:10116000088000F0E5F80949097840EA01200749BC
:10117000088000F0EDF8FFF7BBFFCC2000F024F969
:10118000102000F021F910BD380000203A000020A6
:101190002DE9F0412DED028B00F0DAF8FFF7A8FF02
:1011A000CC2000F011F9BD2000F00EF900F0C0F8DD
:1011B000074600F0BDF805462E4647EA062006B26F
:1011C00006EB86014800C11700EB1161091201F519
:1011D000C87600F0ADF8074600F0AAF805462C46A0
:1011E00047EA042423480088201A4FF41671484324
:1011F000214909881F4A1288891A90FBF1F000F5ED
:101200009674A6F1FA0000EBC00101EB0010642116
:1012100090FBF1F0044400EE104AB8EEC00AF2EE82
:10122000040A80EE201A154880ED001A0068FEF7C7
:10123000CFFF9FED130B53EC102BFEF7DDFF05D214
:101240009FED110A0D4880ED000A0BE00B4890ED70
:10125000000AB5EEC00AF1EE10FA03D29FED0B0AB8
:1012600080ED000A054890ED000ABDEC028BBDE858
:10127000F08100003A0000203800002034000020F7
:101280009A99999999F95840CDCCC742000000002D
:1012900070B500F05DF8FFF72BFFCC2000F094F85C
:1012A000BD2000F091F800F043F8054600F040F84A
:1012B0000646344645EA042004B204EB84014800A3
:1012C000C11700EB1161091201F5C87400EE104A54
:1012D000B8EEC00AF2EE040A80EE201A024880ED51
:1012E000001A90ED000A70BD3000002010B5FFF725
:1012F0000FFE02210D48FFF7E3FC0220FFF7B6FBCB
:1013000002210A48FFF7DEFCFFF7EEFD0820FFF799
:10131000ADFB02210548FFF7CAFC08B1012400E03B
:1013200000243220FFF7A2FB204610BD000002403F
:1013300070B50025002607E0FFF7D8FF0446E0015E
:1013400040EA6500C5B2761C082EF5DB284670BD64
:1013500010B5FFF7DDFD02210748FFF7B1FC4FF4A0
:101360007070FFF783FB02210348FFF7ABFC0F20EF
:10137000FFF77CFB10BD00000000024010B50446E2
:10138000FFF7C6FD74B102210E48FFF799FC052056
:10139000FFF76CFB02210B48FFF794FC3C20FFF7A2
:1013A00065FB0DE002210748FFF78AFC3C20FFF7B0
:1013B0005DFB02210348FFF785FC0520FFF756FB84
:1013C00010BD00000000024070B50446002606E093
:1013D00004F0010564102846FFF7D0FF761C082EA4
:1013E000F6DB70BD0CB5002001900090334800681A
:1013F00040F480303149086000BF3048006800F494
:10140000003000900198401C0190009818B9019894
:10141000B0F5A04FF1D12948006800F4003010B1B8
:101420000120009001E0002000900098012844D1A4
:1014300022484030006840F0805020494031086028
:101440001F48006840F440401D4908601B480830B0
:1014500000681A49083108600846006808600846B4
:10146000006840F4805008601648091F0860081F93
:10147000006840F08070091F086000BF0F480068D6
:1014800000F000700028F9D040F202700E490860A8
:101490000A480830006820F0030008490831086055
:1014A0000846006840F00200086000BF03480830AA
:1014B000006800F00C000828F8D10CBD003802408C
:1014C0000070004008544107003C024010B5FFF78F
:1014D000A5FCFFF767FB10BD7047000010B515486D
:1014E000006840F47000134908601348006840F039
:1014F00001001149086000200F49083108600E48BA
:1015000000680E4908400C4908600D48091D086034
:10151000081F006820F48020091F08600020064989
:101520000C310860FFF75EFF4FF000600149803921
:10153000086010BD88ED00E000380240FFFFF6FEB5
:101540001030002410B501210C4800F0A6F898B125
:1015500001210A4800F092F80021084800F091F8B3
:101560000021064800F0B3F820210548FFF79FFB53
:1015700010B904A000F0FAF910BD0000000400400A
:10158000000002405265706169720A001FB50121B6
:101590000220FFF7E7FC0020ADF80C00ADF80600D4
:1015A0006320029041F26700ADF8040001A90B48E6
:1015B00000F090F81D208DF8000000208DF801004B
:1015C0008DF8020001208DF803006846FFF744FC07
:1015D00001221146014800F071F81FBD00040040CF
:1015E00010B501210C4800F058F898B101210A48C3
:1015F00000F044F80021084800F043F800210648B4
:1016000000F065F840210548FFF751FB10B904A030
:1016100000F0ACF910BD00000008004000000240DE
:1016200048656C700A0000001FB501210420FFF717
:1016300099FC0020ADF80C00ADF806006320029084
:1016400041F26700ADF8040001A90B4800F042F830
:101650001E208DF8000000208DF801008DF802009A
:1016600001208DF803006846FFF7F6FB01221146C2
:10167000014800F023F81FBD00080040CA43028261
:10168000704721B1028842F00102028004E0028822
:101690004FF6FE731A400280704730B502460020B4
:1016A00000230024158A05EA0103958905EA01044F
:1016B00013B10CB1012000E0002030BD1AB18389C4
:1016C0000B43838102E083898B43838170474162AE
:1016D0007047000000220288184B98420ED0184B29
:1016E00098420BD0B0F1804F08D0164B984205D0ED
:1016F000154B984202D0154B984204D14FF68F7388
:101700001A404B881A43124B984207D0114B98420B
:1017100004D04FF6FF431A400B891A4302804B68EE
:10172000C3620B880385054B984202D0044B984254
:1017300001D18B7A03860123838270470000014028
:10174000000401400004004000080040000C00407C
:1017500000100040001400401CB501210846FFF7AE
:10176000F1FB0220009001208DF8040000208DF88C
:10177000060002208DF8050001208DF8070069465B
:101780000548FFF729FA02210348FFF79BFAFFF704
:10179000DFFDFFF7ADFC1CBD0000024000B587B0C7
:1017A00001210846FFF7CEFB072209212048FFF759
:1017B0005BFA4FF40070059002208DF818000020AD
:1017C0008DF81A0001208DF81B0002208DF81900F9
:1017D00005A91748FFF700FA07220A211448FFF766
:1017E00043FA4FF48060059002208DF8180005A997
:1017F0000F48FFF7F1F901211020FFF7C3FB4FF469
:10180000165001900020ADF80800ADF80A00ADF8C0
:101810000C00ADF810000C20ADF80E0001A9054831
:1018200000F034F80121034800F016F807B000BDBD
:10183000000002400010014010B5044600BF8021A6
:10184000044800F015F80028F9D02146014800F0BE
:1018500087F810BD0010014021B1828942F4005286
:10186000828104E082894DF6FF731A4082817047BD
:1018700002460020B1F5007F00D100BF13880B4065
:101880000BB1012000E00020704700002DE9FF4768
:1018900005460E460024A14600BFA046B08900B10F
:1018A00000BF2C8A24F44054F08804432C82AC8975
:1018B00041F20C608443B088318908437189084340
:1018C0000443AC81AC8A24F44074B0890443AC82F4
:1018D0006846FFF777FB2048854202D01F488542C3
:1018E00002D1DDF80C9001E0DDF80890A88900F441
:1018F000004040B109EBC90000EB09103168490014
:10190000B0FBF1F707E009EBC90000EB0910316803
:101910008900B0FBF1F76420B7FBF0F00401200967
:10192000642101FB1078A88900F4004040B1322006
:1019300000EBC800B0FBF1F000F00700044308E042
:10194000322000EB08106421B0FBF1F000F00F0032
:1019500004432C81BDE8FF870010014000140140C2
:10196000C1F308028280704700BFFEE70FB4054B49
:1019700010B503A9044A029800F0DAF810BC5DF82B
:1019800014FB0000372200083C00002002E008C8D9
:10199000121F08C1002AFAD170477047002001E0E9
:1019A00001C1121F002AFBD1704700002DE9FF5F23
:1019B00082B00021DDE90430020DDDF840B00343C0
:1019C00018D044F61050A2F2FF3242431514119879
:1019D00001281FD0A5EB0B00401C5FEA000A4FF066
:1019E00000064E4FDFF83891B046504615D5CAF183
:1019F000000413E0119801244AA3012801D16FEAE1
:101A00000B010298119AC0E90031C0E9024206B008
:101A1000BDE8F09FCBF10000DFE704460021404A1B
:101A2000491842EB0450CDE9001012E0E00707D05E
:101A300032463B4640464946FEF7E4FC804689462E
:101A400032463B4610461946FEF7DCFC06460F467A
:101A50006410002CEAD1DDE90401DDE90023BAF1CC
:101A6000000F06DAFEF7CEFC42464B46FEF7CAFCF4
:101A700005E0FEF739FD42464B46FEF735FD0446CC
:101A80000E460022284BFEF7B7FB03D84FF0FF307D
:101A9000014607E00022254B20463146FEF70BFCAD
:101AA000FEF791FD102409E0002C0ADB0A22002336
:101AB000FEF7D0FB039B30321A55641E50EA010238
:101AC000F2D1641C039AC4F111031444119A012A3F
:101AD00003D0012208430DD10AE0084304D00020BE
:101AE0004FF0110B119072E7A3EB0B056D1E0DE08B
:101AF0005B4504DD4FF0000205F1010504E003DA67
:101B00004FF00002A5F10105002AECD002981199CE
:101B1000C0E90231C0E9004579E700000000144047
:101B20000000F03F300000000000F0430000E03F04
:101B30002DE9FF4F95B09A46884606460025EEE10E
:101B4000252877D100242746F94A0121039400E093
:101B5000044316F8013F203B01FA03F01042F7D18D
:101B600030782A2811D06FF02F033078A0F130029E
:101B7000092A16D8039A44F0020402EB820203EB0E
:101B800042021044761C0390EFE758F8042B0392AE
:101B9000002A03DA504244F40054039044F0020453
:101BA000761C30782E2816D116F8010F44F0040464
:101BB0002A280DD06FF02F023078A0F13003092BC6
:101BC00009D807EB870302EB4303C718761CF3E73A
:101BD00058F8047B761C30786C280FD006DC4C2833
:101BE00017D068280DD06A2814D104E0742810D0CA
:101BF0007A280FD10DE044F400140AE044F4801474
:101C000001E044F440147278824202D104F5801459
:101C1000761C761C307866280BD013DC582877D0D9
:101C200009DC002875D04528F6D04628F4D047288E
:101C30001AD193E118E0632835D0642879D065285B
:101C400012D18BE1702873D008DC6728F1D06928A5
:101C50006FD06E280DD06F2806D1ACE073282CD041
:101C6000752874D0782853D05246179990476D1C28
:101C700054E1C4F30250022809D003280DD0D8F84B
:101C8000001004280DD00D6008F1040846E1D8F8D2
:101C90000010EA17C1E90052F6E7D8F800100D80ED
:101CA000F2E70D70F0E718F8041B8DF80010002023
:101CB0008DF80100EB46012003E058F804BB4FF01B
:101CC000FF3061074FF0000102D40DE009F101017E
:101CD0008946B9420FDA8145F8DB1BF80910002963
:101CE000F4D108E009F1010189468142FADB1BF8D1
:101CF00009100029F6D103985346A0EB09072146A5
:101D00003846179A00F080FA284400EB090507E0EE
:101D100044E008E10DE01BF8010B5246179990478B
:101D2000B9F10109F7D2534621463846179AF2E035
:101D300039E00A21C4F302524FF0000B0091022A4D
:101D400006D058F8040BC117032A09D00AE023E093
:101D500008F1070020F00702F2E80201904605E0D2
:101D600000B2C117042A01D140B2C117002906DA16
:101D70000A460021404261EB02012D2202E02205C9
:101D800004D52B228DF80420012203E0E20701D0C4
:101D90002022F7E7914657E00A2100E010214FF09A
:101DA000000B00910BE010214FF0000B44F00404F5
:101DB0000827009103E008204FF0000B0090C4F3C7
:101DC0000252022A05D058F8040B0021032A08D039
:101DD00008E008F1070020F00702F2E8020190464F
:101DE00003E080B2042A00D1C0B24FF000092207FC
:101DF0002AD53278702A07D0DDF800C08CF0100C9C
:101E00005CEA0B0C05D00EE040228DF80420012284
:101E100008E050EA010306D030238DF804308DF835
:101E2000052002229146009B83F0080353EA0B032E
:101E30000AD150EA010201D1620705D530228DF89E
:101E400004204FF001097F1E3278582A04D039A2AD
:101E50000C920CAA02920BE03BA2F9E75B46009AB7
:101E6000FEF7F8F90C9B9B5C029A521E02921370CB
:101E700050EA0102F2D1029804A9081A00F1200BDD
:101E8000600702D524F4803400E001275F4502DDBD
:101E9000A7EB0B0000E0002000EB0B010090039883
:101EA0004944401A0390E00306D453462146179A4A
:101EB000039800F0A9F90544002706E001A852465E
:101EC000C05D179990476D1C7F1C4F45F6DBE00302
:101ED0000CD553462146179A039800F095F905440E
:101EE00004E030205246179990476D1C0099481E17
:101EF00000900029F5DC08E002980299524600782B
:101F0000491C0291179990476D1CBBF10001ABF180
:101F1000010BF1DC5BE100F065F90544761C3078DB
:101F200000287FF40DAE19B02846BDE8F08F000000
:101F3000092801003031323334353637383961629F
:101F40006364656600000000303132333435363763
:101F5000383941424344454600000000600700D440
:101F6000062708F1070020F00700F0E8022380466A
:101F700003F0004C5FEA0C0001D097A009E02005B7
:101F800001D596A005E0E00701D095A001E0AFF2F1
:101F90004C001390307823F0004365280CD006DC09
:101FA000452809D046281DD047287FD13BE0662828
:101FB00018D067287AD136E00021112F01DB1120DB
:101FC00000E0781CCDE9000104A90CA8FFF7EEFCA5
:101FD000DDE90D010C9A4FF0000B07F10109109299
:101FE00000914EE04FF000400097CDE9011004A9A8
:101FF0000CA8FFF7DBFCDDE90D020C9B0F994FF0FD
:10200000000B91461093009211B9791C00EB010965
:10201000B7EB090003D4C0F1FF3B07F10109A9EBBD
:102020000700019042E0012F00DA01270021112F63
:1020300001DD112000E03846CDE9000104A90CA81B
:10204000FFF7B4FCDDE90D010C9A00914FF0000B95
:10205000B946109221070FD4009A4A4503DA9146F7
:1020600001E0A9F10109B9F1010F05DD109AA9F10B
:102070000101515C3029F4D0B84202DA10F1040FAA
:1020800003DA0121CDE9011010E0002803DC8344CC
:10209000A9EB000102E0411C494500DD8946A0EBA7
:1020A0000B00401C01904FF000400290200705D427
:1020B0000198484502DB4FF0FF30019000208DF879
:1020C0004B0002980DF14B07B0F1004F25D00220D4
:1020D0000C902B200D90029800280CDA40420290C0
:1020E0002D200D9007E00A210298FEF79DF830316F
:1020F000029007F8011D0C99481E0C900029F2DC93
:1021000002980028EFD1791E0D980870307800F001
:10211000200040F0450007F8020D11A8C01BC01DAB
:1021200002901398007800B1012000EB090101989A
:1021300001EBE071029801440398401A401E03909D
:10214000E00306D453462146179A039800F05CF842
:1021500005441398007818B15246179990476D1CA2
:10216000E00323D553462146179A039800F04CF814
:1021700005441BE0BBF1000F07DB0098584504DD68
:102180001098179910F80B0001E01799302052466B
:10219000904701980BF1010B401E05F101050190DC
:1021A00004D12E205246179990476D1CB9F10001B9
:1021B000A9F10109DEDC05E017F8010B5246179979
:1021C00090476D1C0299481E02900029F4DC53468A
:1021D0002146179A03989EE62D0000002B00000070
:1021E000200000002DE9F041044600251E46174658
:1021F000880404D405E039462020B0476D1C641ED5
:10220000F9D52846BDE8F0812DE9F04104460025C6
:102210001E469046C80301D5302700E020278804D9
:1022200004D505E041463846B0476D1C641EF9D51B
:102230002846BDE8F08170B504460D46E0B2FFF7D0
:10224000FBFA204670BD00002DED028B4FF47A7032
:10225000FEF70CFC4FF4A060FEF73AFEFFF79EFA83
:10226000FFF734F9FEF776FBFFF776FAFEF77CFD11
:102270000120FEF7D7FB36E0FEF758FF4FF47A70E7
:10228000FEF7D0FBFFF704F810EE104A2046FDF7EA
:102290009FFF41EC180B53EC182B13A0FFF766FBC4
:1022A000FEF776FF10EE104A2046FDF791FF41EC55
:1022B000180B53EC182B11A0FFF758FBFEF706FD87
:1022C0000446214611A0FFF751FBFEF725FD10EE55
:1022D000104A2046FDF77CFF41EC180B53EC182BFD
:1022E0000EA0FFF743FBC7E754656D70657261741C
:1022F0007572653A2025660A0000000048756D6910
:10230000646974793A2025660A0000004C696768A0
:102310007453746174653A2025640A004C696768D7
:102320007456616C75653A2025660A004C230008D6
:1023300000000020400000008C1900088C230008D9
:1023400040000020180400009C19000800BD010591
:102350000000000000000000010203040607080955
:10236000000000000102030401020304060708093B
:10237000000800006848553A000000000000000016
:0C23800000000000000000000000000051
:040000050800019559
:00000001FF
