:020000040800F2
:1000000050040020AD010008C10A0008D909000809
:10001000BD0A0008030500082D14000800000000B8
:10002000000000000000000000000000190D0008A2
:100030002D07000800000000510B0008B90E000851
:10004000C7010008C7010008C7010008C701000870
:10005000C7010008C7010008C7010008C701000860
:10006000C7010008C7010008C7010008C701000850
:10007000C7010008C7010008C7010008C701000840
:10008000C7010008C7010008750200080000000051
:10009000000000000000000000000000C50700088C
:1000A000C7010008C7010008C7010008C701000810
:1000B000C7010008250F0008C10F0008C70100088C
:1000C000C7010008C7010008C7010008C7010008F0
:1000D000C70100087D110008C701000800000000EA
:1000E000C7010008C7010008C701000800000000A0
:1000F000000000000000000000000000C701000830
:1001000000000000C7010008C7010008C70100087F
:1001100000000000000000000000000000000000DF
:10012000C7010008D5050008C7010008C70100087D
:10013000C7010008000000000000000000000000EF
:10014000000000000000000000000000C7010008DF
:10015000FD050008250600084D060008BD11000831
:10016000C7010008C70100080000000000000000EF
:10017000000000000000000000000000000000007F
:1001800000000000C701000800000000000000009F
:10019000C7010008DFF810D000F01AF80048004747
:1001A000DD140008AFF300805004002006488047AB
:1001B00006480047FEE7FEE7FEE7FEE7FEE7FEE74C
:1001C000FEE7FEE7FEE7FEE7BD0E0008950100082A
:1001D000064C074D06E0E06840F0010394E8070094
:1001E00098471034AC42F6D3FFF7D8FF4C150008FF
:1001F0006C15000800220A12D34303607047000008
:100200000021084A1168084A1140D0E900231A4326
:1002100083681A43C3681A431143044AC2F804139B
:100220007047000004230140E030FCFF0020014043
:1002300010B50121080200F0EBFC00214FF48070A2
:1002400000F0E6FC10BD0146C86C80B2704770B586
:1002500002460020002300240B12556801268E4020
:1002600005EA060415681D4015B10CB1012000E037
:10027000002070BD10B540F205210E48FFF7E7FFE2
:10028000B8B140F205210B48FFF7B4FF0948FFF76A
:10029000DAFF0949094A127821F812000748007864
:1002A000401C06490870084600780A2801DB002037
:1002B000087010BD002001403C0000202C000020F0
:1002C00010B50B460021D9B2012404FA01F11AB18C
:1002D00044680C43446002E044688C43446010BDB1
:1002E00030B50246002000235068104C20400D79A4
:1002F0000C6844EA05242043506090680C4C204070
:10030000D1E903542C438D682C434D7944EA4504CC
:1003100020439060D06A20F470000C7D641EE4B22B
:10032000234340EA0350D06230BD0000FFFEFFFCD3
:10033000FDF7FFC0F0B504460D4600200021092D51
:1003400011DDE068A5F10A0606EB4607072606FA66
:1003500007F18843A5F10A0606EB460603FA06F103
:100360000843E0600CE0206905EB4507072606FA24
:1003700007F1884305EB450603FA06F108432061BF
:10038000072A0FDA606B561E06EB86071F2606FA51
:1003900007F18843561E06EB860605FA06F1084368
:1003A000606322E00D2A0FDA206BD61F06EB86076A
:1003B0001F2606FA07F18843D61F06EB860605FAC4
:1003C00006F10843206310E0E06AA2F10D0606EB97
:1003D00086071F2606FA07F18843A2F10D0606EBF1
:1003E000860605FA06F10843E062F0BD1CB501215E
:1003F000022000F0DDFB0820009001208DF80400B1
:1004000000208DF8060001208DF8070000208DF8EF
:10041000050069460D4800F067FA0121022000F04E
:10042000C7FB4FF48060009001208DF8040000208D
:100430008DF8060001208DF8070000208DF80500DA
:100440006946024800F050FA1CBD0000000402405A
:1004500010B50446204600F001F810BD70B5044602
:10046000E6B22512284600F00BF8022000F060F9F1
:10047000304600F005F8022000F05AF970BD000087
:1004800070B504464FF48061184800F0A1FA0520C9
:1004900000F04EF900251DE04FF48061134800F094
:1004A00097FA04F0010020B10821104800F092FAF8
:1004B00003E008210D4800F08BFAC82000F05CF939
:1004C0004FF48061094800F085FAC82000F054F923
:1004D00064106D1C082DDFDB4FF48061034800F0D1
:1004E00079FA0821014800F075FA70BD0004024055
:1004F00010B504464FF6E071214488B2FFF7AEFF15
:1005000010BD00BFFEE7000000B585B00121084620
:1005100000F04EFB2020039000208DF810000120F9
:100520008DF8130003A92A4800F0DEF901218803A1
:1005300000F05EFB0521002000F0F0FB2020019080
:1005400000208DF808000C208DF8090001208DF89E
:100550000A0001A800F064F90121084600F028FB18
:100560004020039000208DF8100001208DF813002A
:1005700003A9174800F0B8F90121880300F038FBFF
:100580000621002000F0CAFB4020019000208DF8D9
:1005900008000C208DF8090001208DF80A0001A840
:1005A00000F03EF917208DF8000001208DF80100C1
:1005B00000208DF8020001208DF80300684600F04D
:1005C00081FA00F0D3FC00F01FFD05B000BD000073
:1005D0000000024010B50649064800F075F830B139
:1005E0000349044800F046F801200349087010BD93
:1005F00000880010286402403200002010B506492F
:10060000064800F061F830B10349044800F032F8C0
:1006100001200349087010BD008800208864024052
:100620002E00002010B50649064800F04DF830B104
:100630000349044800F01EF801200349087010BD6A
:1006400000802020A06402403300002010B506493D
:10065000064800F039F830B10349044800F00AF8C0
:1006600001200349087010BD00800028B8640240D2
:100670002F0000200246094B9A4201D2084801E0AF
:100680000648103801F000531BB1064B0B40C36005
:1006900002E0044B0B40836070470000106402408E
:1006A000006002407D0F7D0F21B1026842F001021F
:1006B000026003E0026822F0010202607047014616
:1006C000486880B27047000070B5024600200024E0
:1006D0000025124EB24201D2114B01E00F4B103BEC
:1006E000104E0E4036B11E2606EAD124166806EAE0
:1006F000040502E0566906F0800501F000560EB1CF
:100700005C6800E01C68084E344004EA010616B13B
:100710000DB1012000E0002070BD00001064024017
:10072000006002403C0F3C0F7D0F7D0F70470000C2
:10073000104A12684FF47A73B2FBF3F24243D208C4
:100740004FF0E0235A6100229A6101221A611A4691
:10075000116902E04FF0E022116901F001021AB1C3
:1007600001F48032002AF5D000224FF0E0231A6114
:100770009A61704700000020104A1268104BB2FBCB
:10078000F3F24243D2084FF0E0235A6100229A610B
:1007900001221A611A46116902E04FF0E022116944
:1007A00001F001021AB101F48032002AF5D00022D2
:1007B0004FF0E0231A619A617047000000000020AA
:1007C00040420F0010B5202000F01EF830B120206C
:1007D00000F014F80121074800F043FC402000F02D
:1007E00013F830B1402000F009F80121024800F070
:1007F00038FC10BD000400400008004001490860BA
:1008000070470000143C014001460020034A126872
:100810000A400AB1012000E000207047143C01406A
:10082000002123498279002A3AD00A4612680368D7
:100830009A430B461A600A1D126803689A430B1DFF
:100840001A60027911440A6803681A430A60184A58
:100850000832126803689A43154B08331A601A1D50
:10086000126803689A43124B0C331A604279102ABB
:100870000ED11A1F126803681A430D4B08331A6011
:100880001A1D126803681A43094B0C331A600DE0F5
:100890000749427911440A6803681A430A6005E06F
:1008A000027911440A6803689A430A60704700009D
:1008B000003C01401CB50121084600F079F90820F0
:1008C000009001208DF8040000208DF80600022021
:1008D0008DF8070000208DF805006946014800F0FA
:1008E00003F81CBD00000240F0B50A4600210023B9
:1008F000002400BF3DE0012505FA01F3156805EA73
:1009000003049C4234D105684F000326BE40B54322
:10091000056015794E00B5400668354305601579C8
:10092000012D02D01579022D16D185684F000326BE
:10093000BE40B543856055794E00B5408668354365
:100940008560456801268E40B543456045689679C7
:100950008E40B6B235434560C5684F000326BE40A1
:10096000B543C560D5794E00B540C6683543C5600E
:10097000491C1029BFD3F0BDF0B5002300244D075A
:10098000ED0E02FA05F3CE1000F1200555F82650C1
:100990004E07F70E0F26BE40B543CF1000F12006DC
:1009A00046F82750CE1000F1200555F8265045EAAC
:1009B0000304CE1000F1200545F82640F0BD0246A4
:1009C000002013690B400BB1012000E000207047AC
:1009D000418370470183704700BFFEE700B58DB0CB
:1009E0000121042000F0E4F804200B9003208DF88E
:1009F000300000208DF833000BA92148FFF774FF69
:100A00000121080200F0F4F8FFF712FC0020079023
:100A10004FF440300890002009904FF420600A9075
:100A200007A8FFF7EDFB002001908DF808008DF876
:100A300009000390059001208DF8180001A91148C4
:100A4000FFF74EFC01231A460C210E48FFF772FCFB
:100A500012208DF8000003208DF8010000208DF891
:100A6000020001208DF80300684600F02BF80122F7
:100A700040F205210348FFF723FC0DB000BD000044
:100A800000080240002001401CB50121084600F08A
:100A90008FF81020009001208DF8040000208DF8C0
:100AA000060002208DF8070000208DF80500694639
:100AB0000148FFF719FF1CBD0000024000BFFEE720
:100AC0007047000070B5002100230F22C4781CB3CA
:100AD000174C246804F4E064C4F5E064C4F307210F
:100AE000C1F10404E3B20A4144789C40E1B2847845
:100AF000144021430C07210E0E4C057861550478F3
:100B000004F01F050124AC4005786D11AD0005F11E
:100B1000E025C5F8004109E0047804F01F05012430
:100B2000AC40054D0678761145F8264070BD0000B2
:100B30000CED00E000E400E080E100E00249014348
:100B4000024A1160704700000000FA050CED00E059
:100B5000704700001CB50121084600F029F802206A
:100B6000009000208DF8040001208DF807006946F0
:100B70000148FFF7B9FE1CBD000002401CB5012171
:100B8000084600F015F80220009001208DF80400BE
:100B900000208DF8060002208DF8050001208DF858
:100BA000070069460148FFF79FFE1CBD0000024098
:100BB00029B1064A12680243044B1A6004E0034A52
:100BC00012688243014B1A607047000030380240BF
:100BD00029B1064A12680243044B1A6004E0034A32
:100BE00012688243014B1A6070470000403802408F
:100BF00029B1064A12680243044B1A6004E0034A12
:100C000012688243014B1A6070470000443802406A
:100C100029B1064A12680243044B1A6004E0034AF1
:100C200012688243014B1A6070470000243802406A
:100C3000F0B5002100220024022500260223324FB5
:100C40003F6807F00C0121B1042905D0082937D1EC
:100C500005E02E4F076036E02D4F076033E02A4F46
:100C60003F1F3F68C7F38056274F3F1F3F6807F07D
:100C70003F036EB1264FB7FBF3F7DFF88CC0ACF142
:100C8000040CDCF800C0CCF3881C07FB0CF40CE06F
:100C90001E4FB7FBF3F7DFF870C0ACF1040CDCF8C3
:100CA00000C0CCF3881C07FB0CF4174F3F1F3F68B4
:100CB000C7F301477F1C7D00B4FBF5F7076002E036
:100CC000124F076000BF00BF0F4F3F6807F0F001F1
:100CD0000909104F7A5C0768D74047600A4F3F68A0
:100CE00007F4E051890A0B4F7A5C4768D740876068
:100CF000054F3F6807F46041490B064F7A5C47682F
:100D0000D740C760F0BD0000083802400024F4005E
:100D100000127A00140000207047000030B5002255
:100D20008B071C0F0F2303FA04F20B4B8C1053F8A4
:100D300024309343084C8D1044F8253023468C1002
:100D400053F824308C07240F00FA04F42343024C98
:100D50008D1044F8253030BD0838014010B500240E
:100D6000FFF7F8FE04E0601CC4B20120FFF704FDA9
:100D700002210848FFF723FE08B12D2CF3DD2D2CAE
:100D800001DD012010BDC4F59170FFF7F5FC0020D6
:100D9000F8E700000000024010B5FFF7EFFE022167
:100DA0000748FFF715FE4FF47070FFF7E5FC0221CE
:100DB0000348FFF70FFE0F20FFF7DEFC10BD000019
:100DC000000002400CB500200190009033480068FC
:100DD00040F480303149086000BF3048006800F4BA
:100DE000003000900198401C0190009818B90198BB
:100DF000B0F5A04FF1D12948006800F4003010B1DF
:100E00000120009001E0002000900098012844D1CA
:100E100022484030006840F080502049403108604E
:100E20001F48006840F440401D4908601B480830D6
:100E300000681A49083108600846006808600846DA
:100E4000006840F4805008601648091F0860081FB9
:100E5000006840F08070091F086000BF0F480068FC
:100E600000F000700028F9D040F202700E490860CE
:100E70000A480830006820F003000849083108607B
:100E80000846006840F00200086000BF03480830D0
:100E9000006800F00C000828F8D10CBD00380240B2
:100EA0000070004008544107003C024010B5FFF7B5
:100EB000EBFDFFF7FFFC10BD7047000010B51548B3
:100EC000006840F47000134908601348006840F05F
:100ED00001001149086000200F49083108600E48E0
:100EE00000680E4908400C4908600D48091D08605B
:100EF000081F006820F48020091F086000200649B0
:100F00000C310860FFF75EFF4FF000600149803947
:100F1000086010BD88ED00E000380240FFFFF6FEDB
:100F20001030002410B501210C4800F0A6F898B14B
:100F300001210A4800F092F80021084800F091F8D9
:100F40000021064800F0B3F820210548FFF737FDDF
:100F500010B904A000F092FA10BD00000004004097
:100F6000000002405265706169720A001FB50121DC
:100F70000220FFF72DFE0020ADF80C00ADF80600B2
:100F80006320029042F2CF00ADF8040001A90B48A3
:100F900000F090F81D208DF8000000208DF8010071
:100FA0008DF8020001208DF803006846FFF78AFDE6
:100FB00001221146014800F071F81FBD00040040F5
:100FC00010B501210C4800F058F898B101210A48E9
:100FD00000F044F80021084800F043F800210648DA
:100FE00000F065F840210548FFF7E9FC10B904A0BE
:100FF00000F044FA10BD000000080040000002406C
:1010000048656C700A0000001FB501210420FFF73D
:10101000DFFD0020ADF80C00ADF806006320029063
:1010200042F2CF00ADF8040001A90B4800F042F8ED
:101030001E208DF8000000208DF801008DF80200C0
:1010400001208DF803006846FFF73CFD01221146A0
:10105000014800F023F81FBD00080040CA43028287
:10106000704721B1028842F00102028004E0028848
:101070004FF6FE731A400280704730B502460020DA
:1010800000230024158A05EA0103958905EA010475
:1010900013B10CB1012000E0002030BD1AB18389EA
:1010A0000B43838102E083898B43838170474162D4
:1010B0007047000000220288184B98420ED0184B4F
:1010C00098420BD0B0F1804F08D0164B984205D013
:1010D000154B984202D0154B984204D14FF68F73AE
:1010E0001A404B881A43124B984207D0114B984232
:1010F00004D04FF6FF431A400B891A4302804B6815
:10110000C3620B880385054B984202D0044B98427A
:1011100001D18B7A0386012383827047000001404E
:10112000000401400004004000080040000C0040A2
:1011300000100040001400401CB501210846FFF7D4
:1011400037FD0220009001208DF8040000208DF86A
:10115000060002208DF8050001208DF80700694681
:101160000548FFF7C1FB02210348FFF733FCFFF7F7
:1011700013FEFFF7F3FD1CBD0000024010B540F266
:1011800024410B4800F053F880B1094800F0E4F81E
:10119000C4B20848FFF793FA4FF6FF71081A0649E0
:1011A000088000210348FFF77FFA00BF10BD000050
:1011B00000100140886402403000002010B540F269
:1011C00024410B4800F033F880B1094800F0C4F81E
:1011D000C4B20848FFF773FA4FF6FF71081A0649C0
:1011E000088000210348FFF75FFA00BF10BD000030
:1011F00000140140286402403400002021B182899B
:1012000042F40052828104E082894DF6FF731A4055
:101210008281704702460020B1F5007F00D100BFF7
:1012200013880B400BB1012000E00020704770B51F
:101230000246002400230025002040F66A16B14231
:1012400000D100BFC1F3421501F01F03012606FAC9
:1012500003F3012D02D19689334006E0022D02D11D
:10126000168A334001E0968A33400C12012606FAB2
:1012700004F41688344013B10CB1012000E00020C2
:1012800070BD00002DE9FF4705460E460024A1462B
:1012900000BFA046B08900B100BF2C8A24F440549E
:1012A000F08804432C82AC8941F20C608443B088FE
:1012B00031890843718908430443AC81AC8A24F422
:1012C0004074B0890443AC826846FFF7B1FC204803
:1012D000854202D01F48854202D1DDF80C9001E022
:1012E000DDF80890A88900F4004040B109EBC9007E
:1012F00000EB091031684900B0FBF1F707E009EB9A
:10130000C90000EB091031688900B0FBF1F76420D7
:10131000B7FBF0F004012009642101FB1078A889D3
:1013200000F4004040B1322000EBC800B0FBF1F007
:1013300000F00700044308E0322000EB08106421AD
:10134000B0FBF1F000F00F0004432C81BDE8FF87F3
:10135000001001400014014001468888C0F30800D5
:101360007047C1F3080282807047000000B587B063
:1013700001210220FFF71CFC072206212048FFF76D
:10138000FBFA4020059002208DF8180000208DF80F
:101390001A0001208DF81B0002208DF8190005A904
:1013A0001748FFF7A1FA08220C211648FFF7E4FAC4
:1013B0004FF48050059002208DF8180005A91148BF
:1013C000FFF792FA01211020FFF712FC4FF4E130F1
:1013D00001900020ADF80800ADF80A00ADF80C004F
:1013E000ADF810000C20ADF80E0001A90648FFF77B
:1013F00049FF01210448FFF701FF07B000BD0000CD
:1014000000040240000002400010014010B50446F4
:1014100000BF80210448FFF7FDFE0028F9D02146D7
:101420000148FFF79EFF10BD0010014000BFFEE71E
:1014300070B50446002507E00D48007800B105E0CE
:101440000120FFF799F96D1CA542F5DB00BF0848A4
:10145000007810B90748008870BD00200449087062
:1014600001210548FFF720F902480088F4E7000051
:10147000320000203400002028640240014A024962
:1014800000F013B8CD1400083800002002E008C8AE
:10149000121F08C1002AFAD170477047002001E0EE
:1014A00001C1121F002AFBD170472DE9F0411646F9
:1014B0000F460446002503E03946B047641C6D1C06
:1014C00020780028F8D12846BDE8F08170B50446A0
:1014D0000D46E0B2FFF79AFF204670BD4FF47A70D8
:1014E000FFF74AF94FF4A060FFF728FBFFF73EFF34
:1014F000FFF7DCFCFFF708F8FFF71EFEFFF76EFAB8
:10150000FEF774FF0F20FEF7F3FF0120FFF710F93D
:1015100008A0FFF7B3FF0BE04FF4FA60FFF708F9FC
:101520000520FEF795FF6420FFF782FF044600BF09
:10153000F2E70000496E697469616C697A6520663A
:10154000696E6973686564210A0000006C15000803
:10155000000000203C0000008C140008A8150008C2
:101560003C000020140400009C14000800BD01058C
:101570000000000000000000010203040607080943
:101580000000000001020304010203040607080929
:101590003333D33F3333533A0000010100000101DC
:0815A000000000000000000043
:040000050800019559
:00000001FF
