:020000040800F2
:10000000B8530020AD010008B92000087D1C00088D
:10001000B5200008030C0008434100080000000060
:100020000000000000000000000000006927000838
:10003000891600080000000041210008A7380008C8
:10004000C7010008C7010008C7010008C701000870
:10005000C7010008C7010008C7010008C701000860
:10006000C7010008C7010008C7010008C701000850
:10007000C7010008C7010008C7010008C701000840
:10008000C7010008C7010008690900080000000056
:10009000000000000000000000000000251A000819
:1000A000C7010008C7010008C7010008C701000810
:1000B000C701000811390008B5390008C701000858
:1000C000C7010008C7010008C7010008C7010008F0
:1000D000C7010008E13C0008C7010008000000005B
:1000E000C7010008C7010008C701000800000000A0
:1000F000000000000000000000000000C701000830
:1001000000000000C7010008C7010008C70100087F
:1001100000000000000000000000000000000000DF
:10012000C701000831140008C7010008C701000812
:10013000C7010008000000000000000000000000EF
:10014000000000000000000000000000C7010008DF
:100150008D140008E914000811150008DD3E0008A0
:10016000C7010008C70100080000000000000000EF
:10017000000000000000000000000000000000007F
:1001800000000000C701000800000000000000009F
:10019000C7010008DFF810D000F0FCFA0048004763
:1001A000594C0008AFF30080B85300200648804740
:1001B00006480047FEE7FEE7FEE7FEE7FEE7FEE74C
:1001C000FEE7FEE7FEE7FEE7A93800089501000814
:1001D00038B5D0E90221491E01EB410102EBC10112
:1001E0004268C1EB011102EB81010268C1EB011110
:1001F00002EB8102D0E9043101EB410103EB810103
:100200003023A1F5527191FBF3F4174D6C4302EBCF
:10021000C41291FBF3F403FB141100921A2902DBC0
:10022000124B1A4400920C2291FBF2F3104C6343E0
:10023000009C04EBC313009391FBF2F302FB131138
:100240000C4A08E0491E40F2A324535C6343009C1F
:1002500004EBC31300930029F4DC0146684600F068
:10026000B3F8009838BD00003F0C0F00805101002A
:1002700067C20300E854000840EA01039B0703D06B
:1002800009E008C9121F08C0042AFAD203E011F8D5
:10029000013B00F8013B521EF9D2704730B50546CC
:1002A0002A460B4612F8010B13F8014B08B1A04285
:1002B000F8D01CB1002802D06D1CF1E7284630BDF3
:1002C000421C10F8011B0029FBD1801A704703461D
:1002D00011F8012B00F8012B002AF9D118467047BC
:1002E00000F0004230F000400AD0C10D01F560710D
:1002F000C0F3160042EA0151C2084007114370479B
:10030000002001467047000030B5041E71F1000462
:1003100004DB4FF00044404264EB0101141E73F112
:10032000000405DB1C464FF00043524263EB04031C
:10033000994208BF904230BD30B50B4601460020BF
:100340002022012409E021FA02F59D4205D303FA97
:1003500002F5491B04FA02F52844151EA2F1010218
:10036000F1DC30BD2DE9F05F0546002092469B464A
:1003700088460646814640241BE0284641464746BB
:10038000224600F028FA53465A46C01A914110D32B
:1003900011461846224600F00FFA2D1A67EB0108A5
:1003A0004F4622460120002100F006FA17EB000913
:1003B0004E41201EA4F10104DFDC484631462A46A6
:1003C0004346BDE8F09F000010B500683C22B0FB3A
:1003D000F2F302FB1303B0FBF2F00B60B0FBF2F39D
:1003E00002FB1303B0FBF2F018224B60B0FBF2F3F8
:1003F00002FB1303B0FBF2F0021D8B600723B2FB7C
:10040000F3F403FB1422800040F2B55300F66C3085
:100410008A61B0FBF3F2B0FBF3F403FB1400443247
:1004200080084A61C8613B2802D3920700D0401C73
:100430000022074C13460A61E25C824203D8801A0C
:100440005B1C0B61F8E7401CC860084610BD00004B
:10045000F45400082DE9FE4F804681EA0300C00FE6
:100460000C46009021F0004123F00045B8EB02005B
:10047000A94105D24046214690461C460B460246FD
:1004800023F00040104347D0270DC7F30A00C3F301
:100490000A510290401A019040286BDAC3F313000E
:1004A00040F4801B0098924620B10023D2EB030A4F
:1004B00063EB0B0B01985946C0F14002504600F027
:1004C0007BF906460D4650465946019A00F093F9CD
:1004D00010EB08006141002487EA115284EAE773B7
:1004E0001A4340D0009A62B3019A012A4FEA075298
:1004F00015DC001B61EB02014FF0004202EA0752DB
:10050000CDE90042001C41F5801132462B4600F037
:1005100093F903B0BDE8F08F40462146F9E7001B90
:1005200061EB0201001C41F5801300185B412018AB
:10053000A2F5001747EB030140EAD570B6196D41EB
:1005400011E06D084FEA360645EAC0754FEA0752DA
:10055000001B61EB0201001C41F5801149084FEAC4
:1005600030000019514132462B4603B0BDE8F04F30
:1005700000F053B90098012240000023D0EB0202A2
:1005800063EBE073009821464FEAE074B8EB00009B
:1005900061EB0401E9E783F000435BE781F0004190
:1005A00058E72DE9FE4F81EA030404F0004421F0EE
:1005B000004100944FF0000B23F0004350EA010487
:1005C0005ED052EA03045BD0C3F30A54C1F30A5568
:1005D0002C44A4F2F3340194A0FB0254C1F31301A0
:1005E00041F48011C3F3130343F4801301FB02446D
:1005F00000FB034E840A970A44EA815447EA835772
:10060000A4FB076802958D0A05FB07854FEA932C2A
:1006100004FB0C542705029D4FEA065847EA16379B
:10062000B5EB08056EEB070C870E920E47EA8117B3
:1006300042EA8312A7FB0201B6EB0B0164EB000454
:100640002B0D43EA0C335E1844EB1C50DA4651463E
:10065000E7FB0201C5F313044FEA0B3343EA1453DB
:100660004FEA0432019C43EA0603A4F10C0402940D
:10067000009CCDE900B400F0DFF803B0BDE8F08FD6
:1006800000200146F9E72DE9F04D81EA030404F06A
:10069000004B21F0004514464FF0000A23F00041C2
:1006A00050EA050220D054EA01021DD0C5F30A57D2
:1006B0000246C5F31303C1F31300C1F30A5640F415
:1006C000801543F48013A7EB0608101BD64608F2EA
:1006D000FD3873EB050002D308F1010801E0921820
:1006E0005B41B8F1000F03DA00200146BDE8F08D50
:1006F00000204FF48011064684460EE0171B73EB72
:10070000050705D3121B63EB050306434CEA010CF6
:1007100049084FEA300092185B4150EA0107EDD1D9
:1007200052EA030012D082EA040083EA050108437A
:1007300005D0101BAB4106D20122002306E00022A7
:100740004FF0004302E06FF0010253101AEB060075
:100750004CEB085110EB0A0041EB0B01BDE8F04DEA
:1007600000F05BB8C1F30A52C1F3130140F2FF334A
:1007700041F480119A4202DA00200146704740F2AB
:1007800033439A42A2F2334202DC524200F023B8D1
:1007900000F012B8064C074D06E0E06840F0010397
:1007A00094E8070098471034AC42F6D3FFF7F6FC04
:1007B0000055000820550008202A04DB203A00FAE2
:1007C00002F1002070479140C2F1200320FA03F3A8
:1007D000194390407047202A04DB203A21FA02F0A6
:1007E0000021704721FA02F3D040C2F1200291406B
:1007F000084319467047202A06DBCB17203A41FAF6
:1008000002F043EAE07306E041FA02F3D040C2F19D
:100810002002914008431946704710B5141E73F129
:10082000000408DA401C41F1000192185B411A43B0
:1008300001D120F0010010BD2DE9F04D92469B46FC
:1008400011B1B1FA81F202E0B0FA80F220329046A2
:10085000FFF7B2FF04460F4640EA0A0041EA0B01E7
:1008600053465A46084313D0114653EA010019D0A3
:10087000C8F140025046FFF7AEFF05460E4650460F
:1008800059464246FFF798FF084305D0012004E08F
:1008900020463946BDE8F08D0020054346EAE07663
:1008A0002C4337430A986305E40AA0EB08000022B2
:1008B000FD0A44EA47540A3002D500200146E9E720
:1008C000010510196941DDE9084500196941BDE8D4
:1008D000F04DA2E700220A12D3430360704721B112
:1008E000826842F00102826003E0826822F0010225
:1008F000826070470021084A1168084A1140D0E917
:1009000000231A4383681A43C3681A431143044AF5
:10091000C2F804137047000004230140E030FCFFDC
:100920000020014010B50121080201F069FC0021FE
:100930004FF4807001F064FC10BD0146C86C80B2B9
:10094000704770B502460020002300240B12556842
:1009500001268E4005EA060415681D4015B10CB14C
:10096000012000E0002070BD10B540F205210E48C6
:10097000FFF7E7FFB8B140F205210B48FFF7AAFFE8
:100980000948FFF7DAFF0949094A127821F81200ED
:1009900007480078401C06490870084600780A2875
:1009A00001DB0020087010BD0020014088000020FD
:1009B0003000002010B50B460021D9B2012404FA02
:1009C00001F11AB144680C43446002E044688C436E
:1009D000446010BD30B50246002000235068104C22
:1009E00020400D790C6844EA05242043506090684B
:1009F0000C4C2040D1E903542C438D682C434D7995
:100A000044EA450420439060D06A20F470000C7DD5
:100A1000641EE4B2234340EA0350D06230BD0000BC
:100A2000FFFEFFFCFDF7FFC0F0B504460D460020B9
:100A30000021092D11DDE068A5F10A0606EB460745
:100A4000072606FA07F18843A5F10A0606EB4606D3
:100A500003FA06F10843E0600CE0206905EB450766
:100A6000072606FA07F1884305EB450603FA06F167
:100A700008432061072A0FDA606B561E06EB8607D3
:100A80001F2606FA07F18843561E06EB860605FA6E
:100A900006F10843606322E00D2A0FDA206BD61FAF
:100AA00006EB86071F2606FA07F18843D61F06EBDA
:100AB000860605FA06F10843206310E0E06AA2F119
:100AC0000D0606EB86071F2606FA07F18843A2F1FA
:100AD0000D0606EB860605FA06F10843E062F0BD56
:100AE000816841F080418160704700001CB50121A0
:100AF000022001F055FB0820009001208DF8040031
:100B000000208DF8060001208DF8070000208DF8E8
:100B1000050069460D4801F039F80121022001F075
:100B20003FFB4FF48060009001208DF8040000200E
:100B30008DF8060001208DF8070000208DF80500D3
:100B40006946024801F022F81CBD00000004024082
:100B500010B50446204600F001F810BD70B50446FB
:100B6000E6B22512284600F00BF8022000F08EFDB8
:100B7000304600F005F8022000F088FD70BD00004E
:100B800070B504464FF48061184801F073F80520F1
:100B900000F07CFD00251DE04FF48061134801F05A
:100BA00069F804F0010020B10821104801F064F850
:100BB00003E008210D4801F05DF8C82000F096FD23
:100BC0004FF48061094801F057F8C82000F08EFD0D
:100BD00064106D1C082DDFDB4FF48061034801F0C9
:100BE0004BF80821014801F047F870BD00040240AD
:100BF00010B504464FF6E071214488B2FFF7AEFF0E
:100C000010BD00BFFEE7000000B585B00121084619
:100C100001F0C6FA2020039000208DF8100001207A
:100C20008DF8130003A92A4800F0B0FF01218803C2
:100C300001F0D6FA0521002001F098FD2020019056
:100C400000208DF808000C208DF8090001208DF897
:100C50000A0001A800F014FF0121084601F0A0FAE3
:100C60004020039000208DF8100001208DF8130023
:100C700003A9174800F08AFF0121880301F0B0FAA8
:100C80000621002001F072FD4020019000208DF827
:100C900008000C208DF8090001208DF80A0001A839
:100CA00000F0EEFE17208DF8000001208DF8010005
:100CB00000208DF8020001208DF80300684601F045
:100CC000FDF902F04DFE02F09FFE05B000BD0000F0
:100CD000000002402DE9F04104460D4616461F462D
:100CE000394804703948057039480680394807800A
:100CF00039493A4803F0B4FA39A13848FFF7E7FA1E
:100D00003648FFF7DDFA1FFA80F86421404603F009
:100D100009FB00F0F3F910B10120BDE8F0810420D7
:100D200000F0D8FC284802780021084600F002FABA
:100D300008B10120F1E7012000F0CCFC2D492E483C
:100D400003F002FA2DA12C48FFF7C1FA2A48FFF759
:100D5000B7FA1FFA80F86421404603F055FA00F014
:100D600055F8052000F0B6FC2348FFF7A9FA1FFA52
:100D700080F86421404603F047FA00F047F801206C
:100D800000F0A8FC16A11C48FFF7A1FA1A48FFF7CB
:100D900097FA1FFA80F86421404603F035FA00F014
:100DA00035F808B10120B8E7012000F093FC14A148
:100DB00015A000F049F808B10120AEE7012000F0CD
:100DC00089FC0020A9E700005800002059000020FD
:100DD0005A0000205C0000209C0600209C0500209A
:100DE00041542B55545F5245434F564552590D0AB5
:100DF000000000009C0B00209C0700203C2D3E00C2
:100E000054435043000000005354410010B5ADF569
:100E1000806D002412E0684600F048F900B90CE04B
:100E200008A16846FFF73AFA18B100200DF5806D69
:100E300010BD022000F02AFC00BF641C322CEADB4B
:100E40000120F3E74F4B000070B5ADF5816D04460E
:100E50000E465DA16248FFF73AFA6148FFF730FAA3
:100E600085B26421284603F0CFF9FFF7CFFF18B110
:100E700001200DF5816D70BD5A485B4923465BA288
:100E8000CDE900105CA102A803F078FA02A9544849
:100E9000FFF71DFA5248FFF713FA85B2642128467E
:100EA00003F0B2F9FFF7B2FF08B10120E1E757A361
:100EB00058A25CA102A803F061FA02A94848FFF712
:100EC00006FA4748FFF7FCF985B26421284603F08B
:100ED0009BF9FFF79BFF08B10120CAE742F21070AF
:100EE000524953A354A2CDE9001057A102A803F020
:100EF00045FA02A93A48FFF7EAF93948FFF7E0F95D
:100F000085B26421284603F07FF9FFF77FFF08B11F
:100F10000120AEE750A33FA242A102A803F02EFA9F
:100F200002A92F48FFF7D3F92D48FFF7C9F985B279
:100F30006421284603F068F9FFF768FF08B1012033
:100F400097E747A0002348A24BA1009002A803F016
:100F500015FA02A92248FFF7BAF92148FFF7B0F9BC
:100F600085B26421284603F04FF9FFF74FFF08B11F
:100F700001207EE743A345A22AA102A803F0FEF9BF
:100F800002A91748FFF7A3F91548FFF799F985B2A9
:100F90006421284603F038F9FFF738FF08B1012033
:100FA00067E73EA10E48FFF792F90D48FFF788F971
:100FB00085B26421284603F027F9FFF727FF0520B3
:100FC00000F088FB002054E741542B55545F5245F4
:100FD00053484F573D44495341424C450D0A000088
:100FE0009C070020CB540008C054000841542B57E4
:100FF0004946493D00000000257325732C25732CBC
:1010000025732C4F50454E0D0A00000044495341B2
:10101000424C450041542B4554485F434831454EAE
:101020003D000000257325730D0A0000D65400080A
:10103000544350430000000041542B4554485F4343
:101040004831503D00000000257325732C25732C7A
:1010500025640D0A00000000454E41424C45000049
:10106000313233343536000041542B4554485F4308
:1010700048314854503D0000257325642C25730DDC
:101080000A000000544350554450000041542B5571
:10109000545F574B4D4F44453D00000041542B5584
:1010A000545F52455345540D0A00000070B5054683
:1010B000642003F087F804460CB9204670BDB4F5EF
:1010C000806F01DD4FF48064224603492846FFF714
:1010D000D3F82046F2E700009C0B002070B50546CF
:1010E0000C46224629460448FFF7C6F864212046EC
:1010F00003F08AF870BD00009C07002010B5C0B056
:10110000002411E0684600F00FF900B90BE008A1D7
:101110006846FFF7C3F810B1002040B010BD0220B0
:1011200000F0B4FA00BF641C322CEBDB0120F4E7C2
:101130004F4B0000F0B5C1B004460D46164623469D
:1011400051A255A101A803F019F901A95448FFF7CC
:10115000BEF85348FFF7B4F887B26421384603F06D
:10116000E1F8FFF7CBFF10B1012041B0F0BD4D48D1
:1011700003784DA248A101A803F000F901A948484D
:10118000FFF7A5F84648FFF79BF887B26421384679
:1011900003F0C8F8FFF7B2FF08B10120E5E74648C1
:1011A000038846A249A101A803F0E8F801A93C4838
:1011B000FFF78DF83A48FFF783F887B26421384685
:1011C00003F0B0F8FFF79AFF08B10120CDE74248DD
:1011D000038842A23DA101A803F0D0F801A930483C
:1011E000FFF775F82E48FFF76BF887B26421384691
:1011F00003F098F8FFF782FF08B10120B5E7234616
:101200003AA23DA101A8009603F0B8F801A924482C
:10121000FFF75DF82248FFF753F887B2642138469C
:1012200003F080F8FFF76AFF08B101209DE72B4625
:1012300035A219A101A803F0A1F801A91848FFF7E8
:1012400046F81748FFF73CF887B26421384603F0A8
:1012500069F8FFF753FF08B1012086E72EA1104877
:10126000FFF735F80E48FFF72BF887B264213846B0
:1012700003F058F8FFF742FF08B1012075E7052099
:1012800000F028FA002070E741542B5A4947425F8A
:10129000545950453D000000257325640D0A000097
:1012A0009C0500205900002041542B52465F4348C2
:1012B000414E4E454C3D00005A00002041542B5AEF
:1012C0004947425F50414E49443D00002573253057
:1012D00034580D0A000000005C00002041542B4EE1
:1012E00045545F47524F555049443D0041542B559A
:1012F000545F5549443D0000257325303258253050
:1013000032580D0A0000000041542B5A4947425FF1
:1013100052584D4F44453D0041542B55545F524562
:101320005345540D0A00000070B50546642002F0D4
:10133000D7FF04460CB9204670BDB4F5807F01DDAF
:101340004FF48074224603492846FEF795FF204655
:10135000F2E700009C0600202DE9F041C2B00646ED
:101360000D4617461C46334620A225A102A800952B
:1013700003F004F802A92648FEF7A9FF2448FEF767
:101380009FFF1FFA80F86421404602F0CBFFFFF771
:10139000B5FE18B1012042B0BDE8F08133461DA270
:1013A0001FA102A8009502F0E9FF224639460DF17F
:1013B0001B00FEF761FF0D2104F1130002AA115476
:1013C0000A21401C1154401C84B2224602A9104834
:1013D000FEF752FF6421204602F0A4FFFFF78EFEC5
:1013E00008B10120D7E70020D5E7000041542B5A6F
:1013F0004947425F554944544F49443D000000006D
:10140000257325303258253032580D0A000000006F
:101410009C05002041542B55545F53454E443D00DC
:10142000257330332C25303258253032582C0000AB
:1014300010B51049104800F0A9F8D0B10D490E4878
:1014400000F07AF80D480088B0F5806F03DD4FF4A6
:1014500080600A49088009480288094909480068EB
:10146000FEF70AFF0120084908700121024800F038
:101470007DF810BD00880010286402405200002052
:101480009C010020540000205000002010B510499D
:10149000104800F07BF8D0B10D490E4800F04CF830
:1014A0000D480088B0F5807F03DD4FF480700A4955
:1014B000088009480288094909480068FEF7DCFEEF
:1014C0000120084908700121024800F04FF810BDC2
:1014D00000880020886402404A0000209C00002010
:1014E0004C0000204800002010B50649064800F0D6
:1014F0004DF830B10349044800F01EF801200349BB
:10150000087010BD00802020A0640240510000201F
:1015100010B50649064800F039F830B103490448CF
:1015200000F00AF801200349087010BD008000286F
:10153000B8640240490000200246094B9A4201D299
:10154000084801E00648103801F000531BB1064B73
:101550000B40C36002E0044B0B4083607047000007
:1015600010640240006002407D0F7D0F21B10268CF
:1015700042F00102026003E0026822F00102026010
:1015800070470146486880B27047000070B5024657
:10159000002000240025124EB24201D2114B01E07E
:1015A0000F4B103B104E0E4036B11E2606EAD124DA
:1015B000166806EA040502E0566906F0800501F0A7
:1015C00000560EB15C6800E01C68084E344004EA26
:1015D000010616B10DB1012000E0002070BD000031
:1015E00010640240006002403C0F3C0F7D0F7D0FF5
:1015F00010B501F080034BB122B1436943F0800381
:10160000436103E0436923F08003436180290BD0E9
:101610002AB1036801F01E042343036004E0036859
:1016200001F01E04A343036010BD000010B50022AA
:101630000268134B1A40CC680B6823434C69234360
:101640008C692343CC6923430C6A23434C6A2343AC
:101650008C6A23434C6B23438C6B23431A430260F5
:10166000426922F00702D1E90B3423431A43426155
:101670000B6943604B6883608B68C36010BD0000DA
:101680003F801CF04160704770470000104A1268AC
:101690004FF47A73B2FBF3F24243D2084FF0E023E7
:1016A0005A6100229A6101221A611A46116902E008
:1016B0004FF0E022116901F001021AB101F4803209
:1016C000002AF5D000224FF0E0231A619A6170479A
:1016D0000000002010B5044603E04FF47A70FFF7D5
:1016E000D5FF201EA4F10104F7D110BD104A1268E5
:1016F000104BB2FBF3F24243D2084FF0E0235A61A1
:1017000000229A6101221A611A46116902E04FF023
:10171000E022116901F001021AB101F48032002ABD
:10172000F5D000224FF0E0231A619A617047000063
:101730000000002040420F0070B5002419E004F1C1
:10174000B001C8B2012100F025FB0121002000F00A
:1017500021FB0121102000F01DFB002505E00021E8
:10176000084600F017FB681CC5B2802DF7DB601C33
:10177000C4B2082CE3DB70BD1CB50121022000F0CF
:101780000FFD8020009001208DF804008DF80600E8
:101790008DF807008DF8050069460F4800F0F6F94E
:1017A00080210D4800F068FA0121022000F0F8FCC9
:1017B0004020009001208DF804008DF806008DF87F
:1017C00007008DF805006946034800F0DFF9402165
:1017D000014800F051FA1CBD0004024010B5FFF7AB
:1017E000CBFF0120FFF752FFC820FFF74FFF012179
:1017F000AE2000F0CFFA0121002000F0CBFA012149
:10180000102000F0C7FA0121402000F0C3FA0121A6
:10181000B02000F0BFFA0121812000F0BBFA0121C5
:10182000FF2000F0B7FA0121A02000F0B3FA012157
:10183000A62000F0AFFA0121A82000F0ABFA0121A8
:101840001F2000F0A7FA0121C02000F0A3FA012117
:10185000D32000F09FFA0121002000F09BFA012123
:10186000D52000F097FA0121002000F093FA012121
:10187000D92000F08FFA01211F2000F08BFA0121FE
:10188000DA2000F087FA0121022000F083FA01211A
:10189000DB2000F07FFA0121302000F07BFA0121EB
:1018A0008D2000F077FA0121142000F073FA012155
:1018B000AF2000F06FFAFFF73FFF10BD70B5044690
:1018C0000D4605F1B001C8B2012100F063FA102104
:1018D00041EA1410012100F05DFA04F00F0001212B
:1018E00000F058FA70BD00002DE9F04707460E469B
:1018F0009046994600250024A8F12000C5B2B9F110
:10190000010F2CD15F2D00DB0025782F00DD002793
:10191000022E00DD002631463846FFF7CFFF0024B7
:1019200008E01E4901EB0511085D002100F032FAC4
:10193000601CC4B2082CF4DB701CC1B23846FFF73F
:10194000BDFF082408E0154901EB0511085D0021E1
:1019500000F020FA601CC4B2102CF4DB1BE05C2DFC
:1019600000DB00257A2F00DD0027032E00DD002696
:1019700031463846FFF7A2FF00240AE005EB450197
:10198000074A02EB4101085D002100F003FA601CE8
:10199000C4B2062CF2DBBDE8F0870000D04E000890
:1019A000A84C00082DE9F04705460E461746984614
:1019B000DDF820900024B9F1010F19D113E03A5D50
:1019C0004B4631462846FFF78FFF05F10800C5B2A8
:1019D000782D02DD0025B01CC6B2022E01DDBDE867
:1019E000F087601CC4B2385DC8B14445E7DB16E03F
:1019F00011E03A5D4B4631462846FFF775FFA81DBA
:101A0000C5B27A2D02DD0025701CC6B2032E00DDA2
:101A1000E5E7601CC4B2385D08B14445E9DB00BFAE
:101A2000DDE7000010B5202000F01EF830B12020C6
:101A300000F014F80121074802F013F8402000F0EC
:101A400013F830B1402000F009F80121024802F0FB
:101A500008F810BD0004004000080040014908607B
:101A600070470000143C014001460020034A126800
:101A70000A400AB1012000E000207047143C0140F8
:101A8000002123498279002A3AD00A461268036865
:101A90009A430B461A600A1D126803689A430B1D8D
:101AA0001A60027911440A6803681A430A60184AE6
:101AB0000832126803689A43154B08331A601A1DDE
:101AC000126803689A43124B0C331A604279102A49
:101AD0000ED11A1F126803681A430D4B08331A609F
:101AE0001A1D126803681A43094B0C331A600DE083
:101AF0000749427911440A6803681A430A6005E0FD
:101B0000027911440A6803689A430A60704700002A
:101B1000003C01400148007870470000240000208C
:101B20001CB50121084600F03BFB08200090012075
:101B30008DF8040000208DF8060002208DF80700C3
:101B400000208DF805006946014800F01FF81CBD13
:101B50000000024010B50120034908700821034825
:101B600000F08AF810BD00002400002000000240B0
:101B700010B50020034908700821034800F07AF8E6
:101B800010BD00002400002000000240F0B50A460D
:101B900000210023002400BF3DE0012505FA01F3E8
:101BA000156805EA03049C4234D105684F000326FA
:101BB000BE40B543056015794E00B5400668354313
:101BC00005601579012D02D01579022D16D1856891
:101BD0004F000326BE40B543856055794E00B540A1
:101BE000866835438560456801268E40B54345606B
:101BF000456896798E40B6B235434560C5684F005A
:101C00000326BE40B543C560D5794E00B540C668D1
:101C10003543C560491C1029BFD3F0BDF0B5002382
:101C200000244D07ED0E02FA05F3CE1000F1200559
:101C300055F826504E07F70E0F26BE40B543CF107D
:101C400000F1200646F82750CE1000F1200555F887
:101C5000265045EA0304CE1000F1200545F8264041
:101C6000F0BD0246002013690B400BB1012000E0DB
:101C700000207047418370470183704700BFFEE733
:101C800010B5002480211148FFF7F6FF0120FFF76F
:101C90002DFD40210D48FFF7EFFF0120FFF726FD46
:101CA00007E0601CC4B2FA2C03DD00F02BF8012021
:101CB00010BD80210548FFF7D4FF0028F1D1402155
:101CC0000248FFF7D7FF0020F2E7000000040240BF
:101CD00010B580210A48FFF7CFFF40210848FFF7E1
:101CE000CBFF0120FFF702FD80210548FFF7C2FF6F
:101CF0000120FFF7FBFC40210148FFF7BBFF10BDAF
:101D00000004024010B540210A48FFF7B3FF8021CC
:101D10000848FFF7AFFF0120FFF7E8FC4021054826
:101D2000FFF7AAFF80210348FFF7A6FF0120FFF776
:101D3000DDFC10BD0004024070B50446402114488B
:101D4000FFF798FF002520E004F08000802804D1F0
:101D500080210F48FFF790FF03E080210C48FFF738
:101D600089FF6006040E0120FFF7C0FC40210848EF
:101D7000FFF782FF0120FFF7B9FC40210448FFF77D
:101D800079FF0120FFF7B2FC6D1C082DDCDB70BD74
:101D90000004024070B506460D46012D01D1002415
:101DA00000E04024FFF794FF7820FFF7C5FFFFF71E
:101DB00067FF08B1012070BD2046FFF7BDFFFFF7A8
:101DC0005FFF08B10120F6E73046FFF7B5FFFFF7E8
:101DD00057FF08B10120EEE7FFF794FF0020EAE784
:101DE00070B504460D462146002000F033FB29461D
:101DF000002000F055FB70BD00B58DB0694601A80C
:101E0000FFF7EEFF9DF80700643007909DF805008E
:101E1000401E06909DF8060005909DF80000049075
:101E20009DF8010003909DF80200029000200A90A6
:101E300002A8FEF7CDF90DB000BD00B585B00121B7
:101E4000080700F0BDF9012000F074F9012000F04E
:101E50007BFA00BF412000F057FA0028FAD04FF477
:101E6000807000F08DFA012000F084FA00F03EFC52
:101E7000002000F06BFC00F0BBFA7C200390FE20F9
:101E800004900020029002A800F032FB16208DF88A
:101E9000070005208DF805001E208DF806000120A2
:101EA0008DF8040001A9002000F054FB08208DF8F3
:101EB000000000208DF801008DF802008DF803006D
:101EC000694600F0ABFB00F0BBFA012000F03EFCDD
:101ED000002000F02FF905B000BD30B5039C08705C
:101EE00000121070001218700012207030BD000037
:101EF00010B500F00FF80648D0ED000AB4EEE00A85
:101F0000F1EE10FA01DD002010BD0120FCE7000019
:101F10002800002070B5002401211548FEF7DFFCE1
:101F2000002506E01248FEF7DBFD0120FFF7DEFB8F
:101F30006D1C0A2DF6DB002005E00E4931F810106B
:101F400021448CB2401C0A28F7DB00210848FEF728
:101F5000C6FC00EE104AB8EE400A0748D0ED000A71
:101F600060EE200AB2EE041A80EE810A70BD000015
:101F700000200140880000202C00002000B52DED3D
:101F8000028B8DB0B0EE408A294880ED008A012195
:101F9000042000F005F904200B9003208DF8300098
:101FA00000208DF833000BA92248FFF7EFFD012137
:101FB000080200F015F9FEF7B5FC002007904FF479
:101FC00040300890002009904FF420600A9007A844
:101FD000FEF790FC002001908DF808008DF80900B4
:101FE0000390059001208DF8180001A91248FEF712
:101FF000F1FC01231A460C210F48FEF715FD1220B3
:102000008DF8000003208DF8010000208DF80200FB
:1020100001208DF80300684600F050F8012240F2DC
:1020200005210548FEF7C6FC0DB0BDEC028B00BDD6
:1020300028000020000802400020014001480078EC
:1020400070470000250000201CB50121084600F063
:10205000A7F81020009001208DF8040000208DF8D2
:10206000060002208DF8070000208DF80500694663
:102070000148FFF78BFD1CBD0000024010B5012098
:102080000349087010210348FFF7F6FD10BD00005A
:10209000250000200000024010B500200349087010
:1020A00010210348FFF7E6FD10BD000025000020C9
:1020B0000000024000BFFEE77047000070B500213D
:1020C00000230F22C4781CB3174C246804F4E06486
:1020D000C4F5E064C4F30721C1F10404E3B20A418A
:1020E00044789C40E1B28478144021430C07210ECF
:1020F0000E4C05786155047804F01F050124AC40AE
:1021000005786D11AD0005F1E025C5F8004109E045
:10211000047804F01F050124AC40054D06787611C3
:1021200045F8264070BD00000CED00E000E400E042
:1021300080E100E0014908627047000000000E42A3
:10214000704700001CB50121084600F029F8022064
:10215000009000208DF8040001208DF807006946EA
:102160000148FFF713FD1CBD000002401CB5012112
:10217000084600F015F80220009001208DF80400B8
:1021800000208DF8060002208DF8050001208DF852
:10219000070069460148FFF7F9FC1CBD000002403A
:1021A00029B1064A12680243044B1A6004E0034A4C
:1021B00012688243014B1A607047000030380240B9
:1021C00029B1064A12680243044B1A6004E0034A2C
:1021D00012688243014B1A60704700004038024089
:1021E00029B1064A12680243044B1A6004E0034A0C
:1021F00012688243014B1A60704700004438024065
:1022000029B1064A12680243044B1A6004E0034AEB
:1022100012688243014B1A60704700002438024064
:10222000F0B5002100220024022500260223324FAF
:102230003F6807F00C0121B1042905D0082937D1E6
:1022400005E02E4F076036E02D4F076033E02A4F40
:102250003F1F3F68C7F38056274F3F1F3F6807F077
:102260003F036EB1264FB7FBF3F7DFF88CC0ACF13C
:10227000040CDCF800C0CCF3881C07FB0CF40CE069
:102280001E4FB7FBF3F7DFF870C0ACF1040CDCF8BD
:1022900000C0CCF3881C07FB0CF4174F3F1F3F68AE
:1022A000C7F301477F1C7D00B4FBF5F7076002E030
:1022B000124F076000BF00BF0F4F3F6807F0F001EB
:1022C0000909104F7A5C0768D74047600A4F3F689A
:1022D00007F4E051890A0B4F7A5C4768D740876062
:1022E000054F3F6807F46041490B064F7A5C476829
:1022F000D740C760F0BD0000083802400024F40059
:1023000000127A001400002010B5014600220023BC
:1023100000204A11012A02D10A4C236808E0022A4F
:1023200003D1084C7034236802E0064C74342368EF
:1023300001F01F02012494401C400CB1012000E078
:10234000002010BD003802400021094A11701170B0
:10235000012802D0042808D103E00121044A1170A9
:1023600004E00521024A117000E000BF00BF704781
:102370007038024001490860704700003C0E474237
:10238000002100F44072B2F5407F08D1094A11687B
:1023900021F4F811084A02401143064A1160054A27
:1023A00068321268C0F30B031A43024B68331A6099
:1023B0007047000008380240FFFCFF0F014600BFD5
:1023C000080900EB8000420001F00F001044C0B289
:1023D00070470146002204E0501CC2B2A1F10A007D
:1023E000C1B20A29F8DA100741EA1060704700000C
:1023F00008B50022009200200021104A126802F065
:102400004002CAB9421E0D4B1A6000BF0B4A126847
:1024100002F04001009A521C0092009AB2F5803FEF
:1024200001D00029F2D0054A126802F040020AB138
:10243000012002E0002000E0012008BD0C2800403F
:102440000348006820F080000149086070470000E0
:102450000C28004070B506460C4600250E48006862
:102460000E4900EA0105280CE070C5F304206070F5
:1024700005F03F00A070C5F3423020705EB9E078EF
:10248000FFF79CFFE0706078FFF798FF6070A0781E
:10249000FFF794FFA07070BD042800403FFFFF00CD
:1024A00070B506460C4600250F4800680F4900EA43
:1024B0000105C5F305402070C5F30620607005F0E6
:1024C0007F00A07005F48000000CE0705EB92078F9
:1024D000FFF774FF20706078FFF770FF6070A078DE
:1024E000FFF76CFFA07070BD002800407F7F7F0069
:1024F00030B504460025CA201549086053200860FD
:10250000FFF776FF00B91DE011481C38006820F085
:1025100040000F491C3908600846006821680843DC
:102520000B491C3908600A491439A068086008463C
:102530000068A18840EA0140054914390860FFF7A6
:102540007FFF0125FF2002490860284630BD0000BA
:10255000242800402DE9F04105460C4600260027BE
:102560004DB9607800F01000102804D1607820F098
:1025700010000A30607005B908E06078FFF71EFFB0
:102580000646A078FFF71AFF064600BF55B1E0786F
:102590000004617840EA0120A1780843217840EAEC
:1025A000413611E0E078FFF714FF4FEA0048607809
:1025B000FFF70FFF48EA0028A078FFF70AFF48EA74
:1025C0000008207848EA4036CA20124908605320A3
:1025D0000860FFF70DFF08B9002714E00E483040EF
:1025E0000C4920390860FFF72BFF0A481C380068A7
:1025F00000F0200030B900F079F808B9002702E0B7
:10260000012700E00127FF20024908603846BDE8A5
:10261000F0810000242800403FFFFF002DE9F04139
:1026200005460C46002600274DB92E48006800F0EC
:10263000400000B102E00020E07000BF0DE029483A
:10264000006800F0400020B12078FFF7B7FE064692
:1026500002E00020E07000BF00BF55B12078000408
:10266000617840EA0120A1780843E17840EA014618
:1026700011E02078FFF7ADFE4FEA00486078FFF7E1
:10268000A8FE48EA0028A078FFF7A3FE48EA000861
:10269000E07848EA0046CA2012491C3108605320FD
:1026A0000860FFF7A5FE08B9002713E00E48304088
:1026B0000C4908390860FFF7C3FE0A48006800F0BB
:1026C000200030B900F012F808B9002702E0012715
:1026D00000E00127FF2003491C3108603846BDE8AF
:1026E000F0810000082800407F7F7F0008B50022AD
:1026F000009200200021CA22134B1A6053221A6054
:10270000114A183A126822F0A0020F4B183B1A60C7
:1027100000BF0D4A183A126802F02001009A521CBC
:102720000092009AB2F5003F01D00029F1D0064A8C
:10273000183A126802F020020AB1012000E00020DD
:10274000FF22014B1A6008BD2428004018B1FF2168
:10275000044A116004E0CA21024A11605321116049
:1027600070470000242800407047000030B5002268
:102770008B071C0F0F2303FA04F20B4B8C1053F83A
:1027800024309343084C8D1044F8253023468C1098
:1027900053F824308C07240F00FA04F42343024C2E
:1027A0008D1044F8253030BD0838014010B50024A4
:1027B000FFF7C8FC04E0601CC4B20120FEF796FFDE
:1027C00002210848FFF74DFA08B12D2CF3DD2D2C1E
:1027D00001DD012010BDC4F59170FEF787FF0020D8
:1027E000F8E700000000024010B500F039F9FFF7EB
:1027F000DDFFCC2000F070F9DD2000F06DF900F075
:102800001FF91049088000F01BF90E49097840EAC9
:1028100001200C49088000F013F90B49088000F0F2
:102820000FF90949097840EA01200749088000F0BA
:1028300017F9FFF7BBFFCC2000F04EF9102000F095
:102840004BF910BD44000020460000202DE9F04166
:102850002DED028B00F004F9FFF7A8FFCC2000F06B
:102860003BF9BD2000F038F900F0EAF8074600F027
:10287000E7F805462E4647EA062006B206EB860133
:102880004800C11700EB1161091201F5C87600F08C
:10289000D7F8074600F0D4F805462C4647EA04244A
:1028A00023480088201A4FF41671484321490988AB
:1028B0001F4A1288891A90FBF1F000F59674A6F170
:1028C000FA0000EBC00101EB0010642190FBF1F075
:1028D000044400EE104AB8EEC00AF2EE040A80EE9C
:1028E000201A154880ED001A0068FDF7F9FC9FEDED
:1028F000130B53EC102BFDF707FD05D29FED110ACA
:102900000D4880ED000A0BE00B4890ED000AB5EE93
:10291000C00AF1EE10FA03D29FED0B0A80ED000A17
:10292000054890ED000ABDEC028BBDE8F081000087
:102930004600002044000020380000209A99999910
:1029400099F95840CDCCC7420000000070B500F0A6
:1029500087F8FFF72BFFCC2000F0BEF8BD2000F079
:10296000BBF800F06DF8054600F06AF806463446FC
:1029700045EA042004B204EB84014800C11700EBCF
:102980001161091201F5C87400EE104AB8EEC00AD0
:10299000F2EE040A80EE201A024880ED001A90ED53
:1029A000000A70BD3400002010B52DED028BFFF73A
:1029B0001BFFFFF7CBFFB0EE408AFFF715FFFFF7D5
:1029C00045FFF0EE408A0B4890ED000AB4EEC08A55
:1029D000F1EE10FA07DC084890ED000AF4EEC08A28
:1029E000F1EE10FA03DD0120BDEC028B10BD0020DA
:1029F000FAE700003C0000204000002010B5FFF77F
:102A0000B5FB02210D48FFF735F90220FEF76EFEF7
:102A100002210A48FFF730F9FFF794FB0820FEF780
:102A200065FE02210548FFF71CF908B1012400E00A
:102A300000243220FEF75AFE204610BD000002405E
:102A400070B50025002607E0FFF7D8FF0446E00137
:102A500040EA6500C5B2761C082EF5DB284670BD3D
:102A600010B5FFF783FB02210748FFF703F94FF486
:102A70007070FEF73BFE02210348FFF7FDF80F20C0
:102A8000FEF734FE10BD00000000024010B5044601
:102A9000FFF76CFB74B102210E48FFF7EBF805203D
:102AA000FEF724FE02210B48FFF7E6F83C20FEF774
:102AB0001DFE0DE002210748FFF7DCF83C20FEF781
:102AC00015FE02210348FFF7D7F80520FEF70EFE9A
:102AD00010BD00000000024070B50446002606E06C
:102AE00004F0010564102846FFF7D0FF761C082E7D
:102AF000F6DB70BD0CB500200190009033480068F3
:102B000040F480303149086000BF3048006800F46C
:102B1000003000900198401C0190009818B901986D
:102B2000B0F5A04FF1D12948006800F4003010B191
:102B30000120009001E0002000900098012844D17D
:102B400022484030006840F0805020494031086001
:102B50001F48006840F440401D4908601B48083089
:102B600000681A490831086008460068086008468D
:102B7000006840F4805008601648091F0860081F6C
:102B8000006840F08070091F086000BF0F480068AF
:102B900000F000700028F9D040F202700E49086081
:102BA0000A480830006820F003000849083108602E
:102BB0000846006840F00200086000BF0348083083
:102BC000006800F00C000828F8D10CBD0038024065
:102BD0000070004008544107003C024000B52DED54
:102BE000028B89B06249081FFFF7FAF86048401F5E
:102BF00080795F49491F49795D4A521FD278CDE9F2
:102C0000002102905A48401F8378027959A103A8F5
:102C100001F0B4FB0020162303AA01460090FEF742
:102C2000C1FE5348401F007E00F00400042804D178
:102C300056A103A801F0A2FB03E056A103A801F0EE
:102C40009DFB0020162303AA014600904E20FEF7AC
:102C5000A9FE52A103A801F091FB0120032303AABE
:102C6000014600900020FEF79DFE4DA103A801F053
:102C700085FB0120162303AA014600901820FEF7C9
:102C800091FE3B48401F007E00F01000102811D13B
:102C90003748401F90ED040A10EE101A0846FDF761
:102CA0001FFB41EC180B53EC182B41A103A801F0BA
:102CB00065FB10E02E48401F90ED040A10EE101A3C
:102CC0000846FDF70DFB41EC180B53EC182B3AA10D
:102CD00003A801F053FB0020162303AA0321009050
:102CE000FEF760FE2248401F007E00F00800082822
:102CF00011D11F48401F90ED040A10EE101A08462B
:102D0000FDF7EEFA41EC180B53EC182B2CA103A89D
:102D100001F034FB10E01648401F90ED040A10EE5D
:102D2000101A0846FDF7DCFA41EC180B53EC182B8F
:102D300026A103A801F022FB0020162303AA0321E9
:102D400000903020FEF72EFE0948401F827E22A10F
:102D500003A801F013FB0020162303AA032100900F
:102D60006C20FEF71FFE09B0BDEC028B00BD000019
:102D7000A10F0020253032642530326425303264C2
:102D800020253032643A2530326420005761746562
:102D9000724F4E004E6F5761746572002020200004
:102DA0004E4545442048454C50212020200000003D
:102DB00046616E204F4E200046616E204F46460011
:102DC0004C69676874204F4E200000004C696768AA
:102DD00074204F46460000002564000000B52DED2C
:102DE000028B89B07849081FFEF7FAFF7648401F2A
:102DF00080797549491F4979734A521FD278CDE9C4
:102E0000002102907048401F837802796FA103A8C7
:102E100001F0B4FA0020162303AA01460090FEF741
:102E2000C1FD6948401F007E00F00400042804D161
:102E30006CA103A801F0A2FA03E06CA103A801F0C1
:102E40009DFA0020162303AA014600904E20FEF7AB
:102E5000A9FD68A103A801F091FA0120032303AAA8
:102E6000014600900020FEF79DFD6349087800EBC5
:102E7000D0714910A0EB410189B95348401F90ED32
:102E8000030A10EE101A0846FDF72AFA41EC180B57
:102E900053EC182B59A103A801F070FA10E04A482E
:102EA000401F90ED040A10EE101A0846FDF718FABC
:102EB00041EC180B53EC182B54A103A801F05EFA57
:102EC0000120162303AA014600901820FEF76AFD90
:102ED0003D48401F007E00F01000102811D13A48F4
:102EE000401F90ED040A10EE101A0846FDF7F8F99D
:102EF00041EC180B53EC182B48A103A801F03EFA43
:102F000010E03148401F90ED040A10EE101A0846F8
:102F1000FDF7E6F941EC180B53EC182B41A103A87F
:102F200001F02CFA0020162303AA03210090FEF7DB
:102F300039FD2548401F007E00F00800082811D107
:102F40002148401F90ED040A10EE101A0846FDF7C4
:102F5000C7F941EC180B53EC182B34A103A801F06E
:102F60000DFA10E01848401F90ED040A10EE101AF8
:102F70000846FDF7B5F941EC180B53EC182B2EA1C0
:102F800003A801F0FBF90020162303AA03210090F7
:102F90003020FEF707FD0C48401F827E29A103A8C0
:102FA00001F0ECF90020162303AA032100906C2005
:102FB000FEF7F8FC10480078401C0F49087009B073
:102FC000BDEC028B00BD0000A10F00202530326453
:102FD000253032642530326420253032643A253081
:102FE0003264200057617465724F4E004E6F576116
:102FF00074657200202020008600002054656D70EA
:103000003A20252E326620200000000048756D3AD7
:1030100020252E32662020200000000046616E2010
:103020004F4E200046616E204F4646004C6967684F
:1030300074204F4E200000004C69676874204F4692
:10304000460000002564000000B52DED028B89B01C
:103050006249081FFEF7C4FE6048401F80795F493F
:10306000491F49795D4A521FD278CDE9002102906B
:103070005A48401F8378027959A103A801F07EF9CC
:103080000020162303AA01460090FEF78BFC53484C
:10309000401F007E00F00400042804D156A103A8BC
:1030A00001F06CF903E056A103A801F067F90020D4
:1030B000162303AA014600904E20FEF773FC52A18E
:1030C00003A801F05BF90120022303AA0146009046
:1030D0000020FEF767FC4DA103A801F04FF9012085
:1030E000162303AA014600900820FEF75BFC3B482C
:1030F000401F007E00F01000102811D13748401FFB
:1031000090ED040A10EE101A0846FDF7E9F841ECBC
:10311000180B53EC182B41A103A801F02FF910E074
:103120002E48401F90ED040A10EE101A0846FDF7D5
:10313000D7F841EC180B53EC182B3AA103A801F077
:103140001DF90020162303AA03210090FEF72AFC94
:103150002248401F007E00F00800082811D11F48B7
:10316000401F90ED040A10EE101A0846FDF7B8F85B
:1031700041EC180B53EC182B2CA103A801F0FEF81E
:1031800010E01648401F90ED040A10EE101A084691
:10319000FDF7A6F841EC180B53EC182B26A103A859
:1031A00001F0ECF80020162303AA03210090302040
:1031B000FEF7F8FB0948401F827E22A103A801F018
:1031C000DDF80020162303AA032100906C20FEF7EF
:1031D000E9FB09B0BDEC028B00BD0000A10F00208F
:1031E0002530326425303264253032642025303277
:1031F000643A25303264200057617465724F4E0086
:103200004E6F576174657200202000004465766936
:103210006365204661696C757265210046616E20A8
:103220004F4E200046616E204F4646004C6967684D
:1032300074204F4E200000004C69676874204F4690
:10324000460000002564000010B51848407E00F0DC
:103250001000102800D110BDFFF7A6FB88B1FEF7C3
:1032600059FC28B90020FDF773FC0A20FEF70EFA7E
:10327000FEF770FC0D48007E40F010000B49087608
:1032800011E0FEF747FC012805D10020FDF760FCA6
:103290000A20FEF7FBF9FEF76BFC0448007E20F0E5
:1032A00010000249087600BFD5E700009C0F0020FF
:1032B0000448007E00F0010008B1012070470020A2
:1032C000FCE700009C0F00200448007E00F0020094
:1032D000022801D1012070470020FCE79C0F00204C
:1032E0002DE9F047ADF5806D05460026002743E047
:1032F0004FF00008FEF780FD8146C24600BF6846D9
:10330000FEF712F88046B8F1000F26D09DF80000B5
:10331000242822D19DF8170024281ED19DF80140B1
:103320002248005DC8B9224901EB84201822694671
:10333000FCF7A2FF01201F49085522461EA1204884
:1033400001F01CF804231E4A21460120FEF704F870
:103350004FF0010A01201B490870FEF74DFDA0EB5C
:103360000900A84200D905E0B8F1000FC7D0BAF1B2
:10337000010FC4D100BF7F1C1348807E401CB8429F
:10338000B6DC0A480021016081808171012004E0DF
:103390000849095C3144CEB2401C0728F8DB0A48D2
:1033A00086760DF5806DBDE8F08700006F00002087
:1033B000B82B002068000020242563412400000071
:1033C000B8470020840000209C0F002010B5FFF7B4
:1033D0000BFAFFF73BFA024880ED040A10BD00002B
:1033E0009C0F002000B585B00A20FEF74FF9FEF7CC
:1033F00024FD00F04FF8FDF779FB0F20FDF7F8FBF7
:10340000FDF702FC1848038818480288184801781C
:1034100018480078FDF75EFCFEF7E0F9FEF78CF93E
:10342000154890ED000AFEF7A9FD00F036FA1348A2
:10343000D0ED000A124890ED000A00F07DFB11A3C8
:103440000FCBCDE90323CDE901010120FF2301AA20
:10345000014600901020FEF7A5FA0A20FEF73AF97F
:10346000FEF76AF905B000BD660000206400002088
:103470006200002060000020780000208000002012
:103480007C000020496E697469616C697A65642109
:103490000000000010B50E4800780E4908700E4874
:1034A000007888760C200876002048769FED0B0A7D
:1034B000084680ED050A9FED0A0A80ED040AB3EE86
:1034C0000E0A80ED030A411D401CFEF789FC10BD69
:1034D000600000209C0F0020610000200000000020
:1034E0000000B44210B52548407E00F008000828CE
:1034F00000D110BD21484079082816DB1F484079CB
:10350000122812DCFEF79AFD012805D10020FDF7F4
:103510001FFB0A20FEF7BAF8FEF7BEFD1748007E33
:1035200020F0080015490876E3E7FEF7E1FC88B1D2
:10353000FEF784FD28B90020FDF70AFB0A20FEF7FC
:10354000A5F8FEF79BFD0D48007E40F008000B49F2
:10355000087611E0FEF772FD012805D10020FDF785
:10356000F7FA0A20FEF792F8FEF796FD0348007E70
:1035700020F008000149087600BFBAE79C0F002040
:1035800010B5FEF7C7FC024880ED050A10BD00002B
:103590009C0F002070B5ADF5816D064624208DF896
:1035A0000800514800788DF809005048007E8DF8D9
:1035B0000A000DF10E004D49009091ED030ADFED78
:1035C0004C0A20EE200ABDEEC00A10EE100A0DF1E2
:1035D0000D0303AA511EFEF780FC0DF112004349B2
:1035E000009091ED040ADFED420A20EE200ABDEEC4
:1035F000C00A10EE100A0DF1110304AA511EFEF7C5
:103600006CFC0DF116003949009091ED050ADFEDD3
:10361000380A20EE200ABDEEC00A10EE100A0DF1A5
:10362000150305AA511EFEF758FC3048807E8DF820
:1036300017000025002414E02E48005D00B90FE0BB
:103640002D4A02EB842105EB4502102303EBC20255
:1036500002ABD0181822FCF70FFE681CC5B200BFE1
:10366000641C062CE8DB24202049897E01EB410103
:10367000102202EBC10102AA50540D201B49897E81
:1036800001EB4101112202EBC10102AA50540A20B0
:103690001649897E01EB4101122202EBC10102AA07
:1036A00050541248807E00EB4000132202EBC00110
:1036B00002A8FDF713FD00F097F890B9012341220D
:1036C00000210846FEF710F90520FDF7DFFF074847
:1036D000807E00EB4000132202EBC00102A8FDF740
:1036E000FDFC0DF5816D70BD600000209C0F002079
:1036F0000000C84268000020B82B002070B5ADF56E
:10370000806D054624480078012843D1234800787D
:1037100001283FD1FEF770FB0646002432E0204826
:10372000005D00B92DE01F4800EB8421202268468F
:10373000FCF7A2FD1B4800EB8420417820236A4659
:103740000120FDF709FE00BF0520FDF79FFF15488A
:1037500000EB8420417820236A460120FDF7FCFD20
:10376000FEF74AFB801BA84202D90DF5806D70BDA3
:103770000C4901EB8421487800F064F80028E3D07C
:1037800000BF641C062CCADB0020034908700349F3
:10379000087000BF00BFE8E784000020850000201B
:1037A00068000020B80F00200348007E40F00100B0
:1037B00001490876704700009C0F00200348007EF6
:1037C00040F0020001490876704700009C0F00207D
:1037D00010B5FFF709F8FFF7B9F8024880ED030AC2
:1037E00010BD00009C0F002010B5ADF5806D0024C9
:1037F00022E00120FDF74AFF6846FDF757FC00B9BB
:1038000019E09DF80000242803D19DF80300242826
:1038100000D010E09DF8010009490978884200D0E5
:1038200009E09DF80200412803D101200DF5806DCB
:1038300010BD0020FAE7641C0A2CDADB0020F5E753
:103840006000002030B5ADF2044D0446002520E0B4
:103850000120FDF71BFF01A8FDF766FD00B917E089
:103860009DF80400242803D19DF80700242800D0E7
:103870000EE09DF80500A04200D009E09DF806008A
:10388000412803D101200DF2044D30BD0020FAE79C
:103890006D1C0A2DDCDB0020F5E710B5FEF7D4FB2C
:1038A000FEF73EF910BD704710B51548006840F4AA
:1038B0007000134908601348006840F00100114986
:1038C000086000200F49083108600E4800680E4962
:1038D00008400C4908600D48091D0860081F006871
:1038E00020F48020091F0860002006490C31086080
:1038F000FFF700F94FF0006001498039086010BD02
:1039000088ED00E000380240FFFFF6FE1030002492
:1039100010B50121104800F0B0F8D8B101210E48CF
:1039200000F09CF800210C4800F09BF800210A48A8
:1039300000F0BDF820210948FEF793F950B9FFF7D0
:103940003DFFFFF781FB0120FDF702F94FF4FA700C
:10395000FDF79CFE10BD0000000400400000024086
:103960001FB501210220FEF72BFC0020ADF80C0052
:10397000ADF806006320029042F2CF00ADF80400DB
:1039800001A90B4800F096F81D208DF800000020DA
:103990008DF801008DF8020001208DF803006846C3
:1039A000FEF78CFB01221146014800F077F81FBD9D
:1039B0000004004010B50121114800F05EF8F0B19C
:1039C00001210F4800F04AF800210D4800F049F8A5
:1039D00000210B4800F06BF840210A48FEF741F93E
:1039E00068B9FFF7E1FEFFF76FFC08B9FFF7F6F8DB
:1039F0000120FDF7ADF84FF4FA70FDF747FE10BD5A
:103A000000080040000002401FB501210420FEF71D
:103A1000D7FB0020ADF80C00ADF806006320029043
:103A200042F2CF00ADF8040001A90B4800F042F8C3
:103A30001E208DF8000000208DF801008DF8020096
:103A400001208DF803006846FEF738FB012211467D
:103A5000014800F023F81FBD00080040CA4302825D
:103A6000704721B1028842F00102028004E002881E
:103A70004FF6FE731A400280704730B502460020B0
:103A800000230024158A05EA0103958905EA01044B
:103A900013B10CB1012000E0002030BD1AB18389C0
:103AA0000B43838102E083898B43838170474162AA
:103AB0007047000000220288184B98420ED0184B25
:103AC00098420BD0B0F1804F08D0164B984205D0E9
:103AD000154B984202D0154B984204D14FF68F7384
:103AE0001A404B881A43124B984207D0114B984208
:103AF00004D04FF6FF431A400B891A4302804B68EB
:103B0000C3620B880385054B984202D0044B984250
:103B100001D18B7A03860123838270470000014024
:103B2000000401400004004000080040000C004078
:103B3000001000400014004000B52DED028B83B052
:103B4000F0EE408AB0EE608A1348C0ED008A134858
:103B500080ED008A01210846FEF722FB0220019039
:103B600001208DF8080000208DF80A0002208DF851
:103B7000090001208DF80B0001A90948FEF706F89D
:103B800002210748FEF778F8FEF76AFFFEF70EFEFF
:103B900003B0BDEC028B00BD3C00002040000020C3
:103BA0000000024010B590B0044601218805FEF7E0
:103BB000F7FA4FF000600190002004900A904FF453
:103BC00040300B9000200C9003200D901A4802907A
:103BD0000020089006900F9018480390002009904C
:103BE0004FF48060079000200E904FF6FF70059014
:103BF00001A91348FDF71AFD12491148FDF79CFC75
:103C0000012210210E48FDF7F3FC44208DF800003E
:103C100002208DF8010000208DF8020001208DF8AF
:103C200003006846FEF74AFA01210548FDF79EFCAD
:103C30000548046010B010BD041001409C00002035
:103C400088640240008800204C00002010B590B02D
:103C5000044601218805FEF7A3FA4FF000600190A9
:103C60004020049000200A904FF440300B90002038
:103C70000C9003200D9017480290002008900690A9
:103C80000F90039409904FF48060079000200E90ED
:103C90004FF6FF70059001A90F48FDF7C7FC0F49CB
:103CA0000D48FDF749FC012210210B48FDF7A0FC4F
:103CB00046208DF8000002208DF8010000208DF8CC
:103CC000020001208DF803006846FEF7F7F910B0F6
:103CD00010BD000004100140B864024000800028BC
:103CE00010B540F224410B4800F06DF980B10A484C
:103CF000FDF747FC4FF6FF71081A084908800021BC
:103D00000548FDF733FC034800F016FAC4B200BFC3
:103D100010BD000000100140886402404A000020ED
:103D200000B585B001211020FEF75AFA4FF4E130BA
:103D300001900020ADF80800ADF80A00ADF80C00C5
:103D4000ADF810000C20ADF80E0001A9134800F0EA
:103D500089F9012240F22441104800F05EF9252043
:103D60008DF8000002208DF8010000208DF802007F
:103D700001208DF803006846FEF7A0F901224021DA
:103D8000064800F017F901228021044800F012F9DA
:103D90000121024800F002F905B000BD0010014009
:103DA00010B590B0044601218805FEF7F9F94FF0EF
:103DB00020600190002004900A904FF440300B9056
:103DC00000200C9003200D901A48029000200890CB
:103DD00006900F9018480390002009904FF48060DF
:103DE000079000200E904FF6FF70059001A9134830
:103DF000FDF71CFC12491148FDF79EFB0122102122
:103E00000E48FDF7F5FB39208DF8000002208DF8F3
:103E1000010000208DF8020001208DF803006846A3
:103E2000FEF74CF901210548FDF7A0FB05480460A9
:103E300010B010BD041401409C0100202864024011
:103E4000008800105400002010B590B004460121F5
:103E50008805FEF7A5F94FF02060019040200490FE
:103E600000200A904FF440300B9000200C9003206B
:103E70000D90174802900020089006900F90039430
:103E800009904FF48060079000200E904FF6FF706D
:103E9000059001A90F48FDF7C9FB0F490D48FDF733
:103EA0004BFB012210210B48FDF7A2FB45208DF8AA
:103EB000000002208DF8010000208DF80200012092
:103EC0008DF803006846FEF7F9F810B010BD000049
:103ED00004140140A06402400080202010B540F28C
:103EE00024410B4800F06FF880B10A48FDF749FB08
:103EF0004FF6FF71081A0849088000210548FDF7B0
:103F000035FB034800F018F9C4B200BF10BD000033
:103F100000140140286402405200002000B585B022
:103F200001212020FEF75CF94FF4E13001900020E0
:103F3000ADF80800ADF80A00ADF80C00ADF81000BF
:103F40000C20ADF80E0001A9134800F08BF80122F7
:103F500040F22441104800F060F847208DF800003E
:103F600002208DF8010000208DF8020001208DF85C
:103F700003006846FEF7A2F801224021064800F03F
:103F800019F801228021044800F014F801210248A8
:103F900000F004F805B000BD0014014021B1828991
:103FA00042F40052828104E082894DF6FF731A4088
:103FB000828170471AB1838A0B43838202E0838A2D
:103FC0008B438382704770B502460024002300258E
:103FD000002040F66A16B14200D100BFC1F342157D
:103FE00001F01F03012606FA03F3012D02D1968981
:103FF000334006E0022D02D1168A334001E0968A52
:1040000033400C12012606FA04F41688344013B12A
:104010000CB1012000E0002070BDF0B50346002483
:1040200000260025002040F66A17B94200D100BFE3
:104030001846C1F3421401F01F06012707FA06F5DE
:10404000012C01D10C3004E0022C01D1103000E031
:1040500014301AB107682F43076002E00768AF43C6
:104060000760F0BD2DE9FF4705460E460024A14636
:1040700000BFA046B08900B100BF2C8A24F4405490
:10408000F08804432C82AC8941F20C608443B088F0
:1040900031890843718908430443AC81AC8A24F414
:1040A0004074B0890443AC826846FEF7B9F82048F2
:1040B000854202D01F48854202D1DDF80C9001E014
:1040C000DDF80890A88900F4004040B109EBC90070
:1040D00000EB091031684900B0FBF1F707E009EB8C
:1040E000C90000EB091031688900B0FBF1F76420CA
:1040F000B7FBF0F004012009642101FB1078A889C6
:1041000000F4004040B1322000EBC800B0FBF1F0F9
:1041100000F00700044308E0322000EB081064219F
:10412000B0FBF1F000F00F0004432C81BDE8FF87E5
:10413000001001400014014001468888C0F30800C7
:10414000704700BFFEE700007CB505460C46012124
:104150000420FEF725F8082206211948FDF75EFD28
:104160004020009002208DF8040000208DF8060009
:1041700001208DF8070002208DF8050069461048DF
:10418000FDF704FD01210420FEF70AF808220721AB
:104190000B48FDF743FD8020009002208DF80400BD
:1041A00000208DF8070069460548FDF7EFFCFFF792
:1041B000B5FE2046FFF7F4FD2846FFF745FE7CBD1F
:1041C0000008024070B50446002607E00C4800785D
:1041D00000B105E00120FDF759FA761CA642F5DB97
:1041E00000BF0748007810B90648008870BD054830
:1041F0000588002002490870024908802846F5E732
:10420000500000205200002070B504460D4604B94D
:1042100070BD002607E01048007800B105E00120DD
:10422000FDF734FA761CAE42F5DB00BF0A48007891
:1042300000B9EDE700210948FDF798F92146074844
:10424000FDF720FA00200449087001210348FDF71A
:104250008DF900BFDCE7000051000020A06402409F
:104260007CB505460C4601210846FDF799FF07225B
:1042700009211A48FDF7D2FC4FF40070009002208B
:104280008DF8040000208DF8060001208DF807004D
:1042900002208DF8050069461048FDF777FC0121E2
:1042A0000846FDF77DFF07220A210C48FDF7B6FC02
:1042B0004FF48060009002208DF8040000208DF8FB
:1042C000070069460548FDF761FCFFF729FD204618
:1042D000FFF768FC2846FFF7B9FC7CBD00000240F0
:1042E00070B50446002607E00C48007800B105E0F0
:1042F0000120FDF7CBF9761CA642F5DB00BF07488D
:10430000007810B90648008870BD0548058800206F
:1043100002490870024908802846F5E74800002055
:104320004A00002070B504460D4604B970BD002651
:1043300007E01048007800B105E00120FDF7A6F97C
:10434000761CAE42F5DB00BF0A48007800B9EDE705
:1043500000210948FDF70AF921460748FDF792F9BF
:1043600000200449087001210348FDF7FFF800BF51
:10437000DCE7000049000020B86402400FB4084B9D
:1043800010B504A902AA039800F0DEF8044602A9B9
:10439000002000F05CFC204610BC5DF814FB00001F
:1043A0004F4C000802E008C8121F08C1002AFAD1C9
:1043B00070477047002001E001C1121F002AFBD1A5
:1043C000704700002DE9FF5F82B00021DDE9043075
:1043D000020DDDF840B0034318D044F61050A2F2AD
:1043E000FF3242431514119801281FD0A5EB0B0092
:1043F000401C5FEA000A4FF000064E4FDFF838918C
:10440000B046504615D5CAF1000413E011980124B6
:104410004AA3012801D16FEA0B010298119AC0E961
:104420000031C0E9024206B0BDE8F09FCBF10000C8
:10443000DFE704460021404A491842EB0450CDE929
:10444000001012E0E00707D032463B46404649469E
:10445000FCF7A7F88046894632463B461046194687
:10446000FCF79FF806460F466410002CEAD1DDE900
:104470000401DDE90023BAF1000F06DAFCF791F838
:1044800042464B46FCF78DF805E0FCF7FCF8424647
:104490004B46FCF7F8F804460E460022284BFBF783
:1044A00033FF03D84FF0FF30014607E00022254BD1
:1044B00020463146FBF7CEFFFCF754F9102409E003
:1044C000002C0ADB0A220023FBF74CFF039B30324F
:1044D0001A55641E50EA0102F2D1641C039AC4F119
:1044E00011031444119A012A03D0012208430DD16B
:1044F0000AE0084304D000204FF0110B119072E73E
:10450000A3EB0B056D1E0DE05B4504DD4FF00002D3
:1045100005F1010504E003DA4FF00002A5F1010501
:10452000002AECD002981199C0E90231C0E9004597
:1045300079E70000000014400000F03F3000000068
:104540000000F0430000E03F2DE9FF4F95B09A4690
:10455000884606460025EEE1252877D10024274627
:10456000F94A0121039400E0044316F8013F203B7F
:1045700001FA03F01042F7D130782A2811D06FF0F9
:104580002F033078A0F13002092A16D8039A44F09C
:10459000020402EB820203EB42021044761C0390F9
:1045A000EFE758F8042B0392002A03DA504244F450
:1045B0000054039044F00204761C30782E2816D163
:1045C00016F8010F44F004042A280DD06FF02F02D2
:1045D0003078A0F13003092B09D807EB870302EBF1
:1045E0004303C718761CF3E758F8047B761C307831
:1045F0006C280FD006DC4C2817D068280DD06A280C
:1046000014D104E0742810D07A280FD10DE044F4BE
:1046100000140AE044F4801401E044F44014727879
:10462000824202D104F58014761C761C307866280C
:104630000BD013DC582877D009DC002875D045282A
:10464000F6D04628F4D047281AD193E118E0632821
:1046500035D0642879D0652812D18BE1702873D0C9
:1046600008DC6728F1D069286FD06E280DD06F283C
:1046700006D1ACE073282CD0752874D0782853D09C
:104680005246179990476D1C54E1C4F3025002281A
:1046900009D003280DD0D8F8001004280DD00D60E3
:1046A00008F1040846E1D8F80010EA17C1E9005201
:1046B000F6E7D8F800100D80F2E70D70F0E718F873
:1046C000041B8DF8001000208DF80100EB4601203E
:1046D00003E058F804BB4FF0FF3061074FF00001D2
:1046E00002D40DE009F101018946B9420FDA814592
:1046F000F8DB1BF809100029F4D108E009F10101E9
:1047000089468142FADB1BF809100029F6D103988B
:104710005346A0EB090721463846179A00F080FA65
:10472000284400EB090507E044E008E10DE01BF830
:10473000010B524617999047B9F10109F7D2534638
:1047400021463846179AF2E039E00A21C4F30252B2
:104750004FF0000B0091022A06D058F8040BC11745
:10476000032A09D00AE023E008F1070020F007023D
:10477000F2E80201904605E000B2C117042A01D117
:1047800040B2C117002906DA0A460021404261EB17
:1047900002012D2202E0220504D52B228DF80420EF
:1047A000012203E0E20701D02022F7E7914657E01B
:1047B0000A2100E010214FF0000B00910BE01021C6
:1047C0004FF0000B44F004040827009103E0082098
:1047D0004FF0000B0090C4F30252022A05D058F8A3
:1047E000040B0021032A08D008E008F1070020F09C
:1047F0000702F2E80201904603E080B2042A00D1E9
:10480000C0B24FF0000922072AD53278702A07D0AB
:10481000DDF800C08CF0100C5CEA0B0C05D00EE04B
:1048200040228DF80420012208E050EA010306D05E
:1048300030238DF804308DF8052002229146009B2C
:1048400083F0080353EA0B030AD150EA010201D1B5
:10485000620705D530228DF804204FF001097F1E34
:104860003278582A04D039A20C920CAA02920BE09A
:104870003BA2F9E75B46009AFBF774FD0C9B9B5C3F
:10488000029A521E0292137050EA0102F2D102986B
:1048900004A9081A00F1200B600702D524F4803423
:1048A00000E001275F4502DDA7EB0B0000E00020E0
:1048B00000EB0B01009003984944401A0390E00379
:1048C00006D453462146179A039800F0A9F90544E7
:1048D000002706E001A85246C05D179990476D1C5D
:1048E0007F1C4F45F6DBE0030CD553462146179A53
:1048F000039800F095F9054404E0302052461799DA
:1049000090476D1C0099481E00900029F5DC08E0D6
:104910000298029952460078491C029117999047D3
:104920006D1CBBF10001ABF1010BF1DC5BE100F0B0
:1049300065F90544761C307800287FF40DAE19B077
:104940002846BDE8F08F00000928010030313233DD
:1049500034353637383961626364656600000000BB
:1049600030313233343536373839414243444546A5
:1049700000000000600700D4062708F1070020F0BF
:104980000700F0E80223804603F0004C5FEA0C00C9
:1049900001D097A009E0200501D596A005E0E00729
:1049A00001D095A001E0AFF24C001390307823F0D5
:1049B000004365280CD006DC452809D046281DD0C8
:1049C00047287FD13BE0662818D067287AD136E0A7
:1049D0000021112F01DB112000E0781CCDE900013E
:1049E00004A90CA8FFF7EEFCDDE90D010C9A4FF0CD
:1049F000000B07F10109109200914EE04FF00040CA
:104A00000097CDE9011004A90CA8FFF7DBFCDDE954
:104A10000D020C9B0F994FF0000B914610930092E2
:104A200011B9791C00EB0109B7EB090003D4C0F1FF
:104A3000FF3B07F10109A9EB0700019042E0012FBC
:104A400000DA01270021112F01DD112000E0384696
:104A5000CDE9000104A90CA8FFF7B4FCDDE90D01C4
:104A60000C9A00914FF0000BB946109221070FD419
:104A7000009A4A4503DA914601E0A9F10109B9F12A
:104A8000010F05DD109AA9F10101515C3029F4D024
:104A9000B84202DA10F1040F03DA0121CDE9011066
:104AA00010E0002803DC8344A9EB000102E0411C74
:104AB000494500DD8946A0EB0B00401C01904FF0FA
:104AC00000400290200705D40198484502DB4FF0D2
:104AD000FF30019000208DF84B0002980DF14B073C
:104AE000B0F1004F25D002200C902B200D900298A1
:104AF00000280CDA404202902D200D9007E00A2198
:104B00000298FBF719FC3031029007F8011D0C994F
:104B1000481E0C900029F2DC02980028EFD1791E83
:104B20000D980870307800F0200040F0450007F83C
:104B3000020D11A8C01BC01D02901398007800B18F
:104B4000012000EB0901019801EBE071029801449A
:104B50000398401A401E0390E00306D453462146B2
:104B6000179A039800F05CF805441398007818B180
:104B70005246179990476D1CE00323D553462146B2
:104B8000179A039800F04CF805441BE0BBF1000FA6
:104B900007DB0098584504DD1098179910F80B00B2
:104BA00001E0179930205246904701980BF1010B14
:104BB000401E05F10105019004D12E20524617999F
:104BC00090476D1CB9F10001A9F10109DEDC05E097
:104BD00017F8010B5246179990476D1C0299481E11
:104BE00002900029F4DC53462146179A03989EE66A
:104BF0002D0000002B000000200000002DE9F041F6
:104C0000044600251E461746880404D405E03946AC
:104C10002020B0476D1C641EF9D52846BDE8F08100
:104C20002DE9F041044600251E469046C80301D5F3
:104C3000302700E02027880404D505E041463846A7
:104C4000B0476D1C641EF9D52846BDE8F0810A689E
:104C5000531C0B6010707047FEF7C4FB23E002206A
:104C6000FEF73EFB0220FEF795FC0220FEF746FD14
:104C7000FEF72AFB10B1FEF7E7F911E0FEF718FB8B
:104C800010B1FDF7ABFF0BE0FEF7A2FDFEF79EFBB8
:104C9000FEF7DAFAFEF774FCFEF724FCFEF79EF846
:104CA0000120FCF717FDDAE700000000000000001B
:104CB000002F000000000700070000147F147F147D
:104CC00000242A7F2A120062640813230036495503
:104CD000225000000503000000001C2241000000DB
:104CE00041221C000014083E08140008083E080871
:104CF000000000A0600000080808080800006060CC
:104D00000000002010080402003E5149453E00000A
:104D1000427F4000004261514946002141454B31EC
:104D2000001814127F10002745454539003C4A49B8
:104D3000493000017109050300364949493600062A
:104D40004949291E00003636000000005636000092
:104D5000000814224100001414141414000041220D
:104D6000140800020151090600324959513E007CE5
:104D70001211127C007F49494936003E41414122CF
:104D8000007F4141221C007F49494941007F0909B8
:104D90000901003E4149497A007F0808087F000068
:104DA000417F4100002040413F01007F0814224123
:104DB000007F40404040007F020C027F007F0408DB
:104DC000107F003E4141413E007F09090906003E37
:104DD0004151215E007F0919294600464949493160
:104DE0000001017F0101003F4040403F001F204083
:104DF000201F003F4038403F006314081463000741
:104E00000870080700615149454300007F41410097
:104E100000552A552A55000041417F000004020137
:104E20000204004040404040000001020400002015
:104E300054545478007F4844443800384444442053
:104E400000384444487F00385454541800087E0900
:104E500001020018A4A4A47C007F080404780000C8
:104E6000447D4000004080847D00007F1028440085
:104E70000000417F4000007C04180478007C080496
:104E8000047800384444443800FC242424180018D2
:104E9000242418FC007C08040408004854545420BE
:104EA00000043F444020003C4040207C001C204047
:104EB000201C003C4030403C004428102844001C8A
:104EC000A0A0A07C004464544C4414141414141482
:104ED00000000000000000000000000000000000D2
:104EE000000000F800000000000000333000000067
:104EF00000100C06100C060000000000000000006E
:104F000040C07840C0784000043F04043F040400DF
:104F1000007088FC08300000001820FF211E0000EF
:104F2000F008F000E018000000211C031E211E0004
:104F300000F00888700000001E212324192721108A
:104F400010160E000000000000000000000000002D
:104F5000000000E0180402000000000718204000D4
:104F600000020418E00000000040201807000000C4
:104F7000404080F0804040000202010F0102020028
:104F8000000000F0000000000101011F010101000C
:104F9000000000000000000080B070000000000071
:104FA00000000000000000000001010101010101FA
:104FB0000000000000000000003030000000000091
:104FC0000000000080601804006018060100000066
:104FD00000E010080810E000000F102020100F0063
:104FE000001010F8000000000020203F20200000EA
:104FF0000070080808887000003028242221300042
:1050000000300888884830000018202020110E0049
:105010000000C02010F8000000070424243F2400F2
:1050200000F80888880808000019212020110E00C7
:1050300000E0108888180000000F112020110E00D9
:1050400000380808C83808000000003F00000000D1
:105050000070880808887000001C222121221C0092
:1050600000E010080810E0000000312222110F00BB
:10507000000000C0C0000000000000303000000050
:1050800000000080000000000000806000000000C0
:1050900000008040201008000001020408102000D9
:1050A0004040404040404000040404040404040024
:1050B00000081020408000000020100804020100B9
:1050C000007048080808F0000000003036010000B9
:1050D000C030C828E810E0000718272423140B006C
:1050E0000000C038E0000000203C230202273820E6
:1050F00008F8888888700000203F202020110E00CA
:10510000C0300808080838000718202020100800C0
:1051100008F808080810E000203F202020100F00A9
:1051200008F88888E8081000203F20202320180075
:1051300008F88888E8081000203F200003000000DD
:10514000C03008080838000007182020221E02007E
:1051500008F808000008F808203F210101213F203D
:10516000000808F8080800000020203F2020000068
:1051700000000808F8080800C08080807F00000058
:1051800008F888C028180800203F20012638200091
:1051900008F8080000000000203F202020203000F8
:1051A00008F8F800F8F80800203F003F003F200012
:1051B00008F830C00008F808203F200007183F001A
:1051C000E01008080810E0000F10202020100F0049
:1051D00008F808080808F000203F2101010100003C
:1051E000E01008080810E0000F18242438504F0081
:1051F00008F8888888887000203F2000030C302041
:1052000000708808080838000038202121221C007E
:10521000180808F8080818000000203F20000000C7
:1052200008F808000008F808001F202020201F00B0
:105230000878880000C83808000007380E01000010
:10524000F80800F80008F800033C0700073C0300DA
:10525000081868808068180820302C03032C302040
:105260000838C800C83808000000203F20000000AF
:1052700010080808C8380800203826212020180007
:10528000000000FE020202000000007F40404000DB
:10529000000C30C000000000000000010638C00013
:1052A00000020202FE000000004040407F000000BB
:1052B00000000402020204000000000000000000E0
:1052C00000000000000000008080808080808080DE
:1052D00000020204000000000000000000000000C6
:1052E00000008080808000000019242222223F20BC
:1052F00008F8008080000000003F112020110E00FF
:105300000000008080800000000E1120202011008D
:10531000000000808088F800000E112020103F203F
:105320000000808080800000001F222222221300C3
:10533000008080F0888888180020203F202000000E
:105340000000808080808000006B949494936000C3
:1053500008F8008080800000203F210000203F20CE
:1053600000809898000000000020203F20200000CE
:10537000000000809898000000C08080807F0000BE
:1053800008F8000080808000203F24022D3020009B
:10539000000808F8000000000020203F2020000046
:1053A0008080808080808000203F20003F20003F60
:1053B0008080008080800000203F210000203F206E
:1053C0000000808080800000001F202020201F001F
:1053D000808000808000000080FFA12020110E004E
:1053E0000000008080808000000E112020A0FF803F
:1053F000808080008080800020203F2120000100EC
:105400000000808080808000003324242424190040
:10541000008080E0808000000000001F202000004D
:105420008080000000808000001F202020103F208E
:10543000808080000080808000010E30080601001E
:1054400080800080008080800F300C030C300F00C3
:1054500000808000808080000020312E0E312000EE
:10546000808080000080808080818E70180601001E
:1054700000808080808080000021302C222130003C
:1054800000000000807C020200000000003F40405D
:1054900000000000FF00000000000000FF0000000E
:1054A0000002027C800000000040403F000000003D
:1054B00000060101020204040000000000000000D8
:1054C00022696E73616E6974792200223230303144
:1054D000303132302200223139322E3136382E31FD
:1054E00033372E31220010271F1C1F1E1F1E1F1FA7
:1054F0001E1F1E1F1F1D1F1E1F1E1F1F1E1F1E1FC4
:10550000205500080000002088000000A443000887
:10551000A85500088800002030530000B44300085C
:1055200000BD0105000000000000000001020304AE
:105530000607080900000000010203040102030439
:105540000607080900000000333333403333533A71
:105550000000000000000000000000000000D0413A
:105560000000F04100000000000100000000000009
:105570000001000000000000010F341211110000B2
:1055800001000F00341211110000000000000000A3
:1055900000000000000000003333D33F0000F04162
:0855A000000048420000000079
:040000050800019559
:00000001FF
